{
	"contracts/Smart_Hat.sol": {
		"Smart_Hat": {
			"abi": [
				{
					"inputs": [],
					"stateMutability": "nonpayable",
					"type": "constructor"
				},
				{
					"inputs": [],
					"name": "aggiungi_spilla",
					"outputs": [],
					"stateMutability": "nonpayable",
					"type": "function"
				},
				{
					"inputs": [],
					"name": "crea_cappellino",
					"outputs": [
						{
							"internalType": "enum Gestione_Esami.examState",
							"name": "_e1",
							"type": "uint8"
						},
						{
							"internalType": "enum Gestione_Esami.examState",
							"name": "_e2",
							"type": "uint8"
						}
					],
					"stateMutability": "view",
					"type": "function"
				}
			],
			"devdoc": {
				"kind": "dev",
				"methods": {},
				"version": 1
			},
			"evm": {
				"assembly": "    /* \"contracts/Smart_Hat.sol\":92:451  contract Smart_Hat {\r... */\n  mstore(0x40, 0x80)\n    /* \"contracts/Smart_Hat.sol\":157:220  constructor() {\r... */\n  callvalue\n  dup1\n  iszero\n  tag_1\n  jumpi\n  0x00\n  dup1\n  revert\ntag_1:\n  pop\n    /* \"contracts/Smart_Hat.sol\":192:212  new Gestione_Esami() */\n  mload(0x40)\n  tag_4\n  swap1\n  tag_5\n  jump\t// in\ntag_4:\n  mload(0x40)\n  dup1\n  swap2\n  sub\n  swap1\n  0x00\n  create\n  dup1\n  iszero\n  dup1\n  iszero\n  tag_6\n  jumpi\n  returndatasize\n  0x00\n  dup1\n  returndatacopy\n  revert(0x00, returndatasize)\ntag_6:\n  pop\n    /* \"contracts/Smart_Hat.sol\":182:189  manager */\n  0x00\n  dup1\n    /* \"contracts/Smart_Hat.sol\":182:212  manager = new Gestione_Esami() */\n  0x0100\n  exp\n  dup2\n  sload\n  dup2\n  0xffffffffffffffffffffffffffffffffffffffff\n  mul\n  not\n  and\n  swap1\n  dup4\n  0xffffffffffffffffffffffffffffffffffffffff\n  and\n  mul\n  or\n  swap1\n  sstore\n  pop\n    /* \"contracts/Smart_Hat.sol\":92:451  contract Smart_Hat {\r... */\n  jump(tag_7)\ntag_5:\n  dataSize(sub_1)\n  dup1\n  dataOffset(sub_1)\n  dup4\n  codecopy\n  add\n  swap1\n  jump\t// out\ntag_7:\n  dataSize(sub_0)\n  dup1\n  dataOffset(sub_0)\n  0x00\n  codecopy\n  0x00\n  return\nstop\n\nsub_0: assembly {\n        /* \"contracts/Smart_Hat.sol\":92:451  contract Smart_Hat {\r... */\n      mstore(0x40, 0x80)\n      callvalue\n      dup1\n      iszero\n      tag_1\n      jumpi\n      0x00\n      dup1\n      revert\n    tag_1:\n      pop\n      jumpi(tag_2, lt(calldatasize, 0x04))\n      shr(0xe0, calldataload(0x00))\n      dup1\n      0x213606cf\n      eq\n      tag_3\n      jumpi\n      dup1\n      0x6d62c6f7\n      eq\n      tag_4\n      jumpi\n    tag_2:\n      0x00\n      dup1\n      revert\n        /* \"contracts/Smart_Hat.sol\":228:398  function crea_cappellino() public view returns(Gestione_Esami.examState _e1, Gestione_Esami.examState _e2) {\r... */\n    tag_3:\n      tag_5\n      tag_6\n      jump\t// in\n    tag_5:\n      mload(0x40)\n      tag_7\n      swap3\n      swap2\n      swap1\n      tag_8\n      jump\t// in\n    tag_7:\n      mload(0x40)\n      dup1\n      swap2\n      sub\n      swap1\n      return\n        /* \"contracts/Smart_Hat.sol\":406:448  function aggiungi_spilla() public {\r... */\n    tag_4:\n      tag_9\n      tag_10\n      jump\t// in\n    tag_9:\n      stop\n        /* \"contracts/Smart_Hat.sol\":228:398  function crea_cappellino() public view returns(Gestione_Esami.examState _e1, Gestione_Esami.examState _e2) {\r... */\n    tag_6:\n        /* \"contracts/Smart_Hat.sol\":275:303  Gestione_Esami.examState _e1 */\n      0x00\n        /* \"contracts/Smart_Hat.sol\":305:333  Gestione_Esami.examState _e2 */\n      dup1\n        /* \"contracts/Smart_Hat.sol\":357:364  manager */\n      0x00\n      dup1\n      sload\n      swap1\n      0x0100\n      exp\n      swap1\n      div\n      0xffffffffffffffffffffffffffffffffffffffff\n      and\n        /* \"contracts/Smart_Hat.sol\":357:378  manager.getExamsState */\n      0xffffffffffffffffffffffffffffffffffffffff\n      and\n      0x7366f53b\n        /* \"contracts/Smart_Hat.sol\":379:389  msg.sender */\n      caller\n        /* \"contracts/Smart_Hat.sol\":357:390  manager.getExamsState(msg.sender) */\n      mload(0x40)\n      dup3\n      0xffffffff\n      and\n      0xe0\n      shl\n      dup2\n      mstore\n      0x04\n      add\n      tag_12\n      swap2\n      swap1\n      tag_13\n      jump\t// in\n    tag_12:\n      0x40\n      dup1\n      mload\n      dup1\n      dup4\n      sub\n      dup2\n      dup7\n      dup1\n      extcodesize\n      iszero\n      dup1\n      iszero\n      tag_14\n      jumpi\n      0x00\n      dup1\n      revert\n    tag_14:\n      pop\n      gas\n      staticcall\n      iszero\n      dup1\n      iszero\n      tag_16\n      jumpi\n      returndatasize\n      0x00\n      dup1\n      returndatacopy\n      revert(0x00, returndatasize)\n    tag_16:\n      pop\n      pop\n      pop\n      pop\n      mload(0x40)\n      returndatasize\n      not(0x1f)\n      0x1f\n      dup3\n      add\n      and\n      dup3\n      add\n      dup1\n      0x40\n      mstore\n      pop\n      dup2\n      add\n      swap1\n      tag_17\n      swap2\n      swap1\n      tag_18\n      jump\t// in\n    tag_17:\n        /* \"contracts/Smart_Hat.sol\":346:390  (_e1, _e2)=manager.getExamsState(msg.sender) */\n      dup1\n      swap3\n      pop\n      dup2\n      swap4\n      pop\n      pop\n      pop\n        /* \"contracts/Smart_Hat.sol\":228:398  function crea_cappellino() public view returns(Gestione_Esami.examState _e1, Gestione_Esami.examState _e2) {\r... */\n      swap1\n      swap2\n      jump\t// out\n        /* \"contracts/Smart_Hat.sol\":406:448  function aggiungi_spilla() public {\r... */\n    tag_10:\n      jump\t// out\n        /* \"#utility.yul\":7:172   */\n    tag_21:\n        /* \"#utility.yul\":75:80   */\n      0x00\n        /* \"#utility.yul\":106:112   */\n      dup2\n        /* \"#utility.yul\":100:113   */\n      mload\n        /* \"#utility.yul\":91:113   */\n      swap1\n      pop\n        /* \"#utility.yul\":122:166   */\n      tag_23\n        /* \"#utility.yul\":160:165   */\n      dup2\n        /* \"#utility.yul\":122:166   */\n      tag_24\n      jump\t// in\n    tag_23:\n        /* \"#utility.yul\":7:172   */\n      swap3\n      swap2\n      pop\n      pop\n      jump\t// out\n        /* \"#utility.yul\":178:729   */\n    tag_18:\n        /* \"#utility.yul\":279:285   */\n      0x00\n        /* \"#utility.yul\":287:293   */\n      dup1\n        /* \"#utility.yul\":336:338   */\n      0x40\n        /* \"#utility.yul\":324:333   */\n      dup4\n        /* \"#utility.yul\":315:322   */\n      dup6\n        /* \"#utility.yul\":311:334   */\n      sub\n        /* \"#utility.yul\":307:339   */\n      slt\n        /* \"#utility.yul\":304:423   */\n      iszero\n      tag_26\n      jumpi\n        /* \"#utility.yul\":342:421   */\n      tag_27\n      tag_28\n      jump\t// in\n    tag_27:\n        /* \"#utility.yul\":304:423   */\n    tag_26:\n        /* \"#utility.yul\":462:463   */\n      0x00\n        /* \"#utility.yul\":487:562   */\n      tag_29\n        /* \"#utility.yul\":554:561   */\n      dup6\n        /* \"#utility.yul\":545:551   */\n      dup3\n        /* \"#utility.yul\":534:543   */\n      dup7\n        /* \"#utility.yul\":530:552   */\n      add\n        /* \"#utility.yul\":487:562   */\n      tag_21\n      jump\t// in\n    tag_29:\n        /* \"#utility.yul\":477:562   */\n      swap3\n      pop\n        /* \"#utility.yul\":433:572   */\n      pop\n        /* \"#utility.yul\":611:613   */\n      0x20\n        /* \"#utility.yul\":637:712   */\n      tag_30\n        /* \"#utility.yul\":704:711   */\n      dup6\n        /* \"#utility.yul\":695:701   */\n      dup3\n        /* \"#utility.yul\":684:693   */\n      dup7\n        /* \"#utility.yul\":680:702   */\n      add\n        /* \"#utility.yul\":637:712   */\n      tag_21\n      jump\t// in\n    tag_30:\n        /* \"#utility.yul\":627:712   */\n      swap2\n      pop\n        /* \"#utility.yul\":582:722   */\n      pop\n        /* \"#utility.yul\":178:729   */\n      swap3\n      pop\n      swap3\n      swap1\n      pop\n      jump\t// out\n        /* \"#utility.yul\":735:853   */\n    tag_31:\n        /* \"#utility.yul\":822:846   */\n      tag_33\n        /* \"#utility.yul\":840:845   */\n      dup2\n        /* \"#utility.yul\":822:846   */\n      tag_34\n      jump\t// in\n    tag_33:\n        /* \"#utility.yul\":817:820   */\n      dup3\n        /* \"#utility.yul\":810:847   */\n      mstore\n        /* \"#utility.yul\":735:853   */\n      pop\n      pop\n      jump\t// out\n        /* \"#utility.yul\":859:1008   */\n    tag_35:\n        /* \"#utility.yul\":955:1001   */\n      tag_37\n        /* \"#utility.yul\":995:1000   */\n      dup2\n        /* \"#utility.yul\":955:1001   */\n      tag_38\n      jump\t// in\n    tag_37:\n        /* \"#utility.yul\":950:953   */\n      dup3\n        /* \"#utility.yul\":943:1002   */\n      mstore\n        /* \"#utility.yul\":859:1008   */\n      pop\n      pop\n      jump\t// out\n        /* \"#utility.yul\":1014:1236   */\n    tag_13:\n        /* \"#utility.yul\":1107:1111   */\n      0x00\n        /* \"#utility.yul\":1145:1147   */\n      0x20\n        /* \"#utility.yul\":1134:1143   */\n      dup3\n        /* \"#utility.yul\":1130:1148   */\n      add\n        /* \"#utility.yul\":1122:1148   */\n      swap1\n      pop\n        /* \"#utility.yul\":1158:1229   */\n      tag_40\n        /* \"#utility.yul\":1226:1227   */\n      0x00\n        /* \"#utility.yul\":1215:1224   */\n      dup4\n        /* \"#utility.yul\":1211:1228   */\n      add\n        /* \"#utility.yul\":1202:1208   */\n      dup5\n        /* \"#utility.yul\":1158:1229   */\n      tag_31\n      jump\t// in\n    tag_40:\n        /* \"#utility.yul\":1014:1236   */\n      swap3\n      swap2\n      pop\n      pop\n      jump\t// out\n        /* \"#utility.yul\":1242:1610   */\n    tag_8:\n        /* \"#utility.yul\":1381:1385   */\n      0x00\n        /* \"#utility.yul\":1419:1421   */\n      0x40\n        /* \"#utility.yul\":1408:1417   */\n      dup3\n        /* \"#utility.yul\":1404:1422   */\n      add\n        /* \"#utility.yul\":1396:1422   */\n      swap1\n      pop\n        /* \"#utility.yul\":1432:1512   */\n      tag_42\n        /* \"#utility.yul\":1509:1510   */\n      0x00\n        /* \"#utility.yul\":1498:1507   */\n      dup4\n        /* \"#utility.yul\":1494:1511   */\n      add\n        /* \"#utility.yul\":1485:1491   */\n      dup6\n        /* \"#utility.yul\":1432:1512   */\n      tag_35\n      jump\t// in\n    tag_42:\n        /* \"#utility.yul\":1522:1603   */\n      tag_43\n        /* \"#utility.yul\":1599:1601   */\n      0x20\n        /* \"#utility.yul\":1588:1597   */\n      dup4\n        /* \"#utility.yul\":1584:1602   */\n      add\n        /* \"#utility.yul\":1575:1581   */\n      dup5\n        /* \"#utility.yul\":1522:1603   */\n      tag_35\n      jump\t// in\n    tag_43:\n        /* \"#utility.yul\":1242:1610   */\n      swap4\n      swap3\n      pop\n      pop\n      pop\n      jump\t// out\n        /* \"#utility.yul\":1697:1793   */\n    tag_34:\n        /* \"#utility.yul\":1734:1741   */\n      0x00\n        /* \"#utility.yul\":1763:1787   */\n      tag_47\n        /* \"#utility.yul\":1781:1786   */\n      dup3\n        /* \"#utility.yul\":1763:1787   */\n      tag_48\n      jump\t// in\n    tag_47:\n        /* \"#utility.yul\":1752:1787   */\n      swap1\n      pop\n        /* \"#utility.yul\":1697:1793   */\n      swap2\n      swap1\n      pop\n      jump\t// out\n        /* \"#utility.yul\":1799:1932   */\n    tag_49:\n        /* \"#utility.yul\":1847:1854   */\n      0x00\n        /* \"#utility.yul\":1876:1881   */\n      dup2\n        /* \"#utility.yul\":1865:1881   */\n      swap1\n      pop\n        /* \"#utility.yul\":1882:1926   */\n      tag_51\n        /* \"#utility.yul\":1920:1925   */\n      dup3\n        /* \"#utility.yul\":1882:1926   */\n      tag_52\n      jump\t// in\n    tag_51:\n        /* \"#utility.yul\":1799:1932   */\n      swap2\n      swap1\n      pop\n      jump\t// out\n        /* \"#utility.yul\":1938:2064   */\n    tag_48:\n        /* \"#utility.yul\":1975:1982   */\n      0x00\n        /* \"#utility.yul\":2015:2057   */\n      0xffffffffffffffffffffffffffffffffffffffff\n        /* \"#utility.yul\":2008:2013   */\n      dup3\n        /* \"#utility.yul\":2004:2058   */\n      and\n        /* \"#utility.yul\":1993:2058   */\n      swap1\n      pop\n        /* \"#utility.yul\":1938:2064   */\n      swap2\n      swap1\n      pop\n      jump\t// out\n        /* \"#utility.yul\":2070:2203   */\n    tag_38:\n        /* \"#utility.yul\":2129:2138   */\n      0x00\n        /* \"#utility.yul\":2162:2197   */\n      tag_55\n        /* \"#utility.yul\":2191:2196   */\n      dup3\n        /* \"#utility.yul\":2162:2197   */\n      tag_49\n      jump\t// in\n    tag_55:\n        /* \"#utility.yul\":2149:2197   */\n      swap1\n      pop\n        /* \"#utility.yul\":2070:2203   */\n      swap2\n      swap1\n      pop\n      jump\t// out\n        /* \"#utility.yul\":2209:2389   */\n    tag_56:\n        /* \"#utility.yul\":2257:2334   */\n      0x4e487b7100000000000000000000000000000000000000000000000000000000\n        /* \"#utility.yul\":2254:2255   */\n      0x00\n        /* \"#utility.yul\":2247:2335   */\n      mstore\n        /* \"#utility.yul\":2354:2358   */\n      0x21\n        /* \"#utility.yul\":2351:2352   */\n      0x04\n        /* \"#utility.yul\":2344:2359   */\n      mstore\n        /* \"#utility.yul\":2378:2382   */\n      0x24\n        /* \"#utility.yul\":2375:2376   */\n      0x00\n        /* \"#utility.yul\":2368:2383   */\n      revert\n        /* \"#utility.yul\":2518:2635   */\n    tag_28:\n        /* \"#utility.yul\":2627:2628   */\n      0x00\n        /* \"#utility.yul\":2624:2625   */\n      dup1\n        /* \"#utility.yul\":2617:2629   */\n      revert\n        /* \"#utility.yul\":2641:2757   */\n    tag_52:\n        /* \"#utility.yul\":2725:2726   */\n      0x03\n        /* \"#utility.yul\":2718:2723   */\n      dup2\n        /* \"#utility.yul\":2715:2727   */\n      lt\n        /* \"#utility.yul\":2705:2751   */\n      tag_62\n      jumpi\n        /* \"#utility.yul\":2731:2749   */\n      tag_63\n      tag_56\n      jump\t// in\n    tag_63:\n        /* \"#utility.yul\":2705:2751   */\n    tag_62:\n        /* \"#utility.yul\":2641:2757   */\n      pop\n      jump\t// out\n        /* \"#utility.yul\":2763:2873   */\n    tag_24:\n        /* \"#utility.yul\":2847:2848   */\n      0x03\n        /* \"#utility.yul\":2840:2845   */\n      dup2\n        /* \"#utility.yul\":2837:2849   */\n      lt\n        /* \"#utility.yul\":2827:2867   */\n      tag_65\n      jumpi\n        /* \"#utility.yul\":2863:2864   */\n      0x00\n        /* \"#utility.yul\":2860:2861   */\n      dup1\n        /* \"#utility.yul\":2853:2865   */\n      revert\n        /* \"#utility.yul\":2827:2867   */\n    tag_65:\n        /* \"#utility.yul\":2763:2873   */\n      pop\n      jump\t// out\n\n    auxdata: 0xa264697066735822122083ae950853c802523bb546d993e142d758f6146b11882b795edb20b240abb3c164736f6c63430008070033\n}\n\nsub_1: assembly {\n        /* \"contracts/Gestione_Esami.sol\":60:702  contract Gestione_Esami {\r... */\n      mstore(0x40, 0x80)\n        /* \"contracts/Gestione_Esami.sol\":196:211  examState.TO_DO */\n      0x00\n        /* \"contracts/Gestione_Esami.sol\":168:211  examState RetiDiCalcolatori=examState.TO_DO */\n      dup1\n      exp(0x0100, 0x00)\n      dup2\n      sload\n      dup2\n      0xff\n      mul\n      not\n      and\n      swap1\n      dup4\n      0x02\n      dup2\n      gt\n      iszero\n      tag_1\n      jumpi\n      tag_2\n      tag_3\n      jump\t// in\n    tag_2:\n    tag_1:\n      mul\n      or\n      swap1\n      sstore\n      pop\n        /* \"contracts/Gestione_Esami.sol\":241:256  examState.TO_DO */\n      0x00\n        /* \"contracts/Gestione_Esami.sol\":218:256  examState Crittografia=examState.TO_DO */\n      dup1\n      exp(0x0100, 0x01)\n      dup2\n      sload\n      dup2\n      0xff\n      mul\n      not\n      and\n      swap1\n      dup4\n      0x02\n      dup2\n      gt\n      iszero\n      tag_4\n      jumpi\n      tag_5\n      tag_3\n      jump\t// in\n    tag_5:\n    tag_4:\n      mul\n      or\n      swap1\n      sstore\n      pop\n        /* \"contracts/Gestione_Esami.sol\":285:290  false */\n      0x00\n        /* \"contracts/Gestione_Esami.sol\":263:290  bool public graduated=false */\n      dup1\n      exp(0x0100, 0x02)\n      dup2\n      sload\n      dup2\n      0xff\n      mul\n      not\n      and\n      swap1\n      dup4\n      iszero\n      iszero\n      mul\n      or\n      swap1\n      sstore\n      pop\n        /* \"contracts/Gestione_Esami.sol\":299:321  constructor() {\r... */\n      callvalue\n      dup1\n      iszero\n      tag_6\n      jumpi\n      0x00\n      dup1\n      revert\n    tag_6:\n      pop\n        /* \"contracts/Gestione_Esami.sol\":60:702  contract Gestione_Esami {\r... */\n      jump(tag_9)\n        /* \"#utility.yul\":7:187   */\n    tag_3:\n        /* \"#utility.yul\":55:132   */\n      0x4e487b7100000000000000000000000000000000000000000000000000000000\n        /* \"#utility.yul\":52:53   */\n      0x00\n        /* \"#utility.yul\":45:133   */\n      mstore\n        /* \"#utility.yul\":152:156   */\n      0x21\n        /* \"#utility.yul\":149:150   */\n      0x04\n        /* \"#utility.yul\":142:157   */\n      mstore\n        /* \"#utility.yul\":176:180   */\n      0x24\n        /* \"#utility.yul\":173:174   */\n      0x00\n        /* \"#utility.yul\":166:181   */\n      revert\n        /* \"contracts/Gestione_Esami.sol\":60:702  contract Gestione_Esami {\r... */\n    tag_9:\n      dataSize(sub_0)\n      dup1\n      dataOffset(sub_0)\n      0x00\n      codecopy\n      0x00\n      return\n    stop\n\n    sub_0: assembly {\n            /* \"contracts/Gestione_Esami.sol\":60:702  contract Gestione_Esami {\r... */\n          mstore(0x40, 0x80)\n          callvalue\n          dup1\n          iszero\n          tag_1\n          jumpi\n          0x00\n          dup1\n          revert\n        tag_1:\n          pop\n          jumpi(tag_2, lt(calldatasize, 0x04))\n          shr(0xe0, calldataload(0x00))\n          dup1\n          0x7366f53b\n          eq\n          tag_3\n          jumpi\n          dup1\n          0xe7c2b772\n          eq\n          tag_4\n          jumpi\n        tag_2:\n          0x00\n          dup1\n          revert\n            /* \"contracts/Gestione_Esami.sol\":329:699  function getExamsState(address who) public view returns (examState _exam1,examState _exam2) {\r... */\n        tag_3:\n          tag_5\n          0x04\n          dup1\n          calldatasize\n          sub\n          dup2\n          add\n          swap1\n          tag_6\n          swap2\n          swap1\n          tag_7\n          jump\t// in\n        tag_6:\n          tag_8\n          jump\t// in\n        tag_5:\n          mload(0x40)\n          tag_9\n          swap3\n          swap2\n          swap1\n          tag_10\n          jump\t// in\n        tag_9:\n          mload(0x40)\n          dup1\n          swap2\n          sub\n          swap1\n          return\n            /* \"contracts/Gestione_Esami.sol\":263:290  bool public graduated=false */\n        tag_4:\n          tag_11\n          tag_12\n          jump\t// in\n        tag_11:\n          mload(0x40)\n          tag_13\n          swap2\n          swap1\n          tag_14\n          jump\t// in\n        tag_13:\n          mload(0x40)\n          dup1\n          swap2\n          sub\n          swap1\n          return\n            /* \"contracts/Gestione_Esami.sol\":329:699  function getExamsState(address who) public view returns (examState _exam1,examState _exam2) {\r... */\n        tag_8:\n            /* \"contracts/Gestione_Esami.sol\":386:402  examState _exam1 */\n          0x00\n            /* \"contracts/Gestione_Esami.sol\":403:419  examState _exam2 */\n          dup1\n            /* \"contracts/Gestione_Esami.sol\":450:492  0x5B38Da6a701c568545dCfcB03FcB875f56beddC4 */\n          0x5b38da6a701c568545dcfcb03fcb875f56beddc4\n            /* \"contracts/Gestione_Esami.sol\":435:493  who == address(0x5B38Da6a701c568545dCfcB03FcB875f56beddC4) */\n          0xffffffffffffffffffffffffffffffffffffffff\n          and\n            /* \"contracts/Gestione_Esami.sol\":435:438  who */\n          dup4\n            /* \"contracts/Gestione_Esami.sol\":435:493  who == address(0x5B38Da6a701c568545dCfcB03FcB875f56beddC4) */\n          0xffffffffffffffffffffffffffffffffffffffff\n          and\n          eq\n            /* \"contracts/Gestione_Esami.sol\":432:682  if(who == address(0x5B38Da6a701c568545dCfcB03FcB875f56beddC4)){\r... */\n          iszero\n          tag_16\n          jumpi\n            /* \"contracts/Gestione_Esami.sol\":516:543  examState.PASSED_WITH_MERIT */\n          0x02\n            /* \"contracts/Gestione_Esami.sol\":509:543  _exam1=examState.PASSED_WITH_MERIT */\n          swap2\n          pop\n            /* \"contracts/Gestione_Esami.sol\":565:581  examState.PASSED */\n          0x01\n            /* \"contracts/Gestione_Esami.sol\":558:581  _exam2=examState.PASSED */\n          swap1\n          pop\n            /* \"contracts/Gestione_Esami.sol\":432:682  if(who == address(0x5B38Da6a701c568545dCfcB03FcB875f56beddC4)){\r... */\n          jump(tag_17)\n        tag_16:\n            /* \"contracts/Gestione_Esami.sol\":618:635  RetiDiCalcolatori */\n          0x00\n          dup1\n          sload\n          swap1\n          0x0100\n          exp\n          swap1\n          div\n          0xff\n          and\n            /* \"contracts/Gestione_Esami.sol\":611:635  _exam1=RetiDiCalcolatori */\n          swap2\n          pop\n            /* \"contracts/Gestione_Esami.sol\":657:669  Crittografia */\n          0x00\n          0x01\n          swap1\n          sload\n          swap1\n          0x0100\n          exp\n          swap1\n          div\n          0xff\n          and\n            /* \"contracts/Gestione_Esami.sol\":650:669  _exam2=Crittografia */\n          swap1\n          pop\n            /* \"contracts/Gestione_Esami.sol\":432:682  if(who == address(0x5B38Da6a701c568545dCfcB03FcB875f56beddC4)){\r... */\n        tag_17:\n            /* \"contracts/Gestione_Esami.sol\":329:699  function getExamsState(address who) public view returns (examState _exam1,examState _exam2) {\r... */\n          swap2\n          pop\n          swap2\n          jump\t// out\n            /* \"contracts/Gestione_Esami.sol\":263:290  bool public graduated=false */\n        tag_12:\n          0x00\n          0x02\n          swap1\n          sload\n          swap1\n          0x0100\n          exp\n          swap1\n          div\n          0xff\n          and\n          dup2\n          jump\t// out\n            /* \"#utility.yul\":7:146   */\n        tag_19:\n            /* \"#utility.yul\":53:58   */\n          0x00\n            /* \"#utility.yul\":91:97   */\n          dup2\n            /* \"#utility.yul\":78:98   */\n          calldataload\n            /* \"#utility.yul\":69:98   */\n          swap1\n          pop\n            /* \"#utility.yul\":107:140   */\n          tag_21\n            /* \"#utility.yul\":134:139   */\n          dup2\n            /* \"#utility.yul\":107:140   */\n          tag_22\n          jump\t// in\n        tag_21:\n            /* \"#utility.yul\":7:146   */\n          swap3\n          swap2\n          pop\n          pop\n          jump\t// out\n            /* \"#utility.yul\":152:481   */\n        tag_7:\n            /* \"#utility.yul\":211:217   */\n          0x00\n            /* \"#utility.yul\":260:262   */\n          0x20\n            /* \"#utility.yul\":248:257   */\n          dup3\n            /* \"#utility.yul\":239:246   */\n          dup5\n            /* \"#utility.yul\":235:258   */\n          sub\n            /* \"#utility.yul\":231:263   */\n          slt\n            /* \"#utility.yul\":228:347   */\n          iszero\n          tag_24\n          jumpi\n            /* \"#utility.yul\":266:345   */\n          tag_25\n          tag_26\n          jump\t// in\n        tag_25:\n            /* \"#utility.yul\":228:347   */\n        tag_24:\n            /* \"#utility.yul\":386:387   */\n          0x00\n            /* \"#utility.yul\":411:464   */\n          tag_27\n            /* \"#utility.yul\":456:463   */\n          dup5\n            /* \"#utility.yul\":447:453   */\n          dup3\n            /* \"#utility.yul\":436:445   */\n          dup6\n            /* \"#utility.yul\":432:454   */\n          add\n            /* \"#utility.yul\":411:464   */\n          tag_19\n          jump\t// in\n        tag_27:\n            /* \"#utility.yul\":401:464   */\n          swap2\n          pop\n            /* \"#utility.yul\":357:474   */\n          pop\n            /* \"#utility.yul\":152:481   */\n          swap3\n          swap2\n          pop\n          pop\n          jump\t// out\n            /* \"#utility.yul\":487:596   */\n        tag_28:\n            /* \"#utility.yul\":568:589   */\n          tag_30\n            /* \"#utility.yul\":583:588   */\n          dup2\n            /* \"#utility.yul\":568:589   */\n          tag_31\n          jump\t// in\n        tag_30:\n            /* \"#utility.yul\":563:566   */\n          dup3\n            /* \"#utility.yul\":556:590   */\n          mstore\n            /* \"#utility.yul\":487:596   */\n          pop\n          pop\n          jump\t// out\n            /* \"#utility.yul\":602:751   */\n        tag_32:\n            /* \"#utility.yul\":698:744   */\n          tag_34\n            /* \"#utility.yul\":738:743   */\n          dup2\n            /* \"#utility.yul\":698:744   */\n          tag_35\n          jump\t// in\n        tag_34:\n            /* \"#utility.yul\":693:696   */\n          dup3\n            /* \"#utility.yul\":686:745   */\n          mstore\n            /* \"#utility.yul\":602:751   */\n          pop\n          pop\n          jump\t// out\n            /* \"#utility.yul\":757:967   */\n        tag_14:\n            /* \"#utility.yul\":844:848   */\n          0x00\n            /* \"#utility.yul\":882:884   */\n          0x20\n            /* \"#utility.yul\":871:880   */\n          dup3\n            /* \"#utility.yul\":867:885   */\n          add\n            /* \"#utility.yul\":859:885   */\n          swap1\n          pop\n            /* \"#utility.yul\":895:960   */\n          tag_37\n            /* \"#utility.yul\":957:958   */\n          0x00\n            /* \"#utility.yul\":946:955   */\n          dup4\n            /* \"#utility.yul\":942:959   */\n          add\n            /* \"#utility.yul\":933:939   */\n          dup5\n            /* \"#utility.yul\":895:960   */\n          tag_28\n          jump\t// in\n        tag_37:\n            /* \"#utility.yul\":757:967   */\n          swap3\n          swap2\n          pop\n          pop\n          jump\t// out\n            /* \"#utility.yul\":973:1341   */\n        tag_10:\n            /* \"#utility.yul\":1112:1116   */\n          0x00\n            /* \"#utility.yul\":1150:1152   */\n          0x40\n            /* \"#utility.yul\":1139:1148   */\n          dup3\n            /* \"#utility.yul\":1135:1153   */\n          add\n            /* \"#utility.yul\":1127:1153   */\n          swap1\n          pop\n            /* \"#utility.yul\":1163:1243   */\n          tag_39\n            /* \"#utility.yul\":1240:1241   */\n          0x00\n            /* \"#utility.yul\":1229:1238   */\n          dup4\n            /* \"#utility.yul\":1225:1242   */\n          add\n            /* \"#utility.yul\":1216:1222   */\n          dup6\n            /* \"#utility.yul\":1163:1243   */\n          tag_32\n          jump\t// in\n        tag_39:\n            /* \"#utility.yul\":1253:1334   */\n          tag_40\n            /* \"#utility.yul\":1330:1332   */\n          0x20\n            /* \"#utility.yul\":1319:1328   */\n          dup4\n            /* \"#utility.yul\":1315:1333   */\n          add\n            /* \"#utility.yul\":1306:1312   */\n          dup5\n            /* \"#utility.yul\":1253:1334   */\n          tag_32\n          jump\t// in\n        tag_40:\n            /* \"#utility.yul\":973:1341   */\n          swap4\n          swap3\n          pop\n          pop\n          pop\n          jump\t// out\n            /* \"#utility.yul\":1428:1524   */\n        tag_43:\n            /* \"#utility.yul\":1465:1472   */\n          0x00\n            /* \"#utility.yul\":1494:1518   */\n          tag_45\n            /* \"#utility.yul\":1512:1517   */\n          dup3\n            /* \"#utility.yul\":1494:1518   */\n          tag_46\n          jump\t// in\n        tag_45:\n            /* \"#utility.yul\":1483:1518   */\n          swap1\n          pop\n            /* \"#utility.yul\":1428:1524   */\n          swap2\n          swap1\n          pop\n          jump\t// out\n            /* \"#utility.yul\":1530:1620   */\n        tag_31:\n            /* \"#utility.yul\":1564:1571   */\n          0x00\n            /* \"#utility.yul\":1607:1612   */\n          dup2\n            /* \"#utility.yul\":1600:1613   */\n          iszero\n            /* \"#utility.yul\":1593:1614   */\n          iszero\n            /* \"#utility.yul\":1582:1614   */\n          swap1\n          pop\n            /* \"#utility.yul\":1530:1620   */\n          swap2\n          swap1\n          pop\n          jump\t// out\n            /* \"#utility.yul\":1626:1759   */\n        tag_48:\n            /* \"#utility.yul\":1674:1681   */\n          0x00\n            /* \"#utility.yul\":1703:1708   */\n          dup2\n            /* \"#utility.yul\":1692:1708   */\n          swap1\n          pop\n            /* \"#utility.yul\":1709:1753   */\n          tag_50\n            /* \"#utility.yul\":1747:1752   */\n          dup3\n            /* \"#utility.yul\":1709:1753   */\n          tag_51\n          jump\t// in\n        tag_50:\n            /* \"#utility.yul\":1626:1759   */\n          swap2\n          swap1\n          pop\n          jump\t// out\n            /* \"#utility.yul\":1765:1891   */\n        tag_46:\n            /* \"#utility.yul\":1802:1809   */\n          0x00\n            /* \"#utility.yul\":1842:1884   */\n          0xffffffffffffffffffffffffffffffffffffffff\n            /* \"#utility.yul\":1835:1840   */\n          dup3\n            /* \"#utility.yul\":1831:1885   */\n          and\n            /* \"#utility.yul\":1820:1885   */\n          swap1\n          pop\n            /* \"#utility.yul\":1765:1891   */\n          swap2\n          swap1\n          pop\n          jump\t// out\n            /* \"#utility.yul\":1897:2030   */\n        tag_35:\n            /* \"#utility.yul\":1956:1965   */\n          0x00\n            /* \"#utility.yul\":1989:2024   */\n          tag_54\n            /* \"#utility.yul\":2018:2023   */\n          dup3\n            /* \"#utility.yul\":1989:2024   */\n          tag_48\n          jump\t// in\n        tag_54:\n            /* \"#utility.yul\":1976:2024   */\n          swap1\n          pop\n            /* \"#utility.yul\":1897:2030   */\n          swap2\n          swap1\n          pop\n          jump\t// out\n            /* \"#utility.yul\":2036:2216   */\n        tag_55:\n            /* \"#utility.yul\":2084:2161   */\n          0x4e487b7100000000000000000000000000000000000000000000000000000000\n            /* \"#utility.yul\":2081:2082   */\n          0x00\n            /* \"#utility.yul\":2074:2162   */\n          mstore\n            /* \"#utility.yul\":2181:2185   */\n          0x21\n            /* \"#utility.yul\":2178:2179   */\n          0x04\n            /* \"#utility.yul\":2171:2186   */\n          mstore\n            /* \"#utility.yul\":2205:2209   */\n          0x24\n            /* \"#utility.yul\":2202:2203   */\n          0x00\n            /* \"#utility.yul\":2195:2210   */\n          revert\n            /* \"#utility.yul\":2345:2462   */\n        tag_26:\n            /* \"#utility.yul\":2454:2455   */\n          0x00\n            /* \"#utility.yul\":2451:2452   */\n          dup1\n            /* \"#utility.yul\":2444:2456   */\n          revert\n            /* \"#utility.yul\":2468:2584   */\n        tag_51:\n            /* \"#utility.yul\":2552:2553   */\n          0x03\n            /* \"#utility.yul\":2545:2550   */\n          dup2\n            /* \"#utility.yul\":2542:2554   */\n          lt\n            /* \"#utility.yul\":2532:2578   */\n          tag_61\n          jumpi\n            /* \"#utility.yul\":2558:2576   */\n          tag_62\n          tag_55\n          jump\t// in\n        tag_62:\n            /* \"#utility.yul\":2532:2578   */\n        tag_61:\n            /* \"#utility.yul\":2468:2584   */\n          pop\n          jump\t// out\n            /* \"#utility.yul\":2590:2712   */\n        tag_22:\n            /* \"#utility.yul\":2663:2687   */\n          tag_64\n            /* \"#utility.yul\":2681:2686   */\n          dup2\n            /* \"#utility.yul\":2663:2687   */\n          tag_43\n          jump\t// in\n        tag_64:\n            /* \"#utility.yul\":2656:2661   */\n          dup2\n            /* \"#utility.yul\":2653:2688   */\n          eq\n            /* \"#utility.yul\":2643:2706   */\n          tag_65\n          jumpi\n            /* \"#utility.yul\":2702:2703   */\n          0x00\n            /* \"#utility.yul\":2699:2700   */\n          dup1\n            /* \"#utility.yul\":2692:2704   */\n          revert\n            /* \"#utility.yul\":2643:2706   */\n        tag_65:\n            /* \"#utility.yul\":2590:2712   */\n          pop\n          jump\t// out\n\n        auxdata: 0xa2646970667358221220aa24e474dbe405805e770ca6c1758d48559ac3726d13bc8eac8eecdd1db6239a64736f6c63430008070033\n    }\n}\n",
				"bytecode": {
					"linkReferences": {},
					"object": "608060405234801561001057600080fd5b5060405161001d9061007e565b604051809103906000f080158015610039573d6000803e3d6000fd5b506000806101000a81548173ffffffffffffffffffffffffffffffffffffffff021916908373ffffffffffffffffffffffffffffffffffffffff16021790555061008b565b61037b8061035383390190565b6102b98061009a6000396000f3fe608060405234801561001057600080fd5b50600436106100365760003560e01c8063213606cf1461003b5780636d62c6f71461005a575b600080fd5b610043610064565b6040516100519291906101ab565b60405180910390f35b61006261011b565b005b60008060008054906101000a900473ffffffffffffffffffffffffffffffffffffffff1673ffffffffffffffffffffffffffffffffffffffff16637366f53b336040518263ffffffff1660e01b81526004016100c09190610190565b604080518083038186803b1580156100d757600080fd5b505afa1580156100eb573d6000803e3d6000fd5b505050506040513d601f19601f8201168201806040525081019061010f9190610132565b80925081935050509091565b565b60008151905061012c81610273565b92915050565b600080604083850312156101495761014861025a565b5b60006101578582860161011d565b92505060206101688582860161011d565b9150509250929050565b61017b816101d4565b82525050565b61018a81610219565b82525050565b60006020820190506101a56000830184610172565b92915050565b60006040820190506101c06000830185610181565b6101cd6020830184610181565b9392505050565b60006101df826101f9565b9050919050565b60008190506101f48261025f565b919050565b600073ffffffffffffffffffffffffffffffffffffffff82169050919050565b6000610224826101e6565b9050919050565b7f4e487b7100000000000000000000000000000000000000000000000000000000600052602160045260246000fd5b600080fd5b600381106102705761026f61022b565b5b50565b6003811061028057600080fd5b5056fea264697066735822122083ae950853c802523bb546d993e142d758f6146b11882b795edb20b240abb3c164736f6c63430008070033608060405260008060006101000a81548160ff0219169083600281111561002957610028610084565b5b021790555060008060016101000a81548160ff0219169083600281111561005357610052610084565b5b021790555060008060026101000a81548160ff02191690831515021790555034801561007e57600080fd5b506100b3565b7f4e487b7100000000000000000000000000000000000000000000000000000000600052602160045260246000fd5b6102b9806100c26000396000f3fe608060405234801561001057600080fd5b50600436106100365760003560e01c80637366f53b1461003b578063e7c2b7721461006c575b600080fd5b61005560048036038101906100509190610132565b61008a565b604051610063929190610198565b60405180910390f35b61007461010a565b604051610081919061017d565b60405180910390f35b600080735b38da6a701c568545dcfcb03fcb875f56beddc473ffffffffffffffffffffffffffffffffffffffff168373ffffffffffffffffffffffffffffffffffffffff1614156100e2576002915060019050610105565b60008054906101000a900460ff169150600060019054906101000a900460ff1690505b915091565b600060029054906101000a900460ff1681565b60008135905061012c8161026c565b92915050565b60006020828403121561014857610147610253565b5b60006101568482850161011d565b91505092915050565b610168816101d3565b82525050565b61017781610212565b82525050565b6000602082019050610192600083018461015f565b92915050565b60006040820190506101ad600083018561016e565b6101ba602083018461016e565b9392505050565b60006101cc826101f2565b9050919050565b60008115159050919050565b60008190506101ed82610258565b919050565b600073ffffffffffffffffffffffffffffffffffffffff82169050919050565b600061021d826101df565b9050919050565b7f4e487b7100000000000000000000000000000000000000000000000000000000600052602160045260246000fd5b600080fd5b6003811061026957610268610224565b5b50565b610275816101c1565b811461028057600080fd5b5056fea2646970667358221220aa24e474dbe405805e770ca6c1758d48559ac3726d13bc8eac8eecdd1db6239a64736f6c63430008070033",
					"opcodes": "PUSH1 0x80 PUSH1 0x40 MSTORE CALLVALUE DUP1 ISZERO PUSH2 0x10 JUMPI PUSH1 0x0 DUP1 REVERT JUMPDEST POP PUSH1 0x40 MLOAD PUSH2 0x1D SWAP1 PUSH2 0x7E JUMP JUMPDEST PUSH1 0x40 MLOAD DUP1 SWAP2 SUB SWAP1 PUSH1 0x0 CREATE DUP1 ISZERO DUP1 ISZERO PUSH2 0x39 JUMPI RETURNDATASIZE PUSH1 0x0 DUP1 RETURNDATACOPY RETURNDATASIZE PUSH1 0x0 REVERT JUMPDEST POP PUSH1 0x0 DUP1 PUSH2 0x100 EXP DUP2 SLOAD DUP2 PUSH20 0xFFFFFFFFFFFFFFFFFFFFFFFFFFFFFFFFFFFFFFFF MUL NOT AND SWAP1 DUP4 PUSH20 0xFFFFFFFFFFFFFFFFFFFFFFFFFFFFFFFFFFFFFFFF AND MUL OR SWAP1 SSTORE POP PUSH2 0x8B JUMP JUMPDEST PUSH2 0x37B DUP1 PUSH2 0x353 DUP4 CODECOPY ADD SWAP1 JUMP JUMPDEST PUSH2 0x2B9 DUP1 PUSH2 0x9A PUSH1 0x0 CODECOPY PUSH1 0x0 RETURN INVALID PUSH1 0x80 PUSH1 0x40 MSTORE CALLVALUE DUP1 ISZERO PUSH2 0x10 JUMPI PUSH1 0x0 DUP1 REVERT JUMPDEST POP PUSH1 0x4 CALLDATASIZE LT PUSH2 0x36 JUMPI PUSH1 0x0 CALLDATALOAD PUSH1 0xE0 SHR DUP1 PUSH4 0x213606CF EQ PUSH2 0x3B JUMPI DUP1 PUSH4 0x6D62C6F7 EQ PUSH2 0x5A JUMPI JUMPDEST PUSH1 0x0 DUP1 REVERT JUMPDEST PUSH2 0x43 PUSH2 0x64 JUMP JUMPDEST PUSH1 0x40 MLOAD PUSH2 0x51 SWAP3 SWAP2 SWAP1 PUSH2 0x1AB JUMP JUMPDEST PUSH1 0x40 MLOAD DUP1 SWAP2 SUB SWAP1 RETURN JUMPDEST PUSH2 0x62 PUSH2 0x11B JUMP JUMPDEST STOP JUMPDEST PUSH1 0x0 DUP1 PUSH1 0x0 DUP1 SLOAD SWAP1 PUSH2 0x100 EXP SWAP1 DIV PUSH20 0xFFFFFFFFFFFFFFFFFFFFFFFFFFFFFFFFFFFFFFFF AND PUSH20 0xFFFFFFFFFFFFFFFFFFFFFFFFFFFFFFFFFFFFFFFF AND PUSH4 0x7366F53B CALLER PUSH1 0x40 MLOAD DUP3 PUSH4 0xFFFFFFFF AND PUSH1 0xE0 SHL DUP2 MSTORE PUSH1 0x4 ADD PUSH2 0xC0 SWAP2 SWAP1 PUSH2 0x190 JUMP JUMPDEST PUSH1 0x40 DUP1 MLOAD DUP1 DUP4 SUB DUP2 DUP7 DUP1 EXTCODESIZE ISZERO DUP1 ISZERO PUSH2 0xD7 JUMPI PUSH1 0x0 DUP1 REVERT JUMPDEST POP GAS STATICCALL ISZERO DUP1 ISZERO PUSH2 0xEB JUMPI RETURNDATASIZE PUSH1 0x0 DUP1 RETURNDATACOPY RETURNDATASIZE PUSH1 0x0 REVERT JUMPDEST POP POP POP POP PUSH1 0x40 MLOAD RETURNDATASIZE PUSH1 0x1F NOT PUSH1 0x1F DUP3 ADD AND DUP3 ADD DUP1 PUSH1 0x40 MSTORE POP DUP2 ADD SWAP1 PUSH2 0x10F SWAP2 SWAP1 PUSH2 0x132 JUMP JUMPDEST DUP1 SWAP3 POP DUP2 SWAP4 POP POP POP SWAP1 SWAP2 JUMP JUMPDEST JUMP JUMPDEST PUSH1 0x0 DUP2 MLOAD SWAP1 POP PUSH2 0x12C DUP2 PUSH2 0x273 JUMP JUMPDEST SWAP3 SWAP2 POP POP JUMP JUMPDEST PUSH1 0x0 DUP1 PUSH1 0x40 DUP4 DUP6 SUB SLT ISZERO PUSH2 0x149 JUMPI PUSH2 0x148 PUSH2 0x25A JUMP JUMPDEST JUMPDEST PUSH1 0x0 PUSH2 0x157 DUP6 DUP3 DUP7 ADD PUSH2 0x11D JUMP JUMPDEST SWAP3 POP POP PUSH1 0x20 PUSH2 0x168 DUP6 DUP3 DUP7 ADD PUSH2 0x11D JUMP JUMPDEST SWAP2 POP POP SWAP3 POP SWAP3 SWAP1 POP JUMP JUMPDEST PUSH2 0x17B DUP2 PUSH2 0x1D4 JUMP JUMPDEST DUP3 MSTORE POP POP JUMP JUMPDEST PUSH2 0x18A DUP2 PUSH2 0x219 JUMP JUMPDEST DUP3 MSTORE POP POP JUMP JUMPDEST PUSH1 0x0 PUSH1 0x20 DUP3 ADD SWAP1 POP PUSH2 0x1A5 PUSH1 0x0 DUP4 ADD DUP5 PUSH2 0x172 JUMP JUMPDEST SWAP3 SWAP2 POP POP JUMP JUMPDEST PUSH1 0x0 PUSH1 0x40 DUP3 ADD SWAP1 POP PUSH2 0x1C0 PUSH1 0x0 DUP4 ADD DUP6 PUSH2 0x181 JUMP JUMPDEST PUSH2 0x1CD PUSH1 0x20 DUP4 ADD DUP5 PUSH2 0x181 JUMP JUMPDEST SWAP4 SWAP3 POP POP POP JUMP JUMPDEST PUSH1 0x0 PUSH2 0x1DF DUP3 PUSH2 0x1F9 JUMP JUMPDEST SWAP1 POP SWAP2 SWAP1 POP JUMP JUMPDEST PUSH1 0x0 DUP2 SWAP1 POP PUSH2 0x1F4 DUP3 PUSH2 0x25F JUMP JUMPDEST SWAP2 SWAP1 POP JUMP JUMPDEST PUSH1 0x0 PUSH20 0xFFFFFFFFFFFFFFFFFFFFFFFFFFFFFFFFFFFFFFFF DUP3 AND SWAP1 POP SWAP2 SWAP1 POP JUMP JUMPDEST PUSH1 0x0 PUSH2 0x224 DUP3 PUSH2 0x1E6 JUMP JUMPDEST SWAP1 POP SWAP2 SWAP1 POP JUMP JUMPDEST PUSH32 0x4E487B7100000000000000000000000000000000000000000000000000000000 PUSH1 0x0 MSTORE PUSH1 0x21 PUSH1 0x4 MSTORE PUSH1 0x24 PUSH1 0x0 REVERT JUMPDEST PUSH1 0x0 DUP1 REVERT JUMPDEST PUSH1 0x3 DUP2 LT PUSH2 0x270 JUMPI PUSH2 0x26F PUSH2 0x22B JUMP JUMPDEST JUMPDEST POP JUMP JUMPDEST PUSH1 0x3 DUP2 LT PUSH2 0x280 JUMPI PUSH1 0x0 DUP1 REVERT JUMPDEST POP JUMP INVALID LOG2 PUSH5 0x6970667358 0x22 SLT KECCAK256 DUP4 0xAE SWAP6 ADDMOD MSTORE8 0xC8 MUL MSTORE EXTCODESIZE 0xB5 CHAINID 0xD9 SWAP4 0xE1 TIMESTAMP 0xD7 PC 0xF6 EQ PUSH12 0x11882B795EDB20B240ABB3C1 PUSH5 0x736F6C6343 STOP ADDMOD SMOD STOP CALLER PUSH1 0x80 PUSH1 0x40 MSTORE PUSH1 0x0 DUP1 PUSH1 0x0 PUSH2 0x100 EXP DUP2 SLOAD DUP2 PUSH1 0xFF MUL NOT AND SWAP1 DUP4 PUSH1 0x2 DUP2 GT ISZERO PUSH2 0x29 JUMPI PUSH2 0x28 PUSH2 0x84 JUMP JUMPDEST JUMPDEST MUL OR SWAP1 SSTORE POP PUSH1 0x0 DUP1 PUSH1 0x1 PUSH2 0x100 EXP DUP2 SLOAD DUP2 PUSH1 0xFF MUL NOT AND SWAP1 DUP4 PUSH1 0x2 DUP2 GT ISZERO PUSH2 0x53 JUMPI PUSH2 0x52 PUSH2 0x84 JUMP JUMPDEST JUMPDEST MUL OR SWAP1 SSTORE POP PUSH1 0x0 DUP1 PUSH1 0x2 PUSH2 0x100 EXP DUP2 SLOAD DUP2 PUSH1 0xFF MUL NOT AND SWAP1 DUP4 ISZERO ISZERO MUL OR SWAP1 SSTORE POP CALLVALUE DUP1 ISZERO PUSH2 0x7E JUMPI PUSH1 0x0 DUP1 REVERT JUMPDEST POP PUSH2 0xB3 JUMP JUMPDEST PUSH32 0x4E487B7100000000000000000000000000000000000000000000000000000000 PUSH1 0x0 MSTORE PUSH1 0x21 PUSH1 0x4 MSTORE PUSH1 0x24 PUSH1 0x0 REVERT JUMPDEST PUSH2 0x2B9 DUP1 PUSH2 0xC2 PUSH1 0x0 CODECOPY PUSH1 0x0 RETURN INVALID PUSH1 0x80 PUSH1 0x40 MSTORE CALLVALUE DUP1 ISZERO PUSH2 0x10 JUMPI PUSH1 0x0 DUP1 REVERT JUMPDEST POP PUSH1 0x4 CALLDATASIZE LT PUSH2 0x36 JUMPI PUSH1 0x0 CALLDATALOAD PUSH1 0xE0 SHR DUP1 PUSH4 0x7366F53B EQ PUSH2 0x3B JUMPI DUP1 PUSH4 0xE7C2B772 EQ PUSH2 0x6C JUMPI JUMPDEST PUSH1 0x0 DUP1 REVERT JUMPDEST PUSH2 0x55 PUSH1 0x4 DUP1 CALLDATASIZE SUB DUP2 ADD SWAP1 PUSH2 0x50 SWAP2 SWAP1 PUSH2 0x132 JUMP JUMPDEST PUSH2 0x8A JUMP JUMPDEST PUSH1 0x40 MLOAD PUSH2 0x63 SWAP3 SWAP2 SWAP1 PUSH2 0x198 JUMP JUMPDEST PUSH1 0x40 MLOAD DUP1 SWAP2 SUB SWAP1 RETURN JUMPDEST PUSH2 0x74 PUSH2 0x10A JUMP JUMPDEST PUSH1 0x40 MLOAD PUSH2 0x81 SWAP2 SWAP1 PUSH2 0x17D JUMP JUMPDEST PUSH1 0x40 MLOAD DUP1 SWAP2 SUB SWAP1 RETURN JUMPDEST PUSH1 0x0 DUP1 PUSH20 0x5B38DA6A701C568545DCFCB03FCB875F56BEDDC4 PUSH20 0xFFFFFFFFFFFFFFFFFFFFFFFFFFFFFFFFFFFFFFFF AND DUP4 PUSH20 0xFFFFFFFFFFFFFFFFFFFFFFFFFFFFFFFFFFFFFFFF AND EQ ISZERO PUSH2 0xE2 JUMPI PUSH1 0x2 SWAP2 POP PUSH1 0x1 SWAP1 POP PUSH2 0x105 JUMP JUMPDEST PUSH1 0x0 DUP1 SLOAD SWAP1 PUSH2 0x100 EXP SWAP1 DIV PUSH1 0xFF AND SWAP2 POP PUSH1 0x0 PUSH1 0x1 SWAP1 SLOAD SWAP1 PUSH2 0x100 EXP SWAP1 DIV PUSH1 0xFF AND SWAP1 POP JUMPDEST SWAP2 POP SWAP2 JUMP JUMPDEST PUSH1 0x0 PUSH1 0x2 SWAP1 SLOAD SWAP1 PUSH2 0x100 EXP SWAP1 DIV PUSH1 0xFF AND DUP2 JUMP JUMPDEST PUSH1 0x0 DUP2 CALLDATALOAD SWAP1 POP PUSH2 0x12C DUP2 PUSH2 0x26C JUMP JUMPDEST SWAP3 SWAP2 POP POP JUMP JUMPDEST PUSH1 0x0 PUSH1 0x20 DUP3 DUP5 SUB SLT ISZERO PUSH2 0x148 JUMPI PUSH2 0x147 PUSH2 0x253 JUMP JUMPDEST JUMPDEST PUSH1 0x0 PUSH2 0x156 DUP5 DUP3 DUP6 ADD PUSH2 0x11D JUMP JUMPDEST SWAP2 POP POP SWAP3 SWAP2 POP POP JUMP JUMPDEST PUSH2 0x168 DUP2 PUSH2 0x1D3 JUMP JUMPDEST DUP3 MSTORE POP POP JUMP JUMPDEST PUSH2 0x177 DUP2 PUSH2 0x212 JUMP JUMPDEST DUP3 MSTORE POP POP JUMP JUMPDEST PUSH1 0x0 PUSH1 0x20 DUP3 ADD SWAP1 POP PUSH2 0x192 PUSH1 0x0 DUP4 ADD DUP5 PUSH2 0x15F JUMP JUMPDEST SWAP3 SWAP2 POP POP JUMP JUMPDEST PUSH1 0x0 PUSH1 0x40 DUP3 ADD SWAP1 POP PUSH2 0x1AD PUSH1 0x0 DUP4 ADD DUP6 PUSH2 0x16E JUMP JUMPDEST PUSH2 0x1BA PUSH1 0x20 DUP4 ADD DUP5 PUSH2 0x16E JUMP JUMPDEST SWAP4 SWAP3 POP POP POP JUMP JUMPDEST PUSH1 0x0 PUSH2 0x1CC DUP3 PUSH2 0x1F2 JUMP JUMPDEST SWAP1 POP SWAP2 SWAP1 POP JUMP JUMPDEST PUSH1 0x0 DUP2 ISZERO ISZERO SWAP1 POP SWAP2 SWAP1 POP JUMP JUMPDEST PUSH1 0x0 DUP2 SWAP1 POP PUSH2 0x1ED DUP3 PUSH2 0x258 JUMP JUMPDEST SWAP2 SWAP1 POP JUMP JUMPDEST PUSH1 0x0 PUSH20 0xFFFFFFFFFFFFFFFFFFFFFFFFFFFFFFFFFFFFFFFF DUP3 AND SWAP1 POP SWAP2 SWAP1 POP JUMP JUMPDEST PUSH1 0x0 PUSH2 0x21D DUP3 PUSH2 0x1DF JUMP JUMPDEST SWAP1 POP SWAP2 SWAP1 POP JUMP JUMPDEST PUSH32 0x4E487B7100000000000000000000000000000000000000000000000000000000 PUSH1 0x0 MSTORE PUSH1 0x21 PUSH1 0x4 MSTORE PUSH1 0x24 PUSH1 0x0 REVERT JUMPDEST PUSH1 0x0 DUP1 REVERT JUMPDEST PUSH1 0x3 DUP2 LT PUSH2 0x269 JUMPI PUSH2 0x268 PUSH2 0x224 JUMP JUMPDEST JUMPDEST POP JUMP JUMPDEST PUSH2 0x275 DUP2 PUSH2 0x1C1 JUMP JUMPDEST DUP2 EQ PUSH2 0x280 JUMPI PUSH1 0x0 DUP1 REVERT JUMPDEST POP JUMP INVALID LOG2 PUSH5 0x6970667358 0x22 SLT KECCAK256 0xAA 0x24 0xE4 PUSH21 0xDBE405805E770CA6C1758D48559AC3726D13BC8EAC DUP15 0xEC 0xDD SAR 0xB6 0x23 SWAP11 PUSH5 0x736F6C6343 STOP ADDMOD SMOD STOP CALLER "
				},
				"gasEstimates": {
					"creation": {
						"codeDepositCost": "139400",
						"executionCost": "infinite",
						"totalCost": "infinite"
					},
					"external": {
						"aggiungi_spilla()": "144",
						"crea_cappellino()": "infinite"
					}
				},
				"methodIdentifiers": {
					"aggiungi_spilla()": "6d62c6f7",
					"crea_cappellino()": "213606cf"
				}
			},
			"storageLayout": {
				"storage": [
					{
						"astId": 68,
						"contract": "contracts/Smart_Hat.sol:Smart_Hat",
						"label": "manager",
						"offset": 0,
						"slot": "0",
						"type": "t_contract(Gestione_Esami)62"
					}
				],
				"types": {
					"t_contract(Gestione_Esami)62": {
						"encoding": "inplace",
						"label": "contract Gestione_Esami",
						"numberOfBytes": "20"
					}
				}
			},
			"userdoc": {
				"kind": "user",
				"methods": {},
				"version": 1
			}
		}
	}
}