{
	"contracts/Gestione_Esami.sol": {
		"Gestione_Esami": {
			"abi": [
				{
					"inputs": [],
					"stateMutability": "nonpayable",
					"type": "constructor"
				},
				{
					"inputs": [
						{
							"internalType": "address",
							"name": "who",
							"type": "address"
						}
					],
					"name": "getExamsState",
					"outputs": [
						{
							"internalType": "enum Gestione_Esami.examState",
							"name": "_exam1",
							"type": "uint8"
						},
						{
							"internalType": "enum Gestione_Esami.examState",
							"name": "_exam2",
							"type": "uint8"
						}
					],
					"stateMutability": "view",
					"type": "function"
				},
				{
					"inputs": [],
					"name": "graduated",
					"outputs": [
						{
							"internalType": "bool",
							"name": "",
							"type": "bool"
						}
					],
					"stateMutability": "view",
					"type": "function"
				}
			],
			"devdoc": {
				"kind": "dev",
				"methods": {},
				"version": 1
			},
			"evm": {
				"assembly": "    /* \"contracts/Gestione_Esami.sol\":60:691  contract Gestione_Esami {\r... */\n  mstore(0x40, 0x80)\n    /* \"contracts/Gestione_Esami.sol\":196:212  examState.PASSED */\n  0x01\n    /* \"contracts/Gestione_Esami.sol\":168:212  examState RetiDiCalcolatori=examState.PASSED */\n  0x00\n  dup1\n  0x0100\n  exp\n  dup2\n  sload\n  dup2\n  0xff\n  mul\n  not\n  and\n  swap1\n  dup4\n  0x02\n  dup2\n  gt\n  iszero\n  tag_1\n  jumpi\n  tag_2\n  tag_3\n  jump\t// in\ntag_2:\ntag_1:\n  mul\n  or\n  swap1\n  sstore\n  pop\n    /* \"contracts/Gestione_Esami.sol\":242:257  examState.TO_DO */\n  0x00\n    /* \"contracts/Gestione_Esami.sol\":219:257  examState Crittografia=examState.TO_DO */\n  dup1\n  exp(0x0100, 0x01)\n  dup2\n  sload\n  dup2\n  0xff\n  mul\n  not\n  and\n  swap1\n  dup4\n  0x02\n  dup2\n  gt\n  iszero\n  tag_4\n  jumpi\n  tag_5\n  tag_3\n  jump\t// in\ntag_5:\ntag_4:\n  mul\n  or\n  swap1\n  sstore\n  pop\n    /* \"contracts/Gestione_Esami.sol\":286:291  false */\n  0x00\n    /* \"contracts/Gestione_Esami.sol\":264:291  bool public graduated=false */\n  dup1\n  exp(0x0100, 0x02)\n  dup2\n  sload\n  dup2\n  0xff\n  mul\n  not\n  and\n  swap1\n  dup4\n  iszero\n  iszero\n  mul\n  or\n  swap1\n  sstore\n  pop\n    /* \"contracts/Gestione_Esami.sol\":300:322  constructor() {\r... */\n  callvalue\n  dup1\n  iszero\n  tag_6\n  jumpi\n  0x00\n  dup1\n  revert\ntag_6:\n  pop\n    /* \"contracts/Gestione_Esami.sol\":60:691  contract Gestione_Esami {\r... */\n  jump(tag_9)\n    /* \"#utility.yul\":7:187   */\ntag_3:\n    /* \"#utility.yul\":55:132   */\n  0x4e487b7100000000000000000000000000000000000000000000000000000000\n    /* \"#utility.yul\":52:53   */\n  0x00\n    /* \"#utility.yul\":45:133   */\n  mstore\n    /* \"#utility.yul\":152:156   */\n  0x21\n    /* \"#utility.yul\":149:150   */\n  0x04\n    /* \"#utility.yul\":142:157   */\n  mstore\n    /* \"#utility.yul\":176:180   */\n  0x24\n    /* \"#utility.yul\":173:174   */\n  0x00\n    /* \"#utility.yul\":166:181   */\n  revert\n    /* \"contracts/Gestione_Esami.sol\":60:691  contract Gestione_Esami {\r... */\ntag_9:\n  dataSize(sub_0)\n  dup1\n  dataOffset(sub_0)\n  0x00\n  codecopy\n  0x00\n  return\nstop\n\nsub_0: assembly {\n        /* \"contracts/Gestione_Esami.sol\":60:691  contract Gestione_Esami {\r... */\n      mstore(0x40, 0x80)\n      callvalue\n      dup1\n      iszero\n      tag_1\n      jumpi\n      0x00\n      dup1\n      revert\n    tag_1:\n      pop\n      jumpi(tag_2, lt(calldatasize, 0x04))\n      shr(0xe0, calldataload(0x00))\n      dup1\n      0x7366f53b\n      eq\n      tag_3\n      jumpi\n      dup1\n      0xe7c2b772\n      eq\n      tag_4\n      jumpi\n    tag_2:\n      0x00\n      dup1\n      revert\n        /* \"contracts/Gestione_Esami.sol\":330:688  function getExamsState(address who) public view returns (examState _exam1,examState _exam2) {\r... */\n    tag_3:\n      tag_5\n      0x04\n      dup1\n      calldatasize\n      sub\n      dup2\n      add\n      swap1\n      tag_6\n      swap2\n      swap1\n      tag_7\n      jump\t// in\n    tag_6:\n      tag_8\n      jump\t// in\n    tag_5:\n      mload(0x40)\n      tag_9\n      swap3\n      swap2\n      swap1\n      tag_10\n      jump\t// in\n    tag_9:\n      mload(0x40)\n      dup1\n      swap2\n      sub\n      swap1\n      return\n        /* \"contracts/Gestione_Esami.sol\":264:291  bool public graduated=false */\n    tag_4:\n      tag_11\n      tag_12\n      jump\t// in\n    tag_11:\n      mload(0x40)\n      tag_13\n      swap2\n      swap1\n      tag_14\n      jump\t// in\n    tag_13:\n      mload(0x40)\n      dup1\n      swap2\n      sub\n      swap1\n      return\n        /* \"contracts/Gestione_Esami.sol\":330:688  function getExamsState(address who) public view returns (examState _exam1,examState _exam2) {\r... */\n    tag_8:\n        /* \"contracts/Gestione_Esami.sol\":387:403  examState _exam1 */\n      0x00\n        /* \"contracts/Gestione_Esami.sol\":404:420  examState _exam2 */\n      dup1\n        /* \"contracts/Gestione_Esami.sol\":451:493  0x5B38Da6a701c568545dCfcB03FcB875f56beddC4 */\n      0x5b38da6a701c568545dcfcb03fcb875f56beddc4\n        /* \"contracts/Gestione_Esami.sol\":436:494  who == address(0x5B38Da6a701c568545dCfcB03FcB875f56beddC4) */\n      0xffffffffffffffffffffffffffffffffffffffff\n      and\n        /* \"contracts/Gestione_Esami.sol\":436:439  who */\n      dup4\n        /* \"contracts/Gestione_Esami.sol\":436:494  who == address(0x5B38Da6a701c568545dCfcB03FcB875f56beddC4) */\n      0xffffffffffffffffffffffffffffffffffffffff\n      and\n      eq\n        /* \"contracts/Gestione_Esami.sol\":433:671  if(who == address(0x5B38Da6a701c568545dCfcB03FcB875f56beddC4)){\r... */\n      iszero\n      tag_16\n      jumpi\n        /* \"contracts/Gestione_Esami.sol\":517:533  examState.PASSED */\n      0x01\n        /* \"contracts/Gestione_Esami.sol\":510:533  _exam1=examState.PASSED */\n      swap2\n      pop\n        /* \"contracts/Gestione_Esami.sol\":555:570  examState.TO_DO */\n      0x00\n        /* \"contracts/Gestione_Esami.sol\":548:570  _exam2=examState.TO_DO */\n      swap1\n      pop\n        /* \"contracts/Gestione_Esami.sol\":433:671  if(who == address(0x5B38Da6a701c568545dCfcB03FcB875f56beddC4)){\r... */\n      jump(tag_17)\n    tag_16:\n        /* \"contracts/Gestione_Esami.sol\":607:624  RetiDiCalcolatori */\n      0x00\n      dup1\n      sload\n      swap1\n      0x0100\n      exp\n      swap1\n      div\n      0xff\n      and\n        /* \"contracts/Gestione_Esami.sol\":600:624  _exam1=RetiDiCalcolatori */\n      swap2\n      pop\n        /* \"contracts/Gestione_Esami.sol\":646:658  Crittografia */\n      0x00\n      0x01\n      swap1\n      sload\n      swap1\n      0x0100\n      exp\n      swap1\n      div\n      0xff\n      and\n        /* \"contracts/Gestione_Esami.sol\":639:658  _exam2=Crittografia */\n      swap1\n      pop\n        /* \"contracts/Gestione_Esami.sol\":433:671  if(who == address(0x5B38Da6a701c568545dCfcB03FcB875f56beddC4)){\r... */\n    tag_17:\n        /* \"contracts/Gestione_Esami.sol\":330:688  function getExamsState(address who) public view returns (examState _exam1,examState _exam2) {\r... */\n      swap2\n      pop\n      swap2\n      jump\t// out\n        /* \"contracts/Gestione_Esami.sol\":264:291  bool public graduated=false */\n    tag_12:\n      0x00\n      0x02\n      swap1\n      sload\n      swap1\n      0x0100\n      exp\n      swap1\n      div\n      0xff\n      and\n      dup2\n      jump\t// out\n        /* \"#utility.yul\":7:146   */\n    tag_19:\n        /* \"#utility.yul\":53:58   */\n      0x00\n        /* \"#utility.yul\":91:97   */\n      dup2\n        /* \"#utility.yul\":78:98   */\n      calldataload\n        /* \"#utility.yul\":69:98   */\n      swap1\n      pop\n        /* \"#utility.yul\":107:140   */\n      tag_21\n        /* \"#utility.yul\":134:139   */\n      dup2\n        /* \"#utility.yul\":107:140   */\n      tag_22\n      jump\t// in\n    tag_21:\n        /* \"#utility.yul\":7:146   */\n      swap3\n      swap2\n      pop\n      pop\n      jump\t// out\n        /* \"#utility.yul\":152:481   */\n    tag_7:\n        /* \"#utility.yul\":211:217   */\n      0x00\n        /* \"#utility.yul\":260:262   */\n      0x20\n        /* \"#utility.yul\":248:257   */\n      dup3\n        /* \"#utility.yul\":239:246   */\n      dup5\n        /* \"#utility.yul\":235:258   */\n      sub\n        /* \"#utility.yul\":231:263   */\n      slt\n        /* \"#utility.yul\":228:347   */\n      iszero\n      tag_24\n      jumpi\n        /* \"#utility.yul\":266:345   */\n      tag_25\n      tag_26\n      jump\t// in\n    tag_25:\n        /* \"#utility.yul\":228:347   */\n    tag_24:\n        /* \"#utility.yul\":386:387   */\n      0x00\n        /* \"#utility.yul\":411:464   */\n      tag_27\n        /* \"#utility.yul\":456:463   */\n      dup5\n        /* \"#utility.yul\":447:453   */\n      dup3\n        /* \"#utility.yul\":436:445   */\n      dup6\n        /* \"#utility.yul\":432:454   */\n      add\n        /* \"#utility.yul\":411:464   */\n      tag_19\n      jump\t// in\n    tag_27:\n        /* \"#utility.yul\":401:464   */\n      swap2\n      pop\n        /* \"#utility.yul\":357:474   */\n      pop\n        /* \"#utility.yul\":152:481   */\n      swap3\n      swap2\n      pop\n      pop\n      jump\t// out\n        /* \"#utility.yul\":487:596   */\n    tag_28:\n        /* \"#utility.yul\":568:589   */\n      tag_30\n        /* \"#utility.yul\":583:588   */\n      dup2\n        /* \"#utility.yul\":568:589   */\n      tag_31\n      jump\t// in\n    tag_30:\n        /* \"#utility.yul\":563:566   */\n      dup3\n        /* \"#utility.yul\":556:590   */\n      mstore\n        /* \"#utility.yul\":487:596   */\n      pop\n      pop\n      jump\t// out\n        /* \"#utility.yul\":602:751   */\n    tag_32:\n        /* \"#utility.yul\":698:744   */\n      tag_34\n        /* \"#utility.yul\":738:743   */\n      dup2\n        /* \"#utility.yul\":698:744   */\n      tag_35\n      jump\t// in\n    tag_34:\n        /* \"#utility.yul\":693:696   */\n      dup3\n        /* \"#utility.yul\":686:745   */\n      mstore\n        /* \"#utility.yul\":602:751   */\n      pop\n      pop\n      jump\t// out\n        /* \"#utility.yul\":757:967   */\n    tag_14:\n        /* \"#utility.yul\":844:848   */\n      0x00\n        /* \"#utility.yul\":882:884   */\n      0x20\n        /* \"#utility.yul\":871:880   */\n      dup3\n        /* \"#utility.yul\":867:885   */\n      add\n        /* \"#utility.yul\":859:885   */\n      swap1\n      pop\n        /* \"#utility.yul\":895:960   */\n      tag_37\n        /* \"#utility.yul\":957:958   */\n      0x00\n        /* \"#utility.yul\":946:955   */\n      dup4\n        /* \"#utility.yul\":942:959   */\n      add\n        /* \"#utility.yul\":933:939   */\n      dup5\n        /* \"#utility.yul\":895:960   */\n      tag_28\n      jump\t// in\n    tag_37:\n        /* \"#utility.yul\":757:967   */\n      swap3\n      swap2\n      pop\n      pop\n      jump\t// out\n        /* \"#utility.yul\":973:1341   */\n    tag_10:\n        /* \"#utility.yul\":1112:1116   */\n      0x00\n        /* \"#utility.yul\":1150:1152   */\n      0x40\n        /* \"#utility.yul\":1139:1148   */\n      dup3\n        /* \"#utility.yul\":1135:1153   */\n      add\n        /* \"#utility.yul\":1127:1153   */\n      swap1\n      pop\n        /* \"#utility.yul\":1163:1243   */\n      tag_39\n        /* \"#utility.yul\":1240:1241   */\n      0x00\n        /* \"#utility.yul\":1229:1238   */\n      dup4\n        /* \"#utility.yul\":1225:1242   */\n      add\n        /* \"#utility.yul\":1216:1222   */\n      dup6\n        /* \"#utility.yul\":1163:1243   */\n      tag_32\n      jump\t// in\n    tag_39:\n        /* \"#utility.yul\":1253:1334   */\n      tag_40\n        /* \"#utility.yul\":1330:1332   */\n      0x20\n        /* \"#utility.yul\":1319:1328   */\n      dup4\n        /* \"#utility.yul\":1315:1333   */\n      add\n        /* \"#utility.yul\":1306:1312   */\n      dup5\n        /* \"#utility.yul\":1253:1334   */\n      tag_32\n      jump\t// in\n    tag_40:\n        /* \"#utility.yul\":973:1341   */\n      swap4\n      swap3\n      pop\n      pop\n      pop\n      jump\t// out\n        /* \"#utility.yul\":1428:1524   */\n    tag_43:\n        /* \"#utility.yul\":1465:1472   */\n      0x00\n        /* \"#utility.yul\":1494:1518   */\n      tag_45\n        /* \"#utility.yul\":1512:1517   */\n      dup3\n        /* \"#utility.yul\":1494:1518   */\n      tag_46\n      jump\t// in\n    tag_45:\n        /* \"#utility.yul\":1483:1518   */\n      swap1\n      pop\n        /* \"#utility.yul\":1428:1524   */\n      swap2\n      swap1\n      pop\n      jump\t// out\n        /* \"#utility.yul\":1530:1620   */\n    tag_31:\n        /* \"#utility.yul\":1564:1571   */\n      0x00\n        /* \"#utility.yul\":1607:1612   */\n      dup2\n        /* \"#utility.yul\":1600:1613   */\n      iszero\n        /* \"#utility.yul\":1593:1614   */\n      iszero\n        /* \"#utility.yul\":1582:1614   */\n      swap1\n      pop\n        /* \"#utility.yul\":1530:1620   */\n      swap2\n      swap1\n      pop\n      jump\t// out\n        /* \"#utility.yul\":1626:1759   */\n    tag_48:\n        /* \"#utility.yul\":1674:1681   */\n      0x00\n        /* \"#utility.yul\":1703:1708   */\n      dup2\n        /* \"#utility.yul\":1692:1708   */\n      swap1\n      pop\n        /* \"#utility.yul\":1709:1753   */\n      tag_50\n        /* \"#utility.yul\":1747:1752   */\n      dup3\n        /* \"#utility.yul\":1709:1753   */\n      tag_51\n      jump\t// in\n    tag_50:\n        /* \"#utility.yul\":1626:1759   */\n      swap2\n      swap1\n      pop\n      jump\t// out\n        /* \"#utility.yul\":1765:1891   */\n    tag_46:\n        /* \"#utility.yul\":1802:1809   */\n      0x00\n        /* \"#utility.yul\":1842:1884   */\n      0xffffffffffffffffffffffffffffffffffffffff\n        /* \"#utility.yul\":1835:1840   */\n      dup3\n        /* \"#utility.yul\":1831:1885   */\n      and\n        /* \"#utility.yul\":1820:1885   */\n      swap1\n      pop\n        /* \"#utility.yul\":1765:1891   */\n      swap2\n      swap1\n      pop\n      jump\t// out\n        /* \"#utility.yul\":1897:2030   */\n    tag_35:\n        /* \"#utility.yul\":1956:1965   */\n      0x00\n        /* \"#utility.yul\":1989:2024   */\n      tag_54\n        /* \"#utility.yul\":2018:2023   */\n      dup3\n        /* \"#utility.yul\":1989:2024   */\n      tag_48\n      jump\t// in\n    tag_54:\n        /* \"#utility.yul\":1976:2024   */\n      swap1\n      pop\n        /* \"#utility.yul\":1897:2030   */\n      swap2\n      swap1\n      pop\n      jump\t// out\n        /* \"#utility.yul\":2036:2216   */\n    tag_55:\n        /* \"#utility.yul\":2084:2161   */\n      0x4e487b7100000000000000000000000000000000000000000000000000000000\n        /* \"#utility.yul\":2081:2082   */\n      0x00\n        /* \"#utility.yul\":2074:2162   */\n      mstore\n        /* \"#utility.yul\":2181:2185   */\n      0x21\n        /* \"#utility.yul\":2178:2179   */\n      0x04\n        /* \"#utility.yul\":2171:2186   */\n      mstore\n        /* \"#utility.yul\":2205:2209   */\n      0x24\n        /* \"#utility.yul\":2202:2203   */\n      0x00\n        /* \"#utility.yul\":2195:2210   */\n      revert\n        /* \"#utility.yul\":2345:2462   */\n    tag_26:\n        /* \"#utility.yul\":2454:2455   */\n      0x00\n        /* \"#utility.yul\":2451:2452   */\n      dup1\n        /* \"#utility.yul\":2444:2456   */\n      revert\n        /* \"#utility.yul\":2468:2584   */\n    tag_51:\n        /* \"#utility.yul\":2552:2553   */\n      0x03\n        /* \"#utility.yul\":2545:2550   */\n      dup2\n        /* \"#utility.yul\":2542:2554   */\n      lt\n        /* \"#utility.yul\":2532:2578   */\n      tag_61\n      jumpi\n        /* \"#utility.yul\":2558:2576   */\n      tag_62\n      tag_55\n      jump\t// in\n    tag_62:\n        /* \"#utility.yul\":2532:2578   */\n    tag_61:\n        /* \"#utility.yul\":2468:2584   */\n      pop\n      jump\t// out\n        /* \"#utility.yul\":2590:2712   */\n    tag_22:\n        /* \"#utility.yul\":2663:2687   */\n      tag_64\n        /* \"#utility.yul\":2681:2686   */\n      dup2\n        /* \"#utility.yul\":2663:2687   */\n      tag_43\n      jump\t// in\n    tag_64:\n        /* \"#utility.yul\":2656:2661   */\n      dup2\n        /* \"#utility.yul\":2653:2688   */\n      eq\n        /* \"#utility.yul\":2643:2706   */\n      tag_65\n      jumpi\n        /* \"#utility.yul\":2702:2703   */\n      0x00\n        /* \"#utility.yul\":2699:2700   */\n      dup1\n        /* \"#utility.yul\":2692:2704   */\n      revert\n        /* \"#utility.yul\":2643:2706   */\n    tag_65:\n        /* \"#utility.yul\":2590:2712   */\n      pop\n      jump\t// out\n\n    auxdata: 0xa2646970667358221220ed807767293ab870e476d091c5b5a8301b280caa5db9dc27171623a3374595f164736f6c63430008070033\n}\n",
				"bytecode": {
					"linkReferences": {},
					"object": "608060405260016000806101000a81548160ff0219169083600281111561002957610028610084565b5b021790555060008060016101000a81548160ff0219169083600281111561005357610052610084565b5b021790555060008060026101000a81548160ff02191690831515021790555034801561007e57600080fd5b506100b3565b7f4e487b7100000000000000000000000000000000000000000000000000000000600052602160045260246000fd5b6102b9806100c26000396000f3fe608060405234801561001057600080fd5b50600436106100365760003560e01c80637366f53b1461003b578063e7c2b7721461006c575b600080fd5b61005560048036038101906100509190610132565b61008a565b604051610063929190610198565b60405180910390f35b61007461010a565b604051610081919061017d565b60405180910390f35b600080735b38da6a701c568545dcfcb03fcb875f56beddc473ffffffffffffffffffffffffffffffffffffffff168373ffffffffffffffffffffffffffffffffffffffff1614156100e2576001915060009050610105565b60008054906101000a900460ff169150600060019054906101000a900460ff1690505b915091565b600060029054906101000a900460ff1681565b60008135905061012c8161026c565b92915050565b60006020828403121561014857610147610253565b5b60006101568482850161011d565b91505092915050565b610168816101d3565b82525050565b61017781610212565b82525050565b6000602082019050610192600083018461015f565b92915050565b60006040820190506101ad600083018561016e565b6101ba602083018461016e565b9392505050565b60006101cc826101f2565b9050919050565b60008115159050919050565b60008190506101ed82610258565b919050565b600073ffffffffffffffffffffffffffffffffffffffff82169050919050565b600061021d826101df565b9050919050565b7f4e487b7100000000000000000000000000000000000000000000000000000000600052602160045260246000fd5b600080fd5b6003811061026957610268610224565b5b50565b610275816101c1565b811461028057600080fd5b5056fea2646970667358221220ed807767293ab870e476d091c5b5a8301b280caa5db9dc27171623a3374595f164736f6c63430008070033",
					"opcodes": "PUSH1 0x80 PUSH1 0x40 MSTORE PUSH1 0x1 PUSH1 0x0 DUP1 PUSH2 0x100 EXP DUP2 SLOAD DUP2 PUSH1 0xFF MUL NOT AND SWAP1 DUP4 PUSH1 0x2 DUP2 GT ISZERO PUSH2 0x29 JUMPI PUSH2 0x28 PUSH2 0x84 JUMP JUMPDEST JUMPDEST MUL OR SWAP1 SSTORE POP PUSH1 0x0 DUP1 PUSH1 0x1 PUSH2 0x100 EXP DUP2 SLOAD DUP2 PUSH1 0xFF MUL NOT AND SWAP1 DUP4 PUSH1 0x2 DUP2 GT ISZERO PUSH2 0x53 JUMPI PUSH2 0x52 PUSH2 0x84 JUMP JUMPDEST JUMPDEST MUL OR SWAP1 SSTORE POP PUSH1 0x0 DUP1 PUSH1 0x2 PUSH2 0x100 EXP DUP2 SLOAD DUP2 PUSH1 0xFF MUL NOT AND SWAP1 DUP4 ISZERO ISZERO MUL OR SWAP1 SSTORE POP CALLVALUE DUP1 ISZERO PUSH2 0x7E JUMPI PUSH1 0x0 DUP1 REVERT JUMPDEST POP PUSH2 0xB3 JUMP JUMPDEST PUSH32 0x4E487B7100000000000000000000000000000000000000000000000000000000 PUSH1 0x0 MSTORE PUSH1 0x21 PUSH1 0x4 MSTORE PUSH1 0x24 PUSH1 0x0 REVERT JUMPDEST PUSH2 0x2B9 DUP1 PUSH2 0xC2 PUSH1 0x0 CODECOPY PUSH1 0x0 RETURN INVALID PUSH1 0x80 PUSH1 0x40 MSTORE CALLVALUE DUP1 ISZERO PUSH2 0x10 JUMPI PUSH1 0x0 DUP1 REVERT JUMPDEST POP PUSH1 0x4 CALLDATASIZE LT PUSH2 0x36 JUMPI PUSH1 0x0 CALLDATALOAD PUSH1 0xE0 SHR DUP1 PUSH4 0x7366F53B EQ PUSH2 0x3B JUMPI DUP1 PUSH4 0xE7C2B772 EQ PUSH2 0x6C JUMPI JUMPDEST PUSH1 0x0 DUP1 REVERT JUMPDEST PUSH2 0x55 PUSH1 0x4 DUP1 CALLDATASIZE SUB DUP2 ADD SWAP1 PUSH2 0x50 SWAP2 SWAP1 PUSH2 0x132 JUMP JUMPDEST PUSH2 0x8A JUMP JUMPDEST PUSH1 0x40 MLOAD PUSH2 0x63 SWAP3 SWAP2 SWAP1 PUSH2 0x198 JUMP JUMPDEST PUSH1 0x40 MLOAD DUP1 SWAP2 SUB SWAP1 RETURN JUMPDEST PUSH2 0x74 PUSH2 0x10A JUMP JUMPDEST PUSH1 0x40 MLOAD PUSH2 0x81 SWAP2 SWAP1 PUSH2 0x17D JUMP JUMPDEST PUSH1 0x40 MLOAD DUP1 SWAP2 SUB SWAP1 RETURN JUMPDEST PUSH1 0x0 DUP1 PUSH20 0x5B38DA6A701C568545DCFCB03FCB875F56BEDDC4 PUSH20 0xFFFFFFFFFFFFFFFFFFFFFFFFFFFFFFFFFFFFFFFF AND DUP4 PUSH20 0xFFFFFFFFFFFFFFFFFFFFFFFFFFFFFFFFFFFFFFFF AND EQ ISZERO PUSH2 0xE2 JUMPI PUSH1 0x1 SWAP2 POP PUSH1 0x0 SWAP1 POP PUSH2 0x105 JUMP JUMPDEST PUSH1 0x0 DUP1 SLOAD SWAP1 PUSH2 0x100 EXP SWAP1 DIV PUSH1 0xFF AND SWAP2 POP PUSH1 0x0 PUSH1 0x1 SWAP1 SLOAD SWAP1 PUSH2 0x100 EXP SWAP1 DIV PUSH1 0xFF AND SWAP1 POP JUMPDEST SWAP2 POP SWAP2 JUMP JUMPDEST PUSH1 0x0 PUSH1 0x2 SWAP1 SLOAD SWAP1 PUSH2 0x100 EXP SWAP1 DIV PUSH1 0xFF AND DUP2 JUMP JUMPDEST PUSH1 0x0 DUP2 CALLDATALOAD SWAP1 POP PUSH2 0x12C DUP2 PUSH2 0x26C JUMP JUMPDEST SWAP3 SWAP2 POP POP JUMP JUMPDEST PUSH1 0x0 PUSH1 0x20 DUP3 DUP5 SUB SLT ISZERO PUSH2 0x148 JUMPI PUSH2 0x147 PUSH2 0x253 JUMP JUMPDEST JUMPDEST PUSH1 0x0 PUSH2 0x156 DUP5 DUP3 DUP6 ADD PUSH2 0x11D JUMP JUMPDEST SWAP2 POP POP SWAP3 SWAP2 POP POP JUMP JUMPDEST PUSH2 0x168 DUP2 PUSH2 0x1D3 JUMP JUMPDEST DUP3 MSTORE POP POP JUMP JUMPDEST PUSH2 0x177 DUP2 PUSH2 0x212 JUMP JUMPDEST DUP3 MSTORE POP POP JUMP JUMPDEST PUSH1 0x0 PUSH1 0x20 DUP3 ADD SWAP1 POP PUSH2 0x192 PUSH1 0x0 DUP4 ADD DUP5 PUSH2 0x15F JUMP JUMPDEST SWAP3 SWAP2 POP POP JUMP JUMPDEST PUSH1 0x0 PUSH1 0x40 DUP3 ADD SWAP1 POP PUSH2 0x1AD PUSH1 0x0 DUP4 ADD DUP6 PUSH2 0x16E JUMP JUMPDEST PUSH2 0x1BA PUSH1 0x20 DUP4 ADD DUP5 PUSH2 0x16E JUMP JUMPDEST SWAP4 SWAP3 POP POP POP JUMP JUMPDEST PUSH1 0x0 PUSH2 0x1CC DUP3 PUSH2 0x1F2 JUMP JUMPDEST SWAP1 POP SWAP2 SWAP1 POP JUMP JUMPDEST PUSH1 0x0 DUP2 ISZERO ISZERO SWAP1 POP SWAP2 SWAP1 POP JUMP JUMPDEST PUSH1 0x0 DUP2 SWAP1 POP PUSH2 0x1ED DUP3 PUSH2 0x258 JUMP JUMPDEST SWAP2 SWAP1 POP JUMP JUMPDEST PUSH1 0x0 PUSH20 0xFFFFFFFFFFFFFFFFFFFFFFFFFFFFFFFFFFFFFFFF DUP3 AND SWAP1 POP SWAP2 SWAP1 POP JUMP JUMPDEST PUSH1 0x0 PUSH2 0x21D DUP3 PUSH2 0x1DF JUMP JUMPDEST SWAP1 POP SWAP2 SWAP1 POP JUMP JUMPDEST PUSH32 0x4E487B7100000000000000000000000000000000000000000000000000000000 PUSH1 0x0 MSTORE PUSH1 0x21 PUSH1 0x4 MSTORE PUSH1 0x24 PUSH1 0x0 REVERT JUMPDEST PUSH1 0x0 DUP1 REVERT JUMPDEST PUSH1 0x3 DUP2 LT PUSH2 0x269 JUMPI PUSH2 0x268 PUSH2 0x224 JUMP JUMPDEST JUMPDEST POP JUMP JUMPDEST PUSH2 0x275 DUP2 PUSH2 0x1C1 JUMP JUMPDEST DUP2 EQ PUSH2 0x280 JUMPI PUSH1 0x0 DUP1 REVERT JUMPDEST POP JUMP INVALID LOG2 PUSH5 0x6970667358 0x22 SLT KECCAK256 0xED DUP1 PUSH24 0x67293AB870E476D091C5B5A8301B280CAA5DB9DC27171623 LOG3 CALLDATACOPY GASLIMIT SWAP6 CALL PUSH5 0x736F6C6343 STOP ADDMOD SMOD STOP CALLER "
				},
				"gasEstimates": {
					"creation": {
						"codeDepositCost": "139400",
						"executionCost": "73136",
						"totalCost": "212536"
					},
					"external": {
						"getExamsState(address)": "infinite",
						"graduated()": "2521"
					}
				},
				"methodIdentifiers": {
					"getExamsState(address)": "7366f53b",
					"graduated()": "e7c2b772"
				}
			},
			"storageLayout": {
				"storage": [
					{
						"astId": 10,
						"contract": "contracts/Gestione_Esami.sol:Gestione_Esami",
						"label": "RetiDiCalcolatori",
						"offset": 0,
						"slot": "0",
						"type": "t_enum(examState)5"
					},
					{
						"astId": 15,
						"contract": "contracts/Gestione_Esami.sol:Gestione_Esami",
						"label": "Crittografia",
						"offset": 1,
						"slot": "0",
						"type": "t_enum(examState)5"
					},
					{
						"astId": 18,
						"contract": "contracts/Gestione_Esami.sol:Gestione_Esami",
						"label": "graduated",
						"offset": 2,
						"slot": "0",
						"type": "t_bool"
					}
				],
				"types": {
					"t_bool": {
						"encoding": "inplace",
						"label": "bool",
						"numberOfBytes": "1"
					},
					"t_enum(examState)5": {
						"encoding": "inplace",
						"label": "enum Gestione_Esami.examState",
						"numberOfBytes": "1"
					}
				}
			},
			"userdoc": {
				"kind": "user",
				"methods": {},
				"version": 1
			}
		}
	}
}