{
	"contracts/Gestione_Esami.sol": {
		"Gestione_Esami": {
			"abi": [
				{
					"inputs": [],
					"stateMutability": "nonpayable",
					"type": "constructor"
				},
				{
					"inputs": [],
					"name": "getExamsState",
					"outputs": [
						{
							"internalType": "enum Gestione_Esami.examState",
							"name": "_exam1",
							"type": "uint8"
						},
						{
							"internalType": "enum Gestione_Esami.examState",
							"name": "_exam2",
							"type": "uint8"
						}
					],
					"stateMutability": "view",
					"type": "function"
				},
				{
					"inputs": [],
					"name": "graduated",
					"outputs": [
						{
							"internalType": "bool",
							"name": "",
							"type": "bool"
						}
					],
					"stateMutability": "view",
					"type": "function"
				}
			],
			"devdoc": {
				"kind": "dev",
				"methods": {},
				"version": 1
			},
			"evm": {
				"assembly": "    /* \"contracts/Gestione_Esami.sol\":60:486  contract Gestione_Esami {\r... */\n  mstore(0x40, 0x80)\n    /* \"contracts/Gestione_Esami.sol\":196:211  examState.TO_DO */\n  0x00\n    /* \"contracts/Gestione_Esami.sol\":168:211  examState RetiDiCalcolatori=examState.TO_DO */\n  dup1\n  exp(0x0100, 0x00)\n  dup2\n  sload\n  dup2\n  0xff\n  mul\n  not\n  and\n  swap1\n  dup4\n  0x02\n  dup2\n  gt\n  iszero\n  tag_1\n  jumpi\n  tag_2\n  tag_3\n  jump\t// in\ntag_2:\ntag_1:\n  mul\n  or\n  swap1\n  sstore\n  pop\n    /* \"contracts/Gestione_Esami.sol\":241:256  examState.TO_DO */\n  0x00\n    /* \"contracts/Gestione_Esami.sol\":218:256  examState Crittografia=examState.TO_DO */\n  dup1\n  exp(0x0100, 0x01)\n  dup2\n  sload\n  dup2\n  0xff\n  mul\n  not\n  and\n  swap1\n  dup4\n  0x02\n  dup2\n  gt\n  iszero\n  tag_4\n  jumpi\n  tag_5\n  tag_3\n  jump\t// in\ntag_5:\ntag_4:\n  mul\n  or\n  swap1\n  sstore\n  pop\n    /* \"contracts/Gestione_Esami.sol\":285:290  false */\n  0x00\n    /* \"contracts/Gestione_Esami.sol\":263:290  bool public graduated=false */\n  dup1\n  exp(0x0100, 0x02)\n  dup2\n  sload\n  dup2\n  0xff\n  mul\n  not\n  and\n  swap1\n  dup4\n  iszero\n  iszero\n  mul\n  or\n  swap1\n  sstore\n  pop\n    /* \"contracts/Gestione_Esami.sol\":299:321  constructor() {\r... */\n  callvalue\n  dup1\n  iszero\n  tag_6\n  jumpi\n  0x00\n  dup1\n  revert\ntag_6:\n  pop\n    /* \"contracts/Gestione_Esami.sol\":60:486  contract Gestione_Esami {\r... */\n  jump(tag_9)\n    /* \"#utility.yul\":7:187   */\ntag_3:\n    /* \"#utility.yul\":55:132   */\n  0x4e487b7100000000000000000000000000000000000000000000000000000000\n    /* \"#utility.yul\":52:53   */\n  0x00\n    /* \"#utility.yul\":45:133   */\n  mstore\n    /* \"#utility.yul\":152:156   */\n  0x21\n    /* \"#utility.yul\":149:150   */\n  0x04\n    /* \"#utility.yul\":142:157   */\n  mstore\n    /* \"#utility.yul\":176:180   */\n  0x24\n    /* \"#utility.yul\":173:174   */\n  0x00\n    /* \"#utility.yul\":166:181   */\n  revert\n    /* \"contracts/Gestione_Esami.sol\":60:486  contract Gestione_Esami {\r... */\ntag_9:\n  dataSize(sub_0)\n  dup1\n  dataOffset(sub_0)\n  0x00\n  codecopy\n  0x00\n  return\nstop\n\nsub_0: assembly {\n        /* \"contracts/Gestione_Esami.sol\":60:486  contract Gestione_Esami {\r... */\n      mstore(0x40, 0x80)\n      callvalue\n      dup1\n      iszero\n      tag_1\n      jumpi\n      0x00\n      dup1\n      revert\n    tag_1:\n      pop\n      jumpi(tag_2, lt(calldatasize, 0x04))\n      shr(0xe0, calldataload(0x00))\n      dup1\n      0x15d1f6f7\n      eq\n      tag_3\n      jumpi\n      dup1\n      0xe7c2b772\n      eq\n      tag_4\n      jumpi\n    tag_2:\n      0x00\n      dup1\n      revert\n        /* \"contracts/Gestione_Esami.sol\":329:483  function getExamsState() public view returns (examState _exam1,examState _exam2) {\r... */\n    tag_3:\n      tag_5\n      tag_6\n      jump\t// in\n    tag_5:\n      mload(0x40)\n      tag_7\n      swap3\n      swap2\n      swap1\n      tag_8\n      jump\t// in\n    tag_7:\n      mload(0x40)\n      dup1\n      swap2\n      sub\n      swap1\n      return\n        /* \"contracts/Gestione_Esami.sol\":263:290  bool public graduated=false */\n    tag_4:\n      tag_9\n      tag_10\n      jump\t// in\n    tag_9:\n      mload(0x40)\n      tag_11\n      swap2\n      swap1\n      tag_12\n      jump\t// in\n    tag_11:\n      mload(0x40)\n      dup1\n      swap2\n      sub\n      swap1\n      return\n        /* \"contracts/Gestione_Esami.sol\":329:483  function getExamsState() public view returns (examState _exam1,examState _exam2) {\r... */\n    tag_6:\n        /* \"contracts/Gestione_Esami.sol\":375:391  examState _exam1 */\n      0x00\n        /* \"contracts/Gestione_Esami.sol\":392:408  examState _exam2 */\n      dup1\n        /* \"contracts/Gestione_Esami.sol\":428:445  RetiDiCalcolatori */\n      0x00\n      dup1\n      sload\n      swap1\n      0x0100\n      exp\n      swap1\n      div\n      0xff\n      and\n        /* \"contracts/Gestione_Esami.sol\":421:445  _exam1=RetiDiCalcolatori */\n      swap2\n      pop\n        /* \"contracts/Gestione_Esami.sol\":463:475  Crittografia */\n      0x00\n      0x01\n      swap1\n      sload\n      swap1\n      0x0100\n      exp\n      swap1\n      div\n      0xff\n      and\n        /* \"contracts/Gestione_Esami.sol\":456:475  _exam2=Crittografia */\n      swap1\n      pop\n        /* \"contracts/Gestione_Esami.sol\":329:483  function getExamsState() public view returns (examState _exam1,examState _exam2) {\r... */\n      swap1\n      swap2\n      jump\t// out\n        /* \"contracts/Gestione_Esami.sol\":263:290  bool public graduated=false */\n    tag_10:\n      0x00\n      0x02\n      swap1\n      sload\n      swap1\n      0x0100\n      exp\n      swap1\n      div\n      0xff\n      and\n      dup2\n      jump\t// out\n        /* \"#utility.yul\":7:116   */\n    tag_15:\n        /* \"#utility.yul\":88:109   */\n      tag_17\n        /* \"#utility.yul\":103:108   */\n      dup2\n        /* \"#utility.yul\":88:109   */\n      tag_18\n      jump\t// in\n    tag_17:\n        /* \"#utility.yul\":83:86   */\n      dup3\n        /* \"#utility.yul\":76:110   */\n      mstore\n        /* \"#utility.yul\":7:116   */\n      pop\n      pop\n      jump\t// out\n        /* \"#utility.yul\":122:271   */\n    tag_19:\n        /* \"#utility.yul\":218:264   */\n      tag_21\n        /* \"#utility.yul\":258:263   */\n      dup2\n        /* \"#utility.yul\":218:264   */\n      tag_22\n      jump\t// in\n    tag_21:\n        /* \"#utility.yul\":213:216   */\n      dup3\n        /* \"#utility.yul\":206:265   */\n      mstore\n        /* \"#utility.yul\":122:271   */\n      pop\n      pop\n      jump\t// out\n        /* \"#utility.yul\":277:487   */\n    tag_12:\n        /* \"#utility.yul\":364:368   */\n      0x00\n        /* \"#utility.yul\":402:404   */\n      0x20\n        /* \"#utility.yul\":391:400   */\n      dup3\n        /* \"#utility.yul\":387:405   */\n      add\n        /* \"#utility.yul\":379:405   */\n      swap1\n      pop\n        /* \"#utility.yul\":415:480   */\n      tag_24\n        /* \"#utility.yul\":477:478   */\n      0x00\n        /* \"#utility.yul\":466:475   */\n      dup4\n        /* \"#utility.yul\":462:479   */\n      add\n        /* \"#utility.yul\":453:459   */\n      dup5\n        /* \"#utility.yul\":415:480   */\n      tag_15\n      jump\t// in\n    tag_24:\n        /* \"#utility.yul\":277:487   */\n      swap3\n      swap2\n      pop\n      pop\n      jump\t// out\n        /* \"#utility.yul\":493:861   */\n    tag_8:\n        /* \"#utility.yul\":632:636   */\n      0x00\n        /* \"#utility.yul\":670:672   */\n      0x40\n        /* \"#utility.yul\":659:668   */\n      dup3\n        /* \"#utility.yul\":655:673   */\n      add\n        /* \"#utility.yul\":647:673   */\n      swap1\n      pop\n        /* \"#utility.yul\":683:763   */\n      tag_26\n        /* \"#utility.yul\":760:761   */\n      0x00\n        /* \"#utility.yul\":749:758   */\n      dup4\n        /* \"#utility.yul\":745:762   */\n      add\n        /* \"#utility.yul\":736:742   */\n      dup6\n        /* \"#utility.yul\":683:763   */\n      tag_19\n      jump\t// in\n    tag_26:\n        /* \"#utility.yul\":773:854   */\n      tag_27\n        /* \"#utility.yul\":850:852   */\n      0x20\n        /* \"#utility.yul\":839:848   */\n      dup4\n        /* \"#utility.yul\":835:853   */\n      add\n        /* \"#utility.yul\":826:832   */\n      dup5\n        /* \"#utility.yul\":773:854   */\n      tag_19\n      jump\t// in\n    tag_27:\n        /* \"#utility.yul\":493:861   */\n      swap4\n      swap3\n      pop\n      pop\n      pop\n      jump\t// out\n        /* \"#utility.yul\":867:957   */\n    tag_18:\n        /* \"#utility.yul\":901:908   */\n      0x00\n        /* \"#utility.yul\":944:949   */\n      dup2\n        /* \"#utility.yul\":937:950   */\n      iszero\n        /* \"#utility.yul\":930:951   */\n      iszero\n        /* \"#utility.yul\":919:951   */\n      swap1\n      pop\n        /* \"#utility.yul\":867:957   */\n      swap2\n      swap1\n      pop\n      jump\t// out\n        /* \"#utility.yul\":963:1096   */\n    tag_29:\n        /* \"#utility.yul\":1011:1018   */\n      0x00\n        /* \"#utility.yul\":1040:1045   */\n      dup2\n        /* \"#utility.yul\":1029:1045   */\n      swap1\n      pop\n        /* \"#utility.yul\":1046:1090   */\n      tag_31\n        /* \"#utility.yul\":1084:1089   */\n      dup3\n        /* \"#utility.yul\":1046:1090   */\n      tag_32\n      jump\t// in\n    tag_31:\n        /* \"#utility.yul\":963:1096   */\n      swap2\n      swap1\n      pop\n      jump\t// out\n        /* \"#utility.yul\":1102:1235   */\n    tag_22:\n        /* \"#utility.yul\":1161:1170   */\n      0x00\n        /* \"#utility.yul\":1194:1229   */\n      tag_34\n        /* \"#utility.yul\":1223:1228   */\n      dup3\n        /* \"#utility.yul\":1194:1229   */\n      tag_29\n      jump\t// in\n    tag_34:\n        /* \"#utility.yul\":1181:1229   */\n      swap1\n      pop\n        /* \"#utility.yul\":1102:1235   */\n      swap2\n      swap1\n      pop\n      jump\t// out\n        /* \"#utility.yul\":1241:1421   */\n    tag_35:\n        /* \"#utility.yul\":1289:1366   */\n      0x4e487b7100000000000000000000000000000000000000000000000000000000\n        /* \"#utility.yul\":1286:1287   */\n      0x00\n        /* \"#utility.yul\":1279:1367   */\n      mstore\n        /* \"#utility.yul\":1386:1390   */\n      0x21\n        /* \"#utility.yul\":1383:1384   */\n      0x04\n        /* \"#utility.yul\":1376:1391   */\n      mstore\n        /* \"#utility.yul\":1410:1414   */\n      0x24\n        /* \"#utility.yul\":1407:1408   */\n      0x00\n        /* \"#utility.yul\":1400:1415   */\n      revert\n        /* \"#utility.yul\":1427:1543   */\n    tag_32:\n        /* \"#utility.yul\":1511:1512   */\n      0x03\n        /* \"#utility.yul\":1504:1509   */\n      dup2\n        /* \"#utility.yul\":1501:1513   */\n      lt\n        /* \"#utility.yul\":1491:1537   */\n      tag_38\n      jumpi\n        /* \"#utility.yul\":1517:1535   */\n      tag_39\n      tag_35\n      jump\t// in\n    tag_39:\n        /* \"#utility.yul\":1491:1537   */\n    tag_38:\n        /* \"#utility.yul\":1427:1543   */\n      pop\n      jump\t// out\n\n    auxdata: 0xa2646970667358221220b915246ff628a2493ad2477b7693994da4302e2570e072eee5e4ed5988a666e064736f6c63430008070033\n}\n",
				"bytecode": {
					"linkReferences": {},
					"object": "608060405260008060006101000a81548160ff0219169083600281111561002957610028610084565b5b021790555060008060016101000a81548160ff0219169083600281111561005357610052610084565b5b021790555060008060026101000a81548160ff02191690831515021790555034801561007e57600080fd5b506100b3565b7f4e487b7100000000000000000000000000000000000000000000000000000000600052602160045260246000fd5b6101c0806100c26000396000f3fe608060405234801561001057600080fd5b50600436106100365760003560e01c806315d1f6f71461003b578063e7c2b7721461005a575b600080fd5b610043610078565b6040516100519291906100ed565b60405180910390f35b6100626100a1565b60405161006f91906100d2565b60405180910390f35b60008060008054906101000a900460ff169150600060019054906101000a900460ff1690509091565b600060029054906101000a900460ff1681565b6100bd81610116565b82525050565b6100cc81610135565b82525050565b60006020820190506100e760008301846100b4565b92915050565b600060408201905061010260008301856100c3565b61010f60208301846100c3565b9392505050565b60008115159050919050565b600081905061013082610176565b919050565b600061014082610122565b9050919050565b7f4e487b7100000000000000000000000000000000000000000000000000000000600052602160045260246000fd5b6003811061018757610186610147565b5b5056fea2646970667358221220b915246ff628a2493ad2477b7693994da4302e2570e072eee5e4ed5988a666e064736f6c63430008070033",
					"opcodes": "PUSH1 0x80 PUSH1 0x40 MSTORE PUSH1 0x0 DUP1 PUSH1 0x0 PUSH2 0x100 EXP DUP2 SLOAD DUP2 PUSH1 0xFF MUL NOT AND SWAP1 DUP4 PUSH1 0x2 DUP2 GT ISZERO PUSH2 0x29 JUMPI PUSH2 0x28 PUSH2 0x84 JUMP JUMPDEST JUMPDEST MUL OR SWAP1 SSTORE POP PUSH1 0x0 DUP1 PUSH1 0x1 PUSH2 0x100 EXP DUP2 SLOAD DUP2 PUSH1 0xFF MUL NOT AND SWAP1 DUP4 PUSH1 0x2 DUP2 GT ISZERO PUSH2 0x53 JUMPI PUSH2 0x52 PUSH2 0x84 JUMP JUMPDEST JUMPDEST MUL OR SWAP1 SSTORE POP PUSH1 0x0 DUP1 PUSH1 0x2 PUSH2 0x100 EXP DUP2 SLOAD DUP2 PUSH1 0xFF MUL NOT AND SWAP1 DUP4 ISZERO ISZERO MUL OR SWAP1 SSTORE POP CALLVALUE DUP1 ISZERO PUSH2 0x7E JUMPI PUSH1 0x0 DUP1 REVERT JUMPDEST POP PUSH2 0xB3 JUMP JUMPDEST PUSH32 0x4E487B7100000000000000000000000000000000000000000000000000000000 PUSH1 0x0 MSTORE PUSH1 0x21 PUSH1 0x4 MSTORE PUSH1 0x24 PUSH1 0x0 REVERT JUMPDEST PUSH2 0x1C0 DUP1 PUSH2 0xC2 PUSH1 0x0 CODECOPY PUSH1 0x0 RETURN INVALID PUSH1 0x80 PUSH1 0x40 MSTORE CALLVALUE DUP1 ISZERO PUSH2 0x10 JUMPI PUSH1 0x0 DUP1 REVERT JUMPDEST POP PUSH1 0x4 CALLDATASIZE LT PUSH2 0x36 JUMPI PUSH1 0x0 CALLDATALOAD PUSH1 0xE0 SHR DUP1 PUSH4 0x15D1F6F7 EQ PUSH2 0x3B JUMPI DUP1 PUSH4 0xE7C2B772 EQ PUSH2 0x5A JUMPI JUMPDEST PUSH1 0x0 DUP1 REVERT JUMPDEST PUSH2 0x43 PUSH2 0x78 JUMP JUMPDEST PUSH1 0x40 MLOAD PUSH2 0x51 SWAP3 SWAP2 SWAP1 PUSH2 0xED JUMP JUMPDEST PUSH1 0x40 MLOAD DUP1 SWAP2 SUB SWAP1 RETURN JUMPDEST PUSH2 0x62 PUSH2 0xA1 JUMP JUMPDEST PUSH1 0x40 MLOAD PUSH2 0x6F SWAP2 SWAP1 PUSH2 0xD2 JUMP JUMPDEST PUSH1 0x40 MLOAD DUP1 SWAP2 SUB SWAP1 RETURN JUMPDEST PUSH1 0x0 DUP1 PUSH1 0x0 DUP1 SLOAD SWAP1 PUSH2 0x100 EXP SWAP1 DIV PUSH1 0xFF AND SWAP2 POP PUSH1 0x0 PUSH1 0x1 SWAP1 SLOAD SWAP1 PUSH2 0x100 EXP SWAP1 DIV PUSH1 0xFF AND SWAP1 POP SWAP1 SWAP2 JUMP JUMPDEST PUSH1 0x0 PUSH1 0x2 SWAP1 SLOAD SWAP1 PUSH2 0x100 EXP SWAP1 DIV PUSH1 0xFF AND DUP2 JUMP JUMPDEST PUSH2 0xBD DUP2 PUSH2 0x116 JUMP JUMPDEST DUP3 MSTORE POP POP JUMP JUMPDEST PUSH2 0xCC DUP2 PUSH2 0x135 JUMP JUMPDEST DUP3 MSTORE POP POP JUMP JUMPDEST PUSH1 0x0 PUSH1 0x20 DUP3 ADD SWAP1 POP PUSH2 0xE7 PUSH1 0x0 DUP4 ADD DUP5 PUSH2 0xB4 JUMP JUMPDEST SWAP3 SWAP2 POP POP JUMP JUMPDEST PUSH1 0x0 PUSH1 0x40 DUP3 ADD SWAP1 POP PUSH2 0x102 PUSH1 0x0 DUP4 ADD DUP6 PUSH2 0xC3 JUMP JUMPDEST PUSH2 0x10F PUSH1 0x20 DUP4 ADD DUP5 PUSH2 0xC3 JUMP JUMPDEST SWAP4 SWAP3 POP POP POP JUMP JUMPDEST PUSH1 0x0 DUP2 ISZERO ISZERO SWAP1 POP SWAP2 SWAP1 POP JUMP JUMPDEST PUSH1 0x0 DUP2 SWAP1 POP PUSH2 0x130 DUP3 PUSH2 0x176 JUMP JUMPDEST SWAP2 SWAP1 POP JUMP JUMPDEST PUSH1 0x0 PUSH2 0x140 DUP3 PUSH2 0x122 JUMP JUMPDEST SWAP1 POP SWAP2 SWAP1 POP JUMP JUMPDEST PUSH32 0x4E487B7100000000000000000000000000000000000000000000000000000000 PUSH1 0x0 MSTORE PUSH1 0x21 PUSH1 0x4 MSTORE PUSH1 0x24 PUSH1 0x0 REVERT JUMPDEST PUSH1 0x3 DUP2 LT PUSH2 0x187 JUMPI PUSH2 0x186 PUSH2 0x147 JUMP JUMPDEST JUMPDEST POP JUMP INVALID LOG2 PUSH5 0x6970667358 0x22 SLT KECCAK256 0xB9 ISZERO 0x24 PUSH16 0xF628A2493AD2477B7693994DA4302E25 PUSH17 0xE072EEE5E4ED5988A666E064736F6C6343 STOP ADDMOD SMOD STOP CALLER "
				},
				"gasEstimates": {
					"creation": {
						"codeDepositCost": "89600",
						"executionCost": "73088",
						"totalCost": "162688"
					},
					"external": {
						"getExamsState()": "infinite",
						"graduated()": "2521"
					}
				},
				"methodIdentifiers": {
					"getExamsState()": "15d1f6f7",
					"graduated()": "e7c2b772"
				}
			},
			"storageLayout": {
				"storage": [
					{
						"astId": 10,
						"contract": "contracts/Gestione_Esami.sol:Gestione_Esami",
						"label": "RetiDiCalcolatori",
						"offset": 0,
						"slot": "0",
						"type": "t_enum(examState)5"
					},
					{
						"astId": 15,
						"contract": "contracts/Gestione_Esami.sol:Gestione_Esami",
						"label": "Crittografia",
						"offset": 1,
						"slot": "0",
						"type": "t_enum(examState)5"
					},
					{
						"astId": 18,
						"contract": "contracts/Gestione_Esami.sol:Gestione_Esami",
						"label": "graduated",
						"offset": 2,
						"slot": "0",
						"type": "t_bool"
					}
				],
				"types": {
					"t_bool": {
						"encoding": "inplace",
						"label": "bool",
						"numberOfBytes": "1"
					},
					"t_enum(examState)5": {
						"encoding": "inplace",
						"label": "enum Gestione_Esami.examState",
						"numberOfBytes": "1"
					}
				}
			},
			"userdoc": {
				"kind": "user",
				"methods": {},
				"version": 1
			}
		}
	}
}