{
	"data": {
		"bytecode": {
			"linkReferences": {},
			"object": "60806040523480156200001157600080fd5b5062000032620000266200011860201b60201c565b6200012060201b60201c565b600380600181540180825580915050600190039060005260206000200160006040518060400160405280600581526020017f323734414100000000000000000000000000000000000000000000000000000081525090919091509080519060200190620000a1929190620001e4565b50600380600181540180825580915050600190039060005260206000200160006040518060400160405280600581526020017f32343541410000000000000000000000000000000000000000000000000000008152509091909150908051906020019062000111929190620001e4565b50620002f9565b600033905090565b60008060009054906101000a900473ffffffffffffffffffffffffffffffffffffffff169050816000806101000a81548173ffffffffffffffffffffffffffffffffffffffff021916908373ffffffffffffffffffffffffffffffffffffffff1602179055508173ffffffffffffffffffffffffffffffffffffffff168173ffffffffffffffffffffffffffffffffffffffff167f8be0079c531659141344cd1fd0a4f28419497f9722a3daafe3b4186f6b6457e060405160405180910390a35050565b828054620001f29062000294565b90600052602060002090601f01602090048101928262000216576000855562000262565b82601f106200023157805160ff191683800117855562000262565b8280016001018555821562000262579182015b828111156200026157825182559160200191906001019062000244565b5b50905062000271919062000275565b5090565b5b808211156200029057600081600090555060010162000276565b5090565b60006002820490506001821680620002ad57607f821691505b60208210811415620002c457620002c3620002ca565b5b50919050565b7f4e487b7100000000000000000000000000000000000000000000000000000000600052602260045260246000fd5b611b3f80620003096000396000f3fe608060405234801561001057600080fd5b50600436106100b45760003560e01c806381d7016c1161007157806381d7016c1461017957806386db377a146101985780638da5cb5b146101c8578063a7f70611146101e6578063db87429514610217578063f2fde38b14610233576100b4565b80630e7d8ce5146100b95780631f3ce1d3146100d55780633434d8bb146100f3578063684609eb1461012357806368a4c8b71461013f578063715018a61461016f575b600080fd5b6100d360048036038101906100ce9190610f3d565b61024f565b005b6100dd6104b4565b6040516100ea91906113cd565b60405180910390f35b61010d60048036038101906101089190610ee1565b61058d565b60405161011a919061140a565b60405180910390f35b61013d60048036038101906101389190610eb4565b610648565b005b61015960048036038101906101549190610eb4565b610849565b60405161016691906113ef565b60405180910390f35b61017761089f565b005b6101816108b3565b60405161018f92919061139d565b60405180910390f35b6101b260048036038101906101ad9190610fac565b6108c8565b6040516101bf919061140a565b60405180910390f35b6101d06108db565b6040516101dd9190611382565b60405180910390f35b61020060048036038101906101fb9190610eb4565b610904565b60405161020e92919061139d565b60405180910390f35b610231600480360381019061022c9190610fac565b610a6b565b005b61024d60048036038101906102489190610eb4565b610afb565b005b610257610b7f565b6000600281111561026b5761026a6117e4565b5b81600281111561027e5761027d6117e4565b5b14156102bf576040517f08c379a00000000000000000000000000000000000000000000000000000000081526004016102b6906114c5565b60405180910390fd5b60028160028111156102d4576102d36117e4565b5b1115610315576040517f08c379a000000000000000000000000000000000000000000000000000000000815260040161030c90611445565b60405180910390fd5b61031e82610bfd565b61035d576040517f08c379a000000000000000000000000000000000000000000000000000000000815260040161035490611485565b60405180910390fd5b60006002811115610371576103706117e4565b5b6001836040516103819190611354565b908152602001604051809103902060008573ffffffffffffffffffffffffffffffffffffffff1673ffffffffffffffffffffffffffffffffffffffff16815260200190815260200160002060009054906101000a900460ff1660028111156103ec576103eb6117e4565b5b1461042c576040517f08c379a0000000000000000000000000000000000000000000000000000000008152600401610423906114e5565b60405180910390fd5b8060018360405161043d9190611354565b908152602001604051809103902060008573ffffffffffffffffffffffffffffffffffffffff1673ffffffffffffffffffffffffffffffffffffffff16815260200190815260200160002060006101000a81548160ff021916908360028111156104aa576104a96117e4565b5b0217905550505050565b60606003805480602002602001604051908101604052809291908181526020016000905b828210156105845783829060005260206000200180546104f790611709565b80601f016020809104026020016040519081016040528092919081815260200182805461052390611709565b80156105705780601f1061054557610100808354040283529160200191610570565b820191906000526020600020905b81548152906001019060200180831161055357829003601f168201915b5050505050815260200190600101906104d8565b50505050905090565b600061059882610bfd565b6105d7576040517f08c379a00000000000000000000000000000000000000000000000000000000081526004016105ce90611485565b60405180910390fd5b6001826040516105e79190611354565b908152602001604051809103902060008473ffffffffffffffffffffffffffffffffffffffff1673ffffffffffffffffffffffffffffffffffffffff16815260200190815260200160002060009054906101000a900460ff16905092915050565b610650610b7f565b600260008273ffffffffffffffffffffffffffffffffffffffff1673ffffffffffffffffffffffffffffffffffffffff16815260200190815260200160002060009054906101000a900460ff16156106dd576040517f08c379a00000000000000000000000000000000000000000000000000000000081526004016106d490611525565b60405180910390fd5b60005b6003805490508110156107ed5760006002811115610701576107006117e4565b5b60016003838154811061071757610716611842565b5b9060005260206000200160405161072e919061136b565b908152602001604051809103902060008473ffffffffffffffffffffffffffffffffffffffff1673ffffffffffffffffffffffffffffffffffffffff16815260200190815260200160002060009054906101000a900460ff166002811115610799576107986117e4565b5b14156107da576040517f08c379a00000000000000000000000000000000000000000000000000000000081526004016107d190611465565b60405180910390fd5b80806107e59061176c565b9150506106e0565b506001600260008373ffffffffffffffffffffffffffffffffffffffff1673ffffffffffffffffffffffffffffffffffffffff16815260200190815260200160002060006101000a81548160ff02191690831515021790555050565b6000600260008373ffffffffffffffffffffffffffffffffffffffff1673ffffffffffffffffffffffffffffffffffffffff16815260200190815260200160002060009054906101000a900460ff169050919050565b6108a7610b7f565b6108b16000610cab565b565b606060006108c033610904565b915091509091565b60006108d4338361058d565b9050919050565b60008060009054906101000a900473ffffffffffffffffffffffffffffffffffffffff16905090565b60606000610910610b7f565b600060038054905067ffffffffffffffff81111561093157610930611871565b5b60405190808252806020026020018201604052801561095f5781602001602082028036833780820191505090505b50905060005b600380549050811015610a505760016003828154811061098857610987611842565b5b9060005260206000200160405161099f919061136b565b908152602001604051809103902060008673ffffffffffffffffffffffffffffffffffffffff1673ffffffffffffffffffffffffffffffffffffffff16815260200190815260200160002060009054906101000a900460ff16828281518110610a0b57610a0a611842565b5b60200260200101906002811115610a2557610a246117e4565b5b90816002811115610a3957610a386117e4565b5b815250508080610a489061176c565b915050610965565b506000610a5c85610849565b90508181935093505050915091565b610a73610b7f565b610a7c81610bfd565b15610abc576040517f08c379a0000000000000000000000000000000000000000000000000000000008152600401610ab390611505565b60405180910390fd5b600381908060018154018082558091505060019003906000526020600020016000909190919091509080519060200190610af7929190610d77565b5050565b610b03610b7f565b600073ffffffffffffffffffffffffffffffffffffffff168173ffffffffffffffffffffffffffffffffffffffff161415610b73576040517f08c379a0000000000000000000000000000000000000000000000000000000008152600401610b6a90611425565b60405180910390fd5b610b7c81610cab565b50565b610b87610d6f565b73ffffffffffffffffffffffffffffffffffffffff16610ba56108db565b73ffffffffffffffffffffffffffffffffffffffff1614610bfb576040517f08c379a0000000000000000000000000000000000000000000000000000000008152600401610bf2906114a5565b60405180910390fd5b565b600080600090505b600380549050811015610ca05782604051602001610c239190611354565b6040516020818303038152906040528051906020012060038281548110610c4d57610c4c611842565b5b90600052602060002001604051602001610c67919061136b565b604051602081830303815290604052805190602001201415610c8d576001915050610ca6565b8080610c989061176c565b915050610c05565b50600090505b919050565b60008060009054906101000a900473ffffffffffffffffffffffffffffffffffffffff169050816000806101000a81548173ffffffffffffffffffffffffffffffffffffffff021916908373ffffffffffffffffffffffffffffffffffffffff1602179055508173ffffffffffffffffffffffffffffffffffffffff168173ffffffffffffffffffffffffffffffffffffffff167f8be0079c531659141344cd1fd0a4f28419497f9722a3daafe3b4186f6b6457e060405160405180910390a35050565b600033905090565b828054610d8390611709565b90600052602060002090601f016020900481019282610da55760008555610dec565b82601f10610dbe57805160ff1916838001178555610dec565b82800160010185558215610dec579182015b82811115610deb578251825591602001919060010190610dd0565b5b509050610df99190610dfd565b5090565b5b80821115610e16576000816000905550600101610dfe565b5090565b6000610e2d610e288461156a565b611545565b905082815260208101848484011115610e4957610e486118a5565b5b610e548482856116c7565b509392505050565b600081359050610e6b81611ae2565b92915050565b600081359050610e8081611af9565b92915050565b600082601f830112610e9b57610e9a6118a0565b5b8135610eab848260208601610e1a565b91505092915050565b600060208284031215610eca57610ec96118af565b5b6000610ed884828501610e5c565b91505092915050565b60008060408385031215610ef857610ef76118af565b5b6000610f0685828601610e5c565b925050602083013567ffffffffffffffff811115610f2757610f266118aa565b5b610f3385828601610e86565b9150509250929050565b600080600060608486031215610f5657610f556118af565b5b6000610f6486828701610e5c565b935050602084013567ffffffffffffffff811115610f8557610f846118aa565b5b610f9186828701610e86565b9250506040610fa286828701610e71565b9150509250925092565b600060208284031215610fc257610fc16118af565b5b600082013567ffffffffffffffff811115610fe057610fdf6118aa565b5b610fec84828501610e86565b91505092915050565b60006110018383611112565b60208301905092915050565b60006110198383611130565b905092915050565b61102a8161165a565b82525050565b600061103b826115d0565b611045818561161c565b93506110508361159b565b8060005b838110156110815781516110688882610ff5565b9750611073836115f1565b925050600181019050611054565b5085935050505092915050565b6000611099826115db565b6110a3818561160b565b9350836020820285016110b5856115ab565b8060005b858110156110f157848403895281516110d2858261100d565b94506110dd836115fe565b925060208a019950506001810190506110b9565b50829750879550505050505092915050565b61110c8161166c565b82525050565b61111b816116b5565b82525050565b61112a816116b5565b82525050565b600061113b826115e6565b611145818561162d565b93506111558185602086016116d6565b61115e816118b4565b840191505092915050565b6000611174826115e6565b61117e818561164f565b935061118e8185602086016116d6565b80840191505092915050565b600081546111a781611709565b6111b1818661164f565b945060018216600081146111cc57600181146111dd57611210565b60ff19831686528186019350611210565b6111e6856115bb565b60005b83811015611208578154818901526001820191506020810190506111e9565b838801955050505b50505092915050565b600061122660268361163e565b9150611231826118c5565b604082019050919050565b600061124960128361163e565b915061125482611914565b602082019050919050565b600061126c60408361163e565b91506112778261193d565b604082019050919050565b600061128f60118361163e565b915061129a8261198c565b602082019050919050565b60006112b260208361163e565b91506112bd826119b5565b602082019050919050565b60006112d560238361163e565b91506112e0826119de565b604082019050919050565b60006112f860288361163e565b915061130382611a2d565b604082019050919050565b600061131b60128361163e565b915061132682611a7c565b602082019050919050565b600061133e60208361163e565b915061134982611aa5565b602082019050919050565b60006113608284611169565b915081905092915050565b6000611377828461119a565b915081905092915050565b60006020820190506113976000830184611021565b92915050565b600060408201905081810360008301526113b78185611030565b90506113c66020830184611103565b9392505050565b600060208201905081810360008301526113e7818461108e565b905092915050565b60006020820190506114046000830184611103565b92915050565b600060208201905061141f6000830184611121565b92915050565b6000602082019050818103600083015261143e81611219565b9050919050565b6000602082019050818103600083015261145e8161123c565b9050919050565b6000602082019050818103600083015261147e8161125f565b9050919050565b6000602082019050818103600083015261149e81611282565b9050919050565b600060208201905081810360008301526114be816112a5565b9050919050565b600060208201905081810360008301526114de816112c8565b9050919050565b600060208201905081810360008301526114fe816112eb565b9050919050565b6000602082019050818103600083015261151e8161130e565b9050919050565b6000602082019050818103600083015261153e81611331565b9050919050565b600061154f611560565b905061155b828261173b565b919050565b6000604051905090565b600067ffffffffffffffff82111561158557611584611871565b5b61158e826118b4565b9050602081019050919050565b6000819050602082019050919050565b6000819050602082019050919050565b60008190508160005260206000209050919050565b600081519050919050565b600081519050919050565b600081519050919050565b6000602082019050919050565b6000602082019050919050565b600082825260208201905092915050565b600082825260208201905092915050565b600082825260208201905092915050565b600082825260208201905092915050565b600081905092915050565b60006116658261168b565b9050919050565b60008115159050919050565b600081905061168682611ace565b919050565b600073ffffffffffffffffffffffffffffffffffffffff82169050919050565b6000819050919050565b60006116c082611678565b9050919050565b82818337600083830152505050565b60005b838110156116f45780820151818401526020810190506116d9565b83811115611703576000848401525b50505050565b6000600282049050600182168061172157607f821691505b6020821081141561173557611734611813565b5b50919050565b611744826118b4565b810181811067ffffffffffffffff8211171561176357611762611871565b5b80604052505050565b6000611777826116ab565b91507fffffffffffffffffffffffffffffffffffffffffffffffffffffffffffffffff8214156117aa576117a96117b5565b5b600182019050919050565b7f4e487b7100000000000000000000000000000000000000000000000000000000600052601160045260246000fd5b7f4e487b7100000000000000000000000000000000000000000000000000000000600052602160045260246000fd5b7f4e487b7100000000000000000000000000000000000000000000000000000000600052602260045260246000fd5b7f4e487b7100000000000000000000000000000000000000000000000000000000600052603260045260246000fd5b7f4e487b7100000000000000000000000000000000000000000000000000000000600052604160045260246000fd5b600080fd5b600080fd5b600080fd5b600080fd5b6000601f19601f8301169050919050565b7f4f776e61626c653a206e6577206f776e657220697320746865207a65726f206160008201527f6464726573730000000000000000000000000000000000000000000000000000602082015250565b7f556e6b6e6f776e206173736573746d656e740000000000000000000000000000600082015250565b7f5468652073747564656e7420686173206e6f742070617373656420616c6c207460008201527f6865206578616d7320726571756972656420666f722074686520646567726565602082015250565b7f556e6b6e6f776e206578616d20636f6465000000000000000000000000000000600082015250565b7f4f776e61626c653a2063616c6c6572206973206e6f7420746865206f776e6572600082015250565b7f4e6f7420616c6c6f77656420746f2064656c65746520616e206576616c75617460008201527f696f6e0000000000000000000000000000000000000000000000000000000000602082015250565b7f5468652073747564656e742068617320616c726561647920706173736564207460008201527f686973206578616d000000000000000000000000000000000000000000000000602082015250565b7f4578616d20616c72656164792061646465640000000000000000000000000000600082015250565b7f5468652073747564656e7420697320616c726561647920677261647561746564600082015250565b60038110611adf57611ade6117e4565b5b50565b611aeb8161165a565b8114611af657600080fd5b50565b60038110611b0657600080fd5b5056fea2646970667358221220d724cdecc405d8419fdfe006c9d7ee93e1735a4e6ece0ba31042ef894b24115b64736f6c63430008070033",
			"opcodes": "PUSH1 0x80 PUSH1 0x40 MSTORE CALLVALUE DUP1 ISZERO PUSH3 0x11 JUMPI PUSH1 0x0 DUP1 REVERT JUMPDEST POP PUSH3 0x32 PUSH3 0x26 PUSH3 0x118 PUSH1 0x20 SHL PUSH1 0x20 SHR JUMP JUMPDEST PUSH3 0x120 PUSH1 0x20 SHL PUSH1 0x20 SHR JUMP JUMPDEST PUSH1 0x3 DUP1 PUSH1 0x1 DUP2 SLOAD ADD DUP1 DUP3 SSTORE DUP1 SWAP2 POP POP PUSH1 0x1 SWAP1 SUB SWAP1 PUSH1 0x0 MSTORE PUSH1 0x20 PUSH1 0x0 KECCAK256 ADD PUSH1 0x0 PUSH1 0x40 MLOAD DUP1 PUSH1 0x40 ADD PUSH1 0x40 MSTORE DUP1 PUSH1 0x5 DUP2 MSTORE PUSH1 0x20 ADD PUSH32 0x3237344141000000000000000000000000000000000000000000000000000000 DUP2 MSTORE POP SWAP1 SWAP2 SWAP1 SWAP2 POP SWAP1 DUP1 MLOAD SWAP1 PUSH1 0x20 ADD SWAP1 PUSH3 0xA1 SWAP3 SWAP2 SWAP1 PUSH3 0x1E4 JUMP JUMPDEST POP PUSH1 0x3 DUP1 PUSH1 0x1 DUP2 SLOAD ADD DUP1 DUP3 SSTORE DUP1 SWAP2 POP POP PUSH1 0x1 SWAP1 SUB SWAP1 PUSH1 0x0 MSTORE PUSH1 0x20 PUSH1 0x0 KECCAK256 ADD PUSH1 0x0 PUSH1 0x40 MLOAD DUP1 PUSH1 0x40 ADD PUSH1 0x40 MSTORE DUP1 PUSH1 0x5 DUP2 MSTORE PUSH1 0x20 ADD PUSH32 0x3234354141000000000000000000000000000000000000000000000000000000 DUP2 MSTORE POP SWAP1 SWAP2 SWAP1 SWAP2 POP SWAP1 DUP1 MLOAD SWAP1 PUSH1 0x20 ADD SWAP1 PUSH3 0x111 SWAP3 SWAP2 SWAP1 PUSH3 0x1E4 JUMP JUMPDEST POP PUSH3 0x2F9 JUMP JUMPDEST PUSH1 0x0 CALLER SWAP1 POP SWAP1 JUMP JUMPDEST PUSH1 0x0 DUP1 PUSH1 0x0 SWAP1 SLOAD SWAP1 PUSH2 0x100 EXP SWAP1 DIV PUSH20 0xFFFFFFFFFFFFFFFFFFFFFFFFFFFFFFFFFFFFFFFF AND SWAP1 POP DUP2 PUSH1 0x0 DUP1 PUSH2 0x100 EXP DUP2 SLOAD DUP2 PUSH20 0xFFFFFFFFFFFFFFFFFFFFFFFFFFFFFFFFFFFFFFFF MUL NOT AND SWAP1 DUP4 PUSH20 0xFFFFFFFFFFFFFFFFFFFFFFFFFFFFFFFFFFFFFFFF AND MUL OR SWAP1 SSTORE POP DUP2 PUSH20 0xFFFFFFFFFFFFFFFFFFFFFFFFFFFFFFFFFFFFFFFF AND DUP2 PUSH20 0xFFFFFFFFFFFFFFFFFFFFFFFFFFFFFFFFFFFFFFFF AND PUSH32 0x8BE0079C531659141344CD1FD0A4F28419497F9722A3DAAFE3B4186F6B6457E0 PUSH1 0x40 MLOAD PUSH1 0x40 MLOAD DUP1 SWAP2 SUB SWAP1 LOG3 POP POP JUMP JUMPDEST DUP3 DUP1 SLOAD PUSH3 0x1F2 SWAP1 PUSH3 0x294 JUMP JUMPDEST SWAP1 PUSH1 0x0 MSTORE PUSH1 0x20 PUSH1 0x0 KECCAK256 SWAP1 PUSH1 0x1F ADD PUSH1 0x20 SWAP1 DIV DUP2 ADD SWAP3 DUP3 PUSH3 0x216 JUMPI PUSH1 0x0 DUP6 SSTORE PUSH3 0x262 JUMP JUMPDEST DUP3 PUSH1 0x1F LT PUSH3 0x231 JUMPI DUP1 MLOAD PUSH1 0xFF NOT AND DUP4 DUP1 ADD OR DUP6 SSTORE PUSH3 0x262 JUMP JUMPDEST DUP3 DUP1 ADD PUSH1 0x1 ADD DUP6 SSTORE DUP3 ISZERO PUSH3 0x262 JUMPI SWAP2 DUP3 ADD JUMPDEST DUP3 DUP2 GT ISZERO PUSH3 0x261 JUMPI DUP3 MLOAD DUP3 SSTORE SWAP2 PUSH1 0x20 ADD SWAP2 SWAP1 PUSH1 0x1 ADD SWAP1 PUSH3 0x244 JUMP JUMPDEST JUMPDEST POP SWAP1 POP PUSH3 0x271 SWAP2 SWAP1 PUSH3 0x275 JUMP JUMPDEST POP SWAP1 JUMP JUMPDEST JUMPDEST DUP1 DUP3 GT ISZERO PUSH3 0x290 JUMPI PUSH1 0x0 DUP2 PUSH1 0x0 SWAP1 SSTORE POP PUSH1 0x1 ADD PUSH3 0x276 JUMP JUMPDEST POP SWAP1 JUMP JUMPDEST PUSH1 0x0 PUSH1 0x2 DUP3 DIV SWAP1 POP PUSH1 0x1 DUP3 AND DUP1 PUSH3 0x2AD JUMPI PUSH1 0x7F DUP3 AND SWAP2 POP JUMPDEST PUSH1 0x20 DUP3 LT DUP2 EQ ISZERO PUSH3 0x2C4 JUMPI PUSH3 0x2C3 PUSH3 0x2CA JUMP JUMPDEST JUMPDEST POP SWAP2 SWAP1 POP JUMP JUMPDEST PUSH32 0x4E487B7100000000000000000000000000000000000000000000000000000000 PUSH1 0x0 MSTORE PUSH1 0x22 PUSH1 0x4 MSTORE PUSH1 0x24 PUSH1 0x0 REVERT JUMPDEST PUSH2 0x1B3F DUP1 PUSH3 0x309 PUSH1 0x0 CODECOPY PUSH1 0x0 RETURN INVALID PUSH1 0x80 PUSH1 0x40 MSTORE CALLVALUE DUP1 ISZERO PUSH2 0x10 JUMPI PUSH1 0x0 DUP1 REVERT JUMPDEST POP PUSH1 0x4 CALLDATASIZE LT PUSH2 0xB4 JUMPI PUSH1 0x0 CALLDATALOAD PUSH1 0xE0 SHR DUP1 PUSH4 0x81D7016C GT PUSH2 0x71 JUMPI DUP1 PUSH4 0x81D7016C EQ PUSH2 0x179 JUMPI DUP1 PUSH4 0x86DB377A EQ PUSH2 0x198 JUMPI DUP1 PUSH4 0x8DA5CB5B EQ PUSH2 0x1C8 JUMPI DUP1 PUSH4 0xA7F70611 EQ PUSH2 0x1E6 JUMPI DUP1 PUSH4 0xDB874295 EQ PUSH2 0x217 JUMPI DUP1 PUSH4 0xF2FDE38B EQ PUSH2 0x233 JUMPI PUSH2 0xB4 JUMP JUMPDEST DUP1 PUSH4 0xE7D8CE5 EQ PUSH2 0xB9 JUMPI DUP1 PUSH4 0x1F3CE1D3 EQ PUSH2 0xD5 JUMPI DUP1 PUSH4 0x3434D8BB EQ PUSH2 0xF3 JUMPI DUP1 PUSH4 0x684609EB EQ PUSH2 0x123 JUMPI DUP1 PUSH4 0x68A4C8B7 EQ PUSH2 0x13F JUMPI DUP1 PUSH4 0x715018A6 EQ PUSH2 0x16F JUMPI JUMPDEST PUSH1 0x0 DUP1 REVERT JUMPDEST PUSH2 0xD3 PUSH1 0x4 DUP1 CALLDATASIZE SUB DUP2 ADD SWAP1 PUSH2 0xCE SWAP2 SWAP1 PUSH2 0xF3D JUMP JUMPDEST PUSH2 0x24F JUMP JUMPDEST STOP JUMPDEST PUSH2 0xDD PUSH2 0x4B4 JUMP JUMPDEST PUSH1 0x40 MLOAD PUSH2 0xEA SWAP2 SWAP1 PUSH2 0x13CD JUMP JUMPDEST PUSH1 0x40 MLOAD DUP1 SWAP2 SUB SWAP1 RETURN JUMPDEST PUSH2 0x10D PUSH1 0x4 DUP1 CALLDATASIZE SUB DUP2 ADD SWAP1 PUSH2 0x108 SWAP2 SWAP1 PUSH2 0xEE1 JUMP JUMPDEST PUSH2 0x58D JUMP JUMPDEST PUSH1 0x40 MLOAD PUSH2 0x11A SWAP2 SWAP1 PUSH2 0x140A JUMP JUMPDEST PUSH1 0x40 MLOAD DUP1 SWAP2 SUB SWAP1 RETURN JUMPDEST PUSH2 0x13D PUSH1 0x4 DUP1 CALLDATASIZE SUB DUP2 ADD SWAP1 PUSH2 0x138 SWAP2 SWAP1 PUSH2 0xEB4 JUMP JUMPDEST PUSH2 0x648 JUMP JUMPDEST STOP JUMPDEST PUSH2 0x159 PUSH1 0x4 DUP1 CALLDATASIZE SUB DUP2 ADD SWAP1 PUSH2 0x154 SWAP2 SWAP1 PUSH2 0xEB4 JUMP JUMPDEST PUSH2 0x849 JUMP JUMPDEST PUSH1 0x40 MLOAD PUSH2 0x166 SWAP2 SWAP1 PUSH2 0x13EF JUMP JUMPDEST PUSH1 0x40 MLOAD DUP1 SWAP2 SUB SWAP1 RETURN JUMPDEST PUSH2 0x177 PUSH2 0x89F JUMP JUMPDEST STOP JUMPDEST PUSH2 0x181 PUSH2 0x8B3 JUMP JUMPDEST PUSH1 0x40 MLOAD PUSH2 0x18F SWAP3 SWAP2 SWAP1 PUSH2 0x139D JUMP JUMPDEST PUSH1 0x40 MLOAD DUP1 SWAP2 SUB SWAP1 RETURN JUMPDEST PUSH2 0x1B2 PUSH1 0x4 DUP1 CALLDATASIZE SUB DUP2 ADD SWAP1 PUSH2 0x1AD SWAP2 SWAP1 PUSH2 0xFAC JUMP JUMPDEST PUSH2 0x8C8 JUMP JUMPDEST PUSH1 0x40 MLOAD PUSH2 0x1BF SWAP2 SWAP1 PUSH2 0x140A JUMP JUMPDEST PUSH1 0x40 MLOAD DUP1 SWAP2 SUB SWAP1 RETURN JUMPDEST PUSH2 0x1D0 PUSH2 0x8DB JUMP JUMPDEST PUSH1 0x40 MLOAD PUSH2 0x1DD SWAP2 SWAP1 PUSH2 0x1382 JUMP JUMPDEST PUSH1 0x40 MLOAD DUP1 SWAP2 SUB SWAP1 RETURN JUMPDEST PUSH2 0x200 PUSH1 0x4 DUP1 CALLDATASIZE SUB DUP2 ADD SWAP1 PUSH2 0x1FB SWAP2 SWAP1 PUSH2 0xEB4 JUMP JUMPDEST PUSH2 0x904 JUMP JUMPDEST PUSH1 0x40 MLOAD PUSH2 0x20E SWAP3 SWAP2 SWAP1 PUSH2 0x139D JUMP JUMPDEST PUSH1 0x40 MLOAD DUP1 SWAP2 SUB SWAP1 RETURN JUMPDEST PUSH2 0x231 PUSH1 0x4 DUP1 CALLDATASIZE SUB DUP2 ADD SWAP1 PUSH2 0x22C SWAP2 SWAP1 PUSH2 0xFAC JUMP JUMPDEST PUSH2 0xA6B JUMP JUMPDEST STOP JUMPDEST PUSH2 0x24D PUSH1 0x4 DUP1 CALLDATASIZE SUB DUP2 ADD SWAP1 PUSH2 0x248 SWAP2 SWAP1 PUSH2 0xEB4 JUMP JUMPDEST PUSH2 0xAFB JUMP JUMPDEST STOP JUMPDEST PUSH2 0x257 PUSH2 0xB7F JUMP JUMPDEST PUSH1 0x0 PUSH1 0x2 DUP2 GT ISZERO PUSH2 0x26B JUMPI PUSH2 0x26A PUSH2 0x17E4 JUMP JUMPDEST JUMPDEST DUP2 PUSH1 0x2 DUP2 GT ISZERO PUSH2 0x27E JUMPI PUSH2 0x27D PUSH2 0x17E4 JUMP JUMPDEST JUMPDEST EQ ISZERO PUSH2 0x2BF JUMPI PUSH1 0x40 MLOAD PUSH32 0x8C379A000000000000000000000000000000000000000000000000000000000 DUP2 MSTORE PUSH1 0x4 ADD PUSH2 0x2B6 SWAP1 PUSH2 0x14C5 JUMP JUMPDEST PUSH1 0x40 MLOAD DUP1 SWAP2 SUB SWAP1 REVERT JUMPDEST PUSH1 0x2 DUP2 PUSH1 0x2 DUP2 GT ISZERO PUSH2 0x2D4 JUMPI PUSH2 0x2D3 PUSH2 0x17E4 JUMP JUMPDEST JUMPDEST GT ISZERO PUSH2 0x315 JUMPI PUSH1 0x40 MLOAD PUSH32 0x8C379A000000000000000000000000000000000000000000000000000000000 DUP2 MSTORE PUSH1 0x4 ADD PUSH2 0x30C SWAP1 PUSH2 0x1445 JUMP JUMPDEST PUSH1 0x40 MLOAD DUP1 SWAP2 SUB SWAP1 REVERT JUMPDEST PUSH2 0x31E DUP3 PUSH2 0xBFD JUMP JUMPDEST PUSH2 0x35D JUMPI PUSH1 0x40 MLOAD PUSH32 0x8C379A000000000000000000000000000000000000000000000000000000000 DUP2 MSTORE PUSH1 0x4 ADD PUSH2 0x354 SWAP1 PUSH2 0x1485 JUMP JUMPDEST PUSH1 0x40 MLOAD DUP1 SWAP2 SUB SWAP1 REVERT JUMPDEST PUSH1 0x0 PUSH1 0x2 DUP2 GT ISZERO PUSH2 0x371 JUMPI PUSH2 0x370 PUSH2 0x17E4 JUMP JUMPDEST JUMPDEST PUSH1 0x1 DUP4 PUSH1 0x40 MLOAD PUSH2 0x381 SWAP2 SWAP1 PUSH2 0x1354 JUMP JUMPDEST SWAP1 DUP2 MSTORE PUSH1 0x20 ADD PUSH1 0x40 MLOAD DUP1 SWAP2 SUB SWAP1 KECCAK256 PUSH1 0x0 DUP6 PUSH20 0xFFFFFFFFFFFFFFFFFFFFFFFFFFFFFFFFFFFFFFFF AND PUSH20 0xFFFFFFFFFFFFFFFFFFFFFFFFFFFFFFFFFFFFFFFF AND DUP2 MSTORE PUSH1 0x20 ADD SWAP1 DUP2 MSTORE PUSH1 0x20 ADD PUSH1 0x0 KECCAK256 PUSH1 0x0 SWAP1 SLOAD SWAP1 PUSH2 0x100 EXP SWAP1 DIV PUSH1 0xFF AND PUSH1 0x2 DUP2 GT ISZERO PUSH2 0x3EC JUMPI PUSH2 0x3EB PUSH2 0x17E4 JUMP JUMPDEST JUMPDEST EQ PUSH2 0x42C JUMPI PUSH1 0x40 MLOAD PUSH32 0x8C379A000000000000000000000000000000000000000000000000000000000 DUP2 MSTORE PUSH1 0x4 ADD PUSH2 0x423 SWAP1 PUSH2 0x14E5 JUMP JUMPDEST PUSH1 0x40 MLOAD DUP1 SWAP2 SUB SWAP1 REVERT JUMPDEST DUP1 PUSH1 0x1 DUP4 PUSH1 0x40 MLOAD PUSH2 0x43D SWAP2 SWAP1 PUSH2 0x1354 JUMP JUMPDEST SWAP1 DUP2 MSTORE PUSH1 0x20 ADD PUSH1 0x40 MLOAD DUP1 SWAP2 SUB SWAP1 KECCAK256 PUSH1 0x0 DUP6 PUSH20 0xFFFFFFFFFFFFFFFFFFFFFFFFFFFFFFFFFFFFFFFF AND PUSH20 0xFFFFFFFFFFFFFFFFFFFFFFFFFFFFFFFFFFFFFFFF AND DUP2 MSTORE PUSH1 0x20 ADD SWAP1 DUP2 MSTORE PUSH1 0x20 ADD PUSH1 0x0 KECCAK256 PUSH1 0x0 PUSH2 0x100 EXP DUP2 SLOAD DUP2 PUSH1 0xFF MUL NOT AND SWAP1 DUP4 PUSH1 0x2 DUP2 GT ISZERO PUSH2 0x4AA JUMPI PUSH2 0x4A9 PUSH2 0x17E4 JUMP JUMPDEST JUMPDEST MUL OR SWAP1 SSTORE POP POP POP POP JUMP JUMPDEST PUSH1 0x60 PUSH1 0x3 DUP1 SLOAD DUP1 PUSH1 0x20 MUL PUSH1 0x20 ADD PUSH1 0x40 MLOAD SWAP1 DUP2 ADD PUSH1 0x40 MSTORE DUP1 SWAP3 SWAP2 SWAP1 DUP2 DUP2 MSTORE PUSH1 0x20 ADD PUSH1 0x0 SWAP1 JUMPDEST DUP3 DUP3 LT ISZERO PUSH2 0x584 JUMPI DUP4 DUP3 SWAP1 PUSH1 0x0 MSTORE PUSH1 0x20 PUSH1 0x0 KECCAK256 ADD DUP1 SLOAD PUSH2 0x4F7 SWAP1 PUSH2 0x1709 JUMP JUMPDEST DUP1 PUSH1 0x1F ADD PUSH1 0x20 DUP1 SWAP2 DIV MUL PUSH1 0x20 ADD PUSH1 0x40 MLOAD SWAP1 DUP2 ADD PUSH1 0x40 MSTORE DUP1 SWAP3 SWAP2 SWAP1 DUP2 DUP2 MSTORE PUSH1 0x20 ADD DUP3 DUP1 SLOAD PUSH2 0x523 SWAP1 PUSH2 0x1709 JUMP JUMPDEST DUP1 ISZERO PUSH2 0x570 JUMPI DUP1 PUSH1 0x1F LT PUSH2 0x545 JUMPI PUSH2 0x100 DUP1 DUP4 SLOAD DIV MUL DUP4 MSTORE SWAP2 PUSH1 0x20 ADD SWAP2 PUSH2 0x570 JUMP JUMPDEST DUP3 ADD SWAP2 SWAP1 PUSH1 0x0 MSTORE PUSH1 0x20 PUSH1 0x0 KECCAK256 SWAP1 JUMPDEST DUP2 SLOAD DUP2 MSTORE SWAP1 PUSH1 0x1 ADD SWAP1 PUSH1 0x20 ADD DUP1 DUP4 GT PUSH2 0x553 JUMPI DUP3 SWAP1 SUB PUSH1 0x1F AND DUP3 ADD SWAP2 JUMPDEST POP POP POP POP POP DUP2 MSTORE PUSH1 0x20 ADD SWAP1 PUSH1 0x1 ADD SWAP1 PUSH2 0x4D8 JUMP JUMPDEST POP POP POP POP SWAP1 POP SWAP1 JUMP JUMPDEST PUSH1 0x0 PUSH2 0x598 DUP3 PUSH2 0xBFD JUMP JUMPDEST PUSH2 0x5D7 JUMPI PUSH1 0x40 MLOAD PUSH32 0x8C379A000000000000000000000000000000000000000000000000000000000 DUP2 MSTORE PUSH1 0x4 ADD PUSH2 0x5CE SWAP1 PUSH2 0x1485 JUMP JUMPDEST PUSH1 0x40 MLOAD DUP1 SWAP2 SUB SWAP1 REVERT JUMPDEST PUSH1 0x1 DUP3 PUSH1 0x40 MLOAD PUSH2 0x5E7 SWAP2 SWAP1 PUSH2 0x1354 JUMP JUMPDEST SWAP1 DUP2 MSTORE PUSH1 0x20 ADD PUSH1 0x40 MLOAD DUP1 SWAP2 SUB SWAP1 KECCAK256 PUSH1 0x0 DUP5 PUSH20 0xFFFFFFFFFFFFFFFFFFFFFFFFFFFFFFFFFFFFFFFF AND PUSH20 0xFFFFFFFFFFFFFFFFFFFFFFFFFFFFFFFFFFFFFFFF AND DUP2 MSTORE PUSH1 0x20 ADD SWAP1 DUP2 MSTORE PUSH1 0x20 ADD PUSH1 0x0 KECCAK256 PUSH1 0x0 SWAP1 SLOAD SWAP1 PUSH2 0x100 EXP SWAP1 DIV PUSH1 0xFF AND SWAP1 POP SWAP3 SWAP2 POP POP JUMP JUMPDEST PUSH2 0x650 PUSH2 0xB7F JUMP JUMPDEST PUSH1 0x2 PUSH1 0x0 DUP3 PUSH20 0xFFFFFFFFFFFFFFFFFFFFFFFFFFFFFFFFFFFFFFFF AND PUSH20 0xFFFFFFFFFFFFFFFFFFFFFFFFFFFFFFFFFFFFFFFF AND DUP2 MSTORE PUSH1 0x20 ADD SWAP1 DUP2 MSTORE PUSH1 0x20 ADD PUSH1 0x0 KECCAK256 PUSH1 0x0 SWAP1 SLOAD SWAP1 PUSH2 0x100 EXP SWAP1 DIV PUSH1 0xFF AND ISZERO PUSH2 0x6DD JUMPI PUSH1 0x40 MLOAD PUSH32 0x8C379A000000000000000000000000000000000000000000000000000000000 DUP2 MSTORE PUSH1 0x4 ADD PUSH2 0x6D4 SWAP1 PUSH2 0x1525 JUMP JUMPDEST PUSH1 0x40 MLOAD DUP1 SWAP2 SUB SWAP1 REVERT JUMPDEST PUSH1 0x0 JUMPDEST PUSH1 0x3 DUP1 SLOAD SWAP1 POP DUP2 LT ISZERO PUSH2 0x7ED JUMPI PUSH1 0x0 PUSH1 0x2 DUP2 GT ISZERO PUSH2 0x701 JUMPI PUSH2 0x700 PUSH2 0x17E4 JUMP JUMPDEST JUMPDEST PUSH1 0x1 PUSH1 0x3 DUP4 DUP2 SLOAD DUP2 LT PUSH2 0x717 JUMPI PUSH2 0x716 PUSH2 0x1842 JUMP JUMPDEST JUMPDEST SWAP1 PUSH1 0x0 MSTORE PUSH1 0x20 PUSH1 0x0 KECCAK256 ADD PUSH1 0x40 MLOAD PUSH2 0x72E SWAP2 SWAP1 PUSH2 0x136B JUMP JUMPDEST SWAP1 DUP2 MSTORE PUSH1 0x20 ADD PUSH1 0x40 MLOAD DUP1 SWAP2 SUB SWAP1 KECCAK256 PUSH1 0x0 DUP5 PUSH20 0xFFFFFFFFFFFFFFFFFFFFFFFFFFFFFFFFFFFFFFFF AND PUSH20 0xFFFFFFFFFFFFFFFFFFFFFFFFFFFFFFFFFFFFFFFF AND DUP2 MSTORE PUSH1 0x20 ADD SWAP1 DUP2 MSTORE PUSH1 0x20 ADD PUSH1 0x0 KECCAK256 PUSH1 0x0 SWAP1 SLOAD SWAP1 PUSH2 0x100 EXP SWAP1 DIV PUSH1 0xFF AND PUSH1 0x2 DUP2 GT ISZERO PUSH2 0x799 JUMPI PUSH2 0x798 PUSH2 0x17E4 JUMP JUMPDEST JUMPDEST EQ ISZERO PUSH2 0x7DA JUMPI PUSH1 0x40 MLOAD PUSH32 0x8C379A000000000000000000000000000000000000000000000000000000000 DUP2 MSTORE PUSH1 0x4 ADD PUSH2 0x7D1 SWAP1 PUSH2 0x1465 JUMP JUMPDEST PUSH1 0x40 MLOAD DUP1 SWAP2 SUB SWAP1 REVERT JUMPDEST DUP1 DUP1 PUSH2 0x7E5 SWAP1 PUSH2 0x176C JUMP JUMPDEST SWAP2 POP POP PUSH2 0x6E0 JUMP JUMPDEST POP PUSH1 0x1 PUSH1 0x2 PUSH1 0x0 DUP4 PUSH20 0xFFFFFFFFFFFFFFFFFFFFFFFFFFFFFFFFFFFFFFFF AND PUSH20 0xFFFFFFFFFFFFFFFFFFFFFFFFFFFFFFFFFFFFFFFF AND DUP2 MSTORE PUSH1 0x20 ADD SWAP1 DUP2 MSTORE PUSH1 0x20 ADD PUSH1 0x0 KECCAK256 PUSH1 0x0 PUSH2 0x100 EXP DUP2 SLOAD DUP2 PUSH1 0xFF MUL NOT AND SWAP1 DUP4 ISZERO ISZERO MUL OR SWAP1 SSTORE POP POP JUMP JUMPDEST PUSH1 0x0 PUSH1 0x2 PUSH1 0x0 DUP4 PUSH20 0xFFFFFFFFFFFFFFFFFFFFFFFFFFFFFFFFFFFFFFFF AND PUSH20 0xFFFFFFFFFFFFFFFFFFFFFFFFFFFFFFFFFFFFFFFF AND DUP2 MSTORE PUSH1 0x20 ADD SWAP1 DUP2 MSTORE PUSH1 0x20 ADD PUSH1 0x0 KECCAK256 PUSH1 0x0 SWAP1 SLOAD SWAP1 PUSH2 0x100 EXP SWAP1 DIV PUSH1 0xFF AND SWAP1 POP SWAP2 SWAP1 POP JUMP JUMPDEST PUSH2 0x8A7 PUSH2 0xB7F JUMP JUMPDEST PUSH2 0x8B1 PUSH1 0x0 PUSH2 0xCAB JUMP JUMPDEST JUMP JUMPDEST PUSH1 0x60 PUSH1 0x0 PUSH2 0x8C0 CALLER PUSH2 0x904 JUMP JUMPDEST SWAP2 POP SWAP2 POP SWAP1 SWAP2 JUMP JUMPDEST PUSH1 0x0 PUSH2 0x8D4 CALLER DUP4 PUSH2 0x58D JUMP JUMPDEST SWAP1 POP SWAP2 SWAP1 POP JUMP JUMPDEST PUSH1 0x0 DUP1 PUSH1 0x0 SWAP1 SLOAD SWAP1 PUSH2 0x100 EXP SWAP1 DIV PUSH20 0xFFFFFFFFFFFFFFFFFFFFFFFFFFFFFFFFFFFFFFFF AND SWAP1 POP SWAP1 JUMP JUMPDEST PUSH1 0x60 PUSH1 0x0 PUSH2 0x910 PUSH2 0xB7F JUMP JUMPDEST PUSH1 0x0 PUSH1 0x3 DUP1 SLOAD SWAP1 POP PUSH8 0xFFFFFFFFFFFFFFFF DUP2 GT ISZERO PUSH2 0x931 JUMPI PUSH2 0x930 PUSH2 0x1871 JUMP JUMPDEST JUMPDEST PUSH1 0x40 MLOAD SWAP1 DUP1 DUP3 MSTORE DUP1 PUSH1 0x20 MUL PUSH1 0x20 ADD DUP3 ADD PUSH1 0x40 MSTORE DUP1 ISZERO PUSH2 0x95F JUMPI DUP2 PUSH1 0x20 ADD PUSH1 0x20 DUP3 MUL DUP1 CALLDATASIZE DUP4 CALLDATACOPY DUP1 DUP3 ADD SWAP2 POP POP SWAP1 POP JUMPDEST POP SWAP1 POP PUSH1 0x0 JUMPDEST PUSH1 0x3 DUP1 SLOAD SWAP1 POP DUP2 LT ISZERO PUSH2 0xA50 JUMPI PUSH1 0x1 PUSH1 0x3 DUP3 DUP2 SLOAD DUP2 LT PUSH2 0x988 JUMPI PUSH2 0x987 PUSH2 0x1842 JUMP JUMPDEST JUMPDEST SWAP1 PUSH1 0x0 MSTORE PUSH1 0x20 PUSH1 0x0 KECCAK256 ADD PUSH1 0x40 MLOAD PUSH2 0x99F SWAP2 SWAP1 PUSH2 0x136B JUMP JUMPDEST SWAP1 DUP2 MSTORE PUSH1 0x20 ADD PUSH1 0x40 MLOAD DUP1 SWAP2 SUB SWAP1 KECCAK256 PUSH1 0x0 DUP7 PUSH20 0xFFFFFFFFFFFFFFFFFFFFFFFFFFFFFFFFFFFFFFFF AND PUSH20 0xFFFFFFFFFFFFFFFFFFFFFFFFFFFFFFFFFFFFFFFF AND DUP2 MSTORE PUSH1 0x20 ADD SWAP1 DUP2 MSTORE PUSH1 0x20 ADD PUSH1 0x0 KECCAK256 PUSH1 0x0 SWAP1 SLOAD SWAP1 PUSH2 0x100 EXP SWAP1 DIV PUSH1 0xFF AND DUP3 DUP3 DUP2 MLOAD DUP2 LT PUSH2 0xA0B JUMPI PUSH2 0xA0A PUSH2 0x1842 JUMP JUMPDEST JUMPDEST PUSH1 0x20 MUL PUSH1 0x20 ADD ADD SWAP1 PUSH1 0x2 DUP2 GT ISZERO PUSH2 0xA25 JUMPI PUSH2 0xA24 PUSH2 0x17E4 JUMP JUMPDEST JUMPDEST SWAP1 DUP2 PUSH1 0x2 DUP2 GT ISZERO PUSH2 0xA39 JUMPI PUSH2 0xA38 PUSH2 0x17E4 JUMP JUMPDEST JUMPDEST DUP2 MSTORE POP POP DUP1 DUP1 PUSH2 0xA48 SWAP1 PUSH2 0x176C JUMP JUMPDEST SWAP2 POP POP PUSH2 0x965 JUMP JUMPDEST POP PUSH1 0x0 PUSH2 0xA5C DUP6 PUSH2 0x849 JUMP JUMPDEST SWAP1 POP DUP2 DUP2 SWAP4 POP SWAP4 POP POP POP SWAP2 POP SWAP2 JUMP JUMPDEST PUSH2 0xA73 PUSH2 0xB7F JUMP JUMPDEST PUSH2 0xA7C DUP2 PUSH2 0xBFD JUMP JUMPDEST ISZERO PUSH2 0xABC JUMPI PUSH1 0x40 MLOAD PUSH32 0x8C379A000000000000000000000000000000000000000000000000000000000 DUP2 MSTORE PUSH1 0x4 ADD PUSH2 0xAB3 SWAP1 PUSH2 0x1505 JUMP JUMPDEST PUSH1 0x40 MLOAD DUP1 SWAP2 SUB SWAP1 REVERT JUMPDEST PUSH1 0x3 DUP2 SWAP1 DUP1 PUSH1 0x1 DUP2 SLOAD ADD DUP1 DUP3 SSTORE DUP1 SWAP2 POP POP PUSH1 0x1 SWAP1 SUB SWAP1 PUSH1 0x0 MSTORE PUSH1 0x20 PUSH1 0x0 KECCAK256 ADD PUSH1 0x0 SWAP1 SWAP2 SWAP1 SWAP2 SWAP1 SWAP2 POP SWAP1 DUP1 MLOAD SWAP1 PUSH1 0x20 ADD SWAP1 PUSH2 0xAF7 SWAP3 SWAP2 SWAP1 PUSH2 0xD77 JUMP JUMPDEST POP POP JUMP JUMPDEST PUSH2 0xB03 PUSH2 0xB7F JUMP JUMPDEST PUSH1 0x0 PUSH20 0xFFFFFFFFFFFFFFFFFFFFFFFFFFFFFFFFFFFFFFFF AND DUP2 PUSH20 0xFFFFFFFFFFFFFFFFFFFFFFFFFFFFFFFFFFFFFFFF AND EQ ISZERO PUSH2 0xB73 JUMPI PUSH1 0x40 MLOAD PUSH32 0x8C379A000000000000000000000000000000000000000000000000000000000 DUP2 MSTORE PUSH1 0x4 ADD PUSH2 0xB6A SWAP1 PUSH2 0x1425 JUMP JUMPDEST PUSH1 0x40 MLOAD DUP1 SWAP2 SUB SWAP1 REVERT JUMPDEST PUSH2 0xB7C DUP2 PUSH2 0xCAB JUMP JUMPDEST POP JUMP JUMPDEST PUSH2 0xB87 PUSH2 0xD6F JUMP JUMPDEST PUSH20 0xFFFFFFFFFFFFFFFFFFFFFFFFFFFFFFFFFFFFFFFF AND PUSH2 0xBA5 PUSH2 0x8DB JUMP JUMPDEST PUSH20 0xFFFFFFFFFFFFFFFFFFFFFFFFFFFFFFFFFFFFFFFF AND EQ PUSH2 0xBFB JUMPI PUSH1 0x40 MLOAD PUSH32 0x8C379A000000000000000000000000000000000000000000000000000000000 DUP2 MSTORE PUSH1 0x4 ADD PUSH2 0xBF2 SWAP1 PUSH2 0x14A5 JUMP JUMPDEST PUSH1 0x40 MLOAD DUP1 SWAP2 SUB SWAP1 REVERT JUMPDEST JUMP JUMPDEST PUSH1 0x0 DUP1 PUSH1 0x0 SWAP1 POP JUMPDEST PUSH1 0x3 DUP1 SLOAD SWAP1 POP DUP2 LT ISZERO PUSH2 0xCA0 JUMPI DUP3 PUSH1 0x40 MLOAD PUSH1 0x20 ADD PUSH2 0xC23 SWAP2 SWAP1 PUSH2 0x1354 JUMP JUMPDEST PUSH1 0x40 MLOAD PUSH1 0x20 DUP2 DUP4 SUB SUB DUP2 MSTORE SWAP1 PUSH1 0x40 MSTORE DUP1 MLOAD SWAP1 PUSH1 0x20 ADD KECCAK256 PUSH1 0x3 DUP3 DUP2 SLOAD DUP2 LT PUSH2 0xC4D JUMPI PUSH2 0xC4C PUSH2 0x1842 JUMP JUMPDEST JUMPDEST SWAP1 PUSH1 0x0 MSTORE PUSH1 0x20 PUSH1 0x0 KECCAK256 ADD PUSH1 0x40 MLOAD PUSH1 0x20 ADD PUSH2 0xC67 SWAP2 SWAP1 PUSH2 0x136B JUMP JUMPDEST PUSH1 0x40 MLOAD PUSH1 0x20 DUP2 DUP4 SUB SUB DUP2 MSTORE SWAP1 PUSH1 0x40 MSTORE DUP1 MLOAD SWAP1 PUSH1 0x20 ADD KECCAK256 EQ ISZERO PUSH2 0xC8D JUMPI PUSH1 0x1 SWAP2 POP POP PUSH2 0xCA6 JUMP JUMPDEST DUP1 DUP1 PUSH2 0xC98 SWAP1 PUSH2 0x176C JUMP JUMPDEST SWAP2 POP POP PUSH2 0xC05 JUMP JUMPDEST POP PUSH1 0x0 SWAP1 POP JUMPDEST SWAP2 SWAP1 POP JUMP JUMPDEST PUSH1 0x0 DUP1 PUSH1 0x0 SWAP1 SLOAD SWAP1 PUSH2 0x100 EXP SWAP1 DIV PUSH20 0xFFFFFFFFFFFFFFFFFFFFFFFFFFFFFFFFFFFFFFFF AND SWAP1 POP DUP2 PUSH1 0x0 DUP1 PUSH2 0x100 EXP DUP2 SLOAD DUP2 PUSH20 0xFFFFFFFFFFFFFFFFFFFFFFFFFFFFFFFFFFFFFFFF MUL NOT AND SWAP1 DUP4 PUSH20 0xFFFFFFFFFFFFFFFFFFFFFFFFFFFFFFFFFFFFFFFF AND MUL OR SWAP1 SSTORE POP DUP2 PUSH20 0xFFFFFFFFFFFFFFFFFFFFFFFFFFFFFFFFFFFFFFFF AND DUP2 PUSH20 0xFFFFFFFFFFFFFFFFFFFFFFFFFFFFFFFFFFFFFFFF AND PUSH32 0x8BE0079C531659141344CD1FD0A4F28419497F9722A3DAAFE3B4186F6B6457E0 PUSH1 0x40 MLOAD PUSH1 0x40 MLOAD DUP1 SWAP2 SUB SWAP1 LOG3 POP POP JUMP JUMPDEST PUSH1 0x0 CALLER SWAP1 POP SWAP1 JUMP JUMPDEST DUP3 DUP1 SLOAD PUSH2 0xD83 SWAP1 PUSH2 0x1709 JUMP JUMPDEST SWAP1 PUSH1 0x0 MSTORE PUSH1 0x20 PUSH1 0x0 KECCAK256 SWAP1 PUSH1 0x1F ADD PUSH1 0x20 SWAP1 DIV DUP2 ADD SWAP3 DUP3 PUSH2 0xDA5 JUMPI PUSH1 0x0 DUP6 SSTORE PUSH2 0xDEC JUMP JUMPDEST DUP3 PUSH1 0x1F LT PUSH2 0xDBE JUMPI DUP1 MLOAD PUSH1 0xFF NOT AND DUP4 DUP1 ADD OR DUP6 SSTORE PUSH2 0xDEC JUMP JUMPDEST DUP3 DUP1 ADD PUSH1 0x1 ADD DUP6 SSTORE DUP3 ISZERO PUSH2 0xDEC JUMPI SWAP2 DUP3 ADD JUMPDEST DUP3 DUP2 GT ISZERO PUSH2 0xDEB JUMPI DUP3 MLOAD DUP3 SSTORE SWAP2 PUSH1 0x20 ADD SWAP2 SWAP1 PUSH1 0x1 ADD SWAP1 PUSH2 0xDD0 JUMP JUMPDEST JUMPDEST POP SWAP1 POP PUSH2 0xDF9 SWAP2 SWAP1 PUSH2 0xDFD JUMP JUMPDEST POP SWAP1 JUMP JUMPDEST JUMPDEST DUP1 DUP3 GT ISZERO PUSH2 0xE16 JUMPI PUSH1 0x0 DUP2 PUSH1 0x0 SWAP1 SSTORE POP PUSH1 0x1 ADD PUSH2 0xDFE JUMP JUMPDEST POP SWAP1 JUMP JUMPDEST PUSH1 0x0 PUSH2 0xE2D PUSH2 0xE28 DUP5 PUSH2 0x156A JUMP JUMPDEST PUSH2 0x1545 JUMP JUMPDEST SWAP1 POP DUP3 DUP2 MSTORE PUSH1 0x20 DUP2 ADD DUP5 DUP5 DUP5 ADD GT ISZERO PUSH2 0xE49 JUMPI PUSH2 0xE48 PUSH2 0x18A5 JUMP JUMPDEST JUMPDEST PUSH2 0xE54 DUP5 DUP3 DUP6 PUSH2 0x16C7 JUMP JUMPDEST POP SWAP4 SWAP3 POP POP POP JUMP JUMPDEST PUSH1 0x0 DUP2 CALLDATALOAD SWAP1 POP PUSH2 0xE6B DUP2 PUSH2 0x1AE2 JUMP JUMPDEST SWAP3 SWAP2 POP POP JUMP JUMPDEST PUSH1 0x0 DUP2 CALLDATALOAD SWAP1 POP PUSH2 0xE80 DUP2 PUSH2 0x1AF9 JUMP JUMPDEST SWAP3 SWAP2 POP POP JUMP JUMPDEST PUSH1 0x0 DUP3 PUSH1 0x1F DUP4 ADD SLT PUSH2 0xE9B JUMPI PUSH2 0xE9A PUSH2 0x18A0 JUMP JUMPDEST JUMPDEST DUP2 CALLDATALOAD PUSH2 0xEAB DUP5 DUP3 PUSH1 0x20 DUP7 ADD PUSH2 0xE1A JUMP JUMPDEST SWAP2 POP POP SWAP3 SWAP2 POP POP JUMP JUMPDEST PUSH1 0x0 PUSH1 0x20 DUP3 DUP5 SUB SLT ISZERO PUSH2 0xECA JUMPI PUSH2 0xEC9 PUSH2 0x18AF JUMP JUMPDEST JUMPDEST PUSH1 0x0 PUSH2 0xED8 DUP5 DUP3 DUP6 ADD PUSH2 0xE5C JUMP JUMPDEST SWAP2 POP POP SWAP3 SWAP2 POP POP JUMP JUMPDEST PUSH1 0x0 DUP1 PUSH1 0x40 DUP4 DUP6 SUB SLT ISZERO PUSH2 0xEF8 JUMPI PUSH2 0xEF7 PUSH2 0x18AF JUMP JUMPDEST JUMPDEST PUSH1 0x0 PUSH2 0xF06 DUP6 DUP3 DUP7 ADD PUSH2 0xE5C JUMP JUMPDEST SWAP3 POP POP PUSH1 0x20 DUP4 ADD CALLDATALOAD PUSH8 0xFFFFFFFFFFFFFFFF DUP2 GT ISZERO PUSH2 0xF27 JUMPI PUSH2 0xF26 PUSH2 0x18AA JUMP JUMPDEST JUMPDEST PUSH2 0xF33 DUP6 DUP3 DUP7 ADD PUSH2 0xE86 JUMP JUMPDEST SWAP2 POP POP SWAP3 POP SWAP3 SWAP1 POP JUMP JUMPDEST PUSH1 0x0 DUP1 PUSH1 0x0 PUSH1 0x60 DUP5 DUP7 SUB SLT ISZERO PUSH2 0xF56 JUMPI PUSH2 0xF55 PUSH2 0x18AF JUMP JUMPDEST JUMPDEST PUSH1 0x0 PUSH2 0xF64 DUP7 DUP3 DUP8 ADD PUSH2 0xE5C JUMP JUMPDEST SWAP4 POP POP PUSH1 0x20 DUP5 ADD CALLDATALOAD PUSH8 0xFFFFFFFFFFFFFFFF DUP2 GT ISZERO PUSH2 0xF85 JUMPI PUSH2 0xF84 PUSH2 0x18AA JUMP JUMPDEST JUMPDEST PUSH2 0xF91 DUP7 DUP3 DUP8 ADD PUSH2 0xE86 JUMP JUMPDEST SWAP3 POP POP PUSH1 0x40 PUSH2 0xFA2 DUP7 DUP3 DUP8 ADD PUSH2 0xE71 JUMP JUMPDEST SWAP2 POP POP SWAP3 POP SWAP3 POP SWAP3 JUMP JUMPDEST PUSH1 0x0 PUSH1 0x20 DUP3 DUP5 SUB SLT ISZERO PUSH2 0xFC2 JUMPI PUSH2 0xFC1 PUSH2 0x18AF JUMP JUMPDEST JUMPDEST PUSH1 0x0 DUP3 ADD CALLDATALOAD PUSH8 0xFFFFFFFFFFFFFFFF DUP2 GT ISZERO PUSH2 0xFE0 JUMPI PUSH2 0xFDF PUSH2 0x18AA JUMP JUMPDEST JUMPDEST PUSH2 0xFEC DUP5 DUP3 DUP6 ADD PUSH2 0xE86 JUMP JUMPDEST SWAP2 POP POP SWAP3 SWAP2 POP POP JUMP JUMPDEST PUSH1 0x0 PUSH2 0x1001 DUP4 DUP4 PUSH2 0x1112 JUMP JUMPDEST PUSH1 0x20 DUP4 ADD SWAP1 POP SWAP3 SWAP2 POP POP JUMP JUMPDEST PUSH1 0x0 PUSH2 0x1019 DUP4 DUP4 PUSH2 0x1130 JUMP JUMPDEST SWAP1 POP SWAP3 SWAP2 POP POP JUMP JUMPDEST PUSH2 0x102A DUP2 PUSH2 0x165A JUMP JUMPDEST DUP3 MSTORE POP POP JUMP JUMPDEST PUSH1 0x0 PUSH2 0x103B DUP3 PUSH2 0x15D0 JUMP JUMPDEST PUSH2 0x1045 DUP2 DUP6 PUSH2 0x161C JUMP JUMPDEST SWAP4 POP PUSH2 0x1050 DUP4 PUSH2 0x159B JUMP JUMPDEST DUP1 PUSH1 0x0 JUMPDEST DUP4 DUP2 LT ISZERO PUSH2 0x1081 JUMPI DUP2 MLOAD PUSH2 0x1068 DUP9 DUP3 PUSH2 0xFF5 JUMP JUMPDEST SWAP8 POP PUSH2 0x1073 DUP4 PUSH2 0x15F1 JUMP JUMPDEST SWAP3 POP POP PUSH1 0x1 DUP2 ADD SWAP1 POP PUSH2 0x1054 JUMP JUMPDEST POP DUP6 SWAP4 POP POP POP POP SWAP3 SWAP2 POP POP JUMP JUMPDEST PUSH1 0x0 PUSH2 0x1099 DUP3 PUSH2 0x15DB JUMP JUMPDEST PUSH2 0x10A3 DUP2 DUP6 PUSH2 0x160B JUMP JUMPDEST SWAP4 POP DUP4 PUSH1 0x20 DUP3 MUL DUP6 ADD PUSH2 0x10B5 DUP6 PUSH2 0x15AB JUMP JUMPDEST DUP1 PUSH1 0x0 JUMPDEST DUP6 DUP2 LT ISZERO PUSH2 0x10F1 JUMPI DUP5 DUP5 SUB DUP10 MSTORE DUP2 MLOAD PUSH2 0x10D2 DUP6 DUP3 PUSH2 0x100D JUMP JUMPDEST SWAP5 POP PUSH2 0x10DD DUP4 PUSH2 0x15FE JUMP JUMPDEST SWAP3 POP PUSH1 0x20 DUP11 ADD SWAP10 POP POP PUSH1 0x1 DUP2 ADD SWAP1 POP PUSH2 0x10B9 JUMP JUMPDEST POP DUP3 SWAP8 POP DUP8 SWAP6 POP POP POP POP POP POP SWAP3 SWAP2 POP POP JUMP JUMPDEST PUSH2 0x110C DUP2 PUSH2 0x166C JUMP JUMPDEST DUP3 MSTORE POP POP JUMP JUMPDEST PUSH2 0x111B DUP2 PUSH2 0x16B5 JUMP JUMPDEST DUP3 MSTORE POP POP JUMP JUMPDEST PUSH2 0x112A DUP2 PUSH2 0x16B5 JUMP JUMPDEST DUP3 MSTORE POP POP JUMP JUMPDEST PUSH1 0x0 PUSH2 0x113B DUP3 PUSH2 0x15E6 JUMP JUMPDEST PUSH2 0x1145 DUP2 DUP6 PUSH2 0x162D JUMP JUMPDEST SWAP4 POP PUSH2 0x1155 DUP2 DUP6 PUSH1 0x20 DUP7 ADD PUSH2 0x16D6 JUMP JUMPDEST PUSH2 0x115E DUP2 PUSH2 0x18B4 JUMP JUMPDEST DUP5 ADD SWAP2 POP POP SWAP3 SWAP2 POP POP JUMP JUMPDEST PUSH1 0x0 PUSH2 0x1174 DUP3 PUSH2 0x15E6 JUMP JUMPDEST PUSH2 0x117E DUP2 DUP6 PUSH2 0x164F JUMP JUMPDEST SWAP4 POP PUSH2 0x118E DUP2 DUP6 PUSH1 0x20 DUP7 ADD PUSH2 0x16D6 JUMP JUMPDEST DUP1 DUP5 ADD SWAP2 POP POP SWAP3 SWAP2 POP POP JUMP JUMPDEST PUSH1 0x0 DUP2 SLOAD PUSH2 0x11A7 DUP2 PUSH2 0x1709 JUMP JUMPDEST PUSH2 0x11B1 DUP2 DUP7 PUSH2 0x164F JUMP JUMPDEST SWAP5 POP PUSH1 0x1 DUP3 AND PUSH1 0x0 DUP2 EQ PUSH2 0x11CC JUMPI PUSH1 0x1 DUP2 EQ PUSH2 0x11DD JUMPI PUSH2 0x1210 JUMP JUMPDEST PUSH1 0xFF NOT DUP4 AND DUP7 MSTORE DUP2 DUP7 ADD SWAP4 POP PUSH2 0x1210 JUMP JUMPDEST PUSH2 0x11E6 DUP6 PUSH2 0x15BB JUMP JUMPDEST PUSH1 0x0 JUMPDEST DUP4 DUP2 LT ISZERO PUSH2 0x1208 JUMPI DUP2 SLOAD DUP2 DUP10 ADD MSTORE PUSH1 0x1 DUP3 ADD SWAP2 POP PUSH1 0x20 DUP2 ADD SWAP1 POP PUSH2 0x11E9 JUMP JUMPDEST DUP4 DUP9 ADD SWAP6 POP POP POP JUMPDEST POP POP POP SWAP3 SWAP2 POP POP JUMP JUMPDEST PUSH1 0x0 PUSH2 0x1226 PUSH1 0x26 DUP4 PUSH2 0x163E JUMP JUMPDEST SWAP2 POP PUSH2 0x1231 DUP3 PUSH2 0x18C5 JUMP JUMPDEST PUSH1 0x40 DUP3 ADD SWAP1 POP SWAP2 SWAP1 POP JUMP JUMPDEST PUSH1 0x0 PUSH2 0x1249 PUSH1 0x12 DUP4 PUSH2 0x163E JUMP JUMPDEST SWAP2 POP PUSH2 0x1254 DUP3 PUSH2 0x1914 JUMP JUMPDEST PUSH1 0x20 DUP3 ADD SWAP1 POP SWAP2 SWAP1 POP JUMP JUMPDEST PUSH1 0x0 PUSH2 0x126C PUSH1 0x40 DUP4 PUSH2 0x163E JUMP JUMPDEST SWAP2 POP PUSH2 0x1277 DUP3 PUSH2 0x193D JUMP JUMPDEST PUSH1 0x40 DUP3 ADD SWAP1 POP SWAP2 SWAP1 POP JUMP JUMPDEST PUSH1 0x0 PUSH2 0x128F PUSH1 0x11 DUP4 PUSH2 0x163E JUMP JUMPDEST SWAP2 POP PUSH2 0x129A DUP3 PUSH2 0x198C JUMP JUMPDEST PUSH1 0x20 DUP3 ADD SWAP1 POP SWAP2 SWAP1 POP JUMP JUMPDEST PUSH1 0x0 PUSH2 0x12B2 PUSH1 0x20 DUP4 PUSH2 0x163E JUMP JUMPDEST SWAP2 POP PUSH2 0x12BD DUP3 PUSH2 0x19B5 JUMP JUMPDEST PUSH1 0x20 DUP3 ADD SWAP1 POP SWAP2 SWAP1 POP JUMP JUMPDEST PUSH1 0x0 PUSH2 0x12D5 PUSH1 0x23 DUP4 PUSH2 0x163E JUMP JUMPDEST SWAP2 POP PUSH2 0x12E0 DUP3 PUSH2 0x19DE JUMP JUMPDEST PUSH1 0x40 DUP3 ADD SWAP1 POP SWAP2 SWAP1 POP JUMP JUMPDEST PUSH1 0x0 PUSH2 0x12F8 PUSH1 0x28 DUP4 PUSH2 0x163E JUMP JUMPDEST SWAP2 POP PUSH2 0x1303 DUP3 PUSH2 0x1A2D JUMP JUMPDEST PUSH1 0x40 DUP3 ADD SWAP1 POP SWAP2 SWAP1 POP JUMP JUMPDEST PUSH1 0x0 PUSH2 0x131B PUSH1 0x12 DUP4 PUSH2 0x163E JUMP JUMPDEST SWAP2 POP PUSH2 0x1326 DUP3 PUSH2 0x1A7C JUMP JUMPDEST PUSH1 0x20 DUP3 ADD SWAP1 POP SWAP2 SWAP1 POP JUMP JUMPDEST PUSH1 0x0 PUSH2 0x133E PUSH1 0x20 DUP4 PUSH2 0x163E JUMP JUMPDEST SWAP2 POP PUSH2 0x1349 DUP3 PUSH2 0x1AA5 JUMP JUMPDEST PUSH1 0x20 DUP3 ADD SWAP1 POP SWAP2 SWAP1 POP JUMP JUMPDEST PUSH1 0x0 PUSH2 0x1360 DUP3 DUP5 PUSH2 0x1169 JUMP JUMPDEST SWAP2 POP DUP2 SWAP1 POP SWAP3 SWAP2 POP POP JUMP JUMPDEST PUSH1 0x0 PUSH2 0x1377 DUP3 DUP5 PUSH2 0x119A JUMP JUMPDEST SWAP2 POP DUP2 SWAP1 POP SWAP3 SWAP2 POP POP JUMP JUMPDEST PUSH1 0x0 PUSH1 0x20 DUP3 ADD SWAP1 POP PUSH2 0x1397 PUSH1 0x0 DUP4 ADD DUP5 PUSH2 0x1021 JUMP JUMPDEST SWAP3 SWAP2 POP POP JUMP JUMPDEST PUSH1 0x0 PUSH1 0x40 DUP3 ADD SWAP1 POP DUP2 DUP2 SUB PUSH1 0x0 DUP4 ADD MSTORE PUSH2 0x13B7 DUP2 DUP6 PUSH2 0x1030 JUMP JUMPDEST SWAP1 POP PUSH2 0x13C6 PUSH1 0x20 DUP4 ADD DUP5 PUSH2 0x1103 JUMP JUMPDEST SWAP4 SWAP3 POP POP POP JUMP JUMPDEST PUSH1 0x0 PUSH1 0x20 DUP3 ADD SWAP1 POP DUP2 DUP2 SUB PUSH1 0x0 DUP4 ADD MSTORE PUSH2 0x13E7 DUP2 DUP5 PUSH2 0x108E JUMP JUMPDEST SWAP1 POP SWAP3 SWAP2 POP POP JUMP JUMPDEST PUSH1 0x0 PUSH1 0x20 DUP3 ADD SWAP1 POP PUSH2 0x1404 PUSH1 0x0 DUP4 ADD DUP5 PUSH2 0x1103 JUMP JUMPDEST SWAP3 SWAP2 POP POP JUMP JUMPDEST PUSH1 0x0 PUSH1 0x20 DUP3 ADD SWAP1 POP PUSH2 0x141F PUSH1 0x0 DUP4 ADD DUP5 PUSH2 0x1121 JUMP JUMPDEST SWAP3 SWAP2 POP POP JUMP JUMPDEST PUSH1 0x0 PUSH1 0x20 DUP3 ADD SWAP1 POP DUP2 DUP2 SUB PUSH1 0x0 DUP4 ADD MSTORE PUSH2 0x143E DUP2 PUSH2 0x1219 JUMP JUMPDEST SWAP1 POP SWAP2 SWAP1 POP JUMP JUMPDEST PUSH1 0x0 PUSH1 0x20 DUP3 ADD SWAP1 POP DUP2 DUP2 SUB PUSH1 0x0 DUP4 ADD MSTORE PUSH2 0x145E DUP2 PUSH2 0x123C JUMP JUMPDEST SWAP1 POP SWAP2 SWAP1 POP JUMP JUMPDEST PUSH1 0x0 PUSH1 0x20 DUP3 ADD SWAP1 POP DUP2 DUP2 SUB PUSH1 0x0 DUP4 ADD MSTORE PUSH2 0x147E DUP2 PUSH2 0x125F JUMP JUMPDEST SWAP1 POP SWAP2 SWAP1 POP JUMP JUMPDEST PUSH1 0x0 PUSH1 0x20 DUP3 ADD SWAP1 POP DUP2 DUP2 SUB PUSH1 0x0 DUP4 ADD MSTORE PUSH2 0x149E DUP2 PUSH2 0x1282 JUMP JUMPDEST SWAP1 POP SWAP2 SWAP1 POP JUMP JUMPDEST PUSH1 0x0 PUSH1 0x20 DUP3 ADD SWAP1 POP DUP2 DUP2 SUB PUSH1 0x0 DUP4 ADD MSTORE PUSH2 0x14BE DUP2 PUSH2 0x12A5 JUMP JUMPDEST SWAP1 POP SWAP2 SWAP1 POP JUMP JUMPDEST PUSH1 0x0 PUSH1 0x20 DUP3 ADD SWAP1 POP DUP2 DUP2 SUB PUSH1 0x0 DUP4 ADD MSTORE PUSH2 0x14DE DUP2 PUSH2 0x12C8 JUMP JUMPDEST SWAP1 POP SWAP2 SWAP1 POP JUMP JUMPDEST PUSH1 0x0 PUSH1 0x20 DUP3 ADD SWAP1 POP DUP2 DUP2 SUB PUSH1 0x0 DUP4 ADD MSTORE PUSH2 0x14FE DUP2 PUSH2 0x12EB JUMP JUMPDEST SWAP1 POP SWAP2 SWAP1 POP JUMP JUMPDEST PUSH1 0x0 PUSH1 0x20 DUP3 ADD SWAP1 POP DUP2 DUP2 SUB PUSH1 0x0 DUP4 ADD MSTORE PUSH2 0x151E DUP2 PUSH2 0x130E JUMP JUMPDEST SWAP1 POP SWAP2 SWAP1 POP JUMP JUMPDEST PUSH1 0x0 PUSH1 0x20 DUP3 ADD SWAP1 POP DUP2 DUP2 SUB PUSH1 0x0 DUP4 ADD MSTORE PUSH2 0x153E DUP2 PUSH2 0x1331 JUMP JUMPDEST SWAP1 POP SWAP2 SWAP1 POP JUMP JUMPDEST PUSH1 0x0 PUSH2 0x154F PUSH2 0x1560 JUMP JUMPDEST SWAP1 POP PUSH2 0x155B DUP3 DUP3 PUSH2 0x173B JUMP JUMPDEST SWAP2 SWAP1 POP JUMP JUMPDEST PUSH1 0x0 PUSH1 0x40 MLOAD SWAP1 POP SWAP1 JUMP JUMPDEST PUSH1 0x0 PUSH8 0xFFFFFFFFFFFFFFFF DUP3 GT ISZERO PUSH2 0x1585 JUMPI PUSH2 0x1584 PUSH2 0x1871 JUMP JUMPDEST JUMPDEST PUSH2 0x158E DUP3 PUSH2 0x18B4 JUMP JUMPDEST SWAP1 POP PUSH1 0x20 DUP2 ADD SWAP1 POP SWAP2 SWAP1 POP JUMP JUMPDEST PUSH1 0x0 DUP2 SWAP1 POP PUSH1 0x20 DUP3 ADD SWAP1 POP SWAP2 SWAP1 POP JUMP JUMPDEST PUSH1 0x0 DUP2 SWAP1 POP PUSH1 0x20 DUP3 ADD SWAP1 POP SWAP2 SWAP1 POP JUMP JUMPDEST PUSH1 0x0 DUP2 SWAP1 POP DUP2 PUSH1 0x0 MSTORE PUSH1 0x20 PUSH1 0x0 KECCAK256 SWAP1 POP SWAP2 SWAP1 POP JUMP JUMPDEST PUSH1 0x0 DUP2 MLOAD SWAP1 POP SWAP2 SWAP1 POP JUMP JUMPDEST PUSH1 0x0 DUP2 MLOAD SWAP1 POP SWAP2 SWAP1 POP JUMP JUMPDEST PUSH1 0x0 DUP2 MLOAD SWAP1 POP SWAP2 SWAP1 POP JUMP JUMPDEST PUSH1 0x0 PUSH1 0x20 DUP3 ADD SWAP1 POP SWAP2 SWAP1 POP JUMP JUMPDEST PUSH1 0x0 PUSH1 0x20 DUP3 ADD SWAP1 POP SWAP2 SWAP1 POP JUMP JUMPDEST PUSH1 0x0 DUP3 DUP3 MSTORE PUSH1 0x20 DUP3 ADD SWAP1 POP SWAP3 SWAP2 POP POP JUMP JUMPDEST PUSH1 0x0 DUP3 DUP3 MSTORE PUSH1 0x20 DUP3 ADD SWAP1 POP SWAP3 SWAP2 POP POP JUMP JUMPDEST PUSH1 0x0 DUP3 DUP3 MSTORE PUSH1 0x20 DUP3 ADD SWAP1 POP SWAP3 SWAP2 POP POP JUMP JUMPDEST PUSH1 0x0 DUP3 DUP3 MSTORE PUSH1 0x20 DUP3 ADD SWAP1 POP SWAP3 SWAP2 POP POP JUMP JUMPDEST PUSH1 0x0 DUP2 SWAP1 POP SWAP3 SWAP2 POP POP JUMP JUMPDEST PUSH1 0x0 PUSH2 0x1665 DUP3 PUSH2 0x168B JUMP JUMPDEST SWAP1 POP SWAP2 SWAP1 POP JUMP JUMPDEST PUSH1 0x0 DUP2 ISZERO ISZERO SWAP1 POP SWAP2 SWAP1 POP JUMP JUMPDEST PUSH1 0x0 DUP2 SWAP1 POP PUSH2 0x1686 DUP3 PUSH2 0x1ACE JUMP JUMPDEST SWAP2 SWAP1 POP JUMP JUMPDEST PUSH1 0x0 PUSH20 0xFFFFFFFFFFFFFFFFFFFFFFFFFFFFFFFFFFFFFFFF DUP3 AND SWAP1 POP SWAP2 SWAP1 POP JUMP JUMPDEST PUSH1 0x0 DUP2 SWAP1 POP SWAP2 SWAP1 POP JUMP JUMPDEST PUSH1 0x0 PUSH2 0x16C0 DUP3 PUSH2 0x1678 JUMP JUMPDEST SWAP1 POP SWAP2 SWAP1 POP JUMP JUMPDEST DUP3 DUP2 DUP4 CALLDATACOPY PUSH1 0x0 DUP4 DUP4 ADD MSTORE POP POP POP JUMP JUMPDEST PUSH1 0x0 JUMPDEST DUP4 DUP2 LT ISZERO PUSH2 0x16F4 JUMPI DUP1 DUP3 ADD MLOAD DUP2 DUP5 ADD MSTORE PUSH1 0x20 DUP2 ADD SWAP1 POP PUSH2 0x16D9 JUMP JUMPDEST DUP4 DUP2 GT ISZERO PUSH2 0x1703 JUMPI PUSH1 0x0 DUP5 DUP5 ADD MSTORE JUMPDEST POP POP POP POP JUMP JUMPDEST PUSH1 0x0 PUSH1 0x2 DUP3 DIV SWAP1 POP PUSH1 0x1 DUP3 AND DUP1 PUSH2 0x1721 JUMPI PUSH1 0x7F DUP3 AND SWAP2 POP JUMPDEST PUSH1 0x20 DUP3 LT DUP2 EQ ISZERO PUSH2 0x1735 JUMPI PUSH2 0x1734 PUSH2 0x1813 JUMP JUMPDEST JUMPDEST POP SWAP2 SWAP1 POP JUMP JUMPDEST PUSH2 0x1744 DUP3 PUSH2 0x18B4 JUMP JUMPDEST DUP2 ADD DUP2 DUP2 LT PUSH8 0xFFFFFFFFFFFFFFFF DUP3 GT OR ISZERO PUSH2 0x1763 JUMPI PUSH2 0x1762 PUSH2 0x1871 JUMP JUMPDEST JUMPDEST DUP1 PUSH1 0x40 MSTORE POP POP POP JUMP JUMPDEST PUSH1 0x0 PUSH2 0x1777 DUP3 PUSH2 0x16AB JUMP JUMPDEST SWAP2 POP PUSH32 0xFFFFFFFFFFFFFFFFFFFFFFFFFFFFFFFFFFFFFFFFFFFFFFFFFFFFFFFFFFFFFFFF DUP3 EQ ISZERO PUSH2 0x17AA JUMPI PUSH2 0x17A9 PUSH2 0x17B5 JUMP JUMPDEST JUMPDEST PUSH1 0x1 DUP3 ADD SWAP1 POP SWAP2 SWAP1 POP JUMP JUMPDEST PUSH32 0x4E487B7100000000000000000000000000000000000000000000000000000000 PUSH1 0x0 MSTORE PUSH1 0x11 PUSH1 0x4 MSTORE PUSH1 0x24 PUSH1 0x0 REVERT JUMPDEST PUSH32 0x4E487B7100000000000000000000000000000000000000000000000000000000 PUSH1 0x0 MSTORE PUSH1 0x21 PUSH1 0x4 MSTORE PUSH1 0x24 PUSH1 0x0 REVERT JUMPDEST PUSH32 0x4E487B7100000000000000000000000000000000000000000000000000000000 PUSH1 0x0 MSTORE PUSH1 0x22 PUSH1 0x4 MSTORE PUSH1 0x24 PUSH1 0x0 REVERT JUMPDEST PUSH32 0x4E487B7100000000000000000000000000000000000000000000000000000000 PUSH1 0x0 MSTORE PUSH1 0x32 PUSH1 0x4 MSTORE PUSH1 0x24 PUSH1 0x0 REVERT JUMPDEST PUSH32 0x4E487B7100000000000000000000000000000000000000000000000000000000 PUSH1 0x0 MSTORE PUSH1 0x41 PUSH1 0x4 MSTORE PUSH1 0x24 PUSH1 0x0 REVERT JUMPDEST PUSH1 0x0 DUP1 REVERT JUMPDEST PUSH1 0x0 DUP1 REVERT JUMPDEST PUSH1 0x0 DUP1 REVERT JUMPDEST PUSH1 0x0 DUP1 REVERT JUMPDEST PUSH1 0x0 PUSH1 0x1F NOT PUSH1 0x1F DUP4 ADD AND SWAP1 POP SWAP2 SWAP1 POP JUMP JUMPDEST PUSH32 0x4F776E61626C653A206E6577206F776E657220697320746865207A65726F2061 PUSH1 0x0 DUP3 ADD MSTORE PUSH32 0x6464726573730000000000000000000000000000000000000000000000000000 PUSH1 0x20 DUP3 ADD MSTORE POP JUMP JUMPDEST PUSH32 0x556E6B6E6F776E206173736573746D656E740000000000000000000000000000 PUSH1 0x0 DUP3 ADD MSTORE POP JUMP JUMPDEST PUSH32 0x5468652073747564656E7420686173206E6F742070617373656420616C6C2074 PUSH1 0x0 DUP3 ADD MSTORE PUSH32 0x6865206578616D7320726571756972656420666F722074686520646567726565 PUSH1 0x20 DUP3 ADD MSTORE POP JUMP JUMPDEST PUSH32 0x556E6B6E6F776E206578616D20636F6465000000000000000000000000000000 PUSH1 0x0 DUP3 ADD MSTORE POP JUMP JUMPDEST PUSH32 0x4F776E61626C653A2063616C6C6572206973206E6F7420746865206F776E6572 PUSH1 0x0 DUP3 ADD MSTORE POP JUMP JUMPDEST PUSH32 0x4E6F7420616C6C6F77656420746F2064656C65746520616E206576616C756174 PUSH1 0x0 DUP3 ADD MSTORE PUSH32 0x696F6E0000000000000000000000000000000000000000000000000000000000 PUSH1 0x20 DUP3 ADD MSTORE POP JUMP JUMPDEST PUSH32 0x5468652073747564656E742068617320616C7265616479207061737365642074 PUSH1 0x0 DUP3 ADD MSTORE PUSH32 0x686973206578616D000000000000000000000000000000000000000000000000 PUSH1 0x20 DUP3 ADD MSTORE POP JUMP JUMPDEST PUSH32 0x4578616D20616C72656164792061646465640000000000000000000000000000 PUSH1 0x0 DUP3 ADD MSTORE POP JUMP JUMPDEST PUSH32 0x5468652073747564656E7420697320616C726561647920677261647561746564 PUSH1 0x0 DUP3 ADD MSTORE POP JUMP JUMPDEST PUSH1 0x3 DUP2 LT PUSH2 0x1ADF JUMPI PUSH2 0x1ADE PUSH2 0x17E4 JUMP JUMPDEST JUMPDEST POP JUMP JUMPDEST PUSH2 0x1AEB DUP2 PUSH2 0x165A JUMP JUMPDEST DUP2 EQ PUSH2 0x1AF6 JUMPI PUSH1 0x0 DUP1 REVERT JUMPDEST POP JUMP JUMPDEST PUSH1 0x3 DUP2 LT PUSH2 0x1B06 JUMPI PUSH1 0x0 DUP1 REVERT JUMPDEST POP JUMP INVALID LOG2 PUSH5 0x6970667358 0x22 SLT KECCAK256 0xD7 0x24 0xCD 0xEC 0xC4 SDIV 0xD8 COINBASE SWAP16 0xDF 0xE0 MOD 0xC9 0xD7 0xEE SWAP4 0xE1 PUSH20 0x5A4E6ECE0BA31042EF894B24115B64736F6C6343 STOP ADDMOD SMOD STOP CALLER "
		},
		"gasEstimates": {
			"creation": {
				"codeDepositCost": "1395000",
				"executionCost": "infinite",
				"totalCost": "infinite"
			},
			"external": {
				"addExam(string)": "infinite",
				"addExamResult(address,string,uint8)": "infinite",
				"getExamList()": "infinite",
				"getExamState(address,string)": "infinite",
				"getMyExamState(string)": "infinite",
				"getMySituation()": "infinite",
				"getSituation(address)": "infinite",
				"isGraduated(address)": "2972",
				"owner()": "2566",
				"publishGraduation(address)": "infinite",
				"renounceOwnership()": "30509",
				"transferOwnership(address)": "30857"
			},
			"internal": {
				"checkExamCode(string memory)": "infinite"
			}
		},
		"methodIdentifiers": {
			"addExam(string)": "db874295",
			"addExamResult(address,string,uint8)": "0e7d8ce5",
			"getExamList()": "1f3ce1d3",
			"getExamState(address,string)": "3434d8bb",
			"getMyExamState(string)": "86db377a",
			"getMySituation()": "81d7016c",
			"getSituation(address)": "a7f70611",
			"isGraduated(address)": "68a4c8b7",
			"owner()": "8da5cb5b",
			"publishGraduation(address)": "684609eb",
			"renounceOwnership()": "715018a6",
			"transferOwnership(address)": "f2fde38b"
		}
	},
	"abi": [
		{
			"inputs": [],
			"stateMutability": "nonpayable",
			"type": "constructor"
		},
		{
			"anonymous": false,
			"inputs": [
				{
					"indexed": true,
					"internalType": "address",
					"name": "previousOwner",
					"type": "address"
				},
				{
					"indexed": true,
					"internalType": "address",
					"name": "newOwner",
					"type": "address"
				}
			],
			"name": "OwnershipTransferred",
			"type": "event"
		},
		{
			"inputs": [
				{
					"internalType": "string",
					"name": "examCode",
					"type": "string"
				}
			],
			"name": "addExam",
			"outputs": [],
			"stateMutability": "nonpayable",
			"type": "function"
		},
		{
			"inputs": [
				{
					"internalType": "address",
					"name": "who",
					"type": "address"
				},
				{
					"internalType": "string",
					"name": "examCode",
					"type": "string"
				},
				{
					"internalType": "enum Gestione_Esami.examState",
					"name": "assestment",
					"type": "uint8"
				}
			],
			"name": "addExamResult",
			"outputs": [],
			"stateMutability": "nonpayable",
			"type": "function"
		},
		{
			"inputs": [],
			"name": "getExamList",
			"outputs": [
				{
					"internalType": "string[]",
					"name": "",
					"type": "string[]"
				}
			],
			"stateMutability": "view",
			"type": "function"
		},
		{
			"inputs": [
				{
					"internalType": "address",
					"name": "who",
					"type": "address"
				},
				{
					"internalType": "string",
					"name": "examCode",
					"type": "string"
				}
			],
			"name": "getExamState",
			"outputs": [
				{
					"internalType": "enum Gestione_Esami.examState",
					"name": "",
					"type": "uint8"
				}
			],
			"stateMutability": "view",
			"type": "function"
		},
		{
			"inputs": [
				{
					"internalType": "string",
					"name": "examCode",
					"type": "string"
				}
			],
			"name": "getMyExamState",
			"outputs": [
				{
					"internalType": "enum Gestione_Esami.examState",
					"name": "",
					"type": "uint8"
				}
			],
			"stateMutability": "view",
			"type": "function"
		},
		{
			"inputs": [],
			"name": "getMySituation",
			"outputs": [
				{
					"internalType": "enum Gestione_Esami.examState[]",
					"name": "",
					"type": "uint8[]"
				},
				{
					"internalType": "bool",
					"name": "",
					"type": "bool"
				}
			],
			"stateMutability": "view",
			"type": "function"
		},
		{
			"inputs": [
				{
					"internalType": "address",
					"name": "who",
					"type": "address"
				}
			],
			"name": "getSituation",
			"outputs": [
				{
					"internalType": "enum Gestione_Esami.examState[]",
					"name": "",
					"type": "uint8[]"
				},
				{
					"internalType": "bool",
					"name": "",
					"type": "bool"
				}
			],
			"stateMutability": "view",
			"type": "function"
		},
		{
			"inputs": [
				{
					"internalType": "address",
					"name": "who",
					"type": "address"
				}
			],
			"name": "isGraduated",
			"outputs": [
				{
					"internalType": "bool",
					"name": "",
					"type": "bool"
				}
			],
			"stateMutability": "view",
			"type": "function"
		},
		{
			"inputs": [],
			"name": "owner",
			"outputs": [
				{
					"internalType": "address",
					"name": "",
					"type": "address"
				}
			],
			"stateMutability": "view",
			"type": "function"
		},
		{
			"inputs": [
				{
					"internalType": "address",
					"name": "who",
					"type": "address"
				}
			],
			"name": "publishGraduation",
			"outputs": [],
			"stateMutability": "nonpayable",
			"type": "function"
		},
		{
			"inputs": [],
			"name": "renounceOwnership",
			"outputs": [],
			"stateMutability": "nonpayable",
			"type": "function"
		},
		{
			"inputs": [
				{
					"internalType": "address",
					"name": "newOwner",
					"type": "address"
				}
			],
			"name": "transferOwnership",
			"outputs": [],
			"stateMutability": "nonpayable",
			"type": "function"
		}
	]
}