{
	"data": {
		"bytecode": {
			"linkReferences": {},
			"object": "608060405260006005556000600660006101000a81548160ff0219169083151502179055506000600660016101000a81548160ff0219169083151502179055503480156200004c57600080fd5b50604051620033fa380380620033fa8339818101604052810190620000729190620003d3565b8273ffffffffffffffffffffffffffffffffffffffff168373ffffffffffffffffffffffffffffffffffffffff1614620000e3576040517f08c379a0000000000000000000000000000000000000000000000000000000008152600401620000da90620004b6565b60405180910390fd5b8173ffffffffffffffffffffffffffffffffffffffff168273ffffffffffffffffffffffffffffffffffffffff161462000154576040517f08c379a00000000000000000000000000000000000000000000000000000000081526004016200014b906200054e565b60405180910390fd5b8073ffffffffffffffffffffffffffffffffffffffff168173ffffffffffffffffffffffffffffffffffffffff1614620001c5576040517f08c379a0000000000000000000000000000000000000000000000000000000008152600401620001bc906200054e565b60405180910390fd5b82600160006101000a81548173ffffffffffffffffffffffffffffffffffffffff021916908373ffffffffffffffffffffffffffffffffffffffff16021790555081600260006101000a81548173ffffffffffffffffffffffffffffffffffffffff021916908373ffffffffffffffffffffffffffffffffffffffff16021790555080600360006101000a81548173ffffffffffffffffffffffffffffffffffffffff021916908373ffffffffffffffffffffffffffffffffffffffff16021790555060006040518060400160405280600581526020017f3237344141000000000000000000000000000000000000000000000000000000815250908060018154018082558091505060019003906000526020600020016000909190919091509081620002f39190620007ea565b5060006040518060400160405280600581526020017f32343541410000000000000000000000000000000000000000000000000000008152509080600181540180825580915050600190039060005260206000200160009091909190915090816200035f9190620007ea565b50505050620008d1565b600080fd5b600073ffffffffffffffffffffffffffffffffffffffff82169050919050565b60006200039b826200036e565b9050919050565b620003ad816200038e565b8114620003b957600080fd5b50565b600081519050620003cd81620003a2565b92915050565b600080600060608486031215620003ef57620003ee62000369565b5b6000620003ff86828701620003bc565b93505060206200041286828701620003bc565b92505060406200042586828701620003bc565b9150509250925092565b600082825260208201905092915050565b7f496e76616c6964206578616d73206d616e6167657220636f6e7472616374206160008201527f6464726573730000000000000000000000000000000000000000000000000000602082015250565b60006200049e6026836200042f565b9150620004ab8262000440565b604082019050919050565b60006020820190508181036000830152620004d1816200048f565b9050919050565b7f496e76616c696420636f6c6c656374696f6e20636f6e7472616374206164647260008201527f6573730000000000000000000000000000000000000000000000000000000000602082015250565b6000620005366023836200042f565b91506200054382620004d8565b604082019050919050565b60006020820190508181036000830152620005698162000527565b9050919050565b600081519050919050565b7f4e487b7100000000000000000000000000000000000000000000000000000000600052604160045260246000fd5b7f4e487b7100000000000000000000000000000000000000000000000000000000600052602260045260246000fd5b60006002820490506001821680620005f257607f821691505b602082108103620006085762000607620005aa565b5b50919050565b60008190508160005260206000209050919050565b60006020601f8301049050919050565b600082821b905092915050565b600060088302620006727fffffffffffffffffffffffffffffffffffffffffffffffffffffffffffffffff8262000633565b6200067e868362000633565b95508019841693508086168417925050509392505050565b6000819050919050565b6000819050919050565b6000620006cb620006c5620006bf8462000696565b620006a0565b62000696565b9050919050565b6000819050919050565b620006e783620006aa565b620006ff620006f682620006d2565b84845462000640565b825550505050565b600090565b6200071662000707565b62000723818484620006dc565b505050565b5b818110156200074b576200073f6000826200070c565b60018101905062000729565b5050565b601f8211156200079a5762000764816200060e565b6200076f8462000623565b810160208510156200077f578190505b620007976200078e8562000623565b83018262000728565b50505b505050565b600082821c905092915050565b6000620007bf600019846008026200079f565b1980831691505092915050565b6000620007da8383620007ac565b9150826002028217905092915050565b620007f58262000570565b67ffffffffffffffff8111156200081157620008106200057b565b5b6200081d8254620005d9565b6200082a8282856200074f565b600060209050601f8311600181146200086257600084156200084d578287015190505b620008598582620007cc565b865550620008c9565b601f19841662000872866200060e565b60005b828110156200089c5784890151825560018201915060208501945060208101905062000875565b86831015620008bc5784890151620008b8601f891682620007ac565b8355505b6001600288020188555050505b505050505050565b612b1980620008e16000396000f3fe608060405234801561001057600080fd5b50600436106100cf5760003560e01c80637d3de1a01161008c578063c93fb85711610066578063c93fb857146101ca578063deef61f0146101fa578063f2fde38b14610218578063fa2e842614610234576100cf565b80637d3de1a014610186578063a441c00014610190578063b387ef92146101ac576100cf565b8063155c2d1f146100d4578063158ef93e146100f257806319d61baf1461011057806329012cab1461012c5780636053ef381461014a578063709263c114610168575b600080fd5b6100dc610253565b6040516100e991906119ae565b60405180910390f35b6100fa610279565b60405161010791906119e4565b60405180910390f35b61012a60048036038101906101259190611b59565b61028c565b005b61013461066d565b6040516101419190611c21565b60405180910390f35b610152610883565b60405161015f91906119e4565b60405180910390f35b6101706108e9565b60405161017d91906119ae565b60405180910390f35b61018e61090f565b005b6101aa60048036038101906101a59190611b59565b610b42565b005b6101b4610f24565b6040516101c191906119ae565b60405180910390f35b6101e460048036038101906101df9190611b59565b610f4a565b6040516101f19190611cba565b60405180910390f35b610202610f7f565b60405161020f9190611cee565b60405180910390f35b610232600480360381019061022d9190611d35565b610fd8565b005b61023c61122d565b60405161024a929190611d62565b60405180910390f35b600160009054906101000a900473ffffffffffffffffffffffffffffffffffffffff1681565b600660019054906101000a900460ff1681565b600360009054906101000a900473ffffffffffffffffffffffffffffffffffffffff1673ffffffffffffffffffffffffffffffffffffffff163373ffffffffffffffffffffffffffffffffffffffff161461031c576040517f08c379a000000000000000000000000000000000000000000000000000000000815260040161031390611dd7565b60405180910390fd5b600660019054906101000a900460ff1661036b576040517f08c379a000000000000000000000000000000000000000000000000000000000815260040161036290611e43565b60405180910390fd5b600660009054906101000a900460ff16156103bb576040517f08c379a00000000000000000000000000000000000000000000000000000000081526004016103b290611ed5565b60405180910390fd5b600060028111156103cf576103ce611c43565b5b6004826040516103df9190611f31565b908152602001604051809103902060009054906101000a900460ff16600281111561040d5761040c611c43565b5b1461044d576040517f08c379a000000000000000000000000000000000000000000000000000000000815260040161044490611f94565b60405180910390fd5b6000600160009054906101000a900473ffffffffffffffffffffffffffffffffffffffff16905060008173ffffffffffffffffffffffffffffffffffffffff16633434d8bb33856040518363ffffffff1660e01b81526004016104b1929190611fb4565b602060405180830381865afa1580156104ce573d6000803e3d6000fd5b505050506040513d601f19601f820116820180604052508101906104f29190612009565b90506000600281111561050857610507611c43565b5b81600281111561051b5761051a611c43565b5b0361055b576040517f08c379a000000000000000000000000000000000000000000000000000000000815260040161055290612082565b60405180910390fd5b60028081111561056e5761056d611c43565b5b81600281111561058157610580611c43565b5b036105c1576040517f08c379a00000000000000000000000000000000000000000000000000000000081526004016105b8906120ee565b60405180910390fd5b6105ca8361163f565b610609576040517f08c379a00000000000000000000000000000000000000000000000000000000081526004016106009061215a565b60405180910390fd5b600160048460405161061b9190611f31565b908152602001604051809103902060006101000a81548160ff0219169083600281111561064b5761064a611c43565b5b021790555060056000815480929190610663906121a9565b9190505550505050565b6060600660019054906101000a900460ff166106be576040517f08c379a00000000000000000000000000000000000000000000000000000000081526004016106b590611e43565b60405180910390fd5b6000604051806020016040528060008152509050600060055403610719576040518060400160405280600281526020017f303000000000000000000000000000000000000000000000000000000000000081525090506107c4565b60005b6000805490508110156107c2578161078d600460008481548110610743576107426121f1565b5b9060005260206000200160405161075a9190612318565b908152602001604051809103902060009054906101000a900460ff16600281111561078857610787611c43565b5b611731565b60405160200161079e92919061232f565b604051602081830303815290604052915080806107ba906121a9565b91505061071c565b505b806040516020016107d5919061239f565b60405160208183030381529060405290506060600660009054906101000a900460ff161561083e576040518060600160405280602e8152602001612a88602e913982604051602001610828929190612459565b604051602081830303815290604052905061087b565b6040518060600160405280602e8152602001612ab6602e913982604051602001610869929190612459565b60405160208183030381529060405290505b809250505090565b6000600660019054906101000a900460ff166108d4576040517f08c379a00000000000000000000000000000000000000000000000000000000081526004016108cb90611e43565b60405180910390fd5b600660009054906101000a900460ff16905090565b600260009054906101000a900473ffffffffffffffffffffffffffffffffffffffff1681565b600360009054906101000a900473ffffffffffffffffffffffffffffffffffffffff1673ffffffffffffffffffffffffffffffffffffffff163373ffffffffffffffffffffffffffffffffffffffff161461099f576040517f08c379a000000000000000000000000000000000000000000000000000000000815260040161099690611dd7565b60405180910390fd5b600660019054906101000a900460ff166109ee576040517f08c379a00000000000000000000000000000000000000000000000000000000081526004016109e590611e43565b60405180910390fd5b600660009054906101000a900460ff1615610a3e576040517f08c379a0000000000000000000000000000000000000000000000000000000008152600401610a35906124df565b60405180910390fd5b6000600160009054906101000a900473ffffffffffffffffffffffffffffffffffffffff16905060008173ffffffffffffffffffffffffffffffffffffffff166368a4c8b7336040518263ffffffff1660e01b8152600401610aa091906119ae565b602060405180830381865afa158015610abd573d6000803e3d6000fd5b505050506040513d601f19601f82011682018060405250810190610ae1919061252b565b905080610b23576040517f08c379a0000000000000000000000000000000000000000000000000000000008152600401610b1a906125a4565b60405180910390fd5b6001600660006101000a81548160ff0219169083151502179055505050565b600360009054906101000a900473ffffffffffffffffffffffffffffffffffffffff1673ffffffffffffffffffffffffffffffffffffffff163373ffffffffffffffffffffffffffffffffffffffff1614610bd2576040517f08c379a0000000000000000000000000000000000000000000000000000000008152600401610bc990611dd7565b60405180910390fd5b600660019054906101000a900460ff16610c21576040517f08c379a0000000000000000000000000000000000000000000000000000000008152600401610c1890611e43565b60405180910390fd5b600660009054906101000a900460ff1615610c71576040517f08c379a0000000000000000000000000000000000000000000000000000000008152600401610c6890611ed5565b60405180910390fd5b60006002811115610c8557610c84611c43565b5b600482604051610c959190611f31565b908152602001604051809103902060009054906101000a900460ff166002811115610cc357610cc2611c43565b5b14610d03576040517f08c379a0000000000000000000000000000000000000000000000000000000008152600401610cfa90611f94565b60405180910390fd5b6000600160009054906101000a900473ffffffffffffffffffffffffffffffffffffffff16905060008173ffffffffffffffffffffffffffffffffffffffff16633434d8bb33856040518363ffffffff1660e01b8152600401610d67929190611fb4565b602060405180830381865afa158015610d84573d6000803e3d6000fd5b505050506040513d601f19601f82011682018060405250810190610da89190612009565b905060006002811115610dbe57610dbd611c43565b5b816002811115610dd157610dd0611c43565b5b03610e11576040517f08c379a0000000000000000000000000000000000000000000000000000000008152600401610e0890612082565b60405180910390fd5b60016002811115610e2557610e24611c43565b5b816002811115610e3857610e37611c43565b5b03610e78576040517f08c379a0000000000000000000000000000000000000000000000000000000008152600401610e6f90612610565b60405180910390fd5b610e818361163f565b610ec0576040517f08c379a0000000000000000000000000000000000000000000000000000000008152600401610eb79061215a565b60405180910390fd5b6002600484604051610ed29190611f31565b908152602001604051809103902060006101000a81548160ff02191690836002811115610f0257610f01611c43565b5b021790555060056000815480929190610f1a906121a9565b9190505550505050565b600360009054906101000a900473ffffffffffffffffffffffffffffffffffffffff1681565b6000600482604051610f5c9190611f31565b908152602001604051809103902060009054906101000a900460ff169050919050565b6000600660019054906101000a900460ff16610fd0576040517f08c379a0000000000000000000000000000000000000000000000000000000008152600401610fc790611e43565b60405180910390fd5b600554905090565b600260009054906101000a900473ffffffffffffffffffffffffffffffffffffffff1673ffffffffffffffffffffffffffffffffffffffff163373ffffffffffffffffffffffffffffffffffffffff1614611068576040517f08c379a000000000000000000000000000000000000000000000000000000000815260040161105f90611dd7565b60405180910390fd5b8073ffffffffffffffffffffffffffffffffffffffff168173ffffffffffffffffffffffffffffffffffffffff16146110d6576040517f08c379a00000000000000000000000000000000000000000000000000000000081526004016110cd9061267c565b60405180910390fd5b600073ffffffffffffffffffffffffffffffffffffffff168173ffffffffffffffffffffffffffffffffffffffff1603611145576040517f08c379a000000000000000000000000000000000000000000000000000000000815260040161113c9061270e565b60405180910390fd5b6000600360009054906101000a900473ffffffffffffffffffffffffffffffffffffffff16905081600360006101000a81548173ffffffffffffffffffffffffffffffffffffffff021916908373ffffffffffffffffffffffffffffffffffffffff160217905550600360009054906101000a900473ffffffffffffffffffffffffffffffffffffffff1673ffffffffffffffffffffffffffffffffffffffff168173ffffffffffffffffffffffffffffffffffffffff167f8be0079c531659141344cd1fd0a4f28419497f9722a3daafe3b4186f6b6457e060405160405180910390a35050565b600080600360009054906101000a900473ffffffffffffffffffffffffffffffffffffffff1673ffffffffffffffffffffffffffffffffffffffff163373ffffffffffffffffffffffffffffffffffffffff16146112c0576040517f08c379a00000000000000000000000000000000000000000000000000000000081526004016112b790611dd7565b60405180910390fd5b600660019054906101000a900460ff1615611310576040517f08c379a00000000000000000000000000000000000000000000000000000000081526004016113079061277a565b60405180910390fd5b6000600160009054906101000a900473ffffffffffffffffffffffffffffffffffffffff1690506000808273ffffffffffffffffffffffffffffffffffffffff1663a7f70611336040518263ffffffff1660e01b815260040161137391906119ae565b600060405180830381865afa158015611390573d6000803e3d6000fd5b505050506040513d6000823e3d601f19601f820116820180604052508101906113b99190612862565b9150915060008373ffffffffffffffffffffffffffffffffffffffff16631f3ce1d36040518163ffffffff1660e01b8152600401600060405180830381865afa15801561140a573d6000803e3d6000fd5b505050506040513d6000823e3d601f19601f820116820180604052508101906114339190612a0f565b905060005b83518110156115ea576000600281111561145557611454611c43565b5b848281518110611468576114676121f1565b5b6020026020010151600281111561148257611481611c43565b5b146115d7576114aa82828151811061149d5761149c6121f1565b5b602002602001015161163f565b156115d657600560008154809291906114c2906121a9565b9190505550600160028111156114db576114da611c43565b5b8482815181106114ee576114ed6121f1565b5b6020026020010151600281111561150857611507611c43565b5b036115735760016004838381518110611524576115236121f1565b5b60200260200101516040516115399190611f31565b908152602001604051809103902060006101000a81548160ff0219169083600281111561156957611568611c43565b5b02179055506115d5565b6002600483838151811061158a576115896121f1565b5b602002602001015160405161159f9190611f31565b908152602001604051809103902060006101000a81548160ff021916908360028111156115cf576115ce611c43565b5b02179055505b5b5b80806115e2906121a9565b915050611438565b5081600660006101000a81548160ff0219169083151502179055506001600660016101000a81548160ff021916908315150217905550600554600660009054906101000a900460ff1695509550505050509091565b600080600090505b600080549050811015611726576117046000828154811061166b5761166a6121f1565b5b9060005260206000200180546116809061224f565b80601f01602080910402602001604051908101604052809291908181526020018280546116ac9061224f565b80156116f95780601f106116ce576101008083540402835291602001916116f9565b820191906000526020600020905b8154815290600101906020018083116116dc57829003601f168201915b5050505050846117ff565b1561171357600191505061172c565b808061171e906121a9565b915050611647565b50600090505b919050565b6060600060016117408461181a565b01905060008167ffffffffffffffff81111561175f5761175e611a2e565b5b6040519080825280601f01601f1916602001820160405280156117915781602001600182028036833780820191505090505b509050600082602001820190505b6001156117f4578080600190039150507f3031323334353637383961626364656600000000000000000000000000000000600a86061a8153600a85816117e8576117e7612a58565b5b0494506000850361179f575b819350505050919050565b60008180519060200120838051906020012014905092915050565b600080600090507a184f03e93ff9f4daa797ed6e38ed64bf6a1f0100000000000000008310611878577a184f03e93ff9f4daa797ed6e38ed64bf6a1f010000000000000000838161186e5761186d612a58565b5b0492506040810190505b6d04ee2d6d415b85acef810000000083106118b5576d04ee2d6d415b85acef810000000083816118ab576118aa612a58565b5b0492506020810190505b662386f26fc1000083106118e457662386f26fc1000083816118da576118d9612a58565b5b0492506010810190505b6305f5e100831061190d576305f5e100838161190357611902612a58565b5b0492506008810190505b612710831061193257612710838161192857611927612a58565b5b0492506004810190505b60648310611955576064838161194b5761194a612a58565b5b0492506002810190505b600a8310611964576001810190505b80915050919050565b600073ffffffffffffffffffffffffffffffffffffffff82169050919050565b60006119988261196d565b9050919050565b6119a88161198d565b82525050565b60006020820190506119c3600083018461199f565b92915050565b60008115159050919050565b6119de816119c9565b82525050565b60006020820190506119f960008301846119d5565b92915050565b6000604051905090565b600080fd5b600080fd5b600080fd5b600080fd5b6000601f19601f8301169050919050565b7f4e487b7100000000000000000000000000000000000000000000000000000000600052604160045260246000fd5b611a6682611a1d565b810181811067ffffffffffffffff82111715611a8557611a84611a2e565b5b80604052505050565b6000611a986119ff565b9050611aa48282611a5d565b919050565b600067ffffffffffffffff821115611ac457611ac3611a2e565b5b611acd82611a1d565b9050602081019050919050565b82818337600083830152505050565b6000611afc611af784611aa9565b611a8e565b905082815260208101848484011115611b1857611b17611a18565b5b611b23848285611ada565b509392505050565b600082601f830112611b4057611b3f611a13565b5b8135611b50848260208601611ae9565b91505092915050565b600060208284031215611b6f57611b6e611a09565b5b600082013567ffffffffffffffff811115611b8d57611b8c611a0e565b5b611b9984828501611b2b565b91505092915050565b600081519050919050565b600082825260208201905092915050565b60005b83811015611bdc578082015181840152602081019050611bc1565b60008484015250505050565b6000611bf382611ba2565b611bfd8185611bad565b9350611c0d818560208601611bbe565b611c1681611a1d565b840191505092915050565b60006020820190508181036000830152611c3b8184611be8565b905092915050565b7f4e487b7100000000000000000000000000000000000000000000000000000000600052602160045260246000fd5b60038110611c8357611c82611c43565b5b50565b6000819050611c9482611c72565b919050565b6000611ca482611c86565b9050919050565b611cb481611c99565b82525050565b6000602082019050611ccf6000830184611cab565b92915050565b6000819050919050565b611ce881611cd5565b82525050565b6000602082019050611d036000830184611cdf565b92915050565b611d128161198d565b8114611d1d57600080fd5b50565b600081359050611d2f81611d09565b92915050565b600060208284031215611d4b57611d4a611a09565b5b6000611d5984828501611d20565b91505092915050565b6000604082019050611d776000830185611cdf565b611d8460208301846119d5565b9392505050565b7f43616c6c6572206973206e6f7420746865206f776e6572000000000000000000600082015250565b6000611dc1601783611bad565b9150611dcc82611d8b565b602082019050919050565b60006020820190508181036000830152611df081611db4565b9050919050565b7f486174206e6f7420696e697469616c697a656400000000000000000000000000600082015250565b6000611e2d601383611bad565b9150611e3882611df7565b602082019050919050565b60006020820190508181036000830152611e5c81611e20565b9050919050565b7f4772616475617465642076657273696f6e206f6620746865206861742063616e60008201527f6e6f742062652065646974656400000000000000000000000000000000000000602082015250565b6000611ebf602d83611bad565b9150611eca82611e63565b604082019050919050565b60006020820190508181036000830152611eee81611eb2565b9050919050565b600081905092915050565b6000611f0b82611ba2565b611f158185611ef5565b9350611f25818560208601611bbe565b80840191505092915050565b6000611f3d8284611f00565b915081905092915050565b7f50696e20616c72656164792070757420666f722074686973206578616d210000600082015250565b6000611f7e601e83611bad565b9150611f8982611f48565b602082019050919050565b60006020820190508181036000830152611fad81611f71565b9050919050565b6000604082019050611fc9600083018561199f565b8181036020830152611fdb8184611be8565b90509392505050565b60038110611ff157600080fd5b50565b60008151905061200381611fe4565b92915050565b60006020828403121561201f5761201e611a09565b5b600061202d84828501611ff4565b91505092915050565b7f4578616d206e6f74207061737365640000000000000000000000000000000000600082015250565b600061206c600f83611bad565b915061207782612036565b602082019050919050565b6000602082019050818103600083015261209b8161205f565b9050919050565b7f4578616d207061737365642077697468206d6572697400000000000000000000600082015250565b60006120d8601683611bad565b91506120e3826120a2565b602082019050919050565b60006020820190508181036000830152612107816120cb565b9050919050565b7f50696e206e6f7420617661696c61626c6520666f722074686973206578616d21600082015250565b6000612144602083611bad565b915061214f8261210e565b602082019050919050565b6000602082019050818103600083015261217381612137565b9050919050565b7f4e487b7100000000000000000000000000000000000000000000000000000000600052601160045260246000fd5b60006121b482611cd5565b91507fffffffffffffffffffffffffffffffffffffffffffffffffffffffffffffffff82036121e6576121e561217a565b5b600182019050919050565b7f4e487b7100000000000000000000000000000000000000000000000000000000600052603260045260246000fd5b7f4e487b7100000000000000000000000000000000000000000000000000000000600052602260045260246000fd5b6000600282049050600182168061226757607f821691505b60208210810361227a57612279612220565b5b50919050565b60008190508160005260206000209050919050565b600081546122a28161224f565b6122ac8186611ef5565b945060018216600081146122c757600181146122dc5761230f565b60ff198316865281151582028601935061230f565b6122e585612280565b60005b83811015612307578154818901526001820191506020810190506122e8565b838801955050505b50505092915050565b60006123248284612295565b915081905092915050565b600061233b8285611f00565b91506123478284611f00565b91508190509392505050565b7f2e676c6200000000000000000000000000000000000000000000000000000000600082015250565b6000612389600483611ef5565b915061239482612353565b600482019050919050565b60006123ab8284611f00565b91506123b68261237c565b915081905092915050565b7f697066733a2f2f00000000000000000000000000000000000000000000000000600082015250565b60006123f7600783611ef5565b9150612402826123c1565b600782019050919050565b7f2f00000000000000000000000000000000000000000000000000000000000000600082015250565b6000612443600183611ef5565b915061244e8261240d565b600182019050919050565b6000612464826123ea565b91506124708285611f00565b915061247b82612436565b91506124878284611f00565b91508190509392505050565b7f4772616475617465642068617420616c7265616479206f627461696e65640000600082015250565b60006124c9601e83611bad565b91506124d482612493565b602082019050919050565b600060208201905081810360008301526124f8816124bc565b9050919050565b612508816119c9565b811461251357600080fd5b50565b600081519050612525816124ff565b92915050565b60006020828403121561254157612540611a09565b5b600061254f84828501612516565b91505092915050565b7f596f7520617265206e6f74206772616475617465640000000000000000000000600082015250565b600061258e601583611bad565b915061259982612558565b602082019050919050565b600060208201905081810360008301526125bd81612581565b9050919050565b7f4578616d2070617373656420776974686f7574206d6572697400000000000000600082015250565b60006125fa601983611bad565b9150612605826125c4565b602082019050919050565b60006020820190508181036000830152612629816125ed565b9050919050565b7f496e76616c696420616464726573730000000000000000000000000000000000600082015250565b6000612666600f83611bad565b915061267182612630565b602082019050919050565b6000602082019050818103600083015261269581612659565b9050919050565b7f4f776e61626c653a206e6577206f776e657220697320746865207a65726f206160008201527f6464726573730000000000000000000000000000000000000000000000000000602082015250565b60006126f8602683611bad565b91506127038261269c565b604082019050919050565b60006020820190508181036000830152612727816126eb565b9050919050565b7f48617420616c726561647920696e697469616c697a6564000000000000000000600082015250565b6000612764601783611bad565b915061276f8261272e565b602082019050919050565b6000602082019050818103600083015261279381612757565b9050919050565b600067ffffffffffffffff8211156127b5576127b4611a2e565b5b602082029050602081019050919050565b600080fd5b60006127de6127d98461279a565b611a8e565b90508083825260208201905060208402830185811115612801576128006127c6565b5b835b8181101561282a57806128168882611ff4565b845260208401935050602081019050612803565b5050509392505050565b600082601f83011261284957612848611a13565b5b81516128598482602086016127cb565b91505092915050565b6000806040838503121561287957612878611a09565b5b600083015167ffffffffffffffff81111561289757612896611a0e565b5b6128a385828601612834565b92505060206128b485828601612516565b9150509250929050565b600067ffffffffffffffff8211156128d9576128d8611a2e565b5b602082029050602081019050919050565b60006128fd6128f884611aa9565b611a8e565b90508281526020810184848401111561291957612918611a18565b5b612924848285611bbe565b509392505050565b600082601f83011261294157612940611a13565b5b81516129518482602086016128ea565b91505092915050565b600061296d612968846128be565b611a8e565b905080838252602082019050602084028301858111156129905761298f6127c6565b5b835b818110156129d757805167ffffffffffffffff8111156129b5576129b4611a13565b5b8086016129c2898261292c565b85526020850194505050602081019050612992565b5050509392505050565b600082601f8301126129f6576129f5611a13565b5b8151612a0684826020860161295a565b91505092915050565b600060208284031215612a2557612a24611a09565b5b600082015167ffffffffffffffff811115612a4357612a42611a0e565b5b612a4f848285016129e1565b91505092915050565b7f4e487b7100000000000000000000000000000000000000000000000000000000600052601260045260246000fdfe516d644d4b33424a545177696f48443570736638446b544a4d523276416845424a76397442656554654237754a65516d5262433641573556763731344a3779674a6d546f65734c414b35746d636637755652345155363763326d6279a264697066735822122039b000021bc16e4b7094a4a2395cc220d316596fd60f299277044090ee8ed98b64736f6c63430008110033",
			"opcodes": "PUSH1 0x80 PUSH1 0x40 MSTORE PUSH1 0x0 PUSH1 0x5 SSTORE PUSH1 0x0 PUSH1 0x6 PUSH1 0x0 PUSH2 0x100 EXP DUP2 SLOAD DUP2 PUSH1 0xFF MUL NOT AND SWAP1 DUP4 ISZERO ISZERO MUL OR SWAP1 SSTORE POP PUSH1 0x0 PUSH1 0x6 PUSH1 0x1 PUSH2 0x100 EXP DUP2 SLOAD DUP2 PUSH1 0xFF MUL NOT AND SWAP1 DUP4 ISZERO ISZERO MUL OR SWAP1 SSTORE POP CALLVALUE DUP1 ISZERO PUSH3 0x4C JUMPI PUSH1 0x0 DUP1 REVERT JUMPDEST POP PUSH1 0x40 MLOAD PUSH3 0x33FA CODESIZE SUB DUP1 PUSH3 0x33FA DUP4 CODECOPY DUP2 DUP2 ADD PUSH1 0x40 MSTORE DUP2 ADD SWAP1 PUSH3 0x72 SWAP2 SWAP1 PUSH3 0x3D3 JUMP JUMPDEST DUP3 PUSH20 0xFFFFFFFFFFFFFFFFFFFFFFFFFFFFFFFFFFFFFFFF AND DUP4 PUSH20 0xFFFFFFFFFFFFFFFFFFFFFFFFFFFFFFFFFFFFFFFF AND EQ PUSH3 0xE3 JUMPI PUSH1 0x40 MLOAD PUSH32 0x8C379A000000000000000000000000000000000000000000000000000000000 DUP2 MSTORE PUSH1 0x4 ADD PUSH3 0xDA SWAP1 PUSH3 0x4B6 JUMP JUMPDEST PUSH1 0x40 MLOAD DUP1 SWAP2 SUB SWAP1 REVERT JUMPDEST DUP2 PUSH20 0xFFFFFFFFFFFFFFFFFFFFFFFFFFFFFFFFFFFFFFFF AND DUP3 PUSH20 0xFFFFFFFFFFFFFFFFFFFFFFFFFFFFFFFFFFFFFFFF AND EQ PUSH3 0x154 JUMPI PUSH1 0x40 MLOAD PUSH32 0x8C379A000000000000000000000000000000000000000000000000000000000 DUP2 MSTORE PUSH1 0x4 ADD PUSH3 0x14B SWAP1 PUSH3 0x54E JUMP JUMPDEST PUSH1 0x40 MLOAD DUP1 SWAP2 SUB SWAP1 REVERT JUMPDEST DUP1 PUSH20 0xFFFFFFFFFFFFFFFFFFFFFFFFFFFFFFFFFFFFFFFF AND DUP2 PUSH20 0xFFFFFFFFFFFFFFFFFFFFFFFFFFFFFFFFFFFFFFFF AND EQ PUSH3 0x1C5 JUMPI PUSH1 0x40 MLOAD PUSH32 0x8C379A000000000000000000000000000000000000000000000000000000000 DUP2 MSTORE PUSH1 0x4 ADD PUSH3 0x1BC SWAP1 PUSH3 0x54E JUMP JUMPDEST PUSH1 0x40 MLOAD DUP1 SWAP2 SUB SWAP1 REVERT JUMPDEST DUP3 PUSH1 0x1 PUSH1 0x0 PUSH2 0x100 EXP DUP2 SLOAD DUP2 PUSH20 0xFFFFFFFFFFFFFFFFFFFFFFFFFFFFFFFFFFFFFFFF MUL NOT AND SWAP1 DUP4 PUSH20 0xFFFFFFFFFFFFFFFFFFFFFFFFFFFFFFFFFFFFFFFF AND MUL OR SWAP1 SSTORE POP DUP2 PUSH1 0x2 PUSH1 0x0 PUSH2 0x100 EXP DUP2 SLOAD DUP2 PUSH20 0xFFFFFFFFFFFFFFFFFFFFFFFFFFFFFFFFFFFFFFFF MUL NOT AND SWAP1 DUP4 PUSH20 0xFFFFFFFFFFFFFFFFFFFFFFFFFFFFFFFFFFFFFFFF AND MUL OR SWAP1 SSTORE POP DUP1 PUSH1 0x3 PUSH1 0x0 PUSH2 0x100 EXP DUP2 SLOAD DUP2 PUSH20 0xFFFFFFFFFFFFFFFFFFFFFFFFFFFFFFFFFFFFFFFF MUL NOT AND SWAP1 DUP4 PUSH20 0xFFFFFFFFFFFFFFFFFFFFFFFFFFFFFFFFFFFFFFFF AND MUL OR SWAP1 SSTORE POP PUSH1 0x0 PUSH1 0x40 MLOAD DUP1 PUSH1 0x40 ADD PUSH1 0x40 MSTORE DUP1 PUSH1 0x5 DUP2 MSTORE PUSH1 0x20 ADD PUSH32 0x3237344141000000000000000000000000000000000000000000000000000000 DUP2 MSTORE POP SWAP1 DUP1 PUSH1 0x1 DUP2 SLOAD ADD DUP1 DUP3 SSTORE DUP1 SWAP2 POP POP PUSH1 0x1 SWAP1 SUB SWAP1 PUSH1 0x0 MSTORE PUSH1 0x20 PUSH1 0x0 KECCAK256 ADD PUSH1 0x0 SWAP1 SWAP2 SWAP1 SWAP2 SWAP1 SWAP2 POP SWAP1 DUP2 PUSH3 0x2F3 SWAP2 SWAP1 PUSH3 0x7EA JUMP JUMPDEST POP PUSH1 0x0 PUSH1 0x40 MLOAD DUP1 PUSH1 0x40 ADD PUSH1 0x40 MSTORE DUP1 PUSH1 0x5 DUP2 MSTORE PUSH1 0x20 ADD PUSH32 0x3234354141000000000000000000000000000000000000000000000000000000 DUP2 MSTORE POP SWAP1 DUP1 PUSH1 0x1 DUP2 SLOAD ADD DUP1 DUP3 SSTORE DUP1 SWAP2 POP POP PUSH1 0x1 SWAP1 SUB SWAP1 PUSH1 0x0 MSTORE PUSH1 0x20 PUSH1 0x0 KECCAK256 ADD PUSH1 0x0 SWAP1 SWAP2 SWAP1 SWAP2 SWAP1 SWAP2 POP SWAP1 DUP2 PUSH3 0x35F SWAP2 SWAP1 PUSH3 0x7EA JUMP JUMPDEST POP POP POP POP PUSH3 0x8D1 JUMP JUMPDEST PUSH1 0x0 DUP1 REVERT JUMPDEST PUSH1 0x0 PUSH20 0xFFFFFFFFFFFFFFFFFFFFFFFFFFFFFFFFFFFFFFFF DUP3 AND SWAP1 POP SWAP2 SWAP1 POP JUMP JUMPDEST PUSH1 0x0 PUSH3 0x39B DUP3 PUSH3 0x36E JUMP JUMPDEST SWAP1 POP SWAP2 SWAP1 POP JUMP JUMPDEST PUSH3 0x3AD DUP2 PUSH3 0x38E JUMP JUMPDEST DUP2 EQ PUSH3 0x3B9 JUMPI PUSH1 0x0 DUP1 REVERT JUMPDEST POP JUMP JUMPDEST PUSH1 0x0 DUP2 MLOAD SWAP1 POP PUSH3 0x3CD DUP2 PUSH3 0x3A2 JUMP JUMPDEST SWAP3 SWAP2 POP POP JUMP JUMPDEST PUSH1 0x0 DUP1 PUSH1 0x0 PUSH1 0x60 DUP5 DUP7 SUB SLT ISZERO PUSH3 0x3EF JUMPI PUSH3 0x3EE PUSH3 0x369 JUMP JUMPDEST JUMPDEST PUSH1 0x0 PUSH3 0x3FF DUP7 DUP3 DUP8 ADD PUSH3 0x3BC JUMP JUMPDEST SWAP4 POP POP PUSH1 0x20 PUSH3 0x412 DUP7 DUP3 DUP8 ADD PUSH3 0x3BC JUMP JUMPDEST SWAP3 POP POP PUSH1 0x40 PUSH3 0x425 DUP7 DUP3 DUP8 ADD PUSH3 0x3BC JUMP JUMPDEST SWAP2 POP POP SWAP3 POP SWAP3 POP SWAP3 JUMP JUMPDEST PUSH1 0x0 DUP3 DUP3 MSTORE PUSH1 0x20 DUP3 ADD SWAP1 POP SWAP3 SWAP2 POP POP JUMP JUMPDEST PUSH32 0x496E76616C6964206578616D73206D616E6167657220636F6E74726163742061 PUSH1 0x0 DUP3 ADD MSTORE PUSH32 0x6464726573730000000000000000000000000000000000000000000000000000 PUSH1 0x20 DUP3 ADD MSTORE POP JUMP JUMPDEST PUSH1 0x0 PUSH3 0x49E PUSH1 0x26 DUP4 PUSH3 0x42F JUMP JUMPDEST SWAP2 POP PUSH3 0x4AB DUP3 PUSH3 0x440 JUMP JUMPDEST PUSH1 0x40 DUP3 ADD SWAP1 POP SWAP2 SWAP1 POP JUMP JUMPDEST PUSH1 0x0 PUSH1 0x20 DUP3 ADD SWAP1 POP DUP2 DUP2 SUB PUSH1 0x0 DUP4 ADD MSTORE PUSH3 0x4D1 DUP2 PUSH3 0x48F JUMP JUMPDEST SWAP1 POP SWAP2 SWAP1 POP JUMP JUMPDEST PUSH32 0x496E76616C696420636F6C6C656374696F6E20636F6E74726163742061646472 PUSH1 0x0 DUP3 ADD MSTORE PUSH32 0x6573730000000000000000000000000000000000000000000000000000000000 PUSH1 0x20 DUP3 ADD MSTORE POP JUMP JUMPDEST PUSH1 0x0 PUSH3 0x536 PUSH1 0x23 DUP4 PUSH3 0x42F JUMP JUMPDEST SWAP2 POP PUSH3 0x543 DUP3 PUSH3 0x4D8 JUMP JUMPDEST PUSH1 0x40 DUP3 ADD SWAP1 POP SWAP2 SWAP1 POP JUMP JUMPDEST PUSH1 0x0 PUSH1 0x20 DUP3 ADD SWAP1 POP DUP2 DUP2 SUB PUSH1 0x0 DUP4 ADD MSTORE PUSH3 0x569 DUP2 PUSH3 0x527 JUMP JUMPDEST SWAP1 POP SWAP2 SWAP1 POP JUMP JUMPDEST PUSH1 0x0 DUP2 MLOAD SWAP1 POP SWAP2 SWAP1 POP JUMP JUMPDEST PUSH32 0x4E487B7100000000000000000000000000000000000000000000000000000000 PUSH1 0x0 MSTORE PUSH1 0x41 PUSH1 0x4 MSTORE PUSH1 0x24 PUSH1 0x0 REVERT JUMPDEST PUSH32 0x4E487B7100000000000000000000000000000000000000000000000000000000 PUSH1 0x0 MSTORE PUSH1 0x22 PUSH1 0x4 MSTORE PUSH1 0x24 PUSH1 0x0 REVERT JUMPDEST PUSH1 0x0 PUSH1 0x2 DUP3 DIV SWAP1 POP PUSH1 0x1 DUP3 AND DUP1 PUSH3 0x5F2 JUMPI PUSH1 0x7F DUP3 AND SWAP2 POP JUMPDEST PUSH1 0x20 DUP3 LT DUP2 SUB PUSH3 0x608 JUMPI PUSH3 0x607 PUSH3 0x5AA JUMP JUMPDEST JUMPDEST POP SWAP2 SWAP1 POP JUMP JUMPDEST PUSH1 0x0 DUP2 SWAP1 POP DUP2 PUSH1 0x0 MSTORE PUSH1 0x20 PUSH1 0x0 KECCAK256 SWAP1 POP SWAP2 SWAP1 POP JUMP JUMPDEST PUSH1 0x0 PUSH1 0x20 PUSH1 0x1F DUP4 ADD DIV SWAP1 POP SWAP2 SWAP1 POP JUMP JUMPDEST PUSH1 0x0 DUP3 DUP3 SHL SWAP1 POP SWAP3 SWAP2 POP POP JUMP JUMPDEST PUSH1 0x0 PUSH1 0x8 DUP4 MUL PUSH3 0x672 PUSH32 0xFFFFFFFFFFFFFFFFFFFFFFFFFFFFFFFFFFFFFFFFFFFFFFFFFFFFFFFFFFFFFFFF DUP3 PUSH3 0x633 JUMP JUMPDEST PUSH3 0x67E DUP7 DUP4 PUSH3 0x633 JUMP JUMPDEST SWAP6 POP DUP1 NOT DUP5 AND SWAP4 POP DUP1 DUP7 AND DUP5 OR SWAP3 POP POP POP SWAP4 SWAP3 POP POP POP JUMP JUMPDEST PUSH1 0x0 DUP2 SWAP1 POP SWAP2 SWAP1 POP JUMP JUMPDEST PUSH1 0x0 DUP2 SWAP1 POP SWAP2 SWAP1 POP JUMP JUMPDEST PUSH1 0x0 PUSH3 0x6CB PUSH3 0x6C5 PUSH3 0x6BF DUP5 PUSH3 0x696 JUMP JUMPDEST PUSH3 0x6A0 JUMP JUMPDEST PUSH3 0x696 JUMP JUMPDEST SWAP1 POP SWAP2 SWAP1 POP JUMP JUMPDEST PUSH1 0x0 DUP2 SWAP1 POP SWAP2 SWAP1 POP JUMP JUMPDEST PUSH3 0x6E7 DUP4 PUSH3 0x6AA JUMP JUMPDEST PUSH3 0x6FF PUSH3 0x6F6 DUP3 PUSH3 0x6D2 JUMP JUMPDEST DUP5 DUP5 SLOAD PUSH3 0x640 JUMP JUMPDEST DUP3 SSTORE POP POP POP POP JUMP JUMPDEST PUSH1 0x0 SWAP1 JUMP JUMPDEST PUSH3 0x716 PUSH3 0x707 JUMP JUMPDEST PUSH3 0x723 DUP2 DUP5 DUP5 PUSH3 0x6DC JUMP JUMPDEST POP POP POP JUMP JUMPDEST JUMPDEST DUP2 DUP2 LT ISZERO PUSH3 0x74B JUMPI PUSH3 0x73F PUSH1 0x0 DUP3 PUSH3 0x70C JUMP JUMPDEST PUSH1 0x1 DUP2 ADD SWAP1 POP PUSH3 0x729 JUMP JUMPDEST POP POP JUMP JUMPDEST PUSH1 0x1F DUP3 GT ISZERO PUSH3 0x79A JUMPI PUSH3 0x764 DUP2 PUSH3 0x60E JUMP JUMPDEST PUSH3 0x76F DUP5 PUSH3 0x623 JUMP JUMPDEST DUP2 ADD PUSH1 0x20 DUP6 LT ISZERO PUSH3 0x77F JUMPI DUP2 SWAP1 POP JUMPDEST PUSH3 0x797 PUSH3 0x78E DUP6 PUSH3 0x623 JUMP JUMPDEST DUP4 ADD DUP3 PUSH3 0x728 JUMP JUMPDEST POP POP JUMPDEST POP POP POP JUMP JUMPDEST PUSH1 0x0 DUP3 DUP3 SHR SWAP1 POP SWAP3 SWAP2 POP POP JUMP JUMPDEST PUSH1 0x0 PUSH3 0x7BF PUSH1 0x0 NOT DUP5 PUSH1 0x8 MUL PUSH3 0x79F JUMP JUMPDEST NOT DUP1 DUP4 AND SWAP2 POP POP SWAP3 SWAP2 POP POP JUMP JUMPDEST PUSH1 0x0 PUSH3 0x7DA DUP4 DUP4 PUSH3 0x7AC JUMP JUMPDEST SWAP2 POP DUP3 PUSH1 0x2 MUL DUP3 OR SWAP1 POP SWAP3 SWAP2 POP POP JUMP JUMPDEST PUSH3 0x7F5 DUP3 PUSH3 0x570 JUMP JUMPDEST PUSH8 0xFFFFFFFFFFFFFFFF DUP2 GT ISZERO PUSH3 0x811 JUMPI PUSH3 0x810 PUSH3 0x57B JUMP JUMPDEST JUMPDEST PUSH3 0x81D DUP3 SLOAD PUSH3 0x5D9 JUMP JUMPDEST PUSH3 0x82A DUP3 DUP3 DUP6 PUSH3 0x74F JUMP JUMPDEST PUSH1 0x0 PUSH1 0x20 SWAP1 POP PUSH1 0x1F DUP4 GT PUSH1 0x1 DUP2 EQ PUSH3 0x862 JUMPI PUSH1 0x0 DUP5 ISZERO PUSH3 0x84D JUMPI DUP3 DUP8 ADD MLOAD SWAP1 POP JUMPDEST PUSH3 0x859 DUP6 DUP3 PUSH3 0x7CC JUMP JUMPDEST DUP7 SSTORE POP PUSH3 0x8C9 JUMP JUMPDEST PUSH1 0x1F NOT DUP5 AND PUSH3 0x872 DUP7 PUSH3 0x60E JUMP JUMPDEST PUSH1 0x0 JUMPDEST DUP3 DUP2 LT ISZERO PUSH3 0x89C JUMPI DUP5 DUP10 ADD MLOAD DUP3 SSTORE PUSH1 0x1 DUP3 ADD SWAP2 POP PUSH1 0x20 DUP6 ADD SWAP5 POP PUSH1 0x20 DUP2 ADD SWAP1 POP PUSH3 0x875 JUMP JUMPDEST DUP7 DUP4 LT ISZERO PUSH3 0x8BC JUMPI DUP5 DUP10 ADD MLOAD PUSH3 0x8B8 PUSH1 0x1F DUP10 AND DUP3 PUSH3 0x7AC JUMP JUMPDEST DUP4 SSTORE POP JUMPDEST PUSH1 0x1 PUSH1 0x2 DUP9 MUL ADD DUP9 SSTORE POP POP POP JUMPDEST POP POP POP POP POP POP JUMP JUMPDEST PUSH2 0x2B19 DUP1 PUSH3 0x8E1 PUSH1 0x0 CODECOPY PUSH1 0x0 RETURN INVALID PUSH1 0x80 PUSH1 0x40 MSTORE CALLVALUE DUP1 ISZERO PUSH2 0x10 JUMPI PUSH1 0x0 DUP1 REVERT JUMPDEST POP PUSH1 0x4 CALLDATASIZE LT PUSH2 0xCF JUMPI PUSH1 0x0 CALLDATALOAD PUSH1 0xE0 SHR DUP1 PUSH4 0x7D3DE1A0 GT PUSH2 0x8C JUMPI DUP1 PUSH4 0xC93FB857 GT PUSH2 0x66 JUMPI DUP1 PUSH4 0xC93FB857 EQ PUSH2 0x1CA JUMPI DUP1 PUSH4 0xDEEF61F0 EQ PUSH2 0x1FA JUMPI DUP1 PUSH4 0xF2FDE38B EQ PUSH2 0x218 JUMPI DUP1 PUSH4 0xFA2E8426 EQ PUSH2 0x234 JUMPI PUSH2 0xCF JUMP JUMPDEST DUP1 PUSH4 0x7D3DE1A0 EQ PUSH2 0x186 JUMPI DUP1 PUSH4 0xA441C000 EQ PUSH2 0x190 JUMPI DUP1 PUSH4 0xB387EF92 EQ PUSH2 0x1AC JUMPI PUSH2 0xCF JUMP JUMPDEST DUP1 PUSH4 0x155C2D1F EQ PUSH2 0xD4 JUMPI DUP1 PUSH4 0x158EF93E EQ PUSH2 0xF2 JUMPI DUP1 PUSH4 0x19D61BAF EQ PUSH2 0x110 JUMPI DUP1 PUSH4 0x29012CAB EQ PUSH2 0x12C JUMPI DUP1 PUSH4 0x6053EF38 EQ PUSH2 0x14A JUMPI DUP1 PUSH4 0x709263C1 EQ PUSH2 0x168 JUMPI JUMPDEST PUSH1 0x0 DUP1 REVERT JUMPDEST PUSH2 0xDC PUSH2 0x253 JUMP JUMPDEST PUSH1 0x40 MLOAD PUSH2 0xE9 SWAP2 SWAP1 PUSH2 0x19AE JUMP JUMPDEST PUSH1 0x40 MLOAD DUP1 SWAP2 SUB SWAP1 RETURN JUMPDEST PUSH2 0xFA PUSH2 0x279 JUMP JUMPDEST PUSH1 0x40 MLOAD PUSH2 0x107 SWAP2 SWAP1 PUSH2 0x19E4 JUMP JUMPDEST PUSH1 0x40 MLOAD DUP1 SWAP2 SUB SWAP1 RETURN JUMPDEST PUSH2 0x12A PUSH1 0x4 DUP1 CALLDATASIZE SUB DUP2 ADD SWAP1 PUSH2 0x125 SWAP2 SWAP1 PUSH2 0x1B59 JUMP JUMPDEST PUSH2 0x28C JUMP JUMPDEST STOP JUMPDEST PUSH2 0x134 PUSH2 0x66D JUMP JUMPDEST PUSH1 0x40 MLOAD PUSH2 0x141 SWAP2 SWAP1 PUSH2 0x1C21 JUMP JUMPDEST PUSH1 0x40 MLOAD DUP1 SWAP2 SUB SWAP1 RETURN JUMPDEST PUSH2 0x152 PUSH2 0x883 JUMP JUMPDEST PUSH1 0x40 MLOAD PUSH2 0x15F SWAP2 SWAP1 PUSH2 0x19E4 JUMP JUMPDEST PUSH1 0x40 MLOAD DUP1 SWAP2 SUB SWAP1 RETURN JUMPDEST PUSH2 0x170 PUSH2 0x8E9 JUMP JUMPDEST PUSH1 0x40 MLOAD PUSH2 0x17D SWAP2 SWAP1 PUSH2 0x19AE JUMP JUMPDEST PUSH1 0x40 MLOAD DUP1 SWAP2 SUB SWAP1 RETURN JUMPDEST PUSH2 0x18E PUSH2 0x90F JUMP JUMPDEST STOP JUMPDEST PUSH2 0x1AA PUSH1 0x4 DUP1 CALLDATASIZE SUB DUP2 ADD SWAP1 PUSH2 0x1A5 SWAP2 SWAP1 PUSH2 0x1B59 JUMP JUMPDEST PUSH2 0xB42 JUMP JUMPDEST STOP JUMPDEST PUSH2 0x1B4 PUSH2 0xF24 JUMP JUMPDEST PUSH1 0x40 MLOAD PUSH2 0x1C1 SWAP2 SWAP1 PUSH2 0x19AE JUMP JUMPDEST PUSH1 0x40 MLOAD DUP1 SWAP2 SUB SWAP1 RETURN JUMPDEST PUSH2 0x1E4 PUSH1 0x4 DUP1 CALLDATASIZE SUB DUP2 ADD SWAP1 PUSH2 0x1DF SWAP2 SWAP1 PUSH2 0x1B59 JUMP JUMPDEST PUSH2 0xF4A JUMP JUMPDEST PUSH1 0x40 MLOAD PUSH2 0x1F1 SWAP2 SWAP1 PUSH2 0x1CBA JUMP JUMPDEST PUSH1 0x40 MLOAD DUP1 SWAP2 SUB SWAP1 RETURN JUMPDEST PUSH2 0x202 PUSH2 0xF7F JUMP JUMPDEST PUSH1 0x40 MLOAD PUSH2 0x20F SWAP2 SWAP1 PUSH2 0x1CEE JUMP JUMPDEST PUSH1 0x40 MLOAD DUP1 SWAP2 SUB SWAP1 RETURN JUMPDEST PUSH2 0x232 PUSH1 0x4 DUP1 CALLDATASIZE SUB DUP2 ADD SWAP1 PUSH2 0x22D SWAP2 SWAP1 PUSH2 0x1D35 JUMP JUMPDEST PUSH2 0xFD8 JUMP JUMPDEST STOP JUMPDEST PUSH2 0x23C PUSH2 0x122D JUMP JUMPDEST PUSH1 0x40 MLOAD PUSH2 0x24A SWAP3 SWAP2 SWAP1 PUSH2 0x1D62 JUMP JUMPDEST PUSH1 0x40 MLOAD DUP1 SWAP2 SUB SWAP1 RETURN JUMPDEST PUSH1 0x1 PUSH1 0x0 SWAP1 SLOAD SWAP1 PUSH2 0x100 EXP SWAP1 DIV PUSH20 0xFFFFFFFFFFFFFFFFFFFFFFFFFFFFFFFFFFFFFFFF AND DUP2 JUMP JUMPDEST PUSH1 0x6 PUSH1 0x1 SWAP1 SLOAD SWAP1 PUSH2 0x100 EXP SWAP1 DIV PUSH1 0xFF AND DUP2 JUMP JUMPDEST PUSH1 0x3 PUSH1 0x0 SWAP1 SLOAD SWAP1 PUSH2 0x100 EXP SWAP1 DIV PUSH20 0xFFFFFFFFFFFFFFFFFFFFFFFFFFFFFFFFFFFFFFFF AND PUSH20 0xFFFFFFFFFFFFFFFFFFFFFFFFFFFFFFFFFFFFFFFF AND CALLER PUSH20 0xFFFFFFFFFFFFFFFFFFFFFFFFFFFFFFFFFFFFFFFF AND EQ PUSH2 0x31C JUMPI PUSH1 0x40 MLOAD PUSH32 0x8C379A000000000000000000000000000000000000000000000000000000000 DUP2 MSTORE PUSH1 0x4 ADD PUSH2 0x313 SWAP1 PUSH2 0x1DD7 JUMP JUMPDEST PUSH1 0x40 MLOAD DUP1 SWAP2 SUB SWAP1 REVERT JUMPDEST PUSH1 0x6 PUSH1 0x1 SWAP1 SLOAD SWAP1 PUSH2 0x100 EXP SWAP1 DIV PUSH1 0xFF AND PUSH2 0x36B JUMPI PUSH1 0x40 MLOAD PUSH32 0x8C379A000000000000000000000000000000000000000000000000000000000 DUP2 MSTORE PUSH1 0x4 ADD PUSH2 0x362 SWAP1 PUSH2 0x1E43 JUMP JUMPDEST PUSH1 0x40 MLOAD DUP1 SWAP2 SUB SWAP1 REVERT JUMPDEST PUSH1 0x6 PUSH1 0x0 SWAP1 SLOAD SWAP1 PUSH2 0x100 EXP SWAP1 DIV PUSH1 0xFF AND ISZERO PUSH2 0x3BB JUMPI PUSH1 0x40 MLOAD PUSH32 0x8C379A000000000000000000000000000000000000000000000000000000000 DUP2 MSTORE PUSH1 0x4 ADD PUSH2 0x3B2 SWAP1 PUSH2 0x1ED5 JUMP JUMPDEST PUSH1 0x40 MLOAD DUP1 SWAP2 SUB SWAP1 REVERT JUMPDEST PUSH1 0x0 PUSH1 0x2 DUP2 GT ISZERO PUSH2 0x3CF JUMPI PUSH2 0x3CE PUSH2 0x1C43 JUMP JUMPDEST JUMPDEST PUSH1 0x4 DUP3 PUSH1 0x40 MLOAD PUSH2 0x3DF SWAP2 SWAP1 PUSH2 0x1F31 JUMP JUMPDEST SWAP1 DUP2 MSTORE PUSH1 0x20 ADD PUSH1 0x40 MLOAD DUP1 SWAP2 SUB SWAP1 KECCAK256 PUSH1 0x0 SWAP1 SLOAD SWAP1 PUSH2 0x100 EXP SWAP1 DIV PUSH1 0xFF AND PUSH1 0x2 DUP2 GT ISZERO PUSH2 0x40D JUMPI PUSH2 0x40C PUSH2 0x1C43 JUMP JUMPDEST JUMPDEST EQ PUSH2 0x44D JUMPI PUSH1 0x40 MLOAD PUSH32 0x8C379A000000000000000000000000000000000000000000000000000000000 DUP2 MSTORE PUSH1 0x4 ADD PUSH2 0x444 SWAP1 PUSH2 0x1F94 JUMP JUMPDEST PUSH1 0x40 MLOAD DUP1 SWAP2 SUB SWAP1 REVERT JUMPDEST PUSH1 0x0 PUSH1 0x1 PUSH1 0x0 SWAP1 SLOAD SWAP1 PUSH2 0x100 EXP SWAP1 DIV PUSH20 0xFFFFFFFFFFFFFFFFFFFFFFFFFFFFFFFFFFFFFFFF AND SWAP1 POP PUSH1 0x0 DUP2 PUSH20 0xFFFFFFFFFFFFFFFFFFFFFFFFFFFFFFFFFFFFFFFF AND PUSH4 0x3434D8BB CALLER DUP6 PUSH1 0x40 MLOAD DUP4 PUSH4 0xFFFFFFFF AND PUSH1 0xE0 SHL DUP2 MSTORE PUSH1 0x4 ADD PUSH2 0x4B1 SWAP3 SWAP2 SWAP1 PUSH2 0x1FB4 JUMP JUMPDEST PUSH1 0x20 PUSH1 0x40 MLOAD DUP1 DUP4 SUB DUP2 DUP7 GAS STATICCALL ISZERO DUP1 ISZERO PUSH2 0x4CE JUMPI RETURNDATASIZE PUSH1 0x0 DUP1 RETURNDATACOPY RETURNDATASIZE PUSH1 0x0 REVERT JUMPDEST POP POP POP POP PUSH1 0x40 MLOAD RETURNDATASIZE PUSH1 0x1F NOT PUSH1 0x1F DUP3 ADD AND DUP3 ADD DUP1 PUSH1 0x40 MSTORE POP DUP2 ADD SWAP1 PUSH2 0x4F2 SWAP2 SWAP1 PUSH2 0x2009 JUMP JUMPDEST SWAP1 POP PUSH1 0x0 PUSH1 0x2 DUP2 GT ISZERO PUSH2 0x508 JUMPI PUSH2 0x507 PUSH2 0x1C43 JUMP JUMPDEST JUMPDEST DUP2 PUSH1 0x2 DUP2 GT ISZERO PUSH2 0x51B JUMPI PUSH2 0x51A PUSH2 0x1C43 JUMP JUMPDEST JUMPDEST SUB PUSH2 0x55B JUMPI PUSH1 0x40 MLOAD PUSH32 0x8C379A000000000000000000000000000000000000000000000000000000000 DUP2 MSTORE PUSH1 0x4 ADD PUSH2 0x552 SWAP1 PUSH2 0x2082 JUMP JUMPDEST PUSH1 0x40 MLOAD DUP1 SWAP2 SUB SWAP1 REVERT JUMPDEST PUSH1 0x2 DUP1 DUP2 GT ISZERO PUSH2 0x56E JUMPI PUSH2 0x56D PUSH2 0x1C43 JUMP JUMPDEST JUMPDEST DUP2 PUSH1 0x2 DUP2 GT ISZERO PUSH2 0x581 JUMPI PUSH2 0x580 PUSH2 0x1C43 JUMP JUMPDEST JUMPDEST SUB PUSH2 0x5C1 JUMPI PUSH1 0x40 MLOAD PUSH32 0x8C379A000000000000000000000000000000000000000000000000000000000 DUP2 MSTORE PUSH1 0x4 ADD PUSH2 0x5B8 SWAP1 PUSH2 0x20EE JUMP JUMPDEST PUSH1 0x40 MLOAD DUP1 SWAP2 SUB SWAP1 REVERT JUMPDEST PUSH2 0x5CA DUP4 PUSH2 0x163F JUMP JUMPDEST PUSH2 0x609 JUMPI PUSH1 0x40 MLOAD PUSH32 0x8C379A000000000000000000000000000000000000000000000000000000000 DUP2 MSTORE PUSH1 0x4 ADD PUSH2 0x600 SWAP1 PUSH2 0x215A JUMP JUMPDEST PUSH1 0x40 MLOAD DUP1 SWAP2 SUB SWAP1 REVERT JUMPDEST PUSH1 0x1 PUSH1 0x4 DUP5 PUSH1 0x40 MLOAD PUSH2 0x61B SWAP2 SWAP1 PUSH2 0x1F31 JUMP JUMPDEST SWAP1 DUP2 MSTORE PUSH1 0x20 ADD PUSH1 0x40 MLOAD DUP1 SWAP2 SUB SWAP1 KECCAK256 PUSH1 0x0 PUSH2 0x100 EXP DUP2 SLOAD DUP2 PUSH1 0xFF MUL NOT AND SWAP1 DUP4 PUSH1 0x2 DUP2 GT ISZERO PUSH2 0x64B JUMPI PUSH2 0x64A PUSH2 0x1C43 JUMP JUMPDEST JUMPDEST MUL OR SWAP1 SSTORE POP PUSH1 0x5 PUSH1 0x0 DUP2 SLOAD DUP1 SWAP3 SWAP2 SWAP1 PUSH2 0x663 SWAP1 PUSH2 0x21A9 JUMP JUMPDEST SWAP2 SWAP1 POP SSTORE POP POP POP POP JUMP JUMPDEST PUSH1 0x60 PUSH1 0x6 PUSH1 0x1 SWAP1 SLOAD SWAP1 PUSH2 0x100 EXP SWAP1 DIV PUSH1 0xFF AND PUSH2 0x6BE JUMPI PUSH1 0x40 MLOAD PUSH32 0x8C379A000000000000000000000000000000000000000000000000000000000 DUP2 MSTORE PUSH1 0x4 ADD PUSH2 0x6B5 SWAP1 PUSH2 0x1E43 JUMP JUMPDEST PUSH1 0x40 MLOAD DUP1 SWAP2 SUB SWAP1 REVERT JUMPDEST PUSH1 0x0 PUSH1 0x40 MLOAD DUP1 PUSH1 0x20 ADD PUSH1 0x40 MSTORE DUP1 PUSH1 0x0 DUP2 MSTORE POP SWAP1 POP PUSH1 0x0 PUSH1 0x5 SLOAD SUB PUSH2 0x719 JUMPI PUSH1 0x40 MLOAD DUP1 PUSH1 0x40 ADD PUSH1 0x40 MSTORE DUP1 PUSH1 0x2 DUP2 MSTORE PUSH1 0x20 ADD PUSH32 0x3030000000000000000000000000000000000000000000000000000000000000 DUP2 MSTORE POP SWAP1 POP PUSH2 0x7C4 JUMP JUMPDEST PUSH1 0x0 JUMPDEST PUSH1 0x0 DUP1 SLOAD SWAP1 POP DUP2 LT ISZERO PUSH2 0x7C2 JUMPI DUP2 PUSH2 0x78D PUSH1 0x4 PUSH1 0x0 DUP5 DUP2 SLOAD DUP2 LT PUSH2 0x743 JUMPI PUSH2 0x742 PUSH2 0x21F1 JUMP JUMPDEST JUMPDEST SWAP1 PUSH1 0x0 MSTORE PUSH1 0x20 PUSH1 0x0 KECCAK256 ADD PUSH1 0x40 MLOAD PUSH2 0x75A SWAP2 SWAP1 PUSH2 0x2318 JUMP JUMPDEST SWAP1 DUP2 MSTORE PUSH1 0x20 ADD PUSH1 0x40 MLOAD DUP1 SWAP2 SUB SWAP1 KECCAK256 PUSH1 0x0 SWAP1 SLOAD SWAP1 PUSH2 0x100 EXP SWAP1 DIV PUSH1 0xFF AND PUSH1 0x2 DUP2 GT ISZERO PUSH2 0x788 JUMPI PUSH2 0x787 PUSH2 0x1C43 JUMP JUMPDEST JUMPDEST PUSH2 0x1731 JUMP JUMPDEST PUSH1 0x40 MLOAD PUSH1 0x20 ADD PUSH2 0x79E SWAP3 SWAP2 SWAP1 PUSH2 0x232F JUMP JUMPDEST PUSH1 0x40 MLOAD PUSH1 0x20 DUP2 DUP4 SUB SUB DUP2 MSTORE SWAP1 PUSH1 0x40 MSTORE SWAP2 POP DUP1 DUP1 PUSH2 0x7BA SWAP1 PUSH2 0x21A9 JUMP JUMPDEST SWAP2 POP POP PUSH2 0x71C JUMP JUMPDEST POP JUMPDEST DUP1 PUSH1 0x40 MLOAD PUSH1 0x20 ADD PUSH2 0x7D5 SWAP2 SWAP1 PUSH2 0x239F JUMP JUMPDEST PUSH1 0x40 MLOAD PUSH1 0x20 DUP2 DUP4 SUB SUB DUP2 MSTORE SWAP1 PUSH1 0x40 MSTORE SWAP1 POP PUSH1 0x60 PUSH1 0x6 PUSH1 0x0 SWAP1 SLOAD SWAP1 PUSH2 0x100 EXP SWAP1 DIV PUSH1 0xFF AND ISZERO PUSH2 0x83E JUMPI PUSH1 0x40 MLOAD DUP1 PUSH1 0x60 ADD PUSH1 0x40 MSTORE DUP1 PUSH1 0x2E DUP2 MSTORE PUSH1 0x20 ADD PUSH2 0x2A88 PUSH1 0x2E SWAP2 CODECOPY DUP3 PUSH1 0x40 MLOAD PUSH1 0x20 ADD PUSH2 0x828 SWAP3 SWAP2 SWAP1 PUSH2 0x2459 JUMP JUMPDEST PUSH1 0x40 MLOAD PUSH1 0x20 DUP2 DUP4 SUB SUB DUP2 MSTORE SWAP1 PUSH1 0x40 MSTORE SWAP1 POP PUSH2 0x87B JUMP JUMPDEST PUSH1 0x40 MLOAD DUP1 PUSH1 0x60 ADD PUSH1 0x40 MSTORE DUP1 PUSH1 0x2E DUP2 MSTORE PUSH1 0x20 ADD PUSH2 0x2AB6 PUSH1 0x2E SWAP2 CODECOPY DUP3 PUSH1 0x40 MLOAD PUSH1 0x20 ADD PUSH2 0x869 SWAP3 SWAP2 SWAP1 PUSH2 0x2459 JUMP JUMPDEST PUSH1 0x40 MLOAD PUSH1 0x20 DUP2 DUP4 SUB SUB DUP2 MSTORE SWAP1 PUSH1 0x40 MSTORE SWAP1 POP JUMPDEST DUP1 SWAP3 POP POP POP SWAP1 JUMP JUMPDEST PUSH1 0x0 PUSH1 0x6 PUSH1 0x1 SWAP1 SLOAD SWAP1 PUSH2 0x100 EXP SWAP1 DIV PUSH1 0xFF AND PUSH2 0x8D4 JUMPI PUSH1 0x40 MLOAD PUSH32 0x8C379A000000000000000000000000000000000000000000000000000000000 DUP2 MSTORE PUSH1 0x4 ADD PUSH2 0x8CB SWAP1 PUSH2 0x1E43 JUMP JUMPDEST PUSH1 0x40 MLOAD DUP1 SWAP2 SUB SWAP1 REVERT JUMPDEST PUSH1 0x6 PUSH1 0x0 SWAP1 SLOAD SWAP1 PUSH2 0x100 EXP SWAP1 DIV PUSH1 0xFF AND SWAP1 POP SWAP1 JUMP JUMPDEST PUSH1 0x2 PUSH1 0x0 SWAP1 SLOAD SWAP1 PUSH2 0x100 EXP SWAP1 DIV PUSH20 0xFFFFFFFFFFFFFFFFFFFFFFFFFFFFFFFFFFFFFFFF AND DUP2 JUMP JUMPDEST PUSH1 0x3 PUSH1 0x0 SWAP1 SLOAD SWAP1 PUSH2 0x100 EXP SWAP1 DIV PUSH20 0xFFFFFFFFFFFFFFFFFFFFFFFFFFFFFFFFFFFFFFFF AND PUSH20 0xFFFFFFFFFFFFFFFFFFFFFFFFFFFFFFFFFFFFFFFF AND CALLER PUSH20 0xFFFFFFFFFFFFFFFFFFFFFFFFFFFFFFFFFFFFFFFF AND EQ PUSH2 0x99F JUMPI PUSH1 0x40 MLOAD PUSH32 0x8C379A000000000000000000000000000000000000000000000000000000000 DUP2 MSTORE PUSH1 0x4 ADD PUSH2 0x996 SWAP1 PUSH2 0x1DD7 JUMP JUMPDEST PUSH1 0x40 MLOAD DUP1 SWAP2 SUB SWAP1 REVERT JUMPDEST PUSH1 0x6 PUSH1 0x1 SWAP1 SLOAD SWAP1 PUSH2 0x100 EXP SWAP1 DIV PUSH1 0xFF AND PUSH2 0x9EE JUMPI PUSH1 0x40 MLOAD PUSH32 0x8C379A000000000000000000000000000000000000000000000000000000000 DUP2 MSTORE PUSH1 0x4 ADD PUSH2 0x9E5 SWAP1 PUSH2 0x1E43 JUMP JUMPDEST PUSH1 0x40 MLOAD DUP1 SWAP2 SUB SWAP1 REVERT JUMPDEST PUSH1 0x6 PUSH1 0x0 SWAP1 SLOAD SWAP1 PUSH2 0x100 EXP SWAP1 DIV PUSH1 0xFF AND ISZERO PUSH2 0xA3E JUMPI PUSH1 0x40 MLOAD PUSH32 0x8C379A000000000000000000000000000000000000000000000000000000000 DUP2 MSTORE PUSH1 0x4 ADD PUSH2 0xA35 SWAP1 PUSH2 0x24DF JUMP JUMPDEST PUSH1 0x40 MLOAD DUP1 SWAP2 SUB SWAP1 REVERT JUMPDEST PUSH1 0x0 PUSH1 0x1 PUSH1 0x0 SWAP1 SLOAD SWAP1 PUSH2 0x100 EXP SWAP1 DIV PUSH20 0xFFFFFFFFFFFFFFFFFFFFFFFFFFFFFFFFFFFFFFFF AND SWAP1 POP PUSH1 0x0 DUP2 PUSH20 0xFFFFFFFFFFFFFFFFFFFFFFFFFFFFFFFFFFFFFFFF AND PUSH4 0x68A4C8B7 CALLER PUSH1 0x40 MLOAD DUP3 PUSH4 0xFFFFFFFF AND PUSH1 0xE0 SHL DUP2 MSTORE PUSH1 0x4 ADD PUSH2 0xAA0 SWAP2 SWAP1 PUSH2 0x19AE JUMP JUMPDEST PUSH1 0x20 PUSH1 0x40 MLOAD DUP1 DUP4 SUB DUP2 DUP7 GAS STATICCALL ISZERO DUP1 ISZERO PUSH2 0xABD JUMPI RETURNDATASIZE PUSH1 0x0 DUP1 RETURNDATACOPY RETURNDATASIZE PUSH1 0x0 REVERT JUMPDEST POP POP POP POP PUSH1 0x40 MLOAD RETURNDATASIZE PUSH1 0x1F NOT PUSH1 0x1F DUP3 ADD AND DUP3 ADD DUP1 PUSH1 0x40 MSTORE POP DUP2 ADD SWAP1 PUSH2 0xAE1 SWAP2 SWAP1 PUSH2 0x252B JUMP JUMPDEST SWAP1 POP DUP1 PUSH2 0xB23 JUMPI PUSH1 0x40 MLOAD PUSH32 0x8C379A000000000000000000000000000000000000000000000000000000000 DUP2 MSTORE PUSH1 0x4 ADD PUSH2 0xB1A SWAP1 PUSH2 0x25A4 JUMP JUMPDEST PUSH1 0x40 MLOAD DUP1 SWAP2 SUB SWAP1 REVERT JUMPDEST PUSH1 0x1 PUSH1 0x6 PUSH1 0x0 PUSH2 0x100 EXP DUP2 SLOAD DUP2 PUSH1 0xFF MUL NOT AND SWAP1 DUP4 ISZERO ISZERO MUL OR SWAP1 SSTORE POP POP POP JUMP JUMPDEST PUSH1 0x3 PUSH1 0x0 SWAP1 SLOAD SWAP1 PUSH2 0x100 EXP SWAP1 DIV PUSH20 0xFFFFFFFFFFFFFFFFFFFFFFFFFFFFFFFFFFFFFFFF AND PUSH20 0xFFFFFFFFFFFFFFFFFFFFFFFFFFFFFFFFFFFFFFFF AND CALLER PUSH20 0xFFFFFFFFFFFFFFFFFFFFFFFFFFFFFFFFFFFFFFFF AND EQ PUSH2 0xBD2 JUMPI PUSH1 0x40 MLOAD PUSH32 0x8C379A000000000000000000000000000000000000000000000000000000000 DUP2 MSTORE PUSH1 0x4 ADD PUSH2 0xBC9 SWAP1 PUSH2 0x1DD7 JUMP JUMPDEST PUSH1 0x40 MLOAD DUP1 SWAP2 SUB SWAP1 REVERT JUMPDEST PUSH1 0x6 PUSH1 0x1 SWAP1 SLOAD SWAP1 PUSH2 0x100 EXP SWAP1 DIV PUSH1 0xFF AND PUSH2 0xC21 JUMPI PUSH1 0x40 MLOAD PUSH32 0x8C379A000000000000000000000000000000000000000000000000000000000 DUP2 MSTORE PUSH1 0x4 ADD PUSH2 0xC18 SWAP1 PUSH2 0x1E43 JUMP JUMPDEST PUSH1 0x40 MLOAD DUP1 SWAP2 SUB SWAP1 REVERT JUMPDEST PUSH1 0x6 PUSH1 0x0 SWAP1 SLOAD SWAP1 PUSH2 0x100 EXP SWAP1 DIV PUSH1 0xFF AND ISZERO PUSH2 0xC71 JUMPI PUSH1 0x40 MLOAD PUSH32 0x8C379A000000000000000000000000000000000000000000000000000000000 DUP2 MSTORE PUSH1 0x4 ADD PUSH2 0xC68 SWAP1 PUSH2 0x1ED5 JUMP JUMPDEST PUSH1 0x40 MLOAD DUP1 SWAP2 SUB SWAP1 REVERT JUMPDEST PUSH1 0x0 PUSH1 0x2 DUP2 GT ISZERO PUSH2 0xC85 JUMPI PUSH2 0xC84 PUSH2 0x1C43 JUMP JUMPDEST JUMPDEST PUSH1 0x4 DUP3 PUSH1 0x40 MLOAD PUSH2 0xC95 SWAP2 SWAP1 PUSH2 0x1F31 JUMP JUMPDEST SWAP1 DUP2 MSTORE PUSH1 0x20 ADD PUSH1 0x40 MLOAD DUP1 SWAP2 SUB SWAP1 KECCAK256 PUSH1 0x0 SWAP1 SLOAD SWAP1 PUSH2 0x100 EXP SWAP1 DIV PUSH1 0xFF AND PUSH1 0x2 DUP2 GT ISZERO PUSH2 0xCC3 JUMPI PUSH2 0xCC2 PUSH2 0x1C43 JUMP JUMPDEST JUMPDEST EQ PUSH2 0xD03 JUMPI PUSH1 0x40 MLOAD PUSH32 0x8C379A000000000000000000000000000000000000000000000000000000000 DUP2 MSTORE PUSH1 0x4 ADD PUSH2 0xCFA SWAP1 PUSH2 0x1F94 JUMP JUMPDEST PUSH1 0x40 MLOAD DUP1 SWAP2 SUB SWAP1 REVERT JUMPDEST PUSH1 0x0 PUSH1 0x1 PUSH1 0x0 SWAP1 SLOAD SWAP1 PUSH2 0x100 EXP SWAP1 DIV PUSH20 0xFFFFFFFFFFFFFFFFFFFFFFFFFFFFFFFFFFFFFFFF AND SWAP1 POP PUSH1 0x0 DUP2 PUSH20 0xFFFFFFFFFFFFFFFFFFFFFFFFFFFFFFFFFFFFFFFF AND PUSH4 0x3434D8BB CALLER DUP6 PUSH1 0x40 MLOAD DUP4 PUSH4 0xFFFFFFFF AND PUSH1 0xE0 SHL DUP2 MSTORE PUSH1 0x4 ADD PUSH2 0xD67 SWAP3 SWAP2 SWAP1 PUSH2 0x1FB4 JUMP JUMPDEST PUSH1 0x20 PUSH1 0x40 MLOAD DUP1 DUP4 SUB DUP2 DUP7 GAS STATICCALL ISZERO DUP1 ISZERO PUSH2 0xD84 JUMPI RETURNDATASIZE PUSH1 0x0 DUP1 RETURNDATACOPY RETURNDATASIZE PUSH1 0x0 REVERT JUMPDEST POP POP POP POP PUSH1 0x40 MLOAD RETURNDATASIZE PUSH1 0x1F NOT PUSH1 0x1F DUP3 ADD AND DUP3 ADD DUP1 PUSH1 0x40 MSTORE POP DUP2 ADD SWAP1 PUSH2 0xDA8 SWAP2 SWAP1 PUSH2 0x2009 JUMP JUMPDEST SWAP1 POP PUSH1 0x0 PUSH1 0x2 DUP2 GT ISZERO PUSH2 0xDBE JUMPI PUSH2 0xDBD PUSH2 0x1C43 JUMP JUMPDEST JUMPDEST DUP2 PUSH1 0x2 DUP2 GT ISZERO PUSH2 0xDD1 JUMPI PUSH2 0xDD0 PUSH2 0x1C43 JUMP JUMPDEST JUMPDEST SUB PUSH2 0xE11 JUMPI PUSH1 0x40 MLOAD PUSH32 0x8C379A000000000000000000000000000000000000000000000000000000000 DUP2 MSTORE PUSH1 0x4 ADD PUSH2 0xE08 SWAP1 PUSH2 0x2082 JUMP JUMPDEST PUSH1 0x40 MLOAD DUP1 SWAP2 SUB SWAP1 REVERT JUMPDEST PUSH1 0x1 PUSH1 0x2 DUP2 GT ISZERO PUSH2 0xE25 JUMPI PUSH2 0xE24 PUSH2 0x1C43 JUMP JUMPDEST JUMPDEST DUP2 PUSH1 0x2 DUP2 GT ISZERO PUSH2 0xE38 JUMPI PUSH2 0xE37 PUSH2 0x1C43 JUMP JUMPDEST JUMPDEST SUB PUSH2 0xE78 JUMPI PUSH1 0x40 MLOAD PUSH32 0x8C379A000000000000000000000000000000000000000000000000000000000 DUP2 MSTORE PUSH1 0x4 ADD PUSH2 0xE6F SWAP1 PUSH2 0x2610 JUMP JUMPDEST PUSH1 0x40 MLOAD DUP1 SWAP2 SUB SWAP1 REVERT JUMPDEST PUSH2 0xE81 DUP4 PUSH2 0x163F JUMP JUMPDEST PUSH2 0xEC0 JUMPI PUSH1 0x40 MLOAD PUSH32 0x8C379A000000000000000000000000000000000000000000000000000000000 DUP2 MSTORE PUSH1 0x4 ADD PUSH2 0xEB7 SWAP1 PUSH2 0x215A JUMP JUMPDEST PUSH1 0x40 MLOAD DUP1 SWAP2 SUB SWAP1 REVERT JUMPDEST PUSH1 0x2 PUSH1 0x4 DUP5 PUSH1 0x40 MLOAD PUSH2 0xED2 SWAP2 SWAP1 PUSH2 0x1F31 JUMP JUMPDEST SWAP1 DUP2 MSTORE PUSH1 0x20 ADD PUSH1 0x40 MLOAD DUP1 SWAP2 SUB SWAP1 KECCAK256 PUSH1 0x0 PUSH2 0x100 EXP DUP2 SLOAD DUP2 PUSH1 0xFF MUL NOT AND SWAP1 DUP4 PUSH1 0x2 DUP2 GT ISZERO PUSH2 0xF02 JUMPI PUSH2 0xF01 PUSH2 0x1C43 JUMP JUMPDEST JUMPDEST MUL OR SWAP1 SSTORE POP PUSH1 0x5 PUSH1 0x0 DUP2 SLOAD DUP1 SWAP3 SWAP2 SWAP1 PUSH2 0xF1A SWAP1 PUSH2 0x21A9 JUMP JUMPDEST SWAP2 SWAP1 POP SSTORE POP POP POP POP JUMP JUMPDEST PUSH1 0x3 PUSH1 0x0 SWAP1 SLOAD SWAP1 PUSH2 0x100 EXP SWAP1 DIV PUSH20 0xFFFFFFFFFFFFFFFFFFFFFFFFFFFFFFFFFFFFFFFF AND DUP2 JUMP JUMPDEST PUSH1 0x0 PUSH1 0x4 DUP3 PUSH1 0x40 MLOAD PUSH2 0xF5C SWAP2 SWAP1 PUSH2 0x1F31 JUMP JUMPDEST SWAP1 DUP2 MSTORE PUSH1 0x20 ADD PUSH1 0x40 MLOAD DUP1 SWAP2 SUB SWAP1 KECCAK256 PUSH1 0x0 SWAP1 SLOAD SWAP1 PUSH2 0x100 EXP SWAP1 DIV PUSH1 0xFF AND SWAP1 POP SWAP2 SWAP1 POP JUMP JUMPDEST PUSH1 0x0 PUSH1 0x6 PUSH1 0x1 SWAP1 SLOAD SWAP1 PUSH2 0x100 EXP SWAP1 DIV PUSH1 0xFF AND PUSH2 0xFD0 JUMPI PUSH1 0x40 MLOAD PUSH32 0x8C379A000000000000000000000000000000000000000000000000000000000 DUP2 MSTORE PUSH1 0x4 ADD PUSH2 0xFC7 SWAP1 PUSH2 0x1E43 JUMP JUMPDEST PUSH1 0x40 MLOAD DUP1 SWAP2 SUB SWAP1 REVERT JUMPDEST PUSH1 0x5 SLOAD SWAP1 POP SWAP1 JUMP JUMPDEST PUSH1 0x2 PUSH1 0x0 SWAP1 SLOAD SWAP1 PUSH2 0x100 EXP SWAP1 DIV PUSH20 0xFFFFFFFFFFFFFFFFFFFFFFFFFFFFFFFFFFFFFFFF AND PUSH20 0xFFFFFFFFFFFFFFFFFFFFFFFFFFFFFFFFFFFFFFFF AND CALLER PUSH20 0xFFFFFFFFFFFFFFFFFFFFFFFFFFFFFFFFFFFFFFFF AND EQ PUSH2 0x1068 JUMPI PUSH1 0x40 MLOAD PUSH32 0x8C379A000000000000000000000000000000000000000000000000000000000 DUP2 MSTORE PUSH1 0x4 ADD PUSH2 0x105F SWAP1 PUSH2 0x1DD7 JUMP JUMPDEST PUSH1 0x40 MLOAD DUP1 SWAP2 SUB SWAP1 REVERT JUMPDEST DUP1 PUSH20 0xFFFFFFFFFFFFFFFFFFFFFFFFFFFFFFFFFFFFFFFF AND DUP2 PUSH20 0xFFFFFFFFFFFFFFFFFFFFFFFFFFFFFFFFFFFFFFFF AND EQ PUSH2 0x10D6 JUMPI PUSH1 0x40 MLOAD PUSH32 0x8C379A000000000000000000000000000000000000000000000000000000000 DUP2 MSTORE PUSH1 0x4 ADD PUSH2 0x10CD SWAP1 PUSH2 0x267C JUMP JUMPDEST PUSH1 0x40 MLOAD DUP1 SWAP2 SUB SWAP1 REVERT JUMPDEST PUSH1 0x0 PUSH20 0xFFFFFFFFFFFFFFFFFFFFFFFFFFFFFFFFFFFFFFFF AND DUP2 PUSH20 0xFFFFFFFFFFFFFFFFFFFFFFFFFFFFFFFFFFFFFFFF AND SUB PUSH2 0x1145 JUMPI PUSH1 0x40 MLOAD PUSH32 0x8C379A000000000000000000000000000000000000000000000000000000000 DUP2 MSTORE PUSH1 0x4 ADD PUSH2 0x113C SWAP1 PUSH2 0x270E JUMP JUMPDEST PUSH1 0x40 MLOAD DUP1 SWAP2 SUB SWAP1 REVERT JUMPDEST PUSH1 0x0 PUSH1 0x3 PUSH1 0x0 SWAP1 SLOAD SWAP1 PUSH2 0x100 EXP SWAP1 DIV PUSH20 0xFFFFFFFFFFFFFFFFFFFFFFFFFFFFFFFFFFFFFFFF AND SWAP1 POP DUP2 PUSH1 0x3 PUSH1 0x0 PUSH2 0x100 EXP DUP2 SLOAD DUP2 PUSH20 0xFFFFFFFFFFFFFFFFFFFFFFFFFFFFFFFFFFFFFFFF MUL NOT AND SWAP1 DUP4 PUSH20 0xFFFFFFFFFFFFFFFFFFFFFFFFFFFFFFFFFFFFFFFF AND MUL OR SWAP1 SSTORE POP PUSH1 0x3 PUSH1 0x0 SWAP1 SLOAD SWAP1 PUSH2 0x100 EXP SWAP1 DIV PUSH20 0xFFFFFFFFFFFFFFFFFFFFFFFFFFFFFFFFFFFFFFFF AND PUSH20 0xFFFFFFFFFFFFFFFFFFFFFFFFFFFFFFFFFFFFFFFF AND DUP2 PUSH20 0xFFFFFFFFFFFFFFFFFFFFFFFFFFFFFFFFFFFFFFFF AND PUSH32 0x8BE0079C531659141344CD1FD0A4F28419497F9722A3DAAFE3B4186F6B6457E0 PUSH1 0x40 MLOAD PUSH1 0x40 MLOAD DUP1 SWAP2 SUB SWAP1 LOG3 POP POP JUMP JUMPDEST PUSH1 0x0 DUP1 PUSH1 0x3 PUSH1 0x0 SWAP1 SLOAD SWAP1 PUSH2 0x100 EXP SWAP1 DIV PUSH20 0xFFFFFFFFFFFFFFFFFFFFFFFFFFFFFFFFFFFFFFFF AND PUSH20 0xFFFFFFFFFFFFFFFFFFFFFFFFFFFFFFFFFFFFFFFF AND CALLER PUSH20 0xFFFFFFFFFFFFFFFFFFFFFFFFFFFFFFFFFFFFFFFF AND EQ PUSH2 0x12C0 JUMPI PUSH1 0x40 MLOAD PUSH32 0x8C379A000000000000000000000000000000000000000000000000000000000 DUP2 MSTORE PUSH1 0x4 ADD PUSH2 0x12B7 SWAP1 PUSH2 0x1DD7 JUMP JUMPDEST PUSH1 0x40 MLOAD DUP1 SWAP2 SUB SWAP1 REVERT JUMPDEST PUSH1 0x6 PUSH1 0x1 SWAP1 SLOAD SWAP1 PUSH2 0x100 EXP SWAP1 DIV PUSH1 0xFF AND ISZERO PUSH2 0x1310 JUMPI PUSH1 0x40 MLOAD PUSH32 0x8C379A000000000000000000000000000000000000000000000000000000000 DUP2 MSTORE PUSH1 0x4 ADD PUSH2 0x1307 SWAP1 PUSH2 0x277A JUMP JUMPDEST PUSH1 0x40 MLOAD DUP1 SWAP2 SUB SWAP1 REVERT JUMPDEST PUSH1 0x0 PUSH1 0x1 PUSH1 0x0 SWAP1 SLOAD SWAP1 PUSH2 0x100 EXP SWAP1 DIV PUSH20 0xFFFFFFFFFFFFFFFFFFFFFFFFFFFFFFFFFFFFFFFF AND SWAP1 POP PUSH1 0x0 DUP1 DUP3 PUSH20 0xFFFFFFFFFFFFFFFFFFFFFFFFFFFFFFFFFFFFFFFF AND PUSH4 0xA7F70611 CALLER PUSH1 0x40 MLOAD DUP3 PUSH4 0xFFFFFFFF AND PUSH1 0xE0 SHL DUP2 MSTORE PUSH1 0x4 ADD PUSH2 0x1373 SWAP2 SWAP1 PUSH2 0x19AE JUMP JUMPDEST PUSH1 0x0 PUSH1 0x40 MLOAD DUP1 DUP4 SUB DUP2 DUP7 GAS STATICCALL ISZERO DUP1 ISZERO PUSH2 0x1390 JUMPI RETURNDATASIZE PUSH1 0x0 DUP1 RETURNDATACOPY RETURNDATASIZE PUSH1 0x0 REVERT JUMPDEST POP POP POP POP PUSH1 0x40 MLOAD RETURNDATASIZE PUSH1 0x0 DUP3 RETURNDATACOPY RETURNDATASIZE PUSH1 0x1F NOT PUSH1 0x1F DUP3 ADD AND DUP3 ADD DUP1 PUSH1 0x40 MSTORE POP DUP2 ADD SWAP1 PUSH2 0x13B9 SWAP2 SWAP1 PUSH2 0x2862 JUMP JUMPDEST SWAP2 POP SWAP2 POP PUSH1 0x0 DUP4 PUSH20 0xFFFFFFFFFFFFFFFFFFFFFFFFFFFFFFFFFFFFFFFF AND PUSH4 0x1F3CE1D3 PUSH1 0x40 MLOAD DUP2 PUSH4 0xFFFFFFFF AND PUSH1 0xE0 SHL DUP2 MSTORE PUSH1 0x4 ADD PUSH1 0x0 PUSH1 0x40 MLOAD DUP1 DUP4 SUB DUP2 DUP7 GAS STATICCALL ISZERO DUP1 ISZERO PUSH2 0x140A JUMPI RETURNDATASIZE PUSH1 0x0 DUP1 RETURNDATACOPY RETURNDATASIZE PUSH1 0x0 REVERT JUMPDEST POP POP POP POP PUSH1 0x40 MLOAD RETURNDATASIZE PUSH1 0x0 DUP3 RETURNDATACOPY RETURNDATASIZE PUSH1 0x1F NOT PUSH1 0x1F DUP3 ADD AND DUP3 ADD DUP1 PUSH1 0x40 MSTORE POP DUP2 ADD SWAP1 PUSH2 0x1433 SWAP2 SWAP1 PUSH2 0x2A0F JUMP JUMPDEST SWAP1 POP PUSH1 0x0 JUMPDEST DUP4 MLOAD DUP2 LT ISZERO PUSH2 0x15EA JUMPI PUSH1 0x0 PUSH1 0x2 DUP2 GT ISZERO PUSH2 0x1455 JUMPI PUSH2 0x1454 PUSH2 0x1C43 JUMP JUMPDEST JUMPDEST DUP5 DUP3 DUP2 MLOAD DUP2 LT PUSH2 0x1468 JUMPI PUSH2 0x1467 PUSH2 0x21F1 JUMP JUMPDEST JUMPDEST PUSH1 0x20 MUL PUSH1 0x20 ADD ADD MLOAD PUSH1 0x2 DUP2 GT ISZERO PUSH2 0x1482 JUMPI PUSH2 0x1481 PUSH2 0x1C43 JUMP JUMPDEST JUMPDEST EQ PUSH2 0x15D7 JUMPI PUSH2 0x14AA DUP3 DUP3 DUP2 MLOAD DUP2 LT PUSH2 0x149D JUMPI PUSH2 0x149C PUSH2 0x21F1 JUMP JUMPDEST JUMPDEST PUSH1 0x20 MUL PUSH1 0x20 ADD ADD MLOAD PUSH2 0x163F JUMP JUMPDEST ISZERO PUSH2 0x15D6 JUMPI PUSH1 0x5 PUSH1 0x0 DUP2 SLOAD DUP1 SWAP3 SWAP2 SWAP1 PUSH2 0x14C2 SWAP1 PUSH2 0x21A9 JUMP JUMPDEST SWAP2 SWAP1 POP SSTORE POP PUSH1 0x1 PUSH1 0x2 DUP2 GT ISZERO PUSH2 0x14DB JUMPI PUSH2 0x14DA PUSH2 0x1C43 JUMP JUMPDEST JUMPDEST DUP5 DUP3 DUP2 MLOAD DUP2 LT PUSH2 0x14EE JUMPI PUSH2 0x14ED PUSH2 0x21F1 JUMP JUMPDEST JUMPDEST PUSH1 0x20 MUL PUSH1 0x20 ADD ADD MLOAD PUSH1 0x2 DUP2 GT ISZERO PUSH2 0x1508 JUMPI PUSH2 0x1507 PUSH2 0x1C43 JUMP JUMPDEST JUMPDEST SUB PUSH2 0x1573 JUMPI PUSH1 0x1 PUSH1 0x4 DUP4 DUP4 DUP2 MLOAD DUP2 LT PUSH2 0x1524 JUMPI PUSH2 0x1523 PUSH2 0x21F1 JUMP JUMPDEST JUMPDEST PUSH1 0x20 MUL PUSH1 0x20 ADD ADD MLOAD PUSH1 0x40 MLOAD PUSH2 0x1539 SWAP2 SWAP1 PUSH2 0x1F31 JUMP JUMPDEST SWAP1 DUP2 MSTORE PUSH1 0x20 ADD PUSH1 0x40 MLOAD DUP1 SWAP2 SUB SWAP1 KECCAK256 PUSH1 0x0 PUSH2 0x100 EXP DUP2 SLOAD DUP2 PUSH1 0xFF MUL NOT AND SWAP1 DUP4 PUSH1 0x2 DUP2 GT ISZERO PUSH2 0x1569 JUMPI PUSH2 0x1568 PUSH2 0x1C43 JUMP JUMPDEST JUMPDEST MUL OR SWAP1 SSTORE POP PUSH2 0x15D5 JUMP JUMPDEST PUSH1 0x2 PUSH1 0x4 DUP4 DUP4 DUP2 MLOAD DUP2 LT PUSH2 0x158A JUMPI PUSH2 0x1589 PUSH2 0x21F1 JUMP JUMPDEST JUMPDEST PUSH1 0x20 MUL PUSH1 0x20 ADD ADD MLOAD PUSH1 0x40 MLOAD PUSH2 0x159F SWAP2 SWAP1 PUSH2 0x1F31 JUMP JUMPDEST SWAP1 DUP2 MSTORE PUSH1 0x20 ADD PUSH1 0x40 MLOAD DUP1 SWAP2 SUB SWAP1 KECCAK256 PUSH1 0x0 PUSH2 0x100 EXP DUP2 SLOAD DUP2 PUSH1 0xFF MUL NOT AND SWAP1 DUP4 PUSH1 0x2 DUP2 GT ISZERO PUSH2 0x15CF JUMPI PUSH2 0x15CE PUSH2 0x1C43 JUMP JUMPDEST JUMPDEST MUL OR SWAP1 SSTORE POP JUMPDEST JUMPDEST JUMPDEST DUP1 DUP1 PUSH2 0x15E2 SWAP1 PUSH2 0x21A9 JUMP JUMPDEST SWAP2 POP POP PUSH2 0x1438 JUMP JUMPDEST POP DUP2 PUSH1 0x6 PUSH1 0x0 PUSH2 0x100 EXP DUP2 SLOAD DUP2 PUSH1 0xFF MUL NOT AND SWAP1 DUP4 ISZERO ISZERO MUL OR SWAP1 SSTORE POP PUSH1 0x1 PUSH1 0x6 PUSH1 0x1 PUSH2 0x100 EXP DUP2 SLOAD DUP2 PUSH1 0xFF MUL NOT AND SWAP1 DUP4 ISZERO ISZERO MUL OR SWAP1 SSTORE POP PUSH1 0x5 SLOAD PUSH1 0x6 PUSH1 0x0 SWAP1 SLOAD SWAP1 PUSH2 0x100 EXP SWAP1 DIV PUSH1 0xFF AND SWAP6 POP SWAP6 POP POP POP POP POP SWAP1 SWAP2 JUMP JUMPDEST PUSH1 0x0 DUP1 PUSH1 0x0 SWAP1 POP JUMPDEST PUSH1 0x0 DUP1 SLOAD SWAP1 POP DUP2 LT ISZERO PUSH2 0x1726 JUMPI PUSH2 0x1704 PUSH1 0x0 DUP3 DUP2 SLOAD DUP2 LT PUSH2 0x166B JUMPI PUSH2 0x166A PUSH2 0x21F1 JUMP JUMPDEST JUMPDEST SWAP1 PUSH1 0x0 MSTORE PUSH1 0x20 PUSH1 0x0 KECCAK256 ADD DUP1 SLOAD PUSH2 0x1680 SWAP1 PUSH2 0x224F JUMP JUMPDEST DUP1 PUSH1 0x1F ADD PUSH1 0x20 DUP1 SWAP2 DIV MUL PUSH1 0x20 ADD PUSH1 0x40 MLOAD SWAP1 DUP2 ADD PUSH1 0x40 MSTORE DUP1 SWAP3 SWAP2 SWAP1 DUP2 DUP2 MSTORE PUSH1 0x20 ADD DUP3 DUP1 SLOAD PUSH2 0x16AC SWAP1 PUSH2 0x224F JUMP JUMPDEST DUP1 ISZERO PUSH2 0x16F9 JUMPI DUP1 PUSH1 0x1F LT PUSH2 0x16CE JUMPI PUSH2 0x100 DUP1 DUP4 SLOAD DIV MUL DUP4 MSTORE SWAP2 PUSH1 0x20 ADD SWAP2 PUSH2 0x16F9 JUMP JUMPDEST DUP3 ADD SWAP2 SWAP1 PUSH1 0x0 MSTORE PUSH1 0x20 PUSH1 0x0 KECCAK256 SWAP1 JUMPDEST DUP2 SLOAD DUP2 MSTORE SWAP1 PUSH1 0x1 ADD SWAP1 PUSH1 0x20 ADD DUP1 DUP4 GT PUSH2 0x16DC JUMPI DUP3 SWAP1 SUB PUSH1 0x1F AND DUP3 ADD SWAP2 JUMPDEST POP POP POP POP POP DUP5 PUSH2 0x17FF JUMP JUMPDEST ISZERO PUSH2 0x1713 JUMPI PUSH1 0x1 SWAP2 POP POP PUSH2 0x172C JUMP JUMPDEST DUP1 DUP1 PUSH2 0x171E SWAP1 PUSH2 0x21A9 JUMP JUMPDEST SWAP2 POP POP PUSH2 0x1647 JUMP JUMPDEST POP PUSH1 0x0 SWAP1 POP JUMPDEST SWAP2 SWAP1 POP JUMP JUMPDEST PUSH1 0x60 PUSH1 0x0 PUSH1 0x1 PUSH2 0x1740 DUP5 PUSH2 0x181A JUMP JUMPDEST ADD SWAP1 POP PUSH1 0x0 DUP2 PUSH8 0xFFFFFFFFFFFFFFFF DUP2 GT ISZERO PUSH2 0x175F JUMPI PUSH2 0x175E PUSH2 0x1A2E JUMP JUMPDEST JUMPDEST PUSH1 0x40 MLOAD SWAP1 DUP1 DUP3 MSTORE DUP1 PUSH1 0x1F ADD PUSH1 0x1F NOT AND PUSH1 0x20 ADD DUP3 ADD PUSH1 0x40 MSTORE DUP1 ISZERO PUSH2 0x1791 JUMPI DUP2 PUSH1 0x20 ADD PUSH1 0x1 DUP3 MUL DUP1 CALLDATASIZE DUP4 CALLDATACOPY DUP1 DUP3 ADD SWAP2 POP POP SWAP1 POP JUMPDEST POP SWAP1 POP PUSH1 0x0 DUP3 PUSH1 0x20 ADD DUP3 ADD SWAP1 POP JUMPDEST PUSH1 0x1 ISZERO PUSH2 0x17F4 JUMPI DUP1 DUP1 PUSH1 0x1 SWAP1 SUB SWAP2 POP POP PUSH32 0x3031323334353637383961626364656600000000000000000000000000000000 PUSH1 0xA DUP7 MOD BYTE DUP2 MSTORE8 PUSH1 0xA DUP6 DUP2 PUSH2 0x17E8 JUMPI PUSH2 0x17E7 PUSH2 0x2A58 JUMP JUMPDEST JUMPDEST DIV SWAP5 POP PUSH1 0x0 DUP6 SUB PUSH2 0x179F JUMPI JUMPDEST DUP2 SWAP4 POP POP POP POP SWAP2 SWAP1 POP JUMP JUMPDEST PUSH1 0x0 DUP2 DUP1 MLOAD SWAP1 PUSH1 0x20 ADD KECCAK256 DUP4 DUP1 MLOAD SWAP1 PUSH1 0x20 ADD KECCAK256 EQ SWAP1 POP SWAP3 SWAP2 POP POP JUMP JUMPDEST PUSH1 0x0 DUP1 PUSH1 0x0 SWAP1 POP PUSH27 0x184F03E93FF9F4DAA797ED6E38ED64BF6A1F010000000000000000 DUP4 LT PUSH2 0x1878 JUMPI PUSH27 0x184F03E93FF9F4DAA797ED6E38ED64BF6A1F010000000000000000 DUP4 DUP2 PUSH2 0x186E JUMPI PUSH2 0x186D PUSH2 0x2A58 JUMP JUMPDEST JUMPDEST DIV SWAP3 POP PUSH1 0x40 DUP2 ADD SWAP1 POP JUMPDEST PUSH14 0x4EE2D6D415B85ACEF8100000000 DUP4 LT PUSH2 0x18B5 JUMPI PUSH14 0x4EE2D6D415B85ACEF8100000000 DUP4 DUP2 PUSH2 0x18AB JUMPI PUSH2 0x18AA PUSH2 0x2A58 JUMP JUMPDEST JUMPDEST DIV SWAP3 POP PUSH1 0x20 DUP2 ADD SWAP1 POP JUMPDEST PUSH7 0x2386F26FC10000 DUP4 LT PUSH2 0x18E4 JUMPI PUSH7 0x2386F26FC10000 DUP4 DUP2 PUSH2 0x18DA JUMPI PUSH2 0x18D9 PUSH2 0x2A58 JUMP JUMPDEST JUMPDEST DIV SWAP3 POP PUSH1 0x10 DUP2 ADD SWAP1 POP JUMPDEST PUSH4 0x5F5E100 DUP4 LT PUSH2 0x190D JUMPI PUSH4 0x5F5E100 DUP4 DUP2 PUSH2 0x1903 JUMPI PUSH2 0x1902 PUSH2 0x2A58 JUMP JUMPDEST JUMPDEST DIV SWAP3 POP PUSH1 0x8 DUP2 ADD SWAP1 POP JUMPDEST PUSH2 0x2710 DUP4 LT PUSH2 0x1932 JUMPI PUSH2 0x2710 DUP4 DUP2 PUSH2 0x1928 JUMPI PUSH2 0x1927 PUSH2 0x2A58 JUMP JUMPDEST JUMPDEST DIV SWAP3 POP PUSH1 0x4 DUP2 ADD SWAP1 POP JUMPDEST PUSH1 0x64 DUP4 LT PUSH2 0x1955 JUMPI PUSH1 0x64 DUP4 DUP2 PUSH2 0x194B JUMPI PUSH2 0x194A PUSH2 0x2A58 JUMP JUMPDEST JUMPDEST DIV SWAP3 POP PUSH1 0x2 DUP2 ADD SWAP1 POP JUMPDEST PUSH1 0xA DUP4 LT PUSH2 0x1964 JUMPI PUSH1 0x1 DUP2 ADD SWAP1 POP JUMPDEST DUP1 SWAP2 POP POP SWAP2 SWAP1 POP JUMP JUMPDEST PUSH1 0x0 PUSH20 0xFFFFFFFFFFFFFFFFFFFFFFFFFFFFFFFFFFFFFFFF DUP3 AND SWAP1 POP SWAP2 SWAP1 POP JUMP JUMPDEST PUSH1 0x0 PUSH2 0x1998 DUP3 PUSH2 0x196D JUMP JUMPDEST SWAP1 POP SWAP2 SWAP1 POP JUMP JUMPDEST PUSH2 0x19A8 DUP2 PUSH2 0x198D JUMP JUMPDEST DUP3 MSTORE POP POP JUMP JUMPDEST PUSH1 0x0 PUSH1 0x20 DUP3 ADD SWAP1 POP PUSH2 0x19C3 PUSH1 0x0 DUP4 ADD DUP5 PUSH2 0x199F JUMP JUMPDEST SWAP3 SWAP2 POP POP JUMP JUMPDEST PUSH1 0x0 DUP2 ISZERO ISZERO SWAP1 POP SWAP2 SWAP1 POP JUMP JUMPDEST PUSH2 0x19DE DUP2 PUSH2 0x19C9 JUMP JUMPDEST DUP3 MSTORE POP POP JUMP JUMPDEST PUSH1 0x0 PUSH1 0x20 DUP3 ADD SWAP1 POP PUSH2 0x19F9 PUSH1 0x0 DUP4 ADD DUP5 PUSH2 0x19D5 JUMP JUMPDEST SWAP3 SWAP2 POP POP JUMP JUMPDEST PUSH1 0x0 PUSH1 0x40 MLOAD SWAP1 POP SWAP1 JUMP JUMPDEST PUSH1 0x0 DUP1 REVERT JUMPDEST PUSH1 0x0 DUP1 REVERT JUMPDEST PUSH1 0x0 DUP1 REVERT JUMPDEST PUSH1 0x0 DUP1 REVERT JUMPDEST PUSH1 0x0 PUSH1 0x1F NOT PUSH1 0x1F DUP4 ADD AND SWAP1 POP SWAP2 SWAP1 POP JUMP JUMPDEST PUSH32 0x4E487B7100000000000000000000000000000000000000000000000000000000 PUSH1 0x0 MSTORE PUSH1 0x41 PUSH1 0x4 MSTORE PUSH1 0x24 PUSH1 0x0 REVERT JUMPDEST PUSH2 0x1A66 DUP3 PUSH2 0x1A1D JUMP JUMPDEST DUP2 ADD DUP2 DUP2 LT PUSH8 0xFFFFFFFFFFFFFFFF DUP3 GT OR ISZERO PUSH2 0x1A85 JUMPI PUSH2 0x1A84 PUSH2 0x1A2E JUMP JUMPDEST JUMPDEST DUP1 PUSH1 0x40 MSTORE POP POP POP JUMP JUMPDEST PUSH1 0x0 PUSH2 0x1A98 PUSH2 0x19FF JUMP JUMPDEST SWAP1 POP PUSH2 0x1AA4 DUP3 DUP3 PUSH2 0x1A5D JUMP JUMPDEST SWAP2 SWAP1 POP JUMP JUMPDEST PUSH1 0x0 PUSH8 0xFFFFFFFFFFFFFFFF DUP3 GT ISZERO PUSH2 0x1AC4 JUMPI PUSH2 0x1AC3 PUSH2 0x1A2E JUMP JUMPDEST JUMPDEST PUSH2 0x1ACD DUP3 PUSH2 0x1A1D JUMP JUMPDEST SWAP1 POP PUSH1 0x20 DUP2 ADD SWAP1 POP SWAP2 SWAP1 POP JUMP JUMPDEST DUP3 DUP2 DUP4 CALLDATACOPY PUSH1 0x0 DUP4 DUP4 ADD MSTORE POP POP POP JUMP JUMPDEST PUSH1 0x0 PUSH2 0x1AFC PUSH2 0x1AF7 DUP5 PUSH2 0x1AA9 JUMP JUMPDEST PUSH2 0x1A8E JUMP JUMPDEST SWAP1 POP DUP3 DUP2 MSTORE PUSH1 0x20 DUP2 ADD DUP5 DUP5 DUP5 ADD GT ISZERO PUSH2 0x1B18 JUMPI PUSH2 0x1B17 PUSH2 0x1A18 JUMP JUMPDEST JUMPDEST PUSH2 0x1B23 DUP5 DUP3 DUP6 PUSH2 0x1ADA JUMP JUMPDEST POP SWAP4 SWAP3 POP POP POP JUMP JUMPDEST PUSH1 0x0 DUP3 PUSH1 0x1F DUP4 ADD SLT PUSH2 0x1B40 JUMPI PUSH2 0x1B3F PUSH2 0x1A13 JUMP JUMPDEST JUMPDEST DUP2 CALLDATALOAD PUSH2 0x1B50 DUP5 DUP3 PUSH1 0x20 DUP7 ADD PUSH2 0x1AE9 JUMP JUMPDEST SWAP2 POP POP SWAP3 SWAP2 POP POP JUMP JUMPDEST PUSH1 0x0 PUSH1 0x20 DUP3 DUP5 SUB SLT ISZERO PUSH2 0x1B6F JUMPI PUSH2 0x1B6E PUSH2 0x1A09 JUMP JUMPDEST JUMPDEST PUSH1 0x0 DUP3 ADD CALLDATALOAD PUSH8 0xFFFFFFFFFFFFFFFF DUP2 GT ISZERO PUSH2 0x1B8D JUMPI PUSH2 0x1B8C PUSH2 0x1A0E JUMP JUMPDEST JUMPDEST PUSH2 0x1B99 DUP5 DUP3 DUP6 ADD PUSH2 0x1B2B JUMP JUMPDEST SWAP2 POP POP SWAP3 SWAP2 POP POP JUMP JUMPDEST PUSH1 0x0 DUP2 MLOAD SWAP1 POP SWAP2 SWAP1 POP JUMP JUMPDEST PUSH1 0x0 DUP3 DUP3 MSTORE PUSH1 0x20 DUP3 ADD SWAP1 POP SWAP3 SWAP2 POP POP JUMP JUMPDEST PUSH1 0x0 JUMPDEST DUP4 DUP2 LT ISZERO PUSH2 0x1BDC JUMPI DUP1 DUP3 ADD MLOAD DUP2 DUP5 ADD MSTORE PUSH1 0x20 DUP2 ADD SWAP1 POP PUSH2 0x1BC1 JUMP JUMPDEST PUSH1 0x0 DUP5 DUP5 ADD MSTORE POP POP POP POP JUMP JUMPDEST PUSH1 0x0 PUSH2 0x1BF3 DUP3 PUSH2 0x1BA2 JUMP JUMPDEST PUSH2 0x1BFD DUP2 DUP6 PUSH2 0x1BAD JUMP JUMPDEST SWAP4 POP PUSH2 0x1C0D DUP2 DUP6 PUSH1 0x20 DUP7 ADD PUSH2 0x1BBE JUMP JUMPDEST PUSH2 0x1C16 DUP2 PUSH2 0x1A1D JUMP JUMPDEST DUP5 ADD SWAP2 POP POP SWAP3 SWAP2 POP POP JUMP JUMPDEST PUSH1 0x0 PUSH1 0x20 DUP3 ADD SWAP1 POP DUP2 DUP2 SUB PUSH1 0x0 DUP4 ADD MSTORE PUSH2 0x1C3B DUP2 DUP5 PUSH2 0x1BE8 JUMP JUMPDEST SWAP1 POP SWAP3 SWAP2 POP POP JUMP JUMPDEST PUSH32 0x4E487B7100000000000000000000000000000000000000000000000000000000 PUSH1 0x0 MSTORE PUSH1 0x21 PUSH1 0x4 MSTORE PUSH1 0x24 PUSH1 0x0 REVERT JUMPDEST PUSH1 0x3 DUP2 LT PUSH2 0x1C83 JUMPI PUSH2 0x1C82 PUSH2 0x1C43 JUMP JUMPDEST JUMPDEST POP JUMP JUMPDEST PUSH1 0x0 DUP2 SWAP1 POP PUSH2 0x1C94 DUP3 PUSH2 0x1C72 JUMP JUMPDEST SWAP2 SWAP1 POP JUMP JUMPDEST PUSH1 0x0 PUSH2 0x1CA4 DUP3 PUSH2 0x1C86 JUMP JUMPDEST SWAP1 POP SWAP2 SWAP1 POP JUMP JUMPDEST PUSH2 0x1CB4 DUP2 PUSH2 0x1C99 JUMP JUMPDEST DUP3 MSTORE POP POP JUMP JUMPDEST PUSH1 0x0 PUSH1 0x20 DUP3 ADD SWAP1 POP PUSH2 0x1CCF PUSH1 0x0 DUP4 ADD DUP5 PUSH2 0x1CAB JUMP JUMPDEST SWAP3 SWAP2 POP POP JUMP JUMPDEST PUSH1 0x0 DUP2 SWAP1 POP SWAP2 SWAP1 POP JUMP JUMPDEST PUSH2 0x1CE8 DUP2 PUSH2 0x1CD5 JUMP JUMPDEST DUP3 MSTORE POP POP JUMP JUMPDEST PUSH1 0x0 PUSH1 0x20 DUP3 ADD SWAP1 POP PUSH2 0x1D03 PUSH1 0x0 DUP4 ADD DUP5 PUSH2 0x1CDF JUMP JUMPDEST SWAP3 SWAP2 POP POP JUMP JUMPDEST PUSH2 0x1D12 DUP2 PUSH2 0x198D JUMP JUMPDEST DUP2 EQ PUSH2 0x1D1D JUMPI PUSH1 0x0 DUP1 REVERT JUMPDEST POP JUMP JUMPDEST PUSH1 0x0 DUP2 CALLDATALOAD SWAP1 POP PUSH2 0x1D2F DUP2 PUSH2 0x1D09 JUMP JUMPDEST SWAP3 SWAP2 POP POP JUMP JUMPDEST PUSH1 0x0 PUSH1 0x20 DUP3 DUP5 SUB SLT ISZERO PUSH2 0x1D4B JUMPI PUSH2 0x1D4A PUSH2 0x1A09 JUMP JUMPDEST JUMPDEST PUSH1 0x0 PUSH2 0x1D59 DUP5 DUP3 DUP6 ADD PUSH2 0x1D20 JUMP JUMPDEST SWAP2 POP POP SWAP3 SWAP2 POP POP JUMP JUMPDEST PUSH1 0x0 PUSH1 0x40 DUP3 ADD SWAP1 POP PUSH2 0x1D77 PUSH1 0x0 DUP4 ADD DUP6 PUSH2 0x1CDF JUMP JUMPDEST PUSH2 0x1D84 PUSH1 0x20 DUP4 ADD DUP5 PUSH2 0x19D5 JUMP JUMPDEST SWAP4 SWAP3 POP POP POP JUMP JUMPDEST PUSH32 0x43616C6C6572206973206E6F7420746865206F776E6572000000000000000000 PUSH1 0x0 DUP3 ADD MSTORE POP JUMP JUMPDEST PUSH1 0x0 PUSH2 0x1DC1 PUSH1 0x17 DUP4 PUSH2 0x1BAD JUMP JUMPDEST SWAP2 POP PUSH2 0x1DCC DUP3 PUSH2 0x1D8B JUMP JUMPDEST PUSH1 0x20 DUP3 ADD SWAP1 POP SWAP2 SWAP1 POP JUMP JUMPDEST PUSH1 0x0 PUSH1 0x20 DUP3 ADD SWAP1 POP DUP2 DUP2 SUB PUSH1 0x0 DUP4 ADD MSTORE PUSH2 0x1DF0 DUP2 PUSH2 0x1DB4 JUMP JUMPDEST SWAP1 POP SWAP2 SWAP1 POP JUMP JUMPDEST PUSH32 0x486174206E6F7420696E697469616C697A656400000000000000000000000000 PUSH1 0x0 DUP3 ADD MSTORE POP JUMP JUMPDEST PUSH1 0x0 PUSH2 0x1E2D PUSH1 0x13 DUP4 PUSH2 0x1BAD JUMP JUMPDEST SWAP2 POP PUSH2 0x1E38 DUP3 PUSH2 0x1DF7 JUMP JUMPDEST PUSH1 0x20 DUP3 ADD SWAP1 POP SWAP2 SWAP1 POP JUMP JUMPDEST PUSH1 0x0 PUSH1 0x20 DUP3 ADD SWAP1 POP DUP2 DUP2 SUB PUSH1 0x0 DUP4 ADD MSTORE PUSH2 0x1E5C DUP2 PUSH2 0x1E20 JUMP JUMPDEST SWAP1 POP SWAP2 SWAP1 POP JUMP JUMPDEST PUSH32 0x4772616475617465642076657273696F6E206F6620746865206861742063616E PUSH1 0x0 DUP3 ADD MSTORE PUSH32 0x6E6F742062652065646974656400000000000000000000000000000000000000 PUSH1 0x20 DUP3 ADD MSTORE POP JUMP JUMPDEST PUSH1 0x0 PUSH2 0x1EBF PUSH1 0x2D DUP4 PUSH2 0x1BAD JUMP JUMPDEST SWAP2 POP PUSH2 0x1ECA DUP3 PUSH2 0x1E63 JUMP JUMPDEST PUSH1 0x40 DUP3 ADD SWAP1 POP SWAP2 SWAP1 POP JUMP JUMPDEST PUSH1 0x0 PUSH1 0x20 DUP3 ADD SWAP1 POP DUP2 DUP2 SUB PUSH1 0x0 DUP4 ADD MSTORE PUSH2 0x1EEE DUP2 PUSH2 0x1EB2 JUMP JUMPDEST SWAP1 POP SWAP2 SWAP1 POP JUMP JUMPDEST PUSH1 0x0 DUP2 SWAP1 POP SWAP3 SWAP2 POP POP JUMP JUMPDEST PUSH1 0x0 PUSH2 0x1F0B DUP3 PUSH2 0x1BA2 JUMP JUMPDEST PUSH2 0x1F15 DUP2 DUP6 PUSH2 0x1EF5 JUMP JUMPDEST SWAP4 POP PUSH2 0x1F25 DUP2 DUP6 PUSH1 0x20 DUP7 ADD PUSH2 0x1BBE JUMP JUMPDEST DUP1 DUP5 ADD SWAP2 POP POP SWAP3 SWAP2 POP POP JUMP JUMPDEST PUSH1 0x0 PUSH2 0x1F3D DUP3 DUP5 PUSH2 0x1F00 JUMP JUMPDEST SWAP2 POP DUP2 SWAP1 POP SWAP3 SWAP2 POP POP JUMP JUMPDEST PUSH32 0x50696E20616C72656164792070757420666F722074686973206578616D210000 PUSH1 0x0 DUP3 ADD MSTORE POP JUMP JUMPDEST PUSH1 0x0 PUSH2 0x1F7E PUSH1 0x1E DUP4 PUSH2 0x1BAD JUMP JUMPDEST SWAP2 POP PUSH2 0x1F89 DUP3 PUSH2 0x1F48 JUMP JUMPDEST PUSH1 0x20 DUP3 ADD SWAP1 POP SWAP2 SWAP1 POP JUMP JUMPDEST PUSH1 0x0 PUSH1 0x20 DUP3 ADD SWAP1 POP DUP2 DUP2 SUB PUSH1 0x0 DUP4 ADD MSTORE PUSH2 0x1FAD DUP2 PUSH2 0x1F71 JUMP JUMPDEST SWAP1 POP SWAP2 SWAP1 POP JUMP JUMPDEST PUSH1 0x0 PUSH1 0x40 DUP3 ADD SWAP1 POP PUSH2 0x1FC9 PUSH1 0x0 DUP4 ADD DUP6 PUSH2 0x199F JUMP JUMPDEST DUP2 DUP2 SUB PUSH1 0x20 DUP4 ADD MSTORE PUSH2 0x1FDB DUP2 DUP5 PUSH2 0x1BE8 JUMP JUMPDEST SWAP1 POP SWAP4 SWAP3 POP POP POP JUMP JUMPDEST PUSH1 0x3 DUP2 LT PUSH2 0x1FF1 JUMPI PUSH1 0x0 DUP1 REVERT JUMPDEST POP JUMP JUMPDEST PUSH1 0x0 DUP2 MLOAD SWAP1 POP PUSH2 0x2003 DUP2 PUSH2 0x1FE4 JUMP JUMPDEST SWAP3 SWAP2 POP POP JUMP JUMPDEST PUSH1 0x0 PUSH1 0x20 DUP3 DUP5 SUB SLT ISZERO PUSH2 0x201F JUMPI PUSH2 0x201E PUSH2 0x1A09 JUMP JUMPDEST JUMPDEST PUSH1 0x0 PUSH2 0x202D DUP5 DUP3 DUP6 ADD PUSH2 0x1FF4 JUMP JUMPDEST SWAP2 POP POP SWAP3 SWAP2 POP POP JUMP JUMPDEST PUSH32 0x4578616D206E6F74207061737365640000000000000000000000000000000000 PUSH1 0x0 DUP3 ADD MSTORE POP JUMP JUMPDEST PUSH1 0x0 PUSH2 0x206C PUSH1 0xF DUP4 PUSH2 0x1BAD JUMP JUMPDEST SWAP2 POP PUSH2 0x2077 DUP3 PUSH2 0x2036 JUMP JUMPDEST PUSH1 0x20 DUP3 ADD SWAP1 POP SWAP2 SWAP1 POP JUMP JUMPDEST PUSH1 0x0 PUSH1 0x20 DUP3 ADD SWAP1 POP DUP2 DUP2 SUB PUSH1 0x0 DUP4 ADD MSTORE PUSH2 0x209B DUP2 PUSH2 0x205F JUMP JUMPDEST SWAP1 POP SWAP2 SWAP1 POP JUMP JUMPDEST PUSH32 0x4578616D207061737365642077697468206D6572697400000000000000000000 PUSH1 0x0 DUP3 ADD MSTORE POP JUMP JUMPDEST PUSH1 0x0 PUSH2 0x20D8 PUSH1 0x16 DUP4 PUSH2 0x1BAD JUMP JUMPDEST SWAP2 POP PUSH2 0x20E3 DUP3 PUSH2 0x20A2 JUMP JUMPDEST PUSH1 0x20 DUP3 ADD SWAP1 POP SWAP2 SWAP1 POP JUMP JUMPDEST PUSH1 0x0 PUSH1 0x20 DUP3 ADD SWAP1 POP DUP2 DUP2 SUB PUSH1 0x0 DUP4 ADD MSTORE PUSH2 0x2107 DUP2 PUSH2 0x20CB JUMP JUMPDEST SWAP1 POP SWAP2 SWAP1 POP JUMP JUMPDEST PUSH32 0x50696E206E6F7420617661696C61626C6520666F722074686973206578616D21 PUSH1 0x0 DUP3 ADD MSTORE POP JUMP JUMPDEST PUSH1 0x0 PUSH2 0x2144 PUSH1 0x20 DUP4 PUSH2 0x1BAD JUMP JUMPDEST SWAP2 POP PUSH2 0x214F DUP3 PUSH2 0x210E JUMP JUMPDEST PUSH1 0x20 DUP3 ADD SWAP1 POP SWAP2 SWAP1 POP JUMP JUMPDEST PUSH1 0x0 PUSH1 0x20 DUP3 ADD SWAP1 POP DUP2 DUP2 SUB PUSH1 0x0 DUP4 ADD MSTORE PUSH2 0x2173 DUP2 PUSH2 0x2137 JUMP JUMPDEST SWAP1 POP SWAP2 SWAP1 POP JUMP JUMPDEST PUSH32 0x4E487B7100000000000000000000000000000000000000000000000000000000 PUSH1 0x0 MSTORE PUSH1 0x11 PUSH1 0x4 MSTORE PUSH1 0x24 PUSH1 0x0 REVERT JUMPDEST PUSH1 0x0 PUSH2 0x21B4 DUP3 PUSH2 0x1CD5 JUMP JUMPDEST SWAP2 POP PUSH32 0xFFFFFFFFFFFFFFFFFFFFFFFFFFFFFFFFFFFFFFFFFFFFFFFFFFFFFFFFFFFFFFFF DUP3 SUB PUSH2 0x21E6 JUMPI PUSH2 0x21E5 PUSH2 0x217A JUMP JUMPDEST JUMPDEST PUSH1 0x1 DUP3 ADD SWAP1 POP SWAP2 SWAP1 POP JUMP JUMPDEST PUSH32 0x4E487B7100000000000000000000000000000000000000000000000000000000 PUSH1 0x0 MSTORE PUSH1 0x32 PUSH1 0x4 MSTORE PUSH1 0x24 PUSH1 0x0 REVERT JUMPDEST PUSH32 0x4E487B7100000000000000000000000000000000000000000000000000000000 PUSH1 0x0 MSTORE PUSH1 0x22 PUSH1 0x4 MSTORE PUSH1 0x24 PUSH1 0x0 REVERT JUMPDEST PUSH1 0x0 PUSH1 0x2 DUP3 DIV SWAP1 POP PUSH1 0x1 DUP3 AND DUP1 PUSH2 0x2267 JUMPI PUSH1 0x7F DUP3 AND SWAP2 POP JUMPDEST PUSH1 0x20 DUP3 LT DUP2 SUB PUSH2 0x227A JUMPI PUSH2 0x2279 PUSH2 0x2220 JUMP JUMPDEST JUMPDEST POP SWAP2 SWAP1 POP JUMP JUMPDEST PUSH1 0x0 DUP2 SWAP1 POP DUP2 PUSH1 0x0 MSTORE PUSH1 0x20 PUSH1 0x0 KECCAK256 SWAP1 POP SWAP2 SWAP1 POP JUMP JUMPDEST PUSH1 0x0 DUP2 SLOAD PUSH2 0x22A2 DUP2 PUSH2 0x224F JUMP JUMPDEST PUSH2 0x22AC DUP2 DUP7 PUSH2 0x1EF5 JUMP JUMPDEST SWAP5 POP PUSH1 0x1 DUP3 AND PUSH1 0x0 DUP2 EQ PUSH2 0x22C7 JUMPI PUSH1 0x1 DUP2 EQ PUSH2 0x22DC JUMPI PUSH2 0x230F JUMP JUMPDEST PUSH1 0xFF NOT DUP4 AND DUP7 MSTORE DUP2 ISZERO ISZERO DUP3 MUL DUP7 ADD SWAP4 POP PUSH2 0x230F JUMP JUMPDEST PUSH2 0x22E5 DUP6 PUSH2 0x2280 JUMP JUMPDEST PUSH1 0x0 JUMPDEST DUP4 DUP2 LT ISZERO PUSH2 0x2307 JUMPI DUP2 SLOAD DUP2 DUP10 ADD MSTORE PUSH1 0x1 DUP3 ADD SWAP2 POP PUSH1 0x20 DUP2 ADD SWAP1 POP PUSH2 0x22E8 JUMP JUMPDEST DUP4 DUP9 ADD SWAP6 POP POP POP JUMPDEST POP POP POP SWAP3 SWAP2 POP POP JUMP JUMPDEST PUSH1 0x0 PUSH2 0x2324 DUP3 DUP5 PUSH2 0x2295 JUMP JUMPDEST SWAP2 POP DUP2 SWAP1 POP SWAP3 SWAP2 POP POP JUMP JUMPDEST PUSH1 0x0 PUSH2 0x233B DUP3 DUP6 PUSH2 0x1F00 JUMP JUMPDEST SWAP2 POP PUSH2 0x2347 DUP3 DUP5 PUSH2 0x1F00 JUMP JUMPDEST SWAP2 POP DUP2 SWAP1 POP SWAP4 SWAP3 POP POP POP JUMP JUMPDEST PUSH32 0x2E676C6200000000000000000000000000000000000000000000000000000000 PUSH1 0x0 DUP3 ADD MSTORE POP JUMP JUMPDEST PUSH1 0x0 PUSH2 0x2389 PUSH1 0x4 DUP4 PUSH2 0x1EF5 JUMP JUMPDEST SWAP2 POP PUSH2 0x2394 DUP3 PUSH2 0x2353 JUMP JUMPDEST PUSH1 0x4 DUP3 ADD SWAP1 POP SWAP2 SWAP1 POP JUMP JUMPDEST PUSH1 0x0 PUSH2 0x23AB DUP3 DUP5 PUSH2 0x1F00 JUMP JUMPDEST SWAP2 POP PUSH2 0x23B6 DUP3 PUSH2 0x237C JUMP JUMPDEST SWAP2 POP DUP2 SWAP1 POP SWAP3 SWAP2 POP POP JUMP JUMPDEST PUSH32 0x697066733A2F2F00000000000000000000000000000000000000000000000000 PUSH1 0x0 DUP3 ADD MSTORE POP JUMP JUMPDEST PUSH1 0x0 PUSH2 0x23F7 PUSH1 0x7 DUP4 PUSH2 0x1EF5 JUMP JUMPDEST SWAP2 POP PUSH2 0x2402 DUP3 PUSH2 0x23C1 JUMP JUMPDEST PUSH1 0x7 DUP3 ADD SWAP1 POP SWAP2 SWAP1 POP JUMP JUMPDEST PUSH32 0x2F00000000000000000000000000000000000000000000000000000000000000 PUSH1 0x0 DUP3 ADD MSTORE POP JUMP JUMPDEST PUSH1 0x0 PUSH2 0x2443 PUSH1 0x1 DUP4 PUSH2 0x1EF5 JUMP JUMPDEST SWAP2 POP PUSH2 0x244E DUP3 PUSH2 0x240D JUMP JUMPDEST PUSH1 0x1 DUP3 ADD SWAP1 POP SWAP2 SWAP1 POP JUMP JUMPDEST PUSH1 0x0 PUSH2 0x2464 DUP3 PUSH2 0x23EA JUMP JUMPDEST SWAP2 POP PUSH2 0x2470 DUP3 DUP6 PUSH2 0x1F00 JUMP JUMPDEST SWAP2 POP PUSH2 0x247B DUP3 PUSH2 0x2436 JUMP JUMPDEST SWAP2 POP PUSH2 0x2487 DUP3 DUP5 PUSH2 0x1F00 JUMP JUMPDEST SWAP2 POP DUP2 SWAP1 POP SWAP4 SWAP3 POP POP POP JUMP JUMPDEST PUSH32 0x4772616475617465642068617420616C7265616479206F627461696E65640000 PUSH1 0x0 DUP3 ADD MSTORE POP JUMP JUMPDEST PUSH1 0x0 PUSH2 0x24C9 PUSH1 0x1E DUP4 PUSH2 0x1BAD JUMP JUMPDEST SWAP2 POP PUSH2 0x24D4 DUP3 PUSH2 0x2493 JUMP JUMPDEST PUSH1 0x20 DUP3 ADD SWAP1 POP SWAP2 SWAP1 POP JUMP JUMPDEST PUSH1 0x0 PUSH1 0x20 DUP3 ADD SWAP1 POP DUP2 DUP2 SUB PUSH1 0x0 DUP4 ADD MSTORE PUSH2 0x24F8 DUP2 PUSH2 0x24BC JUMP JUMPDEST SWAP1 POP SWAP2 SWAP1 POP JUMP JUMPDEST PUSH2 0x2508 DUP2 PUSH2 0x19C9 JUMP JUMPDEST DUP2 EQ PUSH2 0x2513 JUMPI PUSH1 0x0 DUP1 REVERT JUMPDEST POP JUMP JUMPDEST PUSH1 0x0 DUP2 MLOAD SWAP1 POP PUSH2 0x2525 DUP2 PUSH2 0x24FF JUMP JUMPDEST SWAP3 SWAP2 POP POP JUMP JUMPDEST PUSH1 0x0 PUSH1 0x20 DUP3 DUP5 SUB SLT ISZERO PUSH2 0x2541 JUMPI PUSH2 0x2540 PUSH2 0x1A09 JUMP JUMPDEST JUMPDEST PUSH1 0x0 PUSH2 0x254F DUP5 DUP3 DUP6 ADD PUSH2 0x2516 JUMP JUMPDEST SWAP2 POP POP SWAP3 SWAP2 POP POP JUMP JUMPDEST PUSH32 0x596F7520617265206E6F74206772616475617465640000000000000000000000 PUSH1 0x0 DUP3 ADD MSTORE POP JUMP JUMPDEST PUSH1 0x0 PUSH2 0x258E PUSH1 0x15 DUP4 PUSH2 0x1BAD JUMP JUMPDEST SWAP2 POP PUSH2 0x2599 DUP3 PUSH2 0x2558 JUMP JUMPDEST PUSH1 0x20 DUP3 ADD SWAP1 POP SWAP2 SWAP1 POP JUMP JUMPDEST PUSH1 0x0 PUSH1 0x20 DUP3 ADD SWAP1 POP DUP2 DUP2 SUB PUSH1 0x0 DUP4 ADD MSTORE PUSH2 0x25BD DUP2 PUSH2 0x2581 JUMP JUMPDEST SWAP1 POP SWAP2 SWAP1 POP JUMP JUMPDEST PUSH32 0x4578616D2070617373656420776974686F7574206D6572697400000000000000 PUSH1 0x0 DUP3 ADD MSTORE POP JUMP JUMPDEST PUSH1 0x0 PUSH2 0x25FA PUSH1 0x19 DUP4 PUSH2 0x1BAD JUMP JUMPDEST SWAP2 POP PUSH2 0x2605 DUP3 PUSH2 0x25C4 JUMP JUMPDEST PUSH1 0x20 DUP3 ADD SWAP1 POP SWAP2 SWAP1 POP JUMP JUMPDEST PUSH1 0x0 PUSH1 0x20 DUP3 ADD SWAP1 POP DUP2 DUP2 SUB PUSH1 0x0 DUP4 ADD MSTORE PUSH2 0x2629 DUP2 PUSH2 0x25ED JUMP JUMPDEST SWAP1 POP SWAP2 SWAP1 POP JUMP JUMPDEST PUSH32 0x496E76616C696420616464726573730000000000000000000000000000000000 PUSH1 0x0 DUP3 ADD MSTORE POP JUMP JUMPDEST PUSH1 0x0 PUSH2 0x2666 PUSH1 0xF DUP4 PUSH2 0x1BAD JUMP JUMPDEST SWAP2 POP PUSH2 0x2671 DUP3 PUSH2 0x2630 JUMP JUMPDEST PUSH1 0x20 DUP3 ADD SWAP1 POP SWAP2 SWAP1 POP JUMP JUMPDEST PUSH1 0x0 PUSH1 0x20 DUP3 ADD SWAP1 POP DUP2 DUP2 SUB PUSH1 0x0 DUP4 ADD MSTORE PUSH2 0x2695 DUP2 PUSH2 0x2659 JUMP JUMPDEST SWAP1 POP SWAP2 SWAP1 POP JUMP JUMPDEST PUSH32 0x4F776E61626C653A206E6577206F776E657220697320746865207A65726F2061 PUSH1 0x0 DUP3 ADD MSTORE PUSH32 0x6464726573730000000000000000000000000000000000000000000000000000 PUSH1 0x20 DUP3 ADD MSTORE POP JUMP JUMPDEST PUSH1 0x0 PUSH2 0x26F8 PUSH1 0x26 DUP4 PUSH2 0x1BAD JUMP JUMPDEST SWAP2 POP PUSH2 0x2703 DUP3 PUSH2 0x269C JUMP JUMPDEST PUSH1 0x40 DUP3 ADD SWAP1 POP SWAP2 SWAP1 POP JUMP JUMPDEST PUSH1 0x0 PUSH1 0x20 DUP3 ADD SWAP1 POP DUP2 DUP2 SUB PUSH1 0x0 DUP4 ADD MSTORE PUSH2 0x2727 DUP2 PUSH2 0x26EB JUMP JUMPDEST SWAP1 POP SWAP2 SWAP1 POP JUMP JUMPDEST PUSH32 0x48617420616C726561647920696E697469616C697A6564000000000000000000 PUSH1 0x0 DUP3 ADD MSTORE POP JUMP JUMPDEST PUSH1 0x0 PUSH2 0x2764 PUSH1 0x17 DUP4 PUSH2 0x1BAD JUMP JUMPDEST SWAP2 POP PUSH2 0x276F DUP3 PUSH2 0x272E JUMP JUMPDEST PUSH1 0x20 DUP3 ADD SWAP1 POP SWAP2 SWAP1 POP JUMP JUMPDEST PUSH1 0x0 PUSH1 0x20 DUP3 ADD SWAP1 POP DUP2 DUP2 SUB PUSH1 0x0 DUP4 ADD MSTORE PUSH2 0x2793 DUP2 PUSH2 0x2757 JUMP JUMPDEST SWAP1 POP SWAP2 SWAP1 POP JUMP JUMPDEST PUSH1 0x0 PUSH8 0xFFFFFFFFFFFFFFFF DUP3 GT ISZERO PUSH2 0x27B5 JUMPI PUSH2 0x27B4 PUSH2 0x1A2E JUMP JUMPDEST JUMPDEST PUSH1 0x20 DUP3 MUL SWAP1 POP PUSH1 0x20 DUP2 ADD SWAP1 POP SWAP2 SWAP1 POP JUMP JUMPDEST PUSH1 0x0 DUP1 REVERT JUMPDEST PUSH1 0x0 PUSH2 0x27DE PUSH2 0x27D9 DUP5 PUSH2 0x279A JUMP JUMPDEST PUSH2 0x1A8E JUMP JUMPDEST SWAP1 POP DUP1 DUP4 DUP3 MSTORE PUSH1 0x20 DUP3 ADD SWAP1 POP PUSH1 0x20 DUP5 MUL DUP4 ADD DUP6 DUP2 GT ISZERO PUSH2 0x2801 JUMPI PUSH2 0x2800 PUSH2 0x27C6 JUMP JUMPDEST JUMPDEST DUP4 JUMPDEST DUP2 DUP2 LT ISZERO PUSH2 0x282A JUMPI DUP1 PUSH2 0x2816 DUP9 DUP3 PUSH2 0x1FF4 JUMP JUMPDEST DUP5 MSTORE PUSH1 0x20 DUP5 ADD SWAP4 POP POP PUSH1 0x20 DUP2 ADD SWAP1 POP PUSH2 0x2803 JUMP JUMPDEST POP POP POP SWAP4 SWAP3 POP POP POP JUMP JUMPDEST PUSH1 0x0 DUP3 PUSH1 0x1F DUP4 ADD SLT PUSH2 0x2849 JUMPI PUSH2 0x2848 PUSH2 0x1A13 JUMP JUMPDEST JUMPDEST DUP2 MLOAD PUSH2 0x2859 DUP5 DUP3 PUSH1 0x20 DUP7 ADD PUSH2 0x27CB JUMP JUMPDEST SWAP2 POP POP SWAP3 SWAP2 POP POP JUMP JUMPDEST PUSH1 0x0 DUP1 PUSH1 0x40 DUP4 DUP6 SUB SLT ISZERO PUSH2 0x2879 JUMPI PUSH2 0x2878 PUSH2 0x1A09 JUMP JUMPDEST JUMPDEST PUSH1 0x0 DUP4 ADD MLOAD PUSH8 0xFFFFFFFFFFFFFFFF DUP2 GT ISZERO PUSH2 0x2897 JUMPI PUSH2 0x2896 PUSH2 0x1A0E JUMP JUMPDEST JUMPDEST PUSH2 0x28A3 DUP6 DUP3 DUP7 ADD PUSH2 0x2834 JUMP JUMPDEST SWAP3 POP POP PUSH1 0x20 PUSH2 0x28B4 DUP6 DUP3 DUP7 ADD PUSH2 0x2516 JUMP JUMPDEST SWAP2 POP POP SWAP3 POP SWAP3 SWAP1 POP JUMP JUMPDEST PUSH1 0x0 PUSH8 0xFFFFFFFFFFFFFFFF DUP3 GT ISZERO PUSH2 0x28D9 JUMPI PUSH2 0x28D8 PUSH2 0x1A2E JUMP JUMPDEST JUMPDEST PUSH1 0x20 DUP3 MUL SWAP1 POP PUSH1 0x20 DUP2 ADD SWAP1 POP SWAP2 SWAP1 POP JUMP JUMPDEST PUSH1 0x0 PUSH2 0x28FD PUSH2 0x28F8 DUP5 PUSH2 0x1AA9 JUMP JUMPDEST PUSH2 0x1A8E JUMP JUMPDEST SWAP1 POP DUP3 DUP2 MSTORE PUSH1 0x20 DUP2 ADD DUP5 DUP5 DUP5 ADD GT ISZERO PUSH2 0x2919 JUMPI PUSH2 0x2918 PUSH2 0x1A18 JUMP JUMPDEST JUMPDEST PUSH2 0x2924 DUP5 DUP3 DUP6 PUSH2 0x1BBE JUMP JUMPDEST POP SWAP4 SWAP3 POP POP POP JUMP JUMPDEST PUSH1 0x0 DUP3 PUSH1 0x1F DUP4 ADD SLT PUSH2 0x2941 JUMPI PUSH2 0x2940 PUSH2 0x1A13 JUMP JUMPDEST JUMPDEST DUP2 MLOAD PUSH2 0x2951 DUP5 DUP3 PUSH1 0x20 DUP7 ADD PUSH2 0x28EA JUMP JUMPDEST SWAP2 POP POP SWAP3 SWAP2 POP POP JUMP JUMPDEST PUSH1 0x0 PUSH2 0x296D PUSH2 0x2968 DUP5 PUSH2 0x28BE JUMP JUMPDEST PUSH2 0x1A8E JUMP JUMPDEST SWAP1 POP DUP1 DUP4 DUP3 MSTORE PUSH1 0x20 DUP3 ADD SWAP1 POP PUSH1 0x20 DUP5 MUL DUP4 ADD DUP6 DUP2 GT ISZERO PUSH2 0x2990 JUMPI PUSH2 0x298F PUSH2 0x27C6 JUMP JUMPDEST JUMPDEST DUP4 JUMPDEST DUP2 DUP2 LT ISZERO PUSH2 0x29D7 JUMPI DUP1 MLOAD PUSH8 0xFFFFFFFFFFFFFFFF DUP2 GT ISZERO PUSH2 0x29B5 JUMPI PUSH2 0x29B4 PUSH2 0x1A13 JUMP JUMPDEST JUMPDEST DUP1 DUP7 ADD PUSH2 0x29C2 DUP10 DUP3 PUSH2 0x292C JUMP JUMPDEST DUP6 MSTORE PUSH1 0x20 DUP6 ADD SWAP5 POP POP POP PUSH1 0x20 DUP2 ADD SWAP1 POP PUSH2 0x2992 JUMP JUMPDEST POP POP POP SWAP4 SWAP3 POP POP POP JUMP JUMPDEST PUSH1 0x0 DUP3 PUSH1 0x1F DUP4 ADD SLT PUSH2 0x29F6 JUMPI PUSH2 0x29F5 PUSH2 0x1A13 JUMP JUMPDEST JUMPDEST DUP2 MLOAD PUSH2 0x2A06 DUP5 DUP3 PUSH1 0x20 DUP7 ADD PUSH2 0x295A JUMP JUMPDEST SWAP2 POP POP SWAP3 SWAP2 POP POP JUMP JUMPDEST PUSH1 0x0 PUSH1 0x20 DUP3 DUP5 SUB SLT ISZERO PUSH2 0x2A25 JUMPI PUSH2 0x2A24 PUSH2 0x1A09 JUMP JUMPDEST JUMPDEST PUSH1 0x0 DUP3 ADD MLOAD PUSH8 0xFFFFFFFFFFFFFFFF DUP2 GT ISZERO PUSH2 0x2A43 JUMPI PUSH2 0x2A42 PUSH2 0x1A0E JUMP JUMPDEST JUMPDEST PUSH2 0x2A4F DUP5 DUP3 DUP6 ADD PUSH2 0x29E1 JUMP JUMPDEST SWAP2 POP POP SWAP3 SWAP2 POP POP JUMP JUMPDEST PUSH32 0x4E487B7100000000000000000000000000000000000000000000000000000000 PUSH1 0x0 MSTORE PUSH1 0x12 PUSH1 0x4 MSTORE PUSH1 0x24 PUSH1 0x0 REVERT INVALID MLOAD PUSH14 0x644D4B33424A545177696F484435 PUSH17 0x736638446B544A4D523276416845424A76 CODECOPY PUSH21 0x42656554654237754A65516D526243364157355676 CALLDATACOPY BALANCE CALLVALUE 0x4A CALLDATACOPY PUSH26 0x674A6D546F65734C414B35746D63663775565234515536376332 PUSH14 0x6279A264697066735822122039B0 STOP MUL SHL 0xC1 PUSH15 0x4B7094A4A2395CC220D316596FD60F 0x29 SWAP3 PUSH24 0x44090EE8ED98B64736F6C63430008110033000000000000 "
		},
		"gasEstimates": {
			"creation": {
				"codeDepositCost": "2206600",
				"executionCost": "infinite",
				"totalCost": "infinite"
			},
			"external": {
				"addGoldenPin(string)": "infinite",
				"addSilverPin(string)": "infinite",
				"collectionContract()": "2625",
				"createHat()": "infinite",
				"currentOwner()": "2581",
				"examsManager()": "2515",
				"get3DModel()": "infinite",
				"getNumberOfPins()": "4684",
				"hasPin(string)": "infinite",
				"initialized()": "2544",
				"isGraduatedVersion()": "4771",
				"transferOwnership(address)": "32858",
				"updateToGraduated()": "infinite"
			},
			"internal": {
				"equal(string memory,string memory)": "infinite",
				"isSupported(string memory)": "infinite"
			}
		},
		"methodIdentifiers": {
			"addGoldenPin(string)": "a441c000",
			"addSilverPin(string)": "19d61baf",
			"collectionContract()": "709263c1",
			"createHat()": "fa2e8426",
			"currentOwner()": "b387ef92",
			"examsManager()": "155c2d1f",
			"get3DModel()": "29012cab",
			"getNumberOfPins()": "deef61f0",
			"hasPin(string)": "c93fb857",
			"initialized()": "158ef93e",
			"isGraduatedVersion()": "6053ef38",
			"transferOwnership(address)": "f2fde38b",
			"updateToGraduated()": "7d3de1a0"
		}
	},
	"abi": [
		{
			"inputs": [
				{
					"internalType": "address",
					"name": "manager",
					"type": "address"
				},
				{
					"internalType": "address",
					"name": "collection",
					"type": "address"
				},
				{
					"internalType": "address",
					"name": "owner",
					"type": "address"
				}
			],
			"stateMutability": "nonpayable",
			"type": "constructor"
		},
		{
			"anonymous": false,
			"inputs": [
				{
					"indexed": true,
					"internalType": "address",
					"name": "previousOwner",
					"type": "address"
				},
				{
					"indexed": true,
					"internalType": "address",
					"name": "newOwner",
					"type": "address"
				}
			],
			"name": "OwnershipTransferred",
			"type": "event"
		},
		{
			"inputs": [
				{
					"internalType": "string",
					"name": "exam_code",
					"type": "string"
				}
			],
			"name": "addGoldenPin",
			"outputs": [],
			"stateMutability": "nonpayable",
			"type": "function"
		},
		{
			"inputs": [
				{
					"internalType": "string",
					"name": "exam_code",
					"type": "string"
				}
			],
			"name": "addSilverPin",
			"outputs": [],
			"stateMutability": "nonpayable",
			"type": "function"
		},
		{
			"inputs": [],
			"name": "collectionContract",
			"outputs": [
				{
					"internalType": "address",
					"name": "",
					"type": "address"
				}
			],
			"stateMutability": "view",
			"type": "function"
		},
		{
			"inputs": [],
			"name": "createHat",
			"outputs": [
				{
					"internalType": "uint256",
					"name": "pinsNum",
					"type": "uint256"
				},
				{
					"internalType": "bool",
					"name": "",
					"type": "bool"
				}
			],
			"stateMutability": "nonpayable",
			"type": "function"
		},
		{
			"inputs": [],
			"name": "currentOwner",
			"outputs": [
				{
					"internalType": "address",
					"name": "",
					"type": "address"
				}
			],
			"stateMutability": "view",
			"type": "function"
		},
		{
			"inputs": [],
			"name": "examsManager",
			"outputs": [
				{
					"internalType": "address",
					"name": "",
					"type": "address"
				}
			],
			"stateMutability": "view",
			"type": "function"
		},
		{
			"inputs": [],
			"name": "get3DModel",
			"outputs": [
				{
					"internalType": "string",
					"name": "",
					"type": "string"
				}
			],
			"stateMutability": "view",
			"type": "function"
		},
		{
			"inputs": [],
			"name": "getNumberOfPins",
			"outputs": [
				{
					"internalType": "uint256",
					"name": "",
					"type": "uint256"
				}
			],
			"stateMutability": "view",
			"type": "function"
		},
		{
			"inputs": [
				{
					"internalType": "string",
					"name": "exam_code",
					"type": "string"
				}
			],
			"name": "hasPin",
			"outputs": [
				{
					"internalType": "enum Smart_Hat.pinVersion",
					"name": "",
					"type": "uint8"
				}
			],
			"stateMutability": "view",
			"type": "function"
		},
		{
			"inputs": [],
			"name": "initialized",
			"outputs": [
				{
					"internalType": "bool",
					"name": "",
					"type": "bool"
				}
			],
			"stateMutability": "view",
			"type": "function"
		},
		{
			"inputs": [],
			"name": "isGraduatedVersion",
			"outputs": [
				{
					"internalType": "bool",
					"name": "",
					"type": "bool"
				}
			],
			"stateMutability": "view",
			"type": "function"
		},
		{
			"inputs": [
				{
					"internalType": "address",
					"name": "to",
					"type": "address"
				}
			],
			"name": "transferOwnership",
			"outputs": [],
			"stateMutability": "nonpayable",
			"type": "function"
		},
		{
			"inputs": [],
			"name": "updateToGraduated",
			"outputs": [],
			"stateMutability": "nonpayable",
			"type": "function"
		}
	]
}