{
	"data": {
		"bytecode": {
			"linkReferences": {},
			"object": "60806040526000600160146101000a81548160ff0219169083151502179055506000600160156101000a81548160ff0219169083151502179055506000600160166101000a81548160ff0219169083600981111562000063576200006262000317565b5b02179055503480156200007557600080fd5b50604051620035383803806200353883398181016040528101906200009b919062000257565b620000bb620000af6200017460201b60201c565b6200017c60201b60201c565b8073ffffffffffffffffffffffffffffffffffffffff168173ffffffffffffffffffffffffffffffffffffffff16146200012c576040517f08c379a00000000000000000000000000000000000000000000000000000000081526004016200012390620002b0565b60405180910390fd5b80600160006101000a81548173ffffffffffffffffffffffffffffffffffffffff021916908373ffffffffffffffffffffffffffffffffffffffff160217905550506200038e565b600033905090565b60008060009054906101000a900473ffffffffffffffffffffffffffffffffffffffff169050816000806101000a81548173ffffffffffffffffffffffffffffffffffffffff021916908373ffffffffffffffffffffffffffffffffffffffff1602179055508173ffffffffffffffffffffffffffffffffffffffff168173ffffffffffffffffffffffffffffffffffffffff167f8be0079c531659141344cd1fd0a4f28419497f9722a3daafe3b4186f6b6457e060405160405180910390a35050565b600081519050620002518162000374565b92915050565b60006020828403121562000270576200026f62000346565b5b6000620002808482850162000240565b91505092915050565b600062000298602083620002d2565b9150620002a5826200034b565b602082019050919050565b60006020820190508181036000830152620002cb8162000289565b9050919050565b600082825260208201905092915050565b6000620002f082620002f7565b9050919050565b600073ffffffffffffffffffffffffffffffffffffffff82169050919050565b7f4e487b7100000000000000000000000000000000000000000000000000000000600052602160045260246000fd5b600080fd5b7f496e76616c6964206d616e6167657220636f6e74726163742061646472657373600082015250565b6200037f81620002e3565b81146200038b57600080fd5b50565b61319a806200039e6000396000f3fe608060405234801561001057600080fd5b50600436106100a95760003560e01c8063715018a611610071578063715018a6146101675780638da5cb5b146101715780639de7e1861461018f578063c19d93fb146101ad578063d0ebdbe7146101cb578063f2fde38b146101e7576100a9565b806302732a58146100ae578063213606cf146100de57806322bec967146100fd5780634c5770d91461012d5780635968b0b71461015d575b600080fd5b6100c860048036038101906100c39190612522565b610203565b6040516100d5919061295b565b60405180910390f35b6100e6610be7565b6040516100f4929190612976565b60405180910390f35b61011760048036038101906101129190612522565b61114f565b604051610124919061295b565b60405180910390f35b6101476004803603810190610142919061256b565b611b34565b604051610154919061299f565b60405180910390f35b610165611b6b565b005b61016f611df4565b005b610179611e08565b60405161018691906128f5565b60405180910390f35b610197611e31565b6040516101a49190612940565b60405180910390f35b6101b5611e44565b6040516101c2919061295b565b60405180910390f35b6101e560048036038101906101e0919061246c565b611e57565b005b61020160048036038101906101fc919061246c565b611f11565b005b600061020d611f95565b600160159054906101000a900460ff1661025c576040517f08c379a000000000000000000000000000000000000000000000000000000000815260040161025390612a01565b60405180910390fd5b600160149054906101000a900460ff166102ab576040517f08c379a00000000000000000000000000000000000000000000000000000000081526004016102a2906129e1565b60405180910390fd5b6040518060400160405280600581526020017f32373441410000000000000000000000000000000000000000000000000000008152506040516020016102f191906128b1565b604051602081830303815290604052805190602001208260405160200161031891906128b1565b60405160208183030381529060405280519060200120141561046a5760006004600981111561034a57610349612d2f565b5b600160169054906101000a900460ff16600981111561036c5761036b612d2f565b5b14806103ab57506003600981111561038757610386612d2f565b5b600160169054906101000a900460ff1660098111156103a9576103a8612d2f565b5b145b806103e95750600060098111156103c5576103c4612d2f565b5b600160169054906101000a900460ff1660098111156103e7576103e6612d2f565b5b145b80610426575060098081111561040257610401612d2f565b5b600160169054906101000a900460ff16600981111561042457610423612d2f565b5b145b905080610468576040517f08c379a000000000000000000000000000000000000000000000000000000000815260040161045f90612a41565b60405180910390fd5b505b6040518060400160405280600581526020017f32343541410000000000000000000000000000000000000000000000000000008152506040516020016104b091906128b1565b60405160208183030381529060405280519060200120826040516020016104d791906128b1565b6040516020818303038152906040528051906020012014156106295760006002600981111561050957610508612d2f565b5b600160169054906101000a900460ff16600981111561052b5761052a612d2f565b5b148061056a57506001600981111561054657610545612d2f565b5b600160169054906101000a900460ff16600981111561056857610567612d2f565b5b145b806105a857506000600981111561058457610583612d2f565b5b600160169054906101000a900460ff1660098111156105a6576105a5612d2f565b5b145b806105e557506009808111156105c1576105c0612d2f565b5b600160169054906101000a900460ff1660098111156105e3576105e2612d2f565b5b145b905080610627576040517f08c379a000000000000000000000000000000000000000000000000000000000815260040161061e90612a41565b60405180910390fd5b505b60007f3434d8bbb34eed8b97924eeb14da99f53c1d99bd1ea235c72fa33db8c61dee0d90506000813385604051602401610664929190612910565b604051602081830303815290604052907bffffffffffffffffffffffffffffffffffffffffffffffffffffffff19166020820180517bffffffffffffffffffffffffffffffffffffffffffffffffffffffff83818316178352505050509050600080600160009054906101000a900473ffffffffffffffffffffffffffffffffffffffff1673ffffffffffffffffffffffffffffffffffffffff168360405161070d919061289a565b6000604051808303816000865af19150503d806000811461074a576040519150601f19603f3d011682016040523d82523d6000602084013e61074f565b606091505b509150915081610794576040517f08c379a000000000000000000000000000000000000000000000000000000000815260040161078b90612ac1565b60405180910390fd5b6000818060200190518101906107aa9190612598565b905060008114156107f0576040517f08c379a00000000000000000000000000000000000000000000000000000000081526004016107e790612a21565b60405180910390fd5b6002811415610834576040517f08c379a000000000000000000000000000000000000000000000000000000000815260040161082b90612ae1565b60405180910390fd5b6040518060400160405280600581526020017f323734414100000000000000000000000000000000000000000000000000000081525060405160200161087a91906128b1565b60405160208183030381529060405280519060200120876040516020016108a191906128b1565b6040516020818303038152906040528051906020012014156109ff57600460098111156108d1576108d0612d2f565b5b600160169054906101000a900460ff1660098111156108f3576108f2612d2f565b5b1415610929576006600160166101000a81548160ff0219169083600981111561091f5761091e612d2f565b5b02179055506109fe565b6003600981111561093d5761093c612d2f565b5b600160169054906101000a900460ff16600981111561095f5761095e612d2f565b5b1415610995576005600160166101000a81548160ff0219169083600981111561098b5761098a612d2f565b5b02179055506109fd565b600060098111156109a9576109a8612d2f565b5b600160169054906101000a900460ff1660098111156109cb576109ca612d2f565b5b14156109fc5760018060166101000a81548160ff021916908360098111156109f6576109f5612d2f565b5b02179055505b5b5b5b6040518060400160405280600581526020017f3234354141000000000000000000000000000000000000000000000000000000815250604051602001610a4591906128b1565b6040516020818303038152906040528051906020012087604051602001610a6c91906128b1565b604051602081830303815290604052805190602001201415610bcb5760026009811115610a9c57610a9b612d2f565b5b600160169054906101000a900460ff166009811115610abe57610abd612d2f565b5b1415610af4576007600160166101000a81548160ff02191690836009811115610aea57610ae9612d2f565b5b0217905550610bca565b60016009811115610b0857610b07612d2f565b5b600160169054906101000a900460ff166009811115610b2a57610b29612d2f565b5b1415610b60576005600160166101000a81548160ff02191690836009811115610b5657610b55612d2f565b5b0217905550610bc9565b60006009811115610b7457610b73612d2f565b5b600160169054906101000a900460ff166009811115610b9657610b95612d2f565b5b1415610bc8576003600160166101000a81548160ff02191690836009811115610bc257610bc1612d2f565b5b02179055505b5b5b5b600160169054906101000a900460ff1695505050505050919050565b600080610bf2611f95565b600160159054906101000a900460ff1615610c42576040517f08c379a0000000000000000000000000000000000000000000000000000000008152600401610c3990612b01565b60405180910390fd5b60007fa7f70611b78f815ecb001ed9694b67005694d389caad9c7f15fa4e2d0fcc54ae905060008133604051602401610c7b91906128f5565b604051602081830303815290604052907bffffffffffffffffffffffffffffffffffffffffffffffffffffffff19166020820180517bffffffffffffffffffffffffffffffffffffffffffffffffffffffff83818316178352505050509050600080600160009054906101000a900473ffffffffffffffffffffffffffffffffffffffff1673ffffffffffffffffffffffffffffffffffffffff1683604051610d24919061289a565b6000604051808303816000865af19150503d8060008114610d61576040519150601f19603f3d011682016040523d82523d6000602084013e610d66565b606091505b509150915081610dab576040517f08c379a0000000000000000000000000000000000000000000000000000000008152600401610da290612ac1565b60405180910390fd5b60008082806020019051810190610dc29190612499565b915091506002825114610dff576009600160166101000a81548160ff02191690836009811115610df557610df4612d2f565b5b02179055506110ed565b600082600081518110610e1557610e14612d5e565b5b60200260200101511415610ef957600182600181518110610e3957610e38612d5e565b5b60200260200101511415610e77576003600160166101000a81548160ff02191690836009811115610e6d57610e6c612d2f565b5b0217905550610ef8565b600282600181518110610e8d57610e8c612d5e565b5b60200260200101511415610ecb576004600160166101000a81548160ff02191690836009811115610ec157610ec0612d2f565b5b0217905550610ef7565b6000600160166101000a81548160ff02191690836009811115610ef157610ef0612d2f565b5b02179055505b5b5b600182600081518110610f0f57610f0e612d5e565b5b60200260200101511415610ff257600082600181518110610f3357610f32612d5e565b5b60200260200101511415610f705760018060166101000a81548160ff02191690836009811115610f6657610f65612d2f565b5b0217905550610ff1565b600182600181518110610f8657610f85612d5e565b5b60200260200101511415610fc4576005600160166101000a81548160ff02191690836009811115610fba57610fb9612d2f565b5b0217905550610ff0565b6006600160166101000a81548160ff02191690836009811115610fea57610fe9612d2f565b5b02179055505b5b5b60028260008151811061100857611007612d5e565b5b602002602001015114156110ec5760008260018151811061102c5761102b612d5e565b5b6020026020010151141561106a576002600160166101000a81548160ff021916908360098111156110605761105f612d2f565b5b02179055506110eb565b6001826001815181106110805761107f612d5e565b5b602002602001015114156110be576007600160166101000a81548160ff021916908360098111156110b4576110b3612d2f565b5b02179055506110ea565b6008600160166101000a81548160ff021916908360098111156110e4576110e3612d2f565b5b02179055505b5b5b5b80600160146101000a81548160ff02191690831515021790555060018060156101000a81548160ff021916908315150217905550600160169054906101000a900460ff16600160149054906101000a900460ff16975097505050505050509091565b6000611159611f95565b600160159054906101000a900460ff166111a8576040517f08c379a000000000000000000000000000000000000000000000000000000000815260040161119f90612a01565b60405180910390fd5b600160149054906101000a900460ff166111f7576040517f08c379a00000000000000000000000000000000000000000000000000000000081526004016111ee906129e1565b60405180910390fd5b6040518060400160405280600581526020017f323734414100000000000000000000000000000000000000000000000000000081525060405160200161123d91906128b1565b604051602081830303815290604052805190602001208260405160200161126491906128b1565b6040516020818303038152906040528051906020012014156113b65760006004600981111561129657611295612d2f565b5b600160169054906101000a900460ff1660098111156112b8576112b7612d2f565b5b14806112f75750600360098111156112d3576112d2612d2f565b5b600160169054906101000a900460ff1660098111156112f5576112f4612d2f565b5b145b8061133557506000600981111561131157611310612d2f565b5b600160169054906101000a900460ff16600981111561133357611332612d2f565b5b145b80611372575060098081111561134e5761134d612d2f565b5b600160169054906101000a900460ff1660098111156113705761136f612d2f565b5b145b9050806113b4576040517f08c379a00000000000000000000000000000000000000000000000000000000081526004016113ab90612a41565b60405180910390fd5b505b6040518060400160405280600581526020017f32343541410000000000000000000000000000000000000000000000000000008152506040516020016113fc91906128b1565b604051602081830303815290604052805190602001208260405160200161142391906128b1565b6040516020818303038152906040528051906020012014156115755760006002600981111561145557611454612d2f565b5b600160169054906101000a900460ff16600981111561147757611476612d2f565b5b14806114b657506001600981111561149257611491612d2f565b5b600160169054906101000a900460ff1660098111156114b4576114b3612d2f565b5b145b806114f45750600060098111156114d0576114cf612d2f565b5b600160169054906101000a900460ff1660098111156114f2576114f1612d2f565b5b145b80611531575060098081111561150d5761150c612d2f565b5b600160169054906101000a900460ff16600981111561152f5761152e612d2f565b5b145b905080611573576040517f08c379a000000000000000000000000000000000000000000000000000000000815260040161156a90612a41565b60405180910390fd5b505b60007f3434d8bbb34eed8b97924eeb14da99f53c1d99bd1ea235c72fa33db8c61dee0d905060008133856040516024016115b0929190612910565b604051602081830303815290604052907bffffffffffffffffffffffffffffffffffffffffffffffffffffffff19166020820180517bffffffffffffffffffffffffffffffffffffffffffffffffffffffff83818316178352505050509050600080600160009054906101000a900473ffffffffffffffffffffffffffffffffffffffff1673ffffffffffffffffffffffffffffffffffffffff1683604051611659919061289a565b6000604051808303816000865af19150503d8060008114611696576040519150601f19603f3d011682016040523d82523d6000602084013e61169b565b606091505b5091509150816116e0576040517f08c379a00000000000000000000000000000000000000000000000000000000081526004016116d790612ac1565b60405180910390fd5b6000818060200190518101906116f69190612598565b9050600081141561173c576040517f08c379a000000000000000000000000000000000000000000000000000000000815260040161173390612a21565b60405180910390fd5b6001811415611780576040517f08c379a000000000000000000000000000000000000000000000000000000000815260040161177790612a81565b60405180910390fd5b6040518060400160405280600581526020017f32373441410000000000000000000000000000000000000000000000000000008152506040516020016117c691906128b1565b60405160208183030381529060405280519060200120876040516020016117ed91906128b1565b60405160208183030381529060405280519060200120141561194c576004600981111561181d5761181c612d2f565b5b600160169054906101000a900460ff16600981111561183f5761183e612d2f565b5b1415611875576008600160166101000a81548160ff0219169083600981111561186b5761186a612d2f565b5b021790555061194b565b6003600981111561188957611888612d2f565b5b600160169054906101000a900460ff1660098111156118ab576118aa612d2f565b5b14156118e1576007600160166101000a81548160ff021916908360098111156118d7576118d6612d2f565b5b021790555061194a565b600060098111156118f5576118f4612d2f565b5b600160169054906101000a900460ff16600981111561191757611916612d2f565b5b1415611949576002600160166101000a81548160ff0219169083600981111561194357611942612d2f565b5b02179055505b5b5b5b6040518060400160405280600581526020017f323435414100000000000000000000000000000000000000000000000000000081525060405160200161199291906128b1565b60405160208183030381529060405280519060200120876040516020016119b991906128b1565b604051602081830303815290604052805190602001201415611b1857600260098111156119e9576119e8612d2f565b5b600160169054906101000a900460ff166009811115611a0b57611a0a612d2f565b5b1415611a41576008600160166101000a81548160ff02191690836009811115611a3757611a36612d2f565b5b0217905550611b17565b60016009811115611a5557611a54612d2f565b5b600160169054906101000a900460ff166009811115611a7757611a76612d2f565b5b1415611aad576006600160166101000a81548160ff02191690836009811115611aa357611aa2612d2f565b5b0217905550611b16565b60006009811115611ac157611ac0612d2f565b5b600160169054906101000a900460ff166009811115611ae357611ae2612d2f565b5b1415611b15576004600160166101000a81548160ff02191690836009811115611b0f57611b0e612d2f565b5b02179055505b5b5b5b600160169054906101000a900460ff1695505050505050919050565b60606000611b4183612013565b604051602001611b5191906128c8565b604051602081830303815290604052905080915050919050565b611b73611f95565b600160159054906101000a900460ff16611bc2576040517f08c379a0000000000000000000000000000000000000000000000000000000008152600401611bb990612a01565b60405180910390fd5b600160149054906101000a900460ff1615611c12576040517f08c379a0000000000000000000000000000000000000000000000000000000008152600401611c0990612a61565b60405180910390fd5b60007f68a4c8b7fa28353759c6c101e468a9b01f4622c7104770999259b696a52ff1fd905060008133604051602401611c4b91906128f5565b604051602081830303815290604052907bffffffffffffffffffffffffffffffffffffffffffffffffffffffff19166020820180517bffffffffffffffffffffffffffffffffffffffffffffffffffffffff83818316178352505050509050600080600160009054906101000a900473ffffffffffffffffffffffffffffffffffffffff1673ffffffffffffffffffffffffffffffffffffffff1683604051611cf4919061289a565b6000604051808303816000865af19150503d8060008114611d31576040519150601f19603f3d011682016040523d82523d6000602084013e611d36565b606091505b509150915081611d7b576040517f08c379a0000000000000000000000000000000000000000000000000000000008152600401611d7290612ac1565b60405180910390fd5b600081806020019051810190611d9191906124f5565b905080611dd3576040517f08c379a0000000000000000000000000000000000000000000000000000000008152600401611dca90612b41565b60405180910390fd5b60018060146101000a81548160ff0219169083151502179055505050505050565b611dfc611f95565b611e0660006120eb565b565b60008060009054906101000a900473ffffffffffffffffffffffffffffffffffffffff16905090565b600160149054906101000a900460ff1681565b600160169054906101000a900460ff1681565b611e5f611f95565b8073ffffffffffffffffffffffffffffffffffffffff168173ffffffffffffffffffffffffffffffffffffffff1614611ecd576040517f08c379a0000000000000000000000000000000000000000000000000000000008152600401611ec490612b21565b60405180910390fd5b80600160006101000a81548173ffffffffffffffffffffffffffffffffffffffff021916908373ffffffffffffffffffffffffffffffffffffffff16021790555050565b611f19611f95565b600073ffffffffffffffffffffffffffffffffffffffff168173ffffffffffffffffffffffffffffffffffffffff161415611f89576040517f08c379a0000000000000000000000000000000000000000000000000000000008152600401611f80906129c1565b60405180910390fd5b611f92816120eb565b50565b611f9d6121af565b73ffffffffffffffffffffffffffffffffffffffff16611fbb611e08565b73ffffffffffffffffffffffffffffffffffffffff1614612011576040517f08c379a000000000000000000000000000000000000000000000000000000000815260040161200890612aa1565b60405180910390fd5b565b606060006001612022846121b7565b01905060008167ffffffffffffffff81111561204157612040612d8d565b5b6040519080825280601f01601f1916602001820160405280156120735781602001600182028036833780820191505090505b509050600082602001820190505b6001156120e0578080600190039150507f3031323334353637383961626364656600000000000000000000000000000000600a86061a8153600a85816120ca576120c9612d00565b5b04945060008514156120db576120e0565b612081565b819350505050919050565b60008060009054906101000a900473ffffffffffffffffffffffffffffffffffffffff169050816000806101000a81548173ffffffffffffffffffffffffffffffffffffffff021916908373ffffffffffffffffffffffffffffffffffffffff1602179055508173ffffffffffffffffffffffffffffffffffffffff168173ffffffffffffffffffffffffffffffffffffffff167f8be0079c531659141344cd1fd0a4f28419497f9722a3daafe3b4186f6b6457e060405160405180910390a35050565b600033905090565b600080600090507a184f03e93ff9f4daa797ed6e38ed64bf6a1f0100000000000000008310612215577a184f03e93ff9f4daa797ed6e38ed64bf6a1f010000000000000000838161220b5761220a612d00565b5b0492506040810190505b6d04ee2d6d415b85acef81000000008310612252576d04ee2d6d415b85acef8100000000838161224857612247612d00565b5b0492506020810190505b662386f26fc10000831061228157662386f26fc10000838161227757612276612d00565b5b0492506010810190505b6305f5e10083106122aa576305f5e10083816122a05761229f612d00565b5b0492506008810190505b61271083106122cf5761271083816122c5576122c4612d00565b5b0492506004810190505b606483106122f257606483816122e8576122e7612d00565b5b0492506002810190505b600a8310612301576001810190505b80915050919050565b600061231d61231884612b86565b612b61565b905080838252602082019050828560208602820111156123405761233f612dc1565b5b60005b8581101561237057816123568882612457565b845260208401935060208301925050600181019050612343565b5050509392505050565b600061238d61238884612bb2565b612b61565b9050828152602081018484840111156123a9576123a8612dc6565b5b6123b4848285612c8d565b509392505050565b6000813590506123cb8161311f565b92915050565b600082601f8301126123e6576123e5612dbc565b5b81516123f684826020860161230a565b91505092915050565b60008151905061240e81613136565b92915050565b600082601f83011261242957612428612dbc565b5b813561243984826020860161237a565b91505092915050565b6000813590506124518161314d565b92915050565b6000815190506124668161314d565b92915050565b60006020828403121561248257612481612dd0565b5b6000612490848285016123bc565b91505092915050565b600080604083850312156124b0576124af612dd0565b5b600083015167ffffffffffffffff8111156124ce576124cd612dcb565b5b6124da858286016123d1565b92505060206124eb858286016123ff565b9150509250929050565b60006020828403121561250b5761250a612dd0565b5b6000612519848285016123ff565b91505092915050565b60006020828403121561253857612537612dd0565b5b600082013567ffffffffffffffff81111561255657612555612dcb565b5b61256284828501612414565b91505092915050565b60006020828403121561258157612580612dd0565b5b600061258f84828501612442565b91505092915050565b6000602082840312156125ae576125ad612dd0565b5b60006125bc84828501612457565b91505092915050565b6125ce81612c20565b82525050565b6125dd81612c32565b82525050565b60006125ee82612be3565b6125f88185612bf9565b9350612608818560208601612c9c565b80840191505092915050565b61261d81612c7b565b82525050565b600061262e82612bee565b6126388185612c04565b9350612648818560208601612c9c565b61265181612dd5565b840191505092915050565b600061266782612bee565b6126718185612c15565b9350612681818560208601612c9c565b80840191505092915050565b600061269a602683612c04565b91506126a582612de6565b604082019050919050565b60006126bd602d83612c04565b91506126c882612e35565b604082019050919050565b60006126e0601383612c04565b91506126eb82612e84565b602082019050919050565b6000612703600f83612c04565b915061270e82612ead565b602082019050919050565b6000612726601e83612c04565b915061273182612ed6565b602082019050919050565b6000612749601e83612c04565b915061275482612eff565b602082019050919050565b600061276c601983612c04565b915061277782612f28565b602082019050919050565b600061278f602083612c04565b915061279a82612f51565b602082019050919050565b60006127b2602583612c04565b91506127bd82612f7a565b604082019050919050565b60006127d5601683612c04565b91506127e082612fc9565b602082019050919050565b60006127f8601783612c04565b915061280382612ff2565b602082019050919050565b600061281b600483612c15565b91506128268261301b565b600482019050919050565b600061283e602083612c04565b915061284982613044565b602082019050919050565b6000612861601583612c04565b915061286c8261306d565b602082019050919050565b6000612884604483612c15565b915061288f82613096565b604482019050919050565b60006128a682846125e3565b915081905092915050565b60006128bd828461265c565b915081905092915050565b60006128d382612877565b91506128df828461265c565b91506128ea8261280e565b915081905092915050565b600060208201905061290a60008301846125c5565b92915050565b600060408201905061292560008301856125c5565b81810360208301526129378184612623565b90509392505050565b600060208201905061295560008301846125d4565b92915050565b60006020820190506129706000830184612614565b92915050565b600060408201905061298b6000830185612614565b61299860208301846125d4565b9392505050565b600060208201905081810360008301526129b98184612623565b905092915050565b600060208201905081810360008301526129da8161268d565b9050919050565b600060208201905081810360008301526129fa816126b0565b9050919050565b60006020820190508181036000830152612a1a816126d3565b9050919050565b60006020820190508181036000830152612a3a816126f6565b9050919050565b60006020820190508181036000830152612a5a81612719565b9050919050565b60006020820190508181036000830152612a7a8161273c565b9050919050565b60006020820190508181036000830152612a9a8161275f565b9050919050565b60006020820190508181036000830152612aba81612782565b9050919050565b60006020820190508181036000830152612ada816127a5565b9050919050565b60006020820190508181036000830152612afa816127c8565b9050919050565b60006020820190508181036000830152612b1a816127eb565b9050919050565b60006020820190508181036000830152612b3a81612831565b9050919050565b60006020820190508181036000830152612b5a81612854565b9050919050565b6000612b6b612b7c565b9050612b778282612ccf565b919050565b6000604051905090565b600067ffffffffffffffff821115612ba157612ba0612d8d565b5b602082029050602081019050919050565b600067ffffffffffffffff821115612bcd57612bcc612d8d565b5b612bd682612dd5565b9050602081019050919050565b600081519050919050565b600081519050919050565b600081905092915050565b600082825260208201905092915050565b600081905092915050565b6000612c2b82612c51565b9050919050565b60008115159050919050565b6000819050612c4c8261310b565b919050565b600073ffffffffffffffffffffffffffffffffffffffff82169050919050565b6000819050919050565b6000612c8682612c3e565b9050919050565b82818337600083830152505050565b60005b83811015612cba578082015181840152602081019050612c9f565b83811115612cc9576000848401525b50505050565b612cd882612dd5565b810181811067ffffffffffffffff82111715612cf757612cf6612d8d565b5b80604052505050565b7f4e487b7100000000000000000000000000000000000000000000000000000000600052601260045260246000fd5b7f4e487b7100000000000000000000000000000000000000000000000000000000600052602160045260246000fd5b7f4e487b7100000000000000000000000000000000000000000000000000000000600052603260045260246000fd5b7f4e487b7100000000000000000000000000000000000000000000000000000000600052604160045260246000fd5b600080fd5b600080fd5b600080fd5b600080fd5b600080fd5b6000601f19601f8301169050919050565b7f4f776e61626c653a206e6577206f776e657220697320746865207a65726f206160008201527f6464726573730000000000000000000000000000000000000000000000000000602082015250565b7f4772616475617465642076657273696f6e206f6620746865206861742063616e60008201527f6e6f742062652065646974656400000000000000000000000000000000000000602082015250565b7f486174206e6f7420696e697469616c697a656400000000000000000000000000600082015250565b7f4578616d206e6f74207061737365640000000000000000000000000000000000600082015250565b7f50696e20616c72656164792070757420666f722074686973206578616d210000600082015250565b7f4772616475617465642068617420616c7265616479206f627461696e65640000600082015250565b7f4578616d2070617373656420776974686f7574206d6572697400000000000000600082015250565b7f4f776e61626c653a2063616c6c6572206973206e6f7420746865206f776e6572600082015250565b7f43616c6c20746f206578616d206d616e6167657220636f6e747261637420666160008201527f696c656421000000000000000000000000000000000000000000000000000000602082015250565b7f4578616d207061737365642077697468206d6572697400000000000000000000600082015250565b7f48617420616c726561647920696e697469616c697a6564000000000000000000600082015250565b7f2e676c6200000000000000000000000000000000000000000000000000000000600082015250565b7f496e76616c6964206d616e6167657220636f6e74726163742061646472657373600082015250565b7f596f7520617265206e6f74206772616475617465640000000000000000000000600082015250565b7f68747470733a2f2f697066732e696f2f697066732f516d5277556b37656d434860008201527f393161614e6439445a523457453164735173796e7a73797a566e59587671433460208201527f7a64552f00000000000000000000000000000000000000000000000000000000604082015250565b600a811061311c5761311b612d2f565b5b50565b61312881612c20565b811461313357600080fd5b50565b61313f81612c32565b811461314a57600080fd5b50565b61315681612c71565b811461316157600080fd5b5056fea264697066735822122007bd67fd64d61e3c7eb9b9526196d3575763c16b3ef1f70aaf22cda72eac078064736f6c63430008070033",
			"opcodes": "PUSH1 0x80 PUSH1 0x40 MSTORE PUSH1 0x0 PUSH1 0x1 PUSH1 0x14 PUSH2 0x100 EXP DUP2 SLOAD DUP2 PUSH1 0xFF MUL NOT AND SWAP1 DUP4 ISZERO ISZERO MUL OR SWAP1 SSTORE POP PUSH1 0x0 PUSH1 0x1 PUSH1 0x15 PUSH2 0x100 EXP DUP2 SLOAD DUP2 PUSH1 0xFF MUL NOT AND SWAP1 DUP4 ISZERO ISZERO MUL OR SWAP1 SSTORE POP PUSH1 0x0 PUSH1 0x1 PUSH1 0x16 PUSH2 0x100 EXP DUP2 SLOAD DUP2 PUSH1 0xFF MUL NOT AND SWAP1 DUP4 PUSH1 0x9 DUP2 GT ISZERO PUSH3 0x63 JUMPI PUSH3 0x62 PUSH3 0x317 JUMP JUMPDEST JUMPDEST MUL OR SWAP1 SSTORE POP CALLVALUE DUP1 ISZERO PUSH3 0x75 JUMPI PUSH1 0x0 DUP1 REVERT JUMPDEST POP PUSH1 0x40 MLOAD PUSH3 0x3538 CODESIZE SUB DUP1 PUSH3 0x3538 DUP4 CODECOPY DUP2 DUP2 ADD PUSH1 0x40 MSTORE DUP2 ADD SWAP1 PUSH3 0x9B SWAP2 SWAP1 PUSH3 0x257 JUMP JUMPDEST PUSH3 0xBB PUSH3 0xAF PUSH3 0x174 PUSH1 0x20 SHL PUSH1 0x20 SHR JUMP JUMPDEST PUSH3 0x17C PUSH1 0x20 SHL PUSH1 0x20 SHR JUMP JUMPDEST DUP1 PUSH20 0xFFFFFFFFFFFFFFFFFFFFFFFFFFFFFFFFFFFFFFFF AND DUP2 PUSH20 0xFFFFFFFFFFFFFFFFFFFFFFFFFFFFFFFFFFFFFFFF AND EQ PUSH3 0x12C JUMPI PUSH1 0x40 MLOAD PUSH32 0x8C379A000000000000000000000000000000000000000000000000000000000 DUP2 MSTORE PUSH1 0x4 ADD PUSH3 0x123 SWAP1 PUSH3 0x2B0 JUMP JUMPDEST PUSH1 0x40 MLOAD DUP1 SWAP2 SUB SWAP1 REVERT JUMPDEST DUP1 PUSH1 0x1 PUSH1 0x0 PUSH2 0x100 EXP DUP2 SLOAD DUP2 PUSH20 0xFFFFFFFFFFFFFFFFFFFFFFFFFFFFFFFFFFFFFFFF MUL NOT AND SWAP1 DUP4 PUSH20 0xFFFFFFFFFFFFFFFFFFFFFFFFFFFFFFFFFFFFFFFF AND MUL OR SWAP1 SSTORE POP POP PUSH3 0x38E JUMP JUMPDEST PUSH1 0x0 CALLER SWAP1 POP SWAP1 JUMP JUMPDEST PUSH1 0x0 DUP1 PUSH1 0x0 SWAP1 SLOAD SWAP1 PUSH2 0x100 EXP SWAP1 DIV PUSH20 0xFFFFFFFFFFFFFFFFFFFFFFFFFFFFFFFFFFFFFFFF AND SWAP1 POP DUP2 PUSH1 0x0 DUP1 PUSH2 0x100 EXP DUP2 SLOAD DUP2 PUSH20 0xFFFFFFFFFFFFFFFFFFFFFFFFFFFFFFFFFFFFFFFF MUL NOT AND SWAP1 DUP4 PUSH20 0xFFFFFFFFFFFFFFFFFFFFFFFFFFFFFFFFFFFFFFFF AND MUL OR SWAP1 SSTORE POP DUP2 PUSH20 0xFFFFFFFFFFFFFFFFFFFFFFFFFFFFFFFFFFFFFFFF AND DUP2 PUSH20 0xFFFFFFFFFFFFFFFFFFFFFFFFFFFFFFFFFFFFFFFF AND PUSH32 0x8BE0079C531659141344CD1FD0A4F28419497F9722A3DAAFE3B4186F6B6457E0 PUSH1 0x40 MLOAD PUSH1 0x40 MLOAD DUP1 SWAP2 SUB SWAP1 LOG3 POP POP JUMP JUMPDEST PUSH1 0x0 DUP2 MLOAD SWAP1 POP PUSH3 0x251 DUP2 PUSH3 0x374 JUMP JUMPDEST SWAP3 SWAP2 POP POP JUMP JUMPDEST PUSH1 0x0 PUSH1 0x20 DUP3 DUP5 SUB SLT ISZERO PUSH3 0x270 JUMPI PUSH3 0x26F PUSH3 0x346 JUMP JUMPDEST JUMPDEST PUSH1 0x0 PUSH3 0x280 DUP5 DUP3 DUP6 ADD PUSH3 0x240 JUMP JUMPDEST SWAP2 POP POP SWAP3 SWAP2 POP POP JUMP JUMPDEST PUSH1 0x0 PUSH3 0x298 PUSH1 0x20 DUP4 PUSH3 0x2D2 JUMP JUMPDEST SWAP2 POP PUSH3 0x2A5 DUP3 PUSH3 0x34B JUMP JUMPDEST PUSH1 0x20 DUP3 ADD SWAP1 POP SWAP2 SWAP1 POP JUMP JUMPDEST PUSH1 0x0 PUSH1 0x20 DUP3 ADD SWAP1 POP DUP2 DUP2 SUB PUSH1 0x0 DUP4 ADD MSTORE PUSH3 0x2CB DUP2 PUSH3 0x289 JUMP JUMPDEST SWAP1 POP SWAP2 SWAP1 POP JUMP JUMPDEST PUSH1 0x0 DUP3 DUP3 MSTORE PUSH1 0x20 DUP3 ADD SWAP1 POP SWAP3 SWAP2 POP POP JUMP JUMPDEST PUSH1 0x0 PUSH3 0x2F0 DUP3 PUSH3 0x2F7 JUMP JUMPDEST SWAP1 POP SWAP2 SWAP1 POP JUMP JUMPDEST PUSH1 0x0 PUSH20 0xFFFFFFFFFFFFFFFFFFFFFFFFFFFFFFFFFFFFFFFF DUP3 AND SWAP1 POP SWAP2 SWAP1 POP JUMP JUMPDEST PUSH32 0x4E487B7100000000000000000000000000000000000000000000000000000000 PUSH1 0x0 MSTORE PUSH1 0x21 PUSH1 0x4 MSTORE PUSH1 0x24 PUSH1 0x0 REVERT JUMPDEST PUSH1 0x0 DUP1 REVERT JUMPDEST PUSH32 0x496E76616C6964206D616E6167657220636F6E74726163742061646472657373 PUSH1 0x0 DUP3 ADD MSTORE POP JUMP JUMPDEST PUSH3 0x37F DUP2 PUSH3 0x2E3 JUMP JUMPDEST DUP2 EQ PUSH3 0x38B JUMPI PUSH1 0x0 DUP1 REVERT JUMPDEST POP JUMP JUMPDEST PUSH2 0x319A DUP1 PUSH3 0x39E PUSH1 0x0 CODECOPY PUSH1 0x0 RETURN INVALID PUSH1 0x80 PUSH1 0x40 MSTORE CALLVALUE DUP1 ISZERO PUSH2 0x10 JUMPI PUSH1 0x0 DUP1 REVERT JUMPDEST POP PUSH1 0x4 CALLDATASIZE LT PUSH2 0xA9 JUMPI PUSH1 0x0 CALLDATALOAD PUSH1 0xE0 SHR DUP1 PUSH4 0x715018A6 GT PUSH2 0x71 JUMPI DUP1 PUSH4 0x715018A6 EQ PUSH2 0x167 JUMPI DUP1 PUSH4 0x8DA5CB5B EQ PUSH2 0x171 JUMPI DUP1 PUSH4 0x9DE7E186 EQ PUSH2 0x18F JUMPI DUP1 PUSH4 0xC19D93FB EQ PUSH2 0x1AD JUMPI DUP1 PUSH4 0xD0EBDBE7 EQ PUSH2 0x1CB JUMPI DUP1 PUSH4 0xF2FDE38B EQ PUSH2 0x1E7 JUMPI PUSH2 0xA9 JUMP JUMPDEST DUP1 PUSH4 0x2732A58 EQ PUSH2 0xAE JUMPI DUP1 PUSH4 0x213606CF EQ PUSH2 0xDE JUMPI DUP1 PUSH4 0x22BEC967 EQ PUSH2 0xFD JUMPI DUP1 PUSH4 0x4C5770D9 EQ PUSH2 0x12D JUMPI DUP1 PUSH4 0x5968B0B7 EQ PUSH2 0x15D JUMPI JUMPDEST PUSH1 0x0 DUP1 REVERT JUMPDEST PUSH2 0xC8 PUSH1 0x4 DUP1 CALLDATASIZE SUB DUP2 ADD SWAP1 PUSH2 0xC3 SWAP2 SWAP1 PUSH2 0x2522 JUMP JUMPDEST PUSH2 0x203 JUMP JUMPDEST PUSH1 0x40 MLOAD PUSH2 0xD5 SWAP2 SWAP1 PUSH2 0x295B JUMP JUMPDEST PUSH1 0x40 MLOAD DUP1 SWAP2 SUB SWAP1 RETURN JUMPDEST PUSH2 0xE6 PUSH2 0xBE7 JUMP JUMPDEST PUSH1 0x40 MLOAD PUSH2 0xF4 SWAP3 SWAP2 SWAP1 PUSH2 0x2976 JUMP JUMPDEST PUSH1 0x40 MLOAD DUP1 SWAP2 SUB SWAP1 RETURN JUMPDEST PUSH2 0x117 PUSH1 0x4 DUP1 CALLDATASIZE SUB DUP2 ADD SWAP1 PUSH2 0x112 SWAP2 SWAP1 PUSH2 0x2522 JUMP JUMPDEST PUSH2 0x114F JUMP JUMPDEST PUSH1 0x40 MLOAD PUSH2 0x124 SWAP2 SWAP1 PUSH2 0x295B JUMP JUMPDEST PUSH1 0x40 MLOAD DUP1 SWAP2 SUB SWAP1 RETURN JUMPDEST PUSH2 0x147 PUSH1 0x4 DUP1 CALLDATASIZE SUB DUP2 ADD SWAP1 PUSH2 0x142 SWAP2 SWAP1 PUSH2 0x256B JUMP JUMPDEST PUSH2 0x1B34 JUMP JUMPDEST PUSH1 0x40 MLOAD PUSH2 0x154 SWAP2 SWAP1 PUSH2 0x299F JUMP JUMPDEST PUSH1 0x40 MLOAD DUP1 SWAP2 SUB SWAP1 RETURN JUMPDEST PUSH2 0x165 PUSH2 0x1B6B JUMP JUMPDEST STOP JUMPDEST PUSH2 0x16F PUSH2 0x1DF4 JUMP JUMPDEST STOP JUMPDEST PUSH2 0x179 PUSH2 0x1E08 JUMP JUMPDEST PUSH1 0x40 MLOAD PUSH2 0x186 SWAP2 SWAP1 PUSH2 0x28F5 JUMP JUMPDEST PUSH1 0x40 MLOAD DUP1 SWAP2 SUB SWAP1 RETURN JUMPDEST PUSH2 0x197 PUSH2 0x1E31 JUMP JUMPDEST PUSH1 0x40 MLOAD PUSH2 0x1A4 SWAP2 SWAP1 PUSH2 0x2940 JUMP JUMPDEST PUSH1 0x40 MLOAD DUP1 SWAP2 SUB SWAP1 RETURN JUMPDEST PUSH2 0x1B5 PUSH2 0x1E44 JUMP JUMPDEST PUSH1 0x40 MLOAD PUSH2 0x1C2 SWAP2 SWAP1 PUSH2 0x295B JUMP JUMPDEST PUSH1 0x40 MLOAD DUP1 SWAP2 SUB SWAP1 RETURN JUMPDEST PUSH2 0x1E5 PUSH1 0x4 DUP1 CALLDATASIZE SUB DUP2 ADD SWAP1 PUSH2 0x1E0 SWAP2 SWAP1 PUSH2 0x246C JUMP JUMPDEST PUSH2 0x1E57 JUMP JUMPDEST STOP JUMPDEST PUSH2 0x201 PUSH1 0x4 DUP1 CALLDATASIZE SUB DUP2 ADD SWAP1 PUSH2 0x1FC SWAP2 SWAP1 PUSH2 0x246C JUMP JUMPDEST PUSH2 0x1F11 JUMP JUMPDEST STOP JUMPDEST PUSH1 0x0 PUSH2 0x20D PUSH2 0x1F95 JUMP JUMPDEST PUSH1 0x1 PUSH1 0x15 SWAP1 SLOAD SWAP1 PUSH2 0x100 EXP SWAP1 DIV PUSH1 0xFF AND PUSH2 0x25C JUMPI PUSH1 0x40 MLOAD PUSH32 0x8C379A000000000000000000000000000000000000000000000000000000000 DUP2 MSTORE PUSH1 0x4 ADD PUSH2 0x253 SWAP1 PUSH2 0x2A01 JUMP JUMPDEST PUSH1 0x40 MLOAD DUP1 SWAP2 SUB SWAP1 REVERT JUMPDEST PUSH1 0x1 PUSH1 0x14 SWAP1 SLOAD SWAP1 PUSH2 0x100 EXP SWAP1 DIV PUSH1 0xFF AND PUSH2 0x2AB JUMPI PUSH1 0x40 MLOAD PUSH32 0x8C379A000000000000000000000000000000000000000000000000000000000 DUP2 MSTORE PUSH1 0x4 ADD PUSH2 0x2A2 SWAP1 PUSH2 0x29E1 JUMP JUMPDEST PUSH1 0x40 MLOAD DUP1 SWAP2 SUB SWAP1 REVERT JUMPDEST PUSH1 0x40 MLOAD DUP1 PUSH1 0x40 ADD PUSH1 0x40 MSTORE DUP1 PUSH1 0x5 DUP2 MSTORE PUSH1 0x20 ADD PUSH32 0x3237344141000000000000000000000000000000000000000000000000000000 DUP2 MSTORE POP PUSH1 0x40 MLOAD PUSH1 0x20 ADD PUSH2 0x2F1 SWAP2 SWAP1 PUSH2 0x28B1 JUMP JUMPDEST PUSH1 0x40 MLOAD PUSH1 0x20 DUP2 DUP4 SUB SUB DUP2 MSTORE SWAP1 PUSH1 0x40 MSTORE DUP1 MLOAD SWAP1 PUSH1 0x20 ADD KECCAK256 DUP3 PUSH1 0x40 MLOAD PUSH1 0x20 ADD PUSH2 0x318 SWAP2 SWAP1 PUSH2 0x28B1 JUMP JUMPDEST PUSH1 0x40 MLOAD PUSH1 0x20 DUP2 DUP4 SUB SUB DUP2 MSTORE SWAP1 PUSH1 0x40 MSTORE DUP1 MLOAD SWAP1 PUSH1 0x20 ADD KECCAK256 EQ ISZERO PUSH2 0x46A JUMPI PUSH1 0x0 PUSH1 0x4 PUSH1 0x9 DUP2 GT ISZERO PUSH2 0x34A JUMPI PUSH2 0x349 PUSH2 0x2D2F JUMP JUMPDEST JUMPDEST PUSH1 0x1 PUSH1 0x16 SWAP1 SLOAD SWAP1 PUSH2 0x100 EXP SWAP1 DIV PUSH1 0xFF AND PUSH1 0x9 DUP2 GT ISZERO PUSH2 0x36C JUMPI PUSH2 0x36B PUSH2 0x2D2F JUMP JUMPDEST JUMPDEST EQ DUP1 PUSH2 0x3AB JUMPI POP PUSH1 0x3 PUSH1 0x9 DUP2 GT ISZERO PUSH2 0x387 JUMPI PUSH2 0x386 PUSH2 0x2D2F JUMP JUMPDEST JUMPDEST PUSH1 0x1 PUSH1 0x16 SWAP1 SLOAD SWAP1 PUSH2 0x100 EXP SWAP1 DIV PUSH1 0xFF AND PUSH1 0x9 DUP2 GT ISZERO PUSH2 0x3A9 JUMPI PUSH2 0x3A8 PUSH2 0x2D2F JUMP JUMPDEST JUMPDEST EQ JUMPDEST DUP1 PUSH2 0x3E9 JUMPI POP PUSH1 0x0 PUSH1 0x9 DUP2 GT ISZERO PUSH2 0x3C5 JUMPI PUSH2 0x3C4 PUSH2 0x2D2F JUMP JUMPDEST JUMPDEST PUSH1 0x1 PUSH1 0x16 SWAP1 SLOAD SWAP1 PUSH2 0x100 EXP SWAP1 DIV PUSH1 0xFF AND PUSH1 0x9 DUP2 GT ISZERO PUSH2 0x3E7 JUMPI PUSH2 0x3E6 PUSH2 0x2D2F JUMP JUMPDEST JUMPDEST EQ JUMPDEST DUP1 PUSH2 0x426 JUMPI POP PUSH1 0x9 DUP1 DUP2 GT ISZERO PUSH2 0x402 JUMPI PUSH2 0x401 PUSH2 0x2D2F JUMP JUMPDEST JUMPDEST PUSH1 0x1 PUSH1 0x16 SWAP1 SLOAD SWAP1 PUSH2 0x100 EXP SWAP1 DIV PUSH1 0xFF AND PUSH1 0x9 DUP2 GT ISZERO PUSH2 0x424 JUMPI PUSH2 0x423 PUSH2 0x2D2F JUMP JUMPDEST JUMPDEST EQ JUMPDEST SWAP1 POP DUP1 PUSH2 0x468 JUMPI PUSH1 0x40 MLOAD PUSH32 0x8C379A000000000000000000000000000000000000000000000000000000000 DUP2 MSTORE PUSH1 0x4 ADD PUSH2 0x45F SWAP1 PUSH2 0x2A41 JUMP JUMPDEST PUSH1 0x40 MLOAD DUP1 SWAP2 SUB SWAP1 REVERT JUMPDEST POP JUMPDEST PUSH1 0x40 MLOAD DUP1 PUSH1 0x40 ADD PUSH1 0x40 MSTORE DUP1 PUSH1 0x5 DUP2 MSTORE PUSH1 0x20 ADD PUSH32 0x3234354141000000000000000000000000000000000000000000000000000000 DUP2 MSTORE POP PUSH1 0x40 MLOAD PUSH1 0x20 ADD PUSH2 0x4B0 SWAP2 SWAP1 PUSH2 0x28B1 JUMP JUMPDEST PUSH1 0x40 MLOAD PUSH1 0x20 DUP2 DUP4 SUB SUB DUP2 MSTORE SWAP1 PUSH1 0x40 MSTORE DUP1 MLOAD SWAP1 PUSH1 0x20 ADD KECCAK256 DUP3 PUSH1 0x40 MLOAD PUSH1 0x20 ADD PUSH2 0x4D7 SWAP2 SWAP1 PUSH2 0x28B1 JUMP JUMPDEST PUSH1 0x40 MLOAD PUSH1 0x20 DUP2 DUP4 SUB SUB DUP2 MSTORE SWAP1 PUSH1 0x40 MSTORE DUP1 MLOAD SWAP1 PUSH1 0x20 ADD KECCAK256 EQ ISZERO PUSH2 0x629 JUMPI PUSH1 0x0 PUSH1 0x2 PUSH1 0x9 DUP2 GT ISZERO PUSH2 0x509 JUMPI PUSH2 0x508 PUSH2 0x2D2F JUMP JUMPDEST JUMPDEST PUSH1 0x1 PUSH1 0x16 SWAP1 SLOAD SWAP1 PUSH2 0x100 EXP SWAP1 DIV PUSH1 0xFF AND PUSH1 0x9 DUP2 GT ISZERO PUSH2 0x52B JUMPI PUSH2 0x52A PUSH2 0x2D2F JUMP JUMPDEST JUMPDEST EQ DUP1 PUSH2 0x56A JUMPI POP PUSH1 0x1 PUSH1 0x9 DUP2 GT ISZERO PUSH2 0x546 JUMPI PUSH2 0x545 PUSH2 0x2D2F JUMP JUMPDEST JUMPDEST PUSH1 0x1 PUSH1 0x16 SWAP1 SLOAD SWAP1 PUSH2 0x100 EXP SWAP1 DIV PUSH1 0xFF AND PUSH1 0x9 DUP2 GT ISZERO PUSH2 0x568 JUMPI PUSH2 0x567 PUSH2 0x2D2F JUMP JUMPDEST JUMPDEST EQ JUMPDEST DUP1 PUSH2 0x5A8 JUMPI POP PUSH1 0x0 PUSH1 0x9 DUP2 GT ISZERO PUSH2 0x584 JUMPI PUSH2 0x583 PUSH2 0x2D2F JUMP JUMPDEST JUMPDEST PUSH1 0x1 PUSH1 0x16 SWAP1 SLOAD SWAP1 PUSH2 0x100 EXP SWAP1 DIV PUSH1 0xFF AND PUSH1 0x9 DUP2 GT ISZERO PUSH2 0x5A6 JUMPI PUSH2 0x5A5 PUSH2 0x2D2F JUMP JUMPDEST JUMPDEST EQ JUMPDEST DUP1 PUSH2 0x5E5 JUMPI POP PUSH1 0x9 DUP1 DUP2 GT ISZERO PUSH2 0x5C1 JUMPI PUSH2 0x5C0 PUSH2 0x2D2F JUMP JUMPDEST JUMPDEST PUSH1 0x1 PUSH1 0x16 SWAP1 SLOAD SWAP1 PUSH2 0x100 EXP SWAP1 DIV PUSH1 0xFF AND PUSH1 0x9 DUP2 GT ISZERO PUSH2 0x5E3 JUMPI PUSH2 0x5E2 PUSH2 0x2D2F JUMP JUMPDEST JUMPDEST EQ JUMPDEST SWAP1 POP DUP1 PUSH2 0x627 JUMPI PUSH1 0x40 MLOAD PUSH32 0x8C379A000000000000000000000000000000000000000000000000000000000 DUP2 MSTORE PUSH1 0x4 ADD PUSH2 0x61E SWAP1 PUSH2 0x2A41 JUMP JUMPDEST PUSH1 0x40 MLOAD DUP1 SWAP2 SUB SWAP1 REVERT JUMPDEST POP JUMPDEST PUSH1 0x0 PUSH32 0x3434D8BBB34EED8B97924EEB14DA99F53C1D99BD1EA235C72FA33DB8C61DEE0D SWAP1 POP PUSH1 0x0 DUP2 CALLER DUP6 PUSH1 0x40 MLOAD PUSH1 0x24 ADD PUSH2 0x664 SWAP3 SWAP2 SWAP1 PUSH2 0x2910 JUMP JUMPDEST PUSH1 0x40 MLOAD PUSH1 0x20 DUP2 DUP4 SUB SUB DUP2 MSTORE SWAP1 PUSH1 0x40 MSTORE SWAP1 PUSH28 0xFFFFFFFFFFFFFFFFFFFFFFFFFFFFFFFFFFFFFFFFFFFFFFFFFFFFFFFF NOT AND PUSH1 0x20 DUP3 ADD DUP1 MLOAD PUSH28 0xFFFFFFFFFFFFFFFFFFFFFFFFFFFFFFFFFFFFFFFFFFFFFFFFFFFFFFFF DUP4 DUP2 DUP4 AND OR DUP4 MSTORE POP POP POP POP SWAP1 POP PUSH1 0x0 DUP1 PUSH1 0x1 PUSH1 0x0 SWAP1 SLOAD SWAP1 PUSH2 0x100 EXP SWAP1 DIV PUSH20 0xFFFFFFFFFFFFFFFFFFFFFFFFFFFFFFFFFFFFFFFF AND PUSH20 0xFFFFFFFFFFFFFFFFFFFFFFFFFFFFFFFFFFFFFFFF AND DUP4 PUSH1 0x40 MLOAD PUSH2 0x70D SWAP2 SWAP1 PUSH2 0x289A JUMP JUMPDEST PUSH1 0x0 PUSH1 0x40 MLOAD DUP1 DUP4 SUB DUP2 PUSH1 0x0 DUP7 GAS CALL SWAP2 POP POP RETURNDATASIZE DUP1 PUSH1 0x0 DUP2 EQ PUSH2 0x74A JUMPI PUSH1 0x40 MLOAD SWAP2 POP PUSH1 0x1F NOT PUSH1 0x3F RETURNDATASIZE ADD AND DUP3 ADD PUSH1 0x40 MSTORE RETURNDATASIZE DUP3 MSTORE RETURNDATASIZE PUSH1 0x0 PUSH1 0x20 DUP5 ADD RETURNDATACOPY PUSH2 0x74F JUMP JUMPDEST PUSH1 0x60 SWAP2 POP JUMPDEST POP SWAP2 POP SWAP2 POP DUP2 PUSH2 0x794 JUMPI PUSH1 0x40 MLOAD PUSH32 0x8C379A000000000000000000000000000000000000000000000000000000000 DUP2 MSTORE PUSH1 0x4 ADD PUSH2 0x78B SWAP1 PUSH2 0x2AC1 JUMP JUMPDEST PUSH1 0x40 MLOAD DUP1 SWAP2 SUB SWAP1 REVERT JUMPDEST PUSH1 0x0 DUP2 DUP1 PUSH1 0x20 ADD SWAP1 MLOAD DUP2 ADD SWAP1 PUSH2 0x7AA SWAP2 SWAP1 PUSH2 0x2598 JUMP JUMPDEST SWAP1 POP PUSH1 0x0 DUP2 EQ ISZERO PUSH2 0x7F0 JUMPI PUSH1 0x40 MLOAD PUSH32 0x8C379A000000000000000000000000000000000000000000000000000000000 DUP2 MSTORE PUSH1 0x4 ADD PUSH2 0x7E7 SWAP1 PUSH2 0x2A21 JUMP JUMPDEST PUSH1 0x40 MLOAD DUP1 SWAP2 SUB SWAP1 REVERT JUMPDEST PUSH1 0x2 DUP2 EQ ISZERO PUSH2 0x834 JUMPI PUSH1 0x40 MLOAD PUSH32 0x8C379A000000000000000000000000000000000000000000000000000000000 DUP2 MSTORE PUSH1 0x4 ADD PUSH2 0x82B SWAP1 PUSH2 0x2AE1 JUMP JUMPDEST PUSH1 0x40 MLOAD DUP1 SWAP2 SUB SWAP1 REVERT JUMPDEST PUSH1 0x40 MLOAD DUP1 PUSH1 0x40 ADD PUSH1 0x40 MSTORE DUP1 PUSH1 0x5 DUP2 MSTORE PUSH1 0x20 ADD PUSH32 0x3237344141000000000000000000000000000000000000000000000000000000 DUP2 MSTORE POP PUSH1 0x40 MLOAD PUSH1 0x20 ADD PUSH2 0x87A SWAP2 SWAP1 PUSH2 0x28B1 JUMP JUMPDEST PUSH1 0x40 MLOAD PUSH1 0x20 DUP2 DUP4 SUB SUB DUP2 MSTORE SWAP1 PUSH1 0x40 MSTORE DUP1 MLOAD SWAP1 PUSH1 0x20 ADD KECCAK256 DUP8 PUSH1 0x40 MLOAD PUSH1 0x20 ADD PUSH2 0x8A1 SWAP2 SWAP1 PUSH2 0x28B1 JUMP JUMPDEST PUSH1 0x40 MLOAD PUSH1 0x20 DUP2 DUP4 SUB SUB DUP2 MSTORE SWAP1 PUSH1 0x40 MSTORE DUP1 MLOAD SWAP1 PUSH1 0x20 ADD KECCAK256 EQ ISZERO PUSH2 0x9FF JUMPI PUSH1 0x4 PUSH1 0x9 DUP2 GT ISZERO PUSH2 0x8D1 JUMPI PUSH2 0x8D0 PUSH2 0x2D2F JUMP JUMPDEST JUMPDEST PUSH1 0x1 PUSH1 0x16 SWAP1 SLOAD SWAP1 PUSH2 0x100 EXP SWAP1 DIV PUSH1 0xFF AND PUSH1 0x9 DUP2 GT ISZERO PUSH2 0x8F3 JUMPI PUSH2 0x8F2 PUSH2 0x2D2F JUMP JUMPDEST JUMPDEST EQ ISZERO PUSH2 0x929 JUMPI PUSH1 0x6 PUSH1 0x1 PUSH1 0x16 PUSH2 0x100 EXP DUP2 SLOAD DUP2 PUSH1 0xFF MUL NOT AND SWAP1 DUP4 PUSH1 0x9 DUP2 GT ISZERO PUSH2 0x91F JUMPI PUSH2 0x91E PUSH2 0x2D2F JUMP JUMPDEST JUMPDEST MUL OR SWAP1 SSTORE POP PUSH2 0x9FE JUMP JUMPDEST PUSH1 0x3 PUSH1 0x9 DUP2 GT ISZERO PUSH2 0x93D JUMPI PUSH2 0x93C PUSH2 0x2D2F JUMP JUMPDEST JUMPDEST PUSH1 0x1 PUSH1 0x16 SWAP1 SLOAD SWAP1 PUSH2 0x100 EXP SWAP1 DIV PUSH1 0xFF AND PUSH1 0x9 DUP2 GT ISZERO PUSH2 0x95F JUMPI PUSH2 0x95E PUSH2 0x2D2F JUMP JUMPDEST JUMPDEST EQ ISZERO PUSH2 0x995 JUMPI PUSH1 0x5 PUSH1 0x1 PUSH1 0x16 PUSH2 0x100 EXP DUP2 SLOAD DUP2 PUSH1 0xFF MUL NOT AND SWAP1 DUP4 PUSH1 0x9 DUP2 GT ISZERO PUSH2 0x98B JUMPI PUSH2 0x98A PUSH2 0x2D2F JUMP JUMPDEST JUMPDEST MUL OR SWAP1 SSTORE POP PUSH2 0x9FD JUMP JUMPDEST PUSH1 0x0 PUSH1 0x9 DUP2 GT ISZERO PUSH2 0x9A9 JUMPI PUSH2 0x9A8 PUSH2 0x2D2F JUMP JUMPDEST JUMPDEST PUSH1 0x1 PUSH1 0x16 SWAP1 SLOAD SWAP1 PUSH2 0x100 EXP SWAP1 DIV PUSH1 0xFF AND PUSH1 0x9 DUP2 GT ISZERO PUSH2 0x9CB JUMPI PUSH2 0x9CA PUSH2 0x2D2F JUMP JUMPDEST JUMPDEST EQ ISZERO PUSH2 0x9FC JUMPI PUSH1 0x1 DUP1 PUSH1 0x16 PUSH2 0x100 EXP DUP2 SLOAD DUP2 PUSH1 0xFF MUL NOT AND SWAP1 DUP4 PUSH1 0x9 DUP2 GT ISZERO PUSH2 0x9F6 JUMPI PUSH2 0x9F5 PUSH2 0x2D2F JUMP JUMPDEST JUMPDEST MUL OR SWAP1 SSTORE POP JUMPDEST JUMPDEST JUMPDEST JUMPDEST PUSH1 0x40 MLOAD DUP1 PUSH1 0x40 ADD PUSH1 0x40 MSTORE DUP1 PUSH1 0x5 DUP2 MSTORE PUSH1 0x20 ADD PUSH32 0x3234354141000000000000000000000000000000000000000000000000000000 DUP2 MSTORE POP PUSH1 0x40 MLOAD PUSH1 0x20 ADD PUSH2 0xA45 SWAP2 SWAP1 PUSH2 0x28B1 JUMP JUMPDEST PUSH1 0x40 MLOAD PUSH1 0x20 DUP2 DUP4 SUB SUB DUP2 MSTORE SWAP1 PUSH1 0x40 MSTORE DUP1 MLOAD SWAP1 PUSH1 0x20 ADD KECCAK256 DUP8 PUSH1 0x40 MLOAD PUSH1 0x20 ADD PUSH2 0xA6C SWAP2 SWAP1 PUSH2 0x28B1 JUMP JUMPDEST PUSH1 0x40 MLOAD PUSH1 0x20 DUP2 DUP4 SUB SUB DUP2 MSTORE SWAP1 PUSH1 0x40 MSTORE DUP1 MLOAD SWAP1 PUSH1 0x20 ADD KECCAK256 EQ ISZERO PUSH2 0xBCB JUMPI PUSH1 0x2 PUSH1 0x9 DUP2 GT ISZERO PUSH2 0xA9C JUMPI PUSH2 0xA9B PUSH2 0x2D2F JUMP JUMPDEST JUMPDEST PUSH1 0x1 PUSH1 0x16 SWAP1 SLOAD SWAP1 PUSH2 0x100 EXP SWAP1 DIV PUSH1 0xFF AND PUSH1 0x9 DUP2 GT ISZERO PUSH2 0xABE JUMPI PUSH2 0xABD PUSH2 0x2D2F JUMP JUMPDEST JUMPDEST EQ ISZERO PUSH2 0xAF4 JUMPI PUSH1 0x7 PUSH1 0x1 PUSH1 0x16 PUSH2 0x100 EXP DUP2 SLOAD DUP2 PUSH1 0xFF MUL NOT AND SWAP1 DUP4 PUSH1 0x9 DUP2 GT ISZERO PUSH2 0xAEA JUMPI PUSH2 0xAE9 PUSH2 0x2D2F JUMP JUMPDEST JUMPDEST MUL OR SWAP1 SSTORE POP PUSH2 0xBCA JUMP JUMPDEST PUSH1 0x1 PUSH1 0x9 DUP2 GT ISZERO PUSH2 0xB08 JUMPI PUSH2 0xB07 PUSH2 0x2D2F JUMP JUMPDEST JUMPDEST PUSH1 0x1 PUSH1 0x16 SWAP1 SLOAD SWAP1 PUSH2 0x100 EXP SWAP1 DIV PUSH1 0xFF AND PUSH1 0x9 DUP2 GT ISZERO PUSH2 0xB2A JUMPI PUSH2 0xB29 PUSH2 0x2D2F JUMP JUMPDEST JUMPDEST EQ ISZERO PUSH2 0xB60 JUMPI PUSH1 0x5 PUSH1 0x1 PUSH1 0x16 PUSH2 0x100 EXP DUP2 SLOAD DUP2 PUSH1 0xFF MUL NOT AND SWAP1 DUP4 PUSH1 0x9 DUP2 GT ISZERO PUSH2 0xB56 JUMPI PUSH2 0xB55 PUSH2 0x2D2F JUMP JUMPDEST JUMPDEST MUL OR SWAP1 SSTORE POP PUSH2 0xBC9 JUMP JUMPDEST PUSH1 0x0 PUSH1 0x9 DUP2 GT ISZERO PUSH2 0xB74 JUMPI PUSH2 0xB73 PUSH2 0x2D2F JUMP JUMPDEST JUMPDEST PUSH1 0x1 PUSH1 0x16 SWAP1 SLOAD SWAP1 PUSH2 0x100 EXP SWAP1 DIV PUSH1 0xFF AND PUSH1 0x9 DUP2 GT ISZERO PUSH2 0xB96 JUMPI PUSH2 0xB95 PUSH2 0x2D2F JUMP JUMPDEST JUMPDEST EQ ISZERO PUSH2 0xBC8 JUMPI PUSH1 0x3 PUSH1 0x1 PUSH1 0x16 PUSH2 0x100 EXP DUP2 SLOAD DUP2 PUSH1 0xFF MUL NOT AND SWAP1 DUP4 PUSH1 0x9 DUP2 GT ISZERO PUSH2 0xBC2 JUMPI PUSH2 0xBC1 PUSH2 0x2D2F JUMP JUMPDEST JUMPDEST MUL OR SWAP1 SSTORE POP JUMPDEST JUMPDEST JUMPDEST JUMPDEST PUSH1 0x1 PUSH1 0x16 SWAP1 SLOAD SWAP1 PUSH2 0x100 EXP SWAP1 DIV PUSH1 0xFF AND SWAP6 POP POP POP POP POP POP SWAP2 SWAP1 POP JUMP JUMPDEST PUSH1 0x0 DUP1 PUSH2 0xBF2 PUSH2 0x1F95 JUMP JUMPDEST PUSH1 0x1 PUSH1 0x15 SWAP1 SLOAD SWAP1 PUSH2 0x100 EXP SWAP1 DIV PUSH1 0xFF AND ISZERO PUSH2 0xC42 JUMPI PUSH1 0x40 MLOAD PUSH32 0x8C379A000000000000000000000000000000000000000000000000000000000 DUP2 MSTORE PUSH1 0x4 ADD PUSH2 0xC39 SWAP1 PUSH2 0x2B01 JUMP JUMPDEST PUSH1 0x40 MLOAD DUP1 SWAP2 SUB SWAP1 REVERT JUMPDEST PUSH1 0x0 PUSH32 0xA7F70611B78F815ECB001ED9694B67005694D389CAAD9C7F15FA4E2D0FCC54AE SWAP1 POP PUSH1 0x0 DUP2 CALLER PUSH1 0x40 MLOAD PUSH1 0x24 ADD PUSH2 0xC7B SWAP2 SWAP1 PUSH2 0x28F5 JUMP JUMPDEST PUSH1 0x40 MLOAD PUSH1 0x20 DUP2 DUP4 SUB SUB DUP2 MSTORE SWAP1 PUSH1 0x40 MSTORE SWAP1 PUSH28 0xFFFFFFFFFFFFFFFFFFFFFFFFFFFFFFFFFFFFFFFFFFFFFFFFFFFFFFFF NOT AND PUSH1 0x20 DUP3 ADD DUP1 MLOAD PUSH28 0xFFFFFFFFFFFFFFFFFFFFFFFFFFFFFFFFFFFFFFFFFFFFFFFFFFFFFFFF DUP4 DUP2 DUP4 AND OR DUP4 MSTORE POP POP POP POP SWAP1 POP PUSH1 0x0 DUP1 PUSH1 0x1 PUSH1 0x0 SWAP1 SLOAD SWAP1 PUSH2 0x100 EXP SWAP1 DIV PUSH20 0xFFFFFFFFFFFFFFFFFFFFFFFFFFFFFFFFFFFFFFFF AND PUSH20 0xFFFFFFFFFFFFFFFFFFFFFFFFFFFFFFFFFFFFFFFF AND DUP4 PUSH1 0x40 MLOAD PUSH2 0xD24 SWAP2 SWAP1 PUSH2 0x289A JUMP JUMPDEST PUSH1 0x0 PUSH1 0x40 MLOAD DUP1 DUP4 SUB DUP2 PUSH1 0x0 DUP7 GAS CALL SWAP2 POP POP RETURNDATASIZE DUP1 PUSH1 0x0 DUP2 EQ PUSH2 0xD61 JUMPI PUSH1 0x40 MLOAD SWAP2 POP PUSH1 0x1F NOT PUSH1 0x3F RETURNDATASIZE ADD AND DUP3 ADD PUSH1 0x40 MSTORE RETURNDATASIZE DUP3 MSTORE RETURNDATASIZE PUSH1 0x0 PUSH1 0x20 DUP5 ADD RETURNDATACOPY PUSH2 0xD66 JUMP JUMPDEST PUSH1 0x60 SWAP2 POP JUMPDEST POP SWAP2 POP SWAP2 POP DUP2 PUSH2 0xDAB JUMPI PUSH1 0x40 MLOAD PUSH32 0x8C379A000000000000000000000000000000000000000000000000000000000 DUP2 MSTORE PUSH1 0x4 ADD PUSH2 0xDA2 SWAP1 PUSH2 0x2AC1 JUMP JUMPDEST PUSH1 0x40 MLOAD DUP1 SWAP2 SUB SWAP1 REVERT JUMPDEST PUSH1 0x0 DUP1 DUP3 DUP1 PUSH1 0x20 ADD SWAP1 MLOAD DUP2 ADD SWAP1 PUSH2 0xDC2 SWAP2 SWAP1 PUSH2 0x2499 JUMP JUMPDEST SWAP2 POP SWAP2 POP PUSH1 0x2 DUP3 MLOAD EQ PUSH2 0xDFF JUMPI PUSH1 0x9 PUSH1 0x1 PUSH1 0x16 PUSH2 0x100 EXP DUP2 SLOAD DUP2 PUSH1 0xFF MUL NOT AND SWAP1 DUP4 PUSH1 0x9 DUP2 GT ISZERO PUSH2 0xDF5 JUMPI PUSH2 0xDF4 PUSH2 0x2D2F JUMP JUMPDEST JUMPDEST MUL OR SWAP1 SSTORE POP PUSH2 0x10ED JUMP JUMPDEST PUSH1 0x0 DUP3 PUSH1 0x0 DUP2 MLOAD DUP2 LT PUSH2 0xE15 JUMPI PUSH2 0xE14 PUSH2 0x2D5E JUMP JUMPDEST JUMPDEST PUSH1 0x20 MUL PUSH1 0x20 ADD ADD MLOAD EQ ISZERO PUSH2 0xEF9 JUMPI PUSH1 0x1 DUP3 PUSH1 0x1 DUP2 MLOAD DUP2 LT PUSH2 0xE39 JUMPI PUSH2 0xE38 PUSH2 0x2D5E JUMP JUMPDEST JUMPDEST PUSH1 0x20 MUL PUSH1 0x20 ADD ADD MLOAD EQ ISZERO PUSH2 0xE77 JUMPI PUSH1 0x3 PUSH1 0x1 PUSH1 0x16 PUSH2 0x100 EXP DUP2 SLOAD DUP2 PUSH1 0xFF MUL NOT AND SWAP1 DUP4 PUSH1 0x9 DUP2 GT ISZERO PUSH2 0xE6D JUMPI PUSH2 0xE6C PUSH2 0x2D2F JUMP JUMPDEST JUMPDEST MUL OR SWAP1 SSTORE POP PUSH2 0xEF8 JUMP JUMPDEST PUSH1 0x2 DUP3 PUSH1 0x1 DUP2 MLOAD DUP2 LT PUSH2 0xE8D JUMPI PUSH2 0xE8C PUSH2 0x2D5E JUMP JUMPDEST JUMPDEST PUSH1 0x20 MUL PUSH1 0x20 ADD ADD MLOAD EQ ISZERO PUSH2 0xECB JUMPI PUSH1 0x4 PUSH1 0x1 PUSH1 0x16 PUSH2 0x100 EXP DUP2 SLOAD DUP2 PUSH1 0xFF MUL NOT AND SWAP1 DUP4 PUSH1 0x9 DUP2 GT ISZERO PUSH2 0xEC1 JUMPI PUSH2 0xEC0 PUSH2 0x2D2F JUMP JUMPDEST JUMPDEST MUL OR SWAP1 SSTORE POP PUSH2 0xEF7 JUMP JUMPDEST PUSH1 0x0 PUSH1 0x1 PUSH1 0x16 PUSH2 0x100 EXP DUP2 SLOAD DUP2 PUSH1 0xFF MUL NOT AND SWAP1 DUP4 PUSH1 0x9 DUP2 GT ISZERO PUSH2 0xEF1 JUMPI PUSH2 0xEF0 PUSH2 0x2D2F JUMP JUMPDEST JUMPDEST MUL OR SWAP1 SSTORE POP JUMPDEST JUMPDEST JUMPDEST PUSH1 0x1 DUP3 PUSH1 0x0 DUP2 MLOAD DUP2 LT PUSH2 0xF0F JUMPI PUSH2 0xF0E PUSH2 0x2D5E JUMP JUMPDEST JUMPDEST PUSH1 0x20 MUL PUSH1 0x20 ADD ADD MLOAD EQ ISZERO PUSH2 0xFF2 JUMPI PUSH1 0x0 DUP3 PUSH1 0x1 DUP2 MLOAD DUP2 LT PUSH2 0xF33 JUMPI PUSH2 0xF32 PUSH2 0x2D5E JUMP JUMPDEST JUMPDEST PUSH1 0x20 MUL PUSH1 0x20 ADD ADD MLOAD EQ ISZERO PUSH2 0xF70 JUMPI PUSH1 0x1 DUP1 PUSH1 0x16 PUSH2 0x100 EXP DUP2 SLOAD DUP2 PUSH1 0xFF MUL NOT AND SWAP1 DUP4 PUSH1 0x9 DUP2 GT ISZERO PUSH2 0xF66 JUMPI PUSH2 0xF65 PUSH2 0x2D2F JUMP JUMPDEST JUMPDEST MUL OR SWAP1 SSTORE POP PUSH2 0xFF1 JUMP JUMPDEST PUSH1 0x1 DUP3 PUSH1 0x1 DUP2 MLOAD DUP2 LT PUSH2 0xF86 JUMPI PUSH2 0xF85 PUSH2 0x2D5E JUMP JUMPDEST JUMPDEST PUSH1 0x20 MUL PUSH1 0x20 ADD ADD MLOAD EQ ISZERO PUSH2 0xFC4 JUMPI PUSH1 0x5 PUSH1 0x1 PUSH1 0x16 PUSH2 0x100 EXP DUP2 SLOAD DUP2 PUSH1 0xFF MUL NOT AND SWAP1 DUP4 PUSH1 0x9 DUP2 GT ISZERO PUSH2 0xFBA JUMPI PUSH2 0xFB9 PUSH2 0x2D2F JUMP JUMPDEST JUMPDEST MUL OR SWAP1 SSTORE POP PUSH2 0xFF0 JUMP JUMPDEST PUSH1 0x6 PUSH1 0x1 PUSH1 0x16 PUSH2 0x100 EXP DUP2 SLOAD DUP2 PUSH1 0xFF MUL NOT AND SWAP1 DUP4 PUSH1 0x9 DUP2 GT ISZERO PUSH2 0xFEA JUMPI PUSH2 0xFE9 PUSH2 0x2D2F JUMP JUMPDEST JUMPDEST MUL OR SWAP1 SSTORE POP JUMPDEST JUMPDEST JUMPDEST PUSH1 0x2 DUP3 PUSH1 0x0 DUP2 MLOAD DUP2 LT PUSH2 0x1008 JUMPI PUSH2 0x1007 PUSH2 0x2D5E JUMP JUMPDEST JUMPDEST PUSH1 0x20 MUL PUSH1 0x20 ADD ADD MLOAD EQ ISZERO PUSH2 0x10EC JUMPI PUSH1 0x0 DUP3 PUSH1 0x1 DUP2 MLOAD DUP2 LT PUSH2 0x102C JUMPI PUSH2 0x102B PUSH2 0x2D5E JUMP JUMPDEST JUMPDEST PUSH1 0x20 MUL PUSH1 0x20 ADD ADD MLOAD EQ ISZERO PUSH2 0x106A JUMPI PUSH1 0x2 PUSH1 0x1 PUSH1 0x16 PUSH2 0x100 EXP DUP2 SLOAD DUP2 PUSH1 0xFF MUL NOT AND SWAP1 DUP4 PUSH1 0x9 DUP2 GT ISZERO PUSH2 0x1060 JUMPI PUSH2 0x105F PUSH2 0x2D2F JUMP JUMPDEST JUMPDEST MUL OR SWAP1 SSTORE POP PUSH2 0x10EB JUMP JUMPDEST PUSH1 0x1 DUP3 PUSH1 0x1 DUP2 MLOAD DUP2 LT PUSH2 0x1080 JUMPI PUSH2 0x107F PUSH2 0x2D5E JUMP JUMPDEST JUMPDEST PUSH1 0x20 MUL PUSH1 0x20 ADD ADD MLOAD EQ ISZERO PUSH2 0x10BE JUMPI PUSH1 0x7 PUSH1 0x1 PUSH1 0x16 PUSH2 0x100 EXP DUP2 SLOAD DUP2 PUSH1 0xFF MUL NOT AND SWAP1 DUP4 PUSH1 0x9 DUP2 GT ISZERO PUSH2 0x10B4 JUMPI PUSH2 0x10B3 PUSH2 0x2D2F JUMP JUMPDEST JUMPDEST MUL OR SWAP1 SSTORE POP PUSH2 0x10EA JUMP JUMPDEST PUSH1 0x8 PUSH1 0x1 PUSH1 0x16 PUSH2 0x100 EXP DUP2 SLOAD DUP2 PUSH1 0xFF MUL NOT AND SWAP1 DUP4 PUSH1 0x9 DUP2 GT ISZERO PUSH2 0x10E4 JUMPI PUSH2 0x10E3 PUSH2 0x2D2F JUMP JUMPDEST JUMPDEST MUL OR SWAP1 SSTORE POP JUMPDEST JUMPDEST JUMPDEST JUMPDEST DUP1 PUSH1 0x1 PUSH1 0x14 PUSH2 0x100 EXP DUP2 SLOAD DUP2 PUSH1 0xFF MUL NOT AND SWAP1 DUP4 ISZERO ISZERO MUL OR SWAP1 SSTORE POP PUSH1 0x1 DUP1 PUSH1 0x15 PUSH2 0x100 EXP DUP2 SLOAD DUP2 PUSH1 0xFF MUL NOT AND SWAP1 DUP4 ISZERO ISZERO MUL OR SWAP1 SSTORE POP PUSH1 0x1 PUSH1 0x16 SWAP1 SLOAD SWAP1 PUSH2 0x100 EXP SWAP1 DIV PUSH1 0xFF AND PUSH1 0x1 PUSH1 0x14 SWAP1 SLOAD SWAP1 PUSH2 0x100 EXP SWAP1 DIV PUSH1 0xFF AND SWAP8 POP SWAP8 POP POP POP POP POP POP POP SWAP1 SWAP2 JUMP JUMPDEST PUSH1 0x0 PUSH2 0x1159 PUSH2 0x1F95 JUMP JUMPDEST PUSH1 0x1 PUSH1 0x15 SWAP1 SLOAD SWAP1 PUSH2 0x100 EXP SWAP1 DIV PUSH1 0xFF AND PUSH2 0x11A8 JUMPI PUSH1 0x40 MLOAD PUSH32 0x8C379A000000000000000000000000000000000000000000000000000000000 DUP2 MSTORE PUSH1 0x4 ADD PUSH2 0x119F SWAP1 PUSH2 0x2A01 JUMP JUMPDEST PUSH1 0x40 MLOAD DUP1 SWAP2 SUB SWAP1 REVERT JUMPDEST PUSH1 0x1 PUSH1 0x14 SWAP1 SLOAD SWAP1 PUSH2 0x100 EXP SWAP1 DIV PUSH1 0xFF AND PUSH2 0x11F7 JUMPI PUSH1 0x40 MLOAD PUSH32 0x8C379A000000000000000000000000000000000000000000000000000000000 DUP2 MSTORE PUSH1 0x4 ADD PUSH2 0x11EE SWAP1 PUSH2 0x29E1 JUMP JUMPDEST PUSH1 0x40 MLOAD DUP1 SWAP2 SUB SWAP1 REVERT JUMPDEST PUSH1 0x40 MLOAD DUP1 PUSH1 0x40 ADD PUSH1 0x40 MSTORE DUP1 PUSH1 0x5 DUP2 MSTORE PUSH1 0x20 ADD PUSH32 0x3237344141000000000000000000000000000000000000000000000000000000 DUP2 MSTORE POP PUSH1 0x40 MLOAD PUSH1 0x20 ADD PUSH2 0x123D SWAP2 SWAP1 PUSH2 0x28B1 JUMP JUMPDEST PUSH1 0x40 MLOAD PUSH1 0x20 DUP2 DUP4 SUB SUB DUP2 MSTORE SWAP1 PUSH1 0x40 MSTORE DUP1 MLOAD SWAP1 PUSH1 0x20 ADD KECCAK256 DUP3 PUSH1 0x40 MLOAD PUSH1 0x20 ADD PUSH2 0x1264 SWAP2 SWAP1 PUSH2 0x28B1 JUMP JUMPDEST PUSH1 0x40 MLOAD PUSH1 0x20 DUP2 DUP4 SUB SUB DUP2 MSTORE SWAP1 PUSH1 0x40 MSTORE DUP1 MLOAD SWAP1 PUSH1 0x20 ADD KECCAK256 EQ ISZERO PUSH2 0x13B6 JUMPI PUSH1 0x0 PUSH1 0x4 PUSH1 0x9 DUP2 GT ISZERO PUSH2 0x1296 JUMPI PUSH2 0x1295 PUSH2 0x2D2F JUMP JUMPDEST JUMPDEST PUSH1 0x1 PUSH1 0x16 SWAP1 SLOAD SWAP1 PUSH2 0x100 EXP SWAP1 DIV PUSH1 0xFF AND PUSH1 0x9 DUP2 GT ISZERO PUSH2 0x12B8 JUMPI PUSH2 0x12B7 PUSH2 0x2D2F JUMP JUMPDEST JUMPDEST EQ DUP1 PUSH2 0x12F7 JUMPI POP PUSH1 0x3 PUSH1 0x9 DUP2 GT ISZERO PUSH2 0x12D3 JUMPI PUSH2 0x12D2 PUSH2 0x2D2F JUMP JUMPDEST JUMPDEST PUSH1 0x1 PUSH1 0x16 SWAP1 SLOAD SWAP1 PUSH2 0x100 EXP SWAP1 DIV PUSH1 0xFF AND PUSH1 0x9 DUP2 GT ISZERO PUSH2 0x12F5 JUMPI PUSH2 0x12F4 PUSH2 0x2D2F JUMP JUMPDEST JUMPDEST EQ JUMPDEST DUP1 PUSH2 0x1335 JUMPI POP PUSH1 0x0 PUSH1 0x9 DUP2 GT ISZERO PUSH2 0x1311 JUMPI PUSH2 0x1310 PUSH2 0x2D2F JUMP JUMPDEST JUMPDEST PUSH1 0x1 PUSH1 0x16 SWAP1 SLOAD SWAP1 PUSH2 0x100 EXP SWAP1 DIV PUSH1 0xFF AND PUSH1 0x9 DUP2 GT ISZERO PUSH2 0x1333 JUMPI PUSH2 0x1332 PUSH2 0x2D2F JUMP JUMPDEST JUMPDEST EQ JUMPDEST DUP1 PUSH2 0x1372 JUMPI POP PUSH1 0x9 DUP1 DUP2 GT ISZERO PUSH2 0x134E JUMPI PUSH2 0x134D PUSH2 0x2D2F JUMP JUMPDEST JUMPDEST PUSH1 0x1 PUSH1 0x16 SWAP1 SLOAD SWAP1 PUSH2 0x100 EXP SWAP1 DIV PUSH1 0xFF AND PUSH1 0x9 DUP2 GT ISZERO PUSH2 0x1370 JUMPI PUSH2 0x136F PUSH2 0x2D2F JUMP JUMPDEST JUMPDEST EQ JUMPDEST SWAP1 POP DUP1 PUSH2 0x13B4 JUMPI PUSH1 0x40 MLOAD PUSH32 0x8C379A000000000000000000000000000000000000000000000000000000000 DUP2 MSTORE PUSH1 0x4 ADD PUSH2 0x13AB SWAP1 PUSH2 0x2A41 JUMP JUMPDEST PUSH1 0x40 MLOAD DUP1 SWAP2 SUB SWAP1 REVERT JUMPDEST POP JUMPDEST PUSH1 0x40 MLOAD DUP1 PUSH1 0x40 ADD PUSH1 0x40 MSTORE DUP1 PUSH1 0x5 DUP2 MSTORE PUSH1 0x20 ADD PUSH32 0x3234354141000000000000000000000000000000000000000000000000000000 DUP2 MSTORE POP PUSH1 0x40 MLOAD PUSH1 0x20 ADD PUSH2 0x13FC SWAP2 SWAP1 PUSH2 0x28B1 JUMP JUMPDEST PUSH1 0x40 MLOAD PUSH1 0x20 DUP2 DUP4 SUB SUB DUP2 MSTORE SWAP1 PUSH1 0x40 MSTORE DUP1 MLOAD SWAP1 PUSH1 0x20 ADD KECCAK256 DUP3 PUSH1 0x40 MLOAD PUSH1 0x20 ADD PUSH2 0x1423 SWAP2 SWAP1 PUSH2 0x28B1 JUMP JUMPDEST PUSH1 0x40 MLOAD PUSH1 0x20 DUP2 DUP4 SUB SUB DUP2 MSTORE SWAP1 PUSH1 0x40 MSTORE DUP1 MLOAD SWAP1 PUSH1 0x20 ADD KECCAK256 EQ ISZERO PUSH2 0x1575 JUMPI PUSH1 0x0 PUSH1 0x2 PUSH1 0x9 DUP2 GT ISZERO PUSH2 0x1455 JUMPI PUSH2 0x1454 PUSH2 0x2D2F JUMP JUMPDEST JUMPDEST PUSH1 0x1 PUSH1 0x16 SWAP1 SLOAD SWAP1 PUSH2 0x100 EXP SWAP1 DIV PUSH1 0xFF AND PUSH1 0x9 DUP2 GT ISZERO PUSH2 0x1477 JUMPI PUSH2 0x1476 PUSH2 0x2D2F JUMP JUMPDEST JUMPDEST EQ DUP1 PUSH2 0x14B6 JUMPI POP PUSH1 0x1 PUSH1 0x9 DUP2 GT ISZERO PUSH2 0x1492 JUMPI PUSH2 0x1491 PUSH2 0x2D2F JUMP JUMPDEST JUMPDEST PUSH1 0x1 PUSH1 0x16 SWAP1 SLOAD SWAP1 PUSH2 0x100 EXP SWAP1 DIV PUSH1 0xFF AND PUSH1 0x9 DUP2 GT ISZERO PUSH2 0x14B4 JUMPI PUSH2 0x14B3 PUSH2 0x2D2F JUMP JUMPDEST JUMPDEST EQ JUMPDEST DUP1 PUSH2 0x14F4 JUMPI POP PUSH1 0x0 PUSH1 0x9 DUP2 GT ISZERO PUSH2 0x14D0 JUMPI PUSH2 0x14CF PUSH2 0x2D2F JUMP JUMPDEST JUMPDEST PUSH1 0x1 PUSH1 0x16 SWAP1 SLOAD SWAP1 PUSH2 0x100 EXP SWAP1 DIV PUSH1 0xFF AND PUSH1 0x9 DUP2 GT ISZERO PUSH2 0x14F2 JUMPI PUSH2 0x14F1 PUSH2 0x2D2F JUMP JUMPDEST JUMPDEST EQ JUMPDEST DUP1 PUSH2 0x1531 JUMPI POP PUSH1 0x9 DUP1 DUP2 GT ISZERO PUSH2 0x150D JUMPI PUSH2 0x150C PUSH2 0x2D2F JUMP JUMPDEST JUMPDEST PUSH1 0x1 PUSH1 0x16 SWAP1 SLOAD SWAP1 PUSH2 0x100 EXP SWAP1 DIV PUSH1 0xFF AND PUSH1 0x9 DUP2 GT ISZERO PUSH2 0x152F JUMPI PUSH2 0x152E PUSH2 0x2D2F JUMP JUMPDEST JUMPDEST EQ JUMPDEST SWAP1 POP DUP1 PUSH2 0x1573 JUMPI PUSH1 0x40 MLOAD PUSH32 0x8C379A000000000000000000000000000000000000000000000000000000000 DUP2 MSTORE PUSH1 0x4 ADD PUSH2 0x156A SWAP1 PUSH2 0x2A41 JUMP JUMPDEST PUSH1 0x40 MLOAD DUP1 SWAP2 SUB SWAP1 REVERT JUMPDEST POP JUMPDEST PUSH1 0x0 PUSH32 0x3434D8BBB34EED8B97924EEB14DA99F53C1D99BD1EA235C72FA33DB8C61DEE0D SWAP1 POP PUSH1 0x0 DUP2 CALLER DUP6 PUSH1 0x40 MLOAD PUSH1 0x24 ADD PUSH2 0x15B0 SWAP3 SWAP2 SWAP1 PUSH2 0x2910 JUMP JUMPDEST PUSH1 0x40 MLOAD PUSH1 0x20 DUP2 DUP4 SUB SUB DUP2 MSTORE SWAP1 PUSH1 0x40 MSTORE SWAP1 PUSH28 0xFFFFFFFFFFFFFFFFFFFFFFFFFFFFFFFFFFFFFFFFFFFFFFFFFFFFFFFF NOT AND PUSH1 0x20 DUP3 ADD DUP1 MLOAD PUSH28 0xFFFFFFFFFFFFFFFFFFFFFFFFFFFFFFFFFFFFFFFFFFFFFFFFFFFFFFFF DUP4 DUP2 DUP4 AND OR DUP4 MSTORE POP POP POP POP SWAP1 POP PUSH1 0x0 DUP1 PUSH1 0x1 PUSH1 0x0 SWAP1 SLOAD SWAP1 PUSH2 0x100 EXP SWAP1 DIV PUSH20 0xFFFFFFFFFFFFFFFFFFFFFFFFFFFFFFFFFFFFFFFF AND PUSH20 0xFFFFFFFFFFFFFFFFFFFFFFFFFFFFFFFFFFFFFFFF AND DUP4 PUSH1 0x40 MLOAD PUSH2 0x1659 SWAP2 SWAP1 PUSH2 0x289A JUMP JUMPDEST PUSH1 0x0 PUSH1 0x40 MLOAD DUP1 DUP4 SUB DUP2 PUSH1 0x0 DUP7 GAS CALL SWAP2 POP POP RETURNDATASIZE DUP1 PUSH1 0x0 DUP2 EQ PUSH2 0x1696 JUMPI PUSH1 0x40 MLOAD SWAP2 POP PUSH1 0x1F NOT PUSH1 0x3F RETURNDATASIZE ADD AND DUP3 ADD PUSH1 0x40 MSTORE RETURNDATASIZE DUP3 MSTORE RETURNDATASIZE PUSH1 0x0 PUSH1 0x20 DUP5 ADD RETURNDATACOPY PUSH2 0x169B JUMP JUMPDEST PUSH1 0x60 SWAP2 POP JUMPDEST POP SWAP2 POP SWAP2 POP DUP2 PUSH2 0x16E0 JUMPI PUSH1 0x40 MLOAD PUSH32 0x8C379A000000000000000000000000000000000000000000000000000000000 DUP2 MSTORE PUSH1 0x4 ADD PUSH2 0x16D7 SWAP1 PUSH2 0x2AC1 JUMP JUMPDEST PUSH1 0x40 MLOAD DUP1 SWAP2 SUB SWAP1 REVERT JUMPDEST PUSH1 0x0 DUP2 DUP1 PUSH1 0x20 ADD SWAP1 MLOAD DUP2 ADD SWAP1 PUSH2 0x16F6 SWAP2 SWAP1 PUSH2 0x2598 JUMP JUMPDEST SWAP1 POP PUSH1 0x0 DUP2 EQ ISZERO PUSH2 0x173C JUMPI PUSH1 0x40 MLOAD PUSH32 0x8C379A000000000000000000000000000000000000000000000000000000000 DUP2 MSTORE PUSH1 0x4 ADD PUSH2 0x1733 SWAP1 PUSH2 0x2A21 JUMP JUMPDEST PUSH1 0x40 MLOAD DUP1 SWAP2 SUB SWAP1 REVERT JUMPDEST PUSH1 0x1 DUP2 EQ ISZERO PUSH2 0x1780 JUMPI PUSH1 0x40 MLOAD PUSH32 0x8C379A000000000000000000000000000000000000000000000000000000000 DUP2 MSTORE PUSH1 0x4 ADD PUSH2 0x1777 SWAP1 PUSH2 0x2A81 JUMP JUMPDEST PUSH1 0x40 MLOAD DUP1 SWAP2 SUB SWAP1 REVERT JUMPDEST PUSH1 0x40 MLOAD DUP1 PUSH1 0x40 ADD PUSH1 0x40 MSTORE DUP1 PUSH1 0x5 DUP2 MSTORE PUSH1 0x20 ADD PUSH32 0x3237344141000000000000000000000000000000000000000000000000000000 DUP2 MSTORE POP PUSH1 0x40 MLOAD PUSH1 0x20 ADD PUSH2 0x17C6 SWAP2 SWAP1 PUSH2 0x28B1 JUMP JUMPDEST PUSH1 0x40 MLOAD PUSH1 0x20 DUP2 DUP4 SUB SUB DUP2 MSTORE SWAP1 PUSH1 0x40 MSTORE DUP1 MLOAD SWAP1 PUSH1 0x20 ADD KECCAK256 DUP8 PUSH1 0x40 MLOAD PUSH1 0x20 ADD PUSH2 0x17ED SWAP2 SWAP1 PUSH2 0x28B1 JUMP JUMPDEST PUSH1 0x40 MLOAD PUSH1 0x20 DUP2 DUP4 SUB SUB DUP2 MSTORE SWAP1 PUSH1 0x40 MSTORE DUP1 MLOAD SWAP1 PUSH1 0x20 ADD KECCAK256 EQ ISZERO PUSH2 0x194C JUMPI PUSH1 0x4 PUSH1 0x9 DUP2 GT ISZERO PUSH2 0x181D JUMPI PUSH2 0x181C PUSH2 0x2D2F JUMP JUMPDEST JUMPDEST PUSH1 0x1 PUSH1 0x16 SWAP1 SLOAD SWAP1 PUSH2 0x100 EXP SWAP1 DIV PUSH1 0xFF AND PUSH1 0x9 DUP2 GT ISZERO PUSH2 0x183F JUMPI PUSH2 0x183E PUSH2 0x2D2F JUMP JUMPDEST JUMPDEST EQ ISZERO PUSH2 0x1875 JUMPI PUSH1 0x8 PUSH1 0x1 PUSH1 0x16 PUSH2 0x100 EXP DUP2 SLOAD DUP2 PUSH1 0xFF MUL NOT AND SWAP1 DUP4 PUSH1 0x9 DUP2 GT ISZERO PUSH2 0x186B JUMPI PUSH2 0x186A PUSH2 0x2D2F JUMP JUMPDEST JUMPDEST MUL OR SWAP1 SSTORE POP PUSH2 0x194B JUMP JUMPDEST PUSH1 0x3 PUSH1 0x9 DUP2 GT ISZERO PUSH2 0x1889 JUMPI PUSH2 0x1888 PUSH2 0x2D2F JUMP JUMPDEST JUMPDEST PUSH1 0x1 PUSH1 0x16 SWAP1 SLOAD SWAP1 PUSH2 0x100 EXP SWAP1 DIV PUSH1 0xFF AND PUSH1 0x9 DUP2 GT ISZERO PUSH2 0x18AB JUMPI PUSH2 0x18AA PUSH2 0x2D2F JUMP JUMPDEST JUMPDEST EQ ISZERO PUSH2 0x18E1 JUMPI PUSH1 0x7 PUSH1 0x1 PUSH1 0x16 PUSH2 0x100 EXP DUP2 SLOAD DUP2 PUSH1 0xFF MUL NOT AND SWAP1 DUP4 PUSH1 0x9 DUP2 GT ISZERO PUSH2 0x18D7 JUMPI PUSH2 0x18D6 PUSH2 0x2D2F JUMP JUMPDEST JUMPDEST MUL OR SWAP1 SSTORE POP PUSH2 0x194A JUMP JUMPDEST PUSH1 0x0 PUSH1 0x9 DUP2 GT ISZERO PUSH2 0x18F5 JUMPI PUSH2 0x18F4 PUSH2 0x2D2F JUMP JUMPDEST JUMPDEST PUSH1 0x1 PUSH1 0x16 SWAP1 SLOAD SWAP1 PUSH2 0x100 EXP SWAP1 DIV PUSH1 0xFF AND PUSH1 0x9 DUP2 GT ISZERO PUSH2 0x1917 JUMPI PUSH2 0x1916 PUSH2 0x2D2F JUMP JUMPDEST JUMPDEST EQ ISZERO PUSH2 0x1949 JUMPI PUSH1 0x2 PUSH1 0x1 PUSH1 0x16 PUSH2 0x100 EXP DUP2 SLOAD DUP2 PUSH1 0xFF MUL NOT AND SWAP1 DUP4 PUSH1 0x9 DUP2 GT ISZERO PUSH2 0x1943 JUMPI PUSH2 0x1942 PUSH2 0x2D2F JUMP JUMPDEST JUMPDEST MUL OR SWAP1 SSTORE POP JUMPDEST JUMPDEST JUMPDEST JUMPDEST PUSH1 0x40 MLOAD DUP1 PUSH1 0x40 ADD PUSH1 0x40 MSTORE DUP1 PUSH1 0x5 DUP2 MSTORE PUSH1 0x20 ADD PUSH32 0x3234354141000000000000000000000000000000000000000000000000000000 DUP2 MSTORE POP PUSH1 0x40 MLOAD PUSH1 0x20 ADD PUSH2 0x1992 SWAP2 SWAP1 PUSH2 0x28B1 JUMP JUMPDEST PUSH1 0x40 MLOAD PUSH1 0x20 DUP2 DUP4 SUB SUB DUP2 MSTORE SWAP1 PUSH1 0x40 MSTORE DUP1 MLOAD SWAP1 PUSH1 0x20 ADD KECCAK256 DUP8 PUSH1 0x40 MLOAD PUSH1 0x20 ADD PUSH2 0x19B9 SWAP2 SWAP1 PUSH2 0x28B1 JUMP JUMPDEST PUSH1 0x40 MLOAD PUSH1 0x20 DUP2 DUP4 SUB SUB DUP2 MSTORE SWAP1 PUSH1 0x40 MSTORE DUP1 MLOAD SWAP1 PUSH1 0x20 ADD KECCAK256 EQ ISZERO PUSH2 0x1B18 JUMPI PUSH1 0x2 PUSH1 0x9 DUP2 GT ISZERO PUSH2 0x19E9 JUMPI PUSH2 0x19E8 PUSH2 0x2D2F JUMP JUMPDEST JUMPDEST PUSH1 0x1 PUSH1 0x16 SWAP1 SLOAD SWAP1 PUSH2 0x100 EXP SWAP1 DIV PUSH1 0xFF AND PUSH1 0x9 DUP2 GT ISZERO PUSH2 0x1A0B JUMPI PUSH2 0x1A0A PUSH2 0x2D2F JUMP JUMPDEST JUMPDEST EQ ISZERO PUSH2 0x1A41 JUMPI PUSH1 0x8 PUSH1 0x1 PUSH1 0x16 PUSH2 0x100 EXP DUP2 SLOAD DUP2 PUSH1 0xFF MUL NOT AND SWAP1 DUP4 PUSH1 0x9 DUP2 GT ISZERO PUSH2 0x1A37 JUMPI PUSH2 0x1A36 PUSH2 0x2D2F JUMP JUMPDEST JUMPDEST MUL OR SWAP1 SSTORE POP PUSH2 0x1B17 JUMP JUMPDEST PUSH1 0x1 PUSH1 0x9 DUP2 GT ISZERO PUSH2 0x1A55 JUMPI PUSH2 0x1A54 PUSH2 0x2D2F JUMP JUMPDEST JUMPDEST PUSH1 0x1 PUSH1 0x16 SWAP1 SLOAD SWAP1 PUSH2 0x100 EXP SWAP1 DIV PUSH1 0xFF AND PUSH1 0x9 DUP2 GT ISZERO PUSH2 0x1A77 JUMPI PUSH2 0x1A76 PUSH2 0x2D2F JUMP JUMPDEST JUMPDEST EQ ISZERO PUSH2 0x1AAD JUMPI PUSH1 0x6 PUSH1 0x1 PUSH1 0x16 PUSH2 0x100 EXP DUP2 SLOAD DUP2 PUSH1 0xFF MUL NOT AND SWAP1 DUP4 PUSH1 0x9 DUP2 GT ISZERO PUSH2 0x1AA3 JUMPI PUSH2 0x1AA2 PUSH2 0x2D2F JUMP JUMPDEST JUMPDEST MUL OR SWAP1 SSTORE POP PUSH2 0x1B16 JUMP JUMPDEST PUSH1 0x0 PUSH1 0x9 DUP2 GT ISZERO PUSH2 0x1AC1 JUMPI PUSH2 0x1AC0 PUSH2 0x2D2F JUMP JUMPDEST JUMPDEST PUSH1 0x1 PUSH1 0x16 SWAP1 SLOAD SWAP1 PUSH2 0x100 EXP SWAP1 DIV PUSH1 0xFF AND PUSH1 0x9 DUP2 GT ISZERO PUSH2 0x1AE3 JUMPI PUSH2 0x1AE2 PUSH2 0x2D2F JUMP JUMPDEST JUMPDEST EQ ISZERO PUSH2 0x1B15 JUMPI PUSH1 0x4 PUSH1 0x1 PUSH1 0x16 PUSH2 0x100 EXP DUP2 SLOAD DUP2 PUSH1 0xFF MUL NOT AND SWAP1 DUP4 PUSH1 0x9 DUP2 GT ISZERO PUSH2 0x1B0F JUMPI PUSH2 0x1B0E PUSH2 0x2D2F JUMP JUMPDEST JUMPDEST MUL OR SWAP1 SSTORE POP JUMPDEST JUMPDEST JUMPDEST JUMPDEST PUSH1 0x1 PUSH1 0x16 SWAP1 SLOAD SWAP1 PUSH2 0x100 EXP SWAP1 DIV PUSH1 0xFF AND SWAP6 POP POP POP POP POP POP SWAP2 SWAP1 POP JUMP JUMPDEST PUSH1 0x60 PUSH1 0x0 PUSH2 0x1B41 DUP4 PUSH2 0x2013 JUMP JUMPDEST PUSH1 0x40 MLOAD PUSH1 0x20 ADD PUSH2 0x1B51 SWAP2 SWAP1 PUSH2 0x28C8 JUMP JUMPDEST PUSH1 0x40 MLOAD PUSH1 0x20 DUP2 DUP4 SUB SUB DUP2 MSTORE SWAP1 PUSH1 0x40 MSTORE SWAP1 POP DUP1 SWAP2 POP POP SWAP2 SWAP1 POP JUMP JUMPDEST PUSH2 0x1B73 PUSH2 0x1F95 JUMP JUMPDEST PUSH1 0x1 PUSH1 0x15 SWAP1 SLOAD SWAP1 PUSH2 0x100 EXP SWAP1 DIV PUSH1 0xFF AND PUSH2 0x1BC2 JUMPI PUSH1 0x40 MLOAD PUSH32 0x8C379A000000000000000000000000000000000000000000000000000000000 DUP2 MSTORE PUSH1 0x4 ADD PUSH2 0x1BB9 SWAP1 PUSH2 0x2A01 JUMP JUMPDEST PUSH1 0x40 MLOAD DUP1 SWAP2 SUB SWAP1 REVERT JUMPDEST PUSH1 0x1 PUSH1 0x14 SWAP1 SLOAD SWAP1 PUSH2 0x100 EXP SWAP1 DIV PUSH1 0xFF AND ISZERO PUSH2 0x1C12 JUMPI PUSH1 0x40 MLOAD PUSH32 0x8C379A000000000000000000000000000000000000000000000000000000000 DUP2 MSTORE PUSH1 0x4 ADD PUSH2 0x1C09 SWAP1 PUSH2 0x2A61 JUMP JUMPDEST PUSH1 0x40 MLOAD DUP1 SWAP2 SUB SWAP1 REVERT JUMPDEST PUSH1 0x0 PUSH32 0x68A4C8B7FA28353759C6C101E468A9B01F4622C7104770999259B696A52FF1FD SWAP1 POP PUSH1 0x0 DUP2 CALLER PUSH1 0x40 MLOAD PUSH1 0x24 ADD PUSH2 0x1C4B SWAP2 SWAP1 PUSH2 0x28F5 JUMP JUMPDEST PUSH1 0x40 MLOAD PUSH1 0x20 DUP2 DUP4 SUB SUB DUP2 MSTORE SWAP1 PUSH1 0x40 MSTORE SWAP1 PUSH28 0xFFFFFFFFFFFFFFFFFFFFFFFFFFFFFFFFFFFFFFFFFFFFFFFFFFFFFFFF NOT AND PUSH1 0x20 DUP3 ADD DUP1 MLOAD PUSH28 0xFFFFFFFFFFFFFFFFFFFFFFFFFFFFFFFFFFFFFFFFFFFFFFFFFFFFFFFF DUP4 DUP2 DUP4 AND OR DUP4 MSTORE POP POP POP POP SWAP1 POP PUSH1 0x0 DUP1 PUSH1 0x1 PUSH1 0x0 SWAP1 SLOAD SWAP1 PUSH2 0x100 EXP SWAP1 DIV PUSH20 0xFFFFFFFFFFFFFFFFFFFFFFFFFFFFFFFFFFFFFFFF AND PUSH20 0xFFFFFFFFFFFFFFFFFFFFFFFFFFFFFFFFFFFFFFFF AND DUP4 PUSH1 0x40 MLOAD PUSH2 0x1CF4 SWAP2 SWAP1 PUSH2 0x289A JUMP JUMPDEST PUSH1 0x0 PUSH1 0x40 MLOAD DUP1 DUP4 SUB DUP2 PUSH1 0x0 DUP7 GAS CALL SWAP2 POP POP RETURNDATASIZE DUP1 PUSH1 0x0 DUP2 EQ PUSH2 0x1D31 JUMPI PUSH1 0x40 MLOAD SWAP2 POP PUSH1 0x1F NOT PUSH1 0x3F RETURNDATASIZE ADD AND DUP3 ADD PUSH1 0x40 MSTORE RETURNDATASIZE DUP3 MSTORE RETURNDATASIZE PUSH1 0x0 PUSH1 0x20 DUP5 ADD RETURNDATACOPY PUSH2 0x1D36 JUMP JUMPDEST PUSH1 0x60 SWAP2 POP JUMPDEST POP SWAP2 POP SWAP2 POP DUP2 PUSH2 0x1D7B JUMPI PUSH1 0x40 MLOAD PUSH32 0x8C379A000000000000000000000000000000000000000000000000000000000 DUP2 MSTORE PUSH1 0x4 ADD PUSH2 0x1D72 SWAP1 PUSH2 0x2AC1 JUMP JUMPDEST PUSH1 0x40 MLOAD DUP1 SWAP2 SUB SWAP1 REVERT JUMPDEST PUSH1 0x0 DUP2 DUP1 PUSH1 0x20 ADD SWAP1 MLOAD DUP2 ADD SWAP1 PUSH2 0x1D91 SWAP2 SWAP1 PUSH2 0x24F5 JUMP JUMPDEST SWAP1 POP DUP1 PUSH2 0x1DD3 JUMPI PUSH1 0x40 MLOAD PUSH32 0x8C379A000000000000000000000000000000000000000000000000000000000 DUP2 MSTORE PUSH1 0x4 ADD PUSH2 0x1DCA SWAP1 PUSH2 0x2B41 JUMP JUMPDEST PUSH1 0x40 MLOAD DUP1 SWAP2 SUB SWAP1 REVERT JUMPDEST PUSH1 0x1 DUP1 PUSH1 0x14 PUSH2 0x100 EXP DUP2 SLOAD DUP2 PUSH1 0xFF MUL NOT AND SWAP1 DUP4 ISZERO ISZERO MUL OR SWAP1 SSTORE POP POP POP POP POP POP JUMP JUMPDEST PUSH2 0x1DFC PUSH2 0x1F95 JUMP JUMPDEST PUSH2 0x1E06 PUSH1 0x0 PUSH2 0x20EB JUMP JUMPDEST JUMP JUMPDEST PUSH1 0x0 DUP1 PUSH1 0x0 SWAP1 SLOAD SWAP1 PUSH2 0x100 EXP SWAP1 DIV PUSH20 0xFFFFFFFFFFFFFFFFFFFFFFFFFFFFFFFFFFFFFFFF AND SWAP1 POP SWAP1 JUMP JUMPDEST PUSH1 0x1 PUSH1 0x14 SWAP1 SLOAD SWAP1 PUSH2 0x100 EXP SWAP1 DIV PUSH1 0xFF AND DUP2 JUMP JUMPDEST PUSH1 0x1 PUSH1 0x16 SWAP1 SLOAD SWAP1 PUSH2 0x100 EXP SWAP1 DIV PUSH1 0xFF AND DUP2 JUMP JUMPDEST PUSH2 0x1E5F PUSH2 0x1F95 JUMP JUMPDEST DUP1 PUSH20 0xFFFFFFFFFFFFFFFFFFFFFFFFFFFFFFFFFFFFFFFF AND DUP2 PUSH20 0xFFFFFFFFFFFFFFFFFFFFFFFFFFFFFFFFFFFFFFFF AND EQ PUSH2 0x1ECD JUMPI PUSH1 0x40 MLOAD PUSH32 0x8C379A000000000000000000000000000000000000000000000000000000000 DUP2 MSTORE PUSH1 0x4 ADD PUSH2 0x1EC4 SWAP1 PUSH2 0x2B21 JUMP JUMPDEST PUSH1 0x40 MLOAD DUP1 SWAP2 SUB SWAP1 REVERT JUMPDEST DUP1 PUSH1 0x1 PUSH1 0x0 PUSH2 0x100 EXP DUP2 SLOAD DUP2 PUSH20 0xFFFFFFFFFFFFFFFFFFFFFFFFFFFFFFFFFFFFFFFF MUL NOT AND SWAP1 DUP4 PUSH20 0xFFFFFFFFFFFFFFFFFFFFFFFFFFFFFFFFFFFFFFFF AND MUL OR SWAP1 SSTORE POP POP JUMP JUMPDEST PUSH2 0x1F19 PUSH2 0x1F95 JUMP JUMPDEST PUSH1 0x0 PUSH20 0xFFFFFFFFFFFFFFFFFFFFFFFFFFFFFFFFFFFFFFFF AND DUP2 PUSH20 0xFFFFFFFFFFFFFFFFFFFFFFFFFFFFFFFFFFFFFFFF AND EQ ISZERO PUSH2 0x1F89 JUMPI PUSH1 0x40 MLOAD PUSH32 0x8C379A000000000000000000000000000000000000000000000000000000000 DUP2 MSTORE PUSH1 0x4 ADD PUSH2 0x1F80 SWAP1 PUSH2 0x29C1 JUMP JUMPDEST PUSH1 0x40 MLOAD DUP1 SWAP2 SUB SWAP1 REVERT JUMPDEST PUSH2 0x1F92 DUP2 PUSH2 0x20EB JUMP JUMPDEST POP JUMP JUMPDEST PUSH2 0x1F9D PUSH2 0x21AF JUMP JUMPDEST PUSH20 0xFFFFFFFFFFFFFFFFFFFFFFFFFFFFFFFFFFFFFFFF AND PUSH2 0x1FBB PUSH2 0x1E08 JUMP JUMPDEST PUSH20 0xFFFFFFFFFFFFFFFFFFFFFFFFFFFFFFFFFFFFFFFF AND EQ PUSH2 0x2011 JUMPI PUSH1 0x40 MLOAD PUSH32 0x8C379A000000000000000000000000000000000000000000000000000000000 DUP2 MSTORE PUSH1 0x4 ADD PUSH2 0x2008 SWAP1 PUSH2 0x2AA1 JUMP JUMPDEST PUSH1 0x40 MLOAD DUP1 SWAP2 SUB SWAP1 REVERT JUMPDEST JUMP JUMPDEST PUSH1 0x60 PUSH1 0x0 PUSH1 0x1 PUSH2 0x2022 DUP5 PUSH2 0x21B7 JUMP JUMPDEST ADD SWAP1 POP PUSH1 0x0 DUP2 PUSH8 0xFFFFFFFFFFFFFFFF DUP2 GT ISZERO PUSH2 0x2041 JUMPI PUSH2 0x2040 PUSH2 0x2D8D JUMP JUMPDEST JUMPDEST PUSH1 0x40 MLOAD SWAP1 DUP1 DUP3 MSTORE DUP1 PUSH1 0x1F ADD PUSH1 0x1F NOT AND PUSH1 0x20 ADD DUP3 ADD PUSH1 0x40 MSTORE DUP1 ISZERO PUSH2 0x2073 JUMPI DUP2 PUSH1 0x20 ADD PUSH1 0x1 DUP3 MUL DUP1 CALLDATASIZE DUP4 CALLDATACOPY DUP1 DUP3 ADD SWAP2 POP POP SWAP1 POP JUMPDEST POP SWAP1 POP PUSH1 0x0 DUP3 PUSH1 0x20 ADD DUP3 ADD SWAP1 POP JUMPDEST PUSH1 0x1 ISZERO PUSH2 0x20E0 JUMPI DUP1 DUP1 PUSH1 0x1 SWAP1 SUB SWAP2 POP POP PUSH32 0x3031323334353637383961626364656600000000000000000000000000000000 PUSH1 0xA DUP7 MOD BYTE DUP2 MSTORE8 PUSH1 0xA DUP6 DUP2 PUSH2 0x20CA JUMPI PUSH2 0x20C9 PUSH2 0x2D00 JUMP JUMPDEST JUMPDEST DIV SWAP5 POP PUSH1 0x0 DUP6 EQ ISZERO PUSH2 0x20DB JUMPI PUSH2 0x20E0 JUMP JUMPDEST PUSH2 0x2081 JUMP JUMPDEST DUP2 SWAP4 POP POP POP POP SWAP2 SWAP1 POP JUMP JUMPDEST PUSH1 0x0 DUP1 PUSH1 0x0 SWAP1 SLOAD SWAP1 PUSH2 0x100 EXP SWAP1 DIV PUSH20 0xFFFFFFFFFFFFFFFFFFFFFFFFFFFFFFFFFFFFFFFF AND SWAP1 POP DUP2 PUSH1 0x0 DUP1 PUSH2 0x100 EXP DUP2 SLOAD DUP2 PUSH20 0xFFFFFFFFFFFFFFFFFFFFFFFFFFFFFFFFFFFFFFFF MUL NOT AND SWAP1 DUP4 PUSH20 0xFFFFFFFFFFFFFFFFFFFFFFFFFFFFFFFFFFFFFFFF AND MUL OR SWAP1 SSTORE POP DUP2 PUSH20 0xFFFFFFFFFFFFFFFFFFFFFFFFFFFFFFFFFFFFFFFF AND DUP2 PUSH20 0xFFFFFFFFFFFFFFFFFFFFFFFFFFFFFFFFFFFFFFFF AND PUSH32 0x8BE0079C531659141344CD1FD0A4F28419497F9722A3DAAFE3B4186F6B6457E0 PUSH1 0x40 MLOAD PUSH1 0x40 MLOAD DUP1 SWAP2 SUB SWAP1 LOG3 POP POP JUMP JUMPDEST PUSH1 0x0 CALLER SWAP1 POP SWAP1 JUMP JUMPDEST PUSH1 0x0 DUP1 PUSH1 0x0 SWAP1 POP PUSH27 0x184F03E93FF9F4DAA797ED6E38ED64BF6A1F010000000000000000 DUP4 LT PUSH2 0x2215 JUMPI PUSH27 0x184F03E93FF9F4DAA797ED6E38ED64BF6A1F010000000000000000 DUP4 DUP2 PUSH2 0x220B JUMPI PUSH2 0x220A PUSH2 0x2D00 JUMP JUMPDEST JUMPDEST DIV SWAP3 POP PUSH1 0x40 DUP2 ADD SWAP1 POP JUMPDEST PUSH14 0x4EE2D6D415B85ACEF8100000000 DUP4 LT PUSH2 0x2252 JUMPI PUSH14 0x4EE2D6D415B85ACEF8100000000 DUP4 DUP2 PUSH2 0x2248 JUMPI PUSH2 0x2247 PUSH2 0x2D00 JUMP JUMPDEST JUMPDEST DIV SWAP3 POP PUSH1 0x20 DUP2 ADD SWAP1 POP JUMPDEST PUSH7 0x2386F26FC10000 DUP4 LT PUSH2 0x2281 JUMPI PUSH7 0x2386F26FC10000 DUP4 DUP2 PUSH2 0x2277 JUMPI PUSH2 0x2276 PUSH2 0x2D00 JUMP JUMPDEST JUMPDEST DIV SWAP3 POP PUSH1 0x10 DUP2 ADD SWAP1 POP JUMPDEST PUSH4 0x5F5E100 DUP4 LT PUSH2 0x22AA JUMPI PUSH4 0x5F5E100 DUP4 DUP2 PUSH2 0x22A0 JUMPI PUSH2 0x229F PUSH2 0x2D00 JUMP JUMPDEST JUMPDEST DIV SWAP3 POP PUSH1 0x8 DUP2 ADD SWAP1 POP JUMPDEST PUSH2 0x2710 DUP4 LT PUSH2 0x22CF JUMPI PUSH2 0x2710 DUP4 DUP2 PUSH2 0x22C5 JUMPI PUSH2 0x22C4 PUSH2 0x2D00 JUMP JUMPDEST JUMPDEST DIV SWAP3 POP PUSH1 0x4 DUP2 ADD SWAP1 POP JUMPDEST PUSH1 0x64 DUP4 LT PUSH2 0x22F2 JUMPI PUSH1 0x64 DUP4 DUP2 PUSH2 0x22E8 JUMPI PUSH2 0x22E7 PUSH2 0x2D00 JUMP JUMPDEST JUMPDEST DIV SWAP3 POP PUSH1 0x2 DUP2 ADD SWAP1 POP JUMPDEST PUSH1 0xA DUP4 LT PUSH2 0x2301 JUMPI PUSH1 0x1 DUP2 ADD SWAP1 POP JUMPDEST DUP1 SWAP2 POP POP SWAP2 SWAP1 POP JUMP JUMPDEST PUSH1 0x0 PUSH2 0x231D PUSH2 0x2318 DUP5 PUSH2 0x2B86 JUMP JUMPDEST PUSH2 0x2B61 JUMP JUMPDEST SWAP1 POP DUP1 DUP4 DUP3 MSTORE PUSH1 0x20 DUP3 ADD SWAP1 POP DUP3 DUP6 PUSH1 0x20 DUP7 MUL DUP3 ADD GT ISZERO PUSH2 0x2340 JUMPI PUSH2 0x233F PUSH2 0x2DC1 JUMP JUMPDEST JUMPDEST PUSH1 0x0 JUMPDEST DUP6 DUP2 LT ISZERO PUSH2 0x2370 JUMPI DUP2 PUSH2 0x2356 DUP9 DUP3 PUSH2 0x2457 JUMP JUMPDEST DUP5 MSTORE PUSH1 0x20 DUP5 ADD SWAP4 POP PUSH1 0x20 DUP4 ADD SWAP3 POP POP PUSH1 0x1 DUP2 ADD SWAP1 POP PUSH2 0x2343 JUMP JUMPDEST POP POP POP SWAP4 SWAP3 POP POP POP JUMP JUMPDEST PUSH1 0x0 PUSH2 0x238D PUSH2 0x2388 DUP5 PUSH2 0x2BB2 JUMP JUMPDEST PUSH2 0x2B61 JUMP JUMPDEST SWAP1 POP DUP3 DUP2 MSTORE PUSH1 0x20 DUP2 ADD DUP5 DUP5 DUP5 ADD GT ISZERO PUSH2 0x23A9 JUMPI PUSH2 0x23A8 PUSH2 0x2DC6 JUMP JUMPDEST JUMPDEST PUSH2 0x23B4 DUP5 DUP3 DUP6 PUSH2 0x2C8D JUMP JUMPDEST POP SWAP4 SWAP3 POP POP POP JUMP JUMPDEST PUSH1 0x0 DUP2 CALLDATALOAD SWAP1 POP PUSH2 0x23CB DUP2 PUSH2 0x311F JUMP JUMPDEST SWAP3 SWAP2 POP POP JUMP JUMPDEST PUSH1 0x0 DUP3 PUSH1 0x1F DUP4 ADD SLT PUSH2 0x23E6 JUMPI PUSH2 0x23E5 PUSH2 0x2DBC JUMP JUMPDEST JUMPDEST DUP2 MLOAD PUSH2 0x23F6 DUP5 DUP3 PUSH1 0x20 DUP7 ADD PUSH2 0x230A JUMP JUMPDEST SWAP2 POP POP SWAP3 SWAP2 POP POP JUMP JUMPDEST PUSH1 0x0 DUP2 MLOAD SWAP1 POP PUSH2 0x240E DUP2 PUSH2 0x3136 JUMP JUMPDEST SWAP3 SWAP2 POP POP JUMP JUMPDEST PUSH1 0x0 DUP3 PUSH1 0x1F DUP4 ADD SLT PUSH2 0x2429 JUMPI PUSH2 0x2428 PUSH2 0x2DBC JUMP JUMPDEST JUMPDEST DUP2 CALLDATALOAD PUSH2 0x2439 DUP5 DUP3 PUSH1 0x20 DUP7 ADD PUSH2 0x237A JUMP JUMPDEST SWAP2 POP POP SWAP3 SWAP2 POP POP JUMP JUMPDEST PUSH1 0x0 DUP2 CALLDATALOAD SWAP1 POP PUSH2 0x2451 DUP2 PUSH2 0x314D JUMP JUMPDEST SWAP3 SWAP2 POP POP JUMP JUMPDEST PUSH1 0x0 DUP2 MLOAD SWAP1 POP PUSH2 0x2466 DUP2 PUSH2 0x314D JUMP JUMPDEST SWAP3 SWAP2 POP POP JUMP JUMPDEST PUSH1 0x0 PUSH1 0x20 DUP3 DUP5 SUB SLT ISZERO PUSH2 0x2482 JUMPI PUSH2 0x2481 PUSH2 0x2DD0 JUMP JUMPDEST JUMPDEST PUSH1 0x0 PUSH2 0x2490 DUP5 DUP3 DUP6 ADD PUSH2 0x23BC JUMP JUMPDEST SWAP2 POP POP SWAP3 SWAP2 POP POP JUMP JUMPDEST PUSH1 0x0 DUP1 PUSH1 0x40 DUP4 DUP6 SUB SLT ISZERO PUSH2 0x24B0 JUMPI PUSH2 0x24AF PUSH2 0x2DD0 JUMP JUMPDEST JUMPDEST PUSH1 0x0 DUP4 ADD MLOAD PUSH8 0xFFFFFFFFFFFFFFFF DUP2 GT ISZERO PUSH2 0x24CE JUMPI PUSH2 0x24CD PUSH2 0x2DCB JUMP JUMPDEST JUMPDEST PUSH2 0x24DA DUP6 DUP3 DUP7 ADD PUSH2 0x23D1 JUMP JUMPDEST SWAP3 POP POP PUSH1 0x20 PUSH2 0x24EB DUP6 DUP3 DUP7 ADD PUSH2 0x23FF JUMP JUMPDEST SWAP2 POP POP SWAP3 POP SWAP3 SWAP1 POP JUMP JUMPDEST PUSH1 0x0 PUSH1 0x20 DUP3 DUP5 SUB SLT ISZERO PUSH2 0x250B JUMPI PUSH2 0x250A PUSH2 0x2DD0 JUMP JUMPDEST JUMPDEST PUSH1 0x0 PUSH2 0x2519 DUP5 DUP3 DUP6 ADD PUSH2 0x23FF JUMP JUMPDEST SWAP2 POP POP SWAP3 SWAP2 POP POP JUMP JUMPDEST PUSH1 0x0 PUSH1 0x20 DUP3 DUP5 SUB SLT ISZERO PUSH2 0x2538 JUMPI PUSH2 0x2537 PUSH2 0x2DD0 JUMP JUMPDEST JUMPDEST PUSH1 0x0 DUP3 ADD CALLDATALOAD PUSH8 0xFFFFFFFFFFFFFFFF DUP2 GT ISZERO PUSH2 0x2556 JUMPI PUSH2 0x2555 PUSH2 0x2DCB JUMP JUMPDEST JUMPDEST PUSH2 0x2562 DUP5 DUP3 DUP6 ADD PUSH2 0x2414 JUMP JUMPDEST SWAP2 POP POP SWAP3 SWAP2 POP POP JUMP JUMPDEST PUSH1 0x0 PUSH1 0x20 DUP3 DUP5 SUB SLT ISZERO PUSH2 0x2581 JUMPI PUSH2 0x2580 PUSH2 0x2DD0 JUMP JUMPDEST JUMPDEST PUSH1 0x0 PUSH2 0x258F DUP5 DUP3 DUP6 ADD PUSH2 0x2442 JUMP JUMPDEST SWAP2 POP POP SWAP3 SWAP2 POP POP JUMP JUMPDEST PUSH1 0x0 PUSH1 0x20 DUP3 DUP5 SUB SLT ISZERO PUSH2 0x25AE JUMPI PUSH2 0x25AD PUSH2 0x2DD0 JUMP JUMPDEST JUMPDEST PUSH1 0x0 PUSH2 0x25BC DUP5 DUP3 DUP6 ADD PUSH2 0x2457 JUMP JUMPDEST SWAP2 POP POP SWAP3 SWAP2 POP POP JUMP JUMPDEST PUSH2 0x25CE DUP2 PUSH2 0x2C20 JUMP JUMPDEST DUP3 MSTORE POP POP JUMP JUMPDEST PUSH2 0x25DD DUP2 PUSH2 0x2C32 JUMP JUMPDEST DUP3 MSTORE POP POP JUMP JUMPDEST PUSH1 0x0 PUSH2 0x25EE DUP3 PUSH2 0x2BE3 JUMP JUMPDEST PUSH2 0x25F8 DUP2 DUP6 PUSH2 0x2BF9 JUMP JUMPDEST SWAP4 POP PUSH2 0x2608 DUP2 DUP6 PUSH1 0x20 DUP7 ADD PUSH2 0x2C9C JUMP JUMPDEST DUP1 DUP5 ADD SWAP2 POP POP SWAP3 SWAP2 POP POP JUMP JUMPDEST PUSH2 0x261D DUP2 PUSH2 0x2C7B JUMP JUMPDEST DUP3 MSTORE POP POP JUMP JUMPDEST PUSH1 0x0 PUSH2 0x262E DUP3 PUSH2 0x2BEE JUMP JUMPDEST PUSH2 0x2638 DUP2 DUP6 PUSH2 0x2C04 JUMP JUMPDEST SWAP4 POP PUSH2 0x2648 DUP2 DUP6 PUSH1 0x20 DUP7 ADD PUSH2 0x2C9C JUMP JUMPDEST PUSH2 0x2651 DUP2 PUSH2 0x2DD5 JUMP JUMPDEST DUP5 ADD SWAP2 POP POP SWAP3 SWAP2 POP POP JUMP JUMPDEST PUSH1 0x0 PUSH2 0x2667 DUP3 PUSH2 0x2BEE JUMP JUMPDEST PUSH2 0x2671 DUP2 DUP6 PUSH2 0x2C15 JUMP JUMPDEST SWAP4 POP PUSH2 0x2681 DUP2 DUP6 PUSH1 0x20 DUP7 ADD PUSH2 0x2C9C JUMP JUMPDEST DUP1 DUP5 ADD SWAP2 POP POP SWAP3 SWAP2 POP POP JUMP JUMPDEST PUSH1 0x0 PUSH2 0x269A PUSH1 0x26 DUP4 PUSH2 0x2C04 JUMP JUMPDEST SWAP2 POP PUSH2 0x26A5 DUP3 PUSH2 0x2DE6 JUMP JUMPDEST PUSH1 0x40 DUP3 ADD SWAP1 POP SWAP2 SWAP1 POP JUMP JUMPDEST PUSH1 0x0 PUSH2 0x26BD PUSH1 0x2D DUP4 PUSH2 0x2C04 JUMP JUMPDEST SWAP2 POP PUSH2 0x26C8 DUP3 PUSH2 0x2E35 JUMP JUMPDEST PUSH1 0x40 DUP3 ADD SWAP1 POP SWAP2 SWAP1 POP JUMP JUMPDEST PUSH1 0x0 PUSH2 0x26E0 PUSH1 0x13 DUP4 PUSH2 0x2C04 JUMP JUMPDEST SWAP2 POP PUSH2 0x26EB DUP3 PUSH2 0x2E84 JUMP JUMPDEST PUSH1 0x20 DUP3 ADD SWAP1 POP SWAP2 SWAP1 POP JUMP JUMPDEST PUSH1 0x0 PUSH2 0x2703 PUSH1 0xF DUP4 PUSH2 0x2C04 JUMP JUMPDEST SWAP2 POP PUSH2 0x270E DUP3 PUSH2 0x2EAD JUMP JUMPDEST PUSH1 0x20 DUP3 ADD SWAP1 POP SWAP2 SWAP1 POP JUMP JUMPDEST PUSH1 0x0 PUSH2 0x2726 PUSH1 0x1E DUP4 PUSH2 0x2C04 JUMP JUMPDEST SWAP2 POP PUSH2 0x2731 DUP3 PUSH2 0x2ED6 JUMP JUMPDEST PUSH1 0x20 DUP3 ADD SWAP1 POP SWAP2 SWAP1 POP JUMP JUMPDEST PUSH1 0x0 PUSH2 0x2749 PUSH1 0x1E DUP4 PUSH2 0x2C04 JUMP JUMPDEST SWAP2 POP PUSH2 0x2754 DUP3 PUSH2 0x2EFF JUMP JUMPDEST PUSH1 0x20 DUP3 ADD SWAP1 POP SWAP2 SWAP1 POP JUMP JUMPDEST PUSH1 0x0 PUSH2 0x276C PUSH1 0x19 DUP4 PUSH2 0x2C04 JUMP JUMPDEST SWAP2 POP PUSH2 0x2777 DUP3 PUSH2 0x2F28 JUMP JUMPDEST PUSH1 0x20 DUP3 ADD SWAP1 POP SWAP2 SWAP1 POP JUMP JUMPDEST PUSH1 0x0 PUSH2 0x278F PUSH1 0x20 DUP4 PUSH2 0x2C04 JUMP JUMPDEST SWAP2 POP PUSH2 0x279A DUP3 PUSH2 0x2F51 JUMP JUMPDEST PUSH1 0x20 DUP3 ADD SWAP1 POP SWAP2 SWAP1 POP JUMP JUMPDEST PUSH1 0x0 PUSH2 0x27B2 PUSH1 0x25 DUP4 PUSH2 0x2C04 JUMP JUMPDEST SWAP2 POP PUSH2 0x27BD DUP3 PUSH2 0x2F7A JUMP JUMPDEST PUSH1 0x40 DUP3 ADD SWAP1 POP SWAP2 SWAP1 POP JUMP JUMPDEST PUSH1 0x0 PUSH2 0x27D5 PUSH1 0x16 DUP4 PUSH2 0x2C04 JUMP JUMPDEST SWAP2 POP PUSH2 0x27E0 DUP3 PUSH2 0x2FC9 JUMP JUMPDEST PUSH1 0x20 DUP3 ADD SWAP1 POP SWAP2 SWAP1 POP JUMP JUMPDEST PUSH1 0x0 PUSH2 0x27F8 PUSH1 0x17 DUP4 PUSH2 0x2C04 JUMP JUMPDEST SWAP2 POP PUSH2 0x2803 DUP3 PUSH2 0x2FF2 JUMP JUMPDEST PUSH1 0x20 DUP3 ADD SWAP1 POP SWAP2 SWAP1 POP JUMP JUMPDEST PUSH1 0x0 PUSH2 0x281B PUSH1 0x4 DUP4 PUSH2 0x2C15 JUMP JUMPDEST SWAP2 POP PUSH2 0x2826 DUP3 PUSH2 0x301B JUMP JUMPDEST PUSH1 0x4 DUP3 ADD SWAP1 POP SWAP2 SWAP1 POP JUMP JUMPDEST PUSH1 0x0 PUSH2 0x283E PUSH1 0x20 DUP4 PUSH2 0x2C04 JUMP JUMPDEST SWAP2 POP PUSH2 0x2849 DUP3 PUSH2 0x3044 JUMP JUMPDEST PUSH1 0x20 DUP3 ADD SWAP1 POP SWAP2 SWAP1 POP JUMP JUMPDEST PUSH1 0x0 PUSH2 0x2861 PUSH1 0x15 DUP4 PUSH2 0x2C04 JUMP JUMPDEST SWAP2 POP PUSH2 0x286C DUP3 PUSH2 0x306D JUMP JUMPDEST PUSH1 0x20 DUP3 ADD SWAP1 POP SWAP2 SWAP1 POP JUMP JUMPDEST PUSH1 0x0 PUSH2 0x2884 PUSH1 0x44 DUP4 PUSH2 0x2C15 JUMP JUMPDEST SWAP2 POP PUSH2 0x288F DUP3 PUSH2 0x3096 JUMP JUMPDEST PUSH1 0x44 DUP3 ADD SWAP1 POP SWAP2 SWAP1 POP JUMP JUMPDEST PUSH1 0x0 PUSH2 0x28A6 DUP3 DUP5 PUSH2 0x25E3 JUMP JUMPDEST SWAP2 POP DUP2 SWAP1 POP SWAP3 SWAP2 POP POP JUMP JUMPDEST PUSH1 0x0 PUSH2 0x28BD DUP3 DUP5 PUSH2 0x265C JUMP JUMPDEST SWAP2 POP DUP2 SWAP1 POP SWAP3 SWAP2 POP POP JUMP JUMPDEST PUSH1 0x0 PUSH2 0x28D3 DUP3 PUSH2 0x2877 JUMP JUMPDEST SWAP2 POP PUSH2 0x28DF DUP3 DUP5 PUSH2 0x265C JUMP JUMPDEST SWAP2 POP PUSH2 0x28EA DUP3 PUSH2 0x280E JUMP JUMPDEST SWAP2 POP DUP2 SWAP1 POP SWAP3 SWAP2 POP POP JUMP JUMPDEST PUSH1 0x0 PUSH1 0x20 DUP3 ADD SWAP1 POP PUSH2 0x290A PUSH1 0x0 DUP4 ADD DUP5 PUSH2 0x25C5 JUMP JUMPDEST SWAP3 SWAP2 POP POP JUMP JUMPDEST PUSH1 0x0 PUSH1 0x40 DUP3 ADD SWAP1 POP PUSH2 0x2925 PUSH1 0x0 DUP4 ADD DUP6 PUSH2 0x25C5 JUMP JUMPDEST DUP2 DUP2 SUB PUSH1 0x20 DUP4 ADD MSTORE PUSH2 0x2937 DUP2 DUP5 PUSH2 0x2623 JUMP JUMPDEST SWAP1 POP SWAP4 SWAP3 POP POP POP JUMP JUMPDEST PUSH1 0x0 PUSH1 0x20 DUP3 ADD SWAP1 POP PUSH2 0x2955 PUSH1 0x0 DUP4 ADD DUP5 PUSH2 0x25D4 JUMP JUMPDEST SWAP3 SWAP2 POP POP JUMP JUMPDEST PUSH1 0x0 PUSH1 0x20 DUP3 ADD SWAP1 POP PUSH2 0x2970 PUSH1 0x0 DUP4 ADD DUP5 PUSH2 0x2614 JUMP JUMPDEST SWAP3 SWAP2 POP POP JUMP JUMPDEST PUSH1 0x0 PUSH1 0x40 DUP3 ADD SWAP1 POP PUSH2 0x298B PUSH1 0x0 DUP4 ADD DUP6 PUSH2 0x2614 JUMP JUMPDEST PUSH2 0x2998 PUSH1 0x20 DUP4 ADD DUP5 PUSH2 0x25D4 JUMP JUMPDEST SWAP4 SWAP3 POP POP POP JUMP JUMPDEST PUSH1 0x0 PUSH1 0x20 DUP3 ADD SWAP1 POP DUP2 DUP2 SUB PUSH1 0x0 DUP4 ADD MSTORE PUSH2 0x29B9 DUP2 DUP5 PUSH2 0x2623 JUMP JUMPDEST SWAP1 POP SWAP3 SWAP2 POP POP JUMP JUMPDEST PUSH1 0x0 PUSH1 0x20 DUP3 ADD SWAP1 POP DUP2 DUP2 SUB PUSH1 0x0 DUP4 ADD MSTORE PUSH2 0x29DA DUP2 PUSH2 0x268D JUMP JUMPDEST SWAP1 POP SWAP2 SWAP1 POP JUMP JUMPDEST PUSH1 0x0 PUSH1 0x20 DUP3 ADD SWAP1 POP DUP2 DUP2 SUB PUSH1 0x0 DUP4 ADD MSTORE PUSH2 0x29FA DUP2 PUSH2 0x26B0 JUMP JUMPDEST SWAP1 POP SWAP2 SWAP1 POP JUMP JUMPDEST PUSH1 0x0 PUSH1 0x20 DUP3 ADD SWAP1 POP DUP2 DUP2 SUB PUSH1 0x0 DUP4 ADD MSTORE PUSH2 0x2A1A DUP2 PUSH2 0x26D3 JUMP JUMPDEST SWAP1 POP SWAP2 SWAP1 POP JUMP JUMPDEST PUSH1 0x0 PUSH1 0x20 DUP3 ADD SWAP1 POP DUP2 DUP2 SUB PUSH1 0x0 DUP4 ADD MSTORE PUSH2 0x2A3A DUP2 PUSH2 0x26F6 JUMP JUMPDEST SWAP1 POP SWAP2 SWAP1 POP JUMP JUMPDEST PUSH1 0x0 PUSH1 0x20 DUP3 ADD SWAP1 POP DUP2 DUP2 SUB PUSH1 0x0 DUP4 ADD MSTORE PUSH2 0x2A5A DUP2 PUSH2 0x2719 JUMP JUMPDEST SWAP1 POP SWAP2 SWAP1 POP JUMP JUMPDEST PUSH1 0x0 PUSH1 0x20 DUP3 ADD SWAP1 POP DUP2 DUP2 SUB PUSH1 0x0 DUP4 ADD MSTORE PUSH2 0x2A7A DUP2 PUSH2 0x273C JUMP JUMPDEST SWAP1 POP SWAP2 SWAP1 POP JUMP JUMPDEST PUSH1 0x0 PUSH1 0x20 DUP3 ADD SWAP1 POP DUP2 DUP2 SUB PUSH1 0x0 DUP4 ADD MSTORE PUSH2 0x2A9A DUP2 PUSH2 0x275F JUMP JUMPDEST SWAP1 POP SWAP2 SWAP1 POP JUMP JUMPDEST PUSH1 0x0 PUSH1 0x20 DUP3 ADD SWAP1 POP DUP2 DUP2 SUB PUSH1 0x0 DUP4 ADD MSTORE PUSH2 0x2ABA DUP2 PUSH2 0x2782 JUMP JUMPDEST SWAP1 POP SWAP2 SWAP1 POP JUMP JUMPDEST PUSH1 0x0 PUSH1 0x20 DUP3 ADD SWAP1 POP DUP2 DUP2 SUB PUSH1 0x0 DUP4 ADD MSTORE PUSH2 0x2ADA DUP2 PUSH2 0x27A5 JUMP JUMPDEST SWAP1 POP SWAP2 SWAP1 POP JUMP JUMPDEST PUSH1 0x0 PUSH1 0x20 DUP3 ADD SWAP1 POP DUP2 DUP2 SUB PUSH1 0x0 DUP4 ADD MSTORE PUSH2 0x2AFA DUP2 PUSH2 0x27C8 JUMP JUMPDEST SWAP1 POP SWAP2 SWAP1 POP JUMP JUMPDEST PUSH1 0x0 PUSH1 0x20 DUP3 ADD SWAP1 POP DUP2 DUP2 SUB PUSH1 0x0 DUP4 ADD MSTORE PUSH2 0x2B1A DUP2 PUSH2 0x27EB JUMP JUMPDEST SWAP1 POP SWAP2 SWAP1 POP JUMP JUMPDEST PUSH1 0x0 PUSH1 0x20 DUP3 ADD SWAP1 POP DUP2 DUP2 SUB PUSH1 0x0 DUP4 ADD MSTORE PUSH2 0x2B3A DUP2 PUSH2 0x2831 JUMP JUMPDEST SWAP1 POP SWAP2 SWAP1 POP JUMP JUMPDEST PUSH1 0x0 PUSH1 0x20 DUP3 ADD SWAP1 POP DUP2 DUP2 SUB PUSH1 0x0 DUP4 ADD MSTORE PUSH2 0x2B5A DUP2 PUSH2 0x2854 JUMP JUMPDEST SWAP1 POP SWAP2 SWAP1 POP JUMP JUMPDEST PUSH1 0x0 PUSH2 0x2B6B PUSH2 0x2B7C JUMP JUMPDEST SWAP1 POP PUSH2 0x2B77 DUP3 DUP3 PUSH2 0x2CCF JUMP JUMPDEST SWAP2 SWAP1 POP JUMP JUMPDEST PUSH1 0x0 PUSH1 0x40 MLOAD SWAP1 POP SWAP1 JUMP JUMPDEST PUSH1 0x0 PUSH8 0xFFFFFFFFFFFFFFFF DUP3 GT ISZERO PUSH2 0x2BA1 JUMPI PUSH2 0x2BA0 PUSH2 0x2D8D JUMP JUMPDEST JUMPDEST PUSH1 0x20 DUP3 MUL SWAP1 POP PUSH1 0x20 DUP2 ADD SWAP1 POP SWAP2 SWAP1 POP JUMP JUMPDEST PUSH1 0x0 PUSH8 0xFFFFFFFFFFFFFFFF DUP3 GT ISZERO PUSH2 0x2BCD JUMPI PUSH2 0x2BCC PUSH2 0x2D8D JUMP JUMPDEST JUMPDEST PUSH2 0x2BD6 DUP3 PUSH2 0x2DD5 JUMP JUMPDEST SWAP1 POP PUSH1 0x20 DUP2 ADD SWAP1 POP SWAP2 SWAP1 POP JUMP JUMPDEST PUSH1 0x0 DUP2 MLOAD SWAP1 POP SWAP2 SWAP1 POP JUMP JUMPDEST PUSH1 0x0 DUP2 MLOAD SWAP1 POP SWAP2 SWAP1 POP JUMP JUMPDEST PUSH1 0x0 DUP2 SWAP1 POP SWAP3 SWAP2 POP POP JUMP JUMPDEST PUSH1 0x0 DUP3 DUP3 MSTORE PUSH1 0x20 DUP3 ADD SWAP1 POP SWAP3 SWAP2 POP POP JUMP JUMPDEST PUSH1 0x0 DUP2 SWAP1 POP SWAP3 SWAP2 POP POP JUMP JUMPDEST PUSH1 0x0 PUSH2 0x2C2B DUP3 PUSH2 0x2C51 JUMP JUMPDEST SWAP1 POP SWAP2 SWAP1 POP JUMP JUMPDEST PUSH1 0x0 DUP2 ISZERO ISZERO SWAP1 POP SWAP2 SWAP1 POP JUMP JUMPDEST PUSH1 0x0 DUP2 SWAP1 POP PUSH2 0x2C4C DUP3 PUSH2 0x310B JUMP JUMPDEST SWAP2 SWAP1 POP JUMP JUMPDEST PUSH1 0x0 PUSH20 0xFFFFFFFFFFFFFFFFFFFFFFFFFFFFFFFFFFFFFFFF DUP3 AND SWAP1 POP SWAP2 SWAP1 POP JUMP JUMPDEST PUSH1 0x0 DUP2 SWAP1 POP SWAP2 SWAP1 POP JUMP JUMPDEST PUSH1 0x0 PUSH2 0x2C86 DUP3 PUSH2 0x2C3E JUMP JUMPDEST SWAP1 POP SWAP2 SWAP1 POP JUMP JUMPDEST DUP3 DUP2 DUP4 CALLDATACOPY PUSH1 0x0 DUP4 DUP4 ADD MSTORE POP POP POP JUMP JUMPDEST PUSH1 0x0 JUMPDEST DUP4 DUP2 LT ISZERO PUSH2 0x2CBA JUMPI DUP1 DUP3 ADD MLOAD DUP2 DUP5 ADD MSTORE PUSH1 0x20 DUP2 ADD SWAP1 POP PUSH2 0x2C9F JUMP JUMPDEST DUP4 DUP2 GT ISZERO PUSH2 0x2CC9 JUMPI PUSH1 0x0 DUP5 DUP5 ADD MSTORE JUMPDEST POP POP POP POP JUMP JUMPDEST PUSH2 0x2CD8 DUP3 PUSH2 0x2DD5 JUMP JUMPDEST DUP2 ADD DUP2 DUP2 LT PUSH8 0xFFFFFFFFFFFFFFFF DUP3 GT OR ISZERO PUSH2 0x2CF7 JUMPI PUSH2 0x2CF6 PUSH2 0x2D8D JUMP JUMPDEST JUMPDEST DUP1 PUSH1 0x40 MSTORE POP POP POP JUMP JUMPDEST PUSH32 0x4E487B7100000000000000000000000000000000000000000000000000000000 PUSH1 0x0 MSTORE PUSH1 0x12 PUSH1 0x4 MSTORE PUSH1 0x24 PUSH1 0x0 REVERT JUMPDEST PUSH32 0x4E487B7100000000000000000000000000000000000000000000000000000000 PUSH1 0x0 MSTORE PUSH1 0x21 PUSH1 0x4 MSTORE PUSH1 0x24 PUSH1 0x0 REVERT JUMPDEST PUSH32 0x4E487B7100000000000000000000000000000000000000000000000000000000 PUSH1 0x0 MSTORE PUSH1 0x32 PUSH1 0x4 MSTORE PUSH1 0x24 PUSH1 0x0 REVERT JUMPDEST PUSH32 0x4E487B7100000000000000000000000000000000000000000000000000000000 PUSH1 0x0 MSTORE PUSH1 0x41 PUSH1 0x4 MSTORE PUSH1 0x24 PUSH1 0x0 REVERT JUMPDEST PUSH1 0x0 DUP1 REVERT JUMPDEST PUSH1 0x0 DUP1 REVERT JUMPDEST PUSH1 0x0 DUP1 REVERT JUMPDEST PUSH1 0x0 DUP1 REVERT JUMPDEST PUSH1 0x0 DUP1 REVERT JUMPDEST PUSH1 0x0 PUSH1 0x1F NOT PUSH1 0x1F DUP4 ADD AND SWAP1 POP SWAP2 SWAP1 POP JUMP JUMPDEST PUSH32 0x4F776E61626C653A206E6577206F776E657220697320746865207A65726F2061 PUSH1 0x0 DUP3 ADD MSTORE PUSH32 0x6464726573730000000000000000000000000000000000000000000000000000 PUSH1 0x20 DUP3 ADD MSTORE POP JUMP JUMPDEST PUSH32 0x4772616475617465642076657273696F6E206F6620746865206861742063616E PUSH1 0x0 DUP3 ADD MSTORE PUSH32 0x6E6F742062652065646974656400000000000000000000000000000000000000 PUSH1 0x20 DUP3 ADD MSTORE POP JUMP JUMPDEST PUSH32 0x486174206E6F7420696E697469616C697A656400000000000000000000000000 PUSH1 0x0 DUP3 ADD MSTORE POP JUMP JUMPDEST PUSH32 0x4578616D206E6F74207061737365640000000000000000000000000000000000 PUSH1 0x0 DUP3 ADD MSTORE POP JUMP JUMPDEST PUSH32 0x50696E20616C72656164792070757420666F722074686973206578616D210000 PUSH1 0x0 DUP3 ADD MSTORE POP JUMP JUMPDEST PUSH32 0x4772616475617465642068617420616C7265616479206F627461696E65640000 PUSH1 0x0 DUP3 ADD MSTORE POP JUMP JUMPDEST PUSH32 0x4578616D2070617373656420776974686F7574206D6572697400000000000000 PUSH1 0x0 DUP3 ADD MSTORE POP JUMP JUMPDEST PUSH32 0x4F776E61626C653A2063616C6C6572206973206E6F7420746865206F776E6572 PUSH1 0x0 DUP3 ADD MSTORE POP JUMP JUMPDEST PUSH32 0x43616C6C20746F206578616D206D616E6167657220636F6E7472616374206661 PUSH1 0x0 DUP3 ADD MSTORE PUSH32 0x696C656421000000000000000000000000000000000000000000000000000000 PUSH1 0x20 DUP3 ADD MSTORE POP JUMP JUMPDEST PUSH32 0x4578616D207061737365642077697468206D6572697400000000000000000000 PUSH1 0x0 DUP3 ADD MSTORE POP JUMP JUMPDEST PUSH32 0x48617420616C726561647920696E697469616C697A6564000000000000000000 PUSH1 0x0 DUP3 ADD MSTORE POP JUMP JUMPDEST PUSH32 0x2E676C6200000000000000000000000000000000000000000000000000000000 PUSH1 0x0 DUP3 ADD MSTORE POP JUMP JUMPDEST PUSH32 0x496E76616C6964206D616E6167657220636F6E74726163742061646472657373 PUSH1 0x0 DUP3 ADD MSTORE POP JUMP JUMPDEST PUSH32 0x596F7520617265206E6F74206772616475617465640000000000000000000000 PUSH1 0x0 DUP3 ADD MSTORE POP JUMP JUMPDEST PUSH32 0x68747470733A2F2F697066732E696F2F697066732F516D5277556B37656D4348 PUSH1 0x0 DUP3 ADD MSTORE PUSH32 0x393161614E6439445A523457453164735173796E7A73797A566E595876714334 PUSH1 0x20 DUP3 ADD MSTORE PUSH32 0x7A64552F00000000000000000000000000000000000000000000000000000000 PUSH1 0x40 DUP3 ADD MSTORE POP JUMP JUMPDEST PUSH1 0xA DUP2 LT PUSH2 0x311C JUMPI PUSH2 0x311B PUSH2 0x2D2F JUMP JUMPDEST JUMPDEST POP JUMP JUMPDEST PUSH2 0x3128 DUP2 PUSH2 0x2C20 JUMP JUMPDEST DUP2 EQ PUSH2 0x3133 JUMPI PUSH1 0x0 DUP1 REVERT JUMPDEST POP JUMP JUMPDEST PUSH2 0x313F DUP2 PUSH2 0x2C32 JUMP JUMPDEST DUP2 EQ PUSH2 0x314A JUMPI PUSH1 0x0 DUP1 REVERT JUMPDEST POP JUMP JUMPDEST PUSH2 0x3156 DUP2 PUSH2 0x2C71 JUMP JUMPDEST DUP2 EQ PUSH2 0x3161 JUMPI PUSH1 0x0 DUP1 REVERT JUMPDEST POP JUMP INVALID LOG2 PUSH5 0x6970667358 0x22 SLT KECCAK256 SMOD 0xBD PUSH8 0xFD64D61E3C7EB9B9 MSTORE PUSH2 0x96D3 JUMPI JUMPI PUSH4 0xC16B3EF1 0xF7 EXP 0xAF 0x22 0xCD 0xA7 0x2E 0xAC SMOD DUP1 PUSH5 0x736F6C6343 STOP ADDMOD SMOD STOP CALLER "
		},
		"gasEstimates": {
			"creation": {
				"codeDepositCost": "2539600",
				"executionCost": "infinite",
				"totalCost": "infinite"
			},
			"external": {
				"aggiungi_spilla_argentata(string)": "infinite",
				"aggiungi_spilla_dorata(string)": "infinite",
				"cambia_aspetto_cappello_da_laureato()": "infinite",
				"crea_cappellino()": "infinite",
				"graduatedVersion()": "2565",
				"model(uint256)": "infinite",
				"owner()": "2544",
				"renounceOwnership()": "30398",
				"setManager(address)": "27109",
				"state()": "2676",
				"transferOwnership(address)": "30857"
			}
		},
		"methodIdentifiers": {
			"aggiungi_spilla_argentata(string)": "02732a58",
			"aggiungi_spilla_dorata(string)": "22bec967",
			"cambia_aspetto_cappello_da_laureato()": "5968b0b7",
			"crea_cappellino()": "213606cf",
			"graduatedVersion()": "9de7e186",
			"model(uint256)": "4c5770d9",
			"owner()": "8da5cb5b",
			"renounceOwnership()": "715018a6",
			"setManager(address)": "d0ebdbe7",
			"state()": "c19d93fb",
			"transferOwnership(address)": "f2fde38b"
		}
	},
	"abi": [
		{
			"inputs": [
				{
					"internalType": "address",
					"name": "manager",
					"type": "address"
				}
			],
			"stateMutability": "nonpayable",
			"type": "constructor"
		},
		{
			"anonymous": false,
			"inputs": [
				{
					"indexed": true,
					"internalType": "address",
					"name": "previousOwner",
					"type": "address"
				},
				{
					"indexed": true,
					"internalType": "address",
					"name": "newOwner",
					"type": "address"
				}
			],
			"name": "OwnershipTransferred",
			"type": "event"
		},
		{
			"inputs": [
				{
					"internalType": "string",
					"name": "exam_code",
					"type": "string"
				}
			],
			"name": "aggiungi_spilla_argentata",
			"outputs": [
				{
					"internalType": "enum Smart_Hat.exams_Situation",
					"name": "",
					"type": "uint8"
				}
			],
			"stateMutability": "nonpayable",
			"type": "function"
		},
		{
			"inputs": [
				{
					"internalType": "string",
					"name": "exam_code",
					"type": "string"
				}
			],
			"name": "aggiungi_spilla_dorata",
			"outputs": [
				{
					"internalType": "enum Smart_Hat.exams_Situation",
					"name": "",
					"type": "uint8"
				}
			],
			"stateMutability": "nonpayable",
			"type": "function"
		},
		{
			"inputs": [],
			"name": "cambia_aspetto_cappello_da_laureato",
			"outputs": [],
			"stateMutability": "nonpayable",
			"type": "function"
		},
		{
			"inputs": [],
			"name": "crea_cappellino",
			"outputs": [
				{
					"internalType": "enum Smart_Hat.exams_Situation",
					"name": "",
					"type": "uint8"
				},
				{
					"internalType": "bool",
					"name": "",
					"type": "bool"
				}
			],
			"stateMutability": "nonpayable",
			"type": "function"
		},
		{
			"inputs": [],
			"name": "graduatedVersion",
			"outputs": [
				{
					"internalType": "bool",
					"name": "",
					"type": "bool"
				}
			],
			"stateMutability": "view",
			"type": "function"
		},
		{
			"inputs": [
				{
					"internalType": "uint256",
					"name": "index",
					"type": "uint256"
				}
			],
			"name": "model",
			"outputs": [
				{
					"internalType": "string",
					"name": "",
					"type": "string"
				}
			],
			"stateMutability": "pure",
			"type": "function"
		},
		{
			"inputs": [],
			"name": "owner",
			"outputs": [
				{
					"internalType": "address",
					"name": "",
					"type": "address"
				}
			],
			"stateMutability": "view",
			"type": "function"
		},
		{
			"inputs": [],
			"name": "renounceOwnership",
			"outputs": [],
			"stateMutability": "nonpayable",
			"type": "function"
		},
		{
			"inputs": [
				{
					"internalType": "address",
					"name": "manager",
					"type": "address"
				}
			],
			"name": "setManager",
			"outputs": [],
			"stateMutability": "nonpayable",
			"type": "function"
		},
		{
			"inputs": [],
			"name": "state",
			"outputs": [
				{
					"internalType": "enum Smart_Hat.exams_Situation",
					"name": "",
					"type": "uint8"
				}
			],
			"stateMutability": "view",
			"type": "function"
		},
		{
			"inputs": [
				{
					"internalType": "address",
					"name": "newOwner",
					"type": "address"
				}
			],
			"name": "transferOwnership",
			"outputs": [],
			"stateMutability": "nonpayable",
			"type": "function"
		}
	]
}