{
	"data": {
		"bytecode": {
			"linkReferences": {},
			"object": "60806040523480156200001157600080fd5b50604051620068c0380380620068c0833981810160405281019062000037919062000345565b6040518060400160405280601381526020017f556e695069204d657461766572736520486174000000000000000000000000008152506040518060400160405280600a81526020017f554e4950494d56484154000000000000000000000000000000000000000000008152508160009080519060200190620000bb9291906200027e565b508060019080519060200190620000d49291906200027e565b505050620000f7620000eb620001b060201b60201c565b620001b860201b60201c565b8073ffffffffffffffffffffffffffffffffffffffff168173ffffffffffffffffffffffffffffffffffffffff161462000168576040517f08c379a00000000000000000000000000000000000000000000000000000000081526004016200015f906200039e565b60405180910390fd5b80600760006101000a81548173ffffffffffffffffffffffffffffffffffffffff021916908373ffffffffffffffffffffffffffffffffffffffff16021790555050620004b2565b600033905090565b6000600660009054906101000a900473ffffffffffffffffffffffffffffffffffffffff16905081600660006101000a81548173ffffffffffffffffffffffffffffffffffffffff021916908373ffffffffffffffffffffffffffffffffffffffff1602179055508173ffffffffffffffffffffffffffffffffffffffff168173ffffffffffffffffffffffffffffffffffffffff167f8be0079c531659141344cd1fd0a4f28419497f9722a3daafe3b4186f6b6457e060405160405180910390a35050565b8280546200028c9062000405565b90600052602060002090601f016020900481019282620002b05760008555620002fc565b82601f10620002cb57805160ff1916838001178555620002fc565b82800160010185558215620002fc579182015b82811115620002fb578251825591602001919060010190620002de565b5b5090506200030b91906200030f565b5090565b5b808211156200032a57600081600090555060010162000310565b5090565b6000815190506200033f8162000498565b92915050565b6000602082840312156200035e576200035d6200046a565b5b60006200036e848285016200032e565b91505092915050565b600062000386600f83620003c0565b915062000393826200046f565b602082019050919050565b60006020820190508181036000830152620003b98162000377565b9050919050565b600082825260208201905092915050565b6000620003de82620003e5565b9050919050565b600073ffffffffffffffffffffffffffffffffffffffff82169050919050565b600060028204905060018216806200041e57607f821691505b602082108114156200043557620004346200043b565b5b50919050565b7f4e487b7100000000000000000000000000000000000000000000000000000000600052602260045260246000fd5b600080fd5b7f496e76616c696420616464726573730000000000000000000000000000000000600082015250565b620004a381620003d1565b8114620004af57600080fd5b50565b6163fe80620004c26000396000f3fe60806040523480156200001157600080fd5b50600436106200013c5760003560e01c80636a62784211620000bd578063a22cb465116200007b578063a22cb4651462000363578063b88d4fde1462000383578063c87b56dd14620003a3578063e985e9c514620003d9578063f2fde38b146200040f576200013c565b80636a62784214620002a757806370a0823114620002dd578063715018a614620003135780638da5cb5b146200031f57806395d89b411462000341576200013c565b806323b872dd116200010b57806323b872dd14620001ef5780632710ac80146200020f5780632caff17e146200023157806342842e0e14620002515780636352211e1462000271576200013c565b806301ffc9a7146200014157806306fdde031462000177578063081812fc1462000199578063095ea7b314620001cf575b600080fd5b6200015f600480360381019062000159919062002519565b6200042f565b6040516200016e9190620029d9565b60405180910390f35b6200018162000515565b604051620001909190620029f6565b60405180910390f35b620001b76004803603810190620001b1919062002632565b620005af565b604051620001c691906200293b565b60405180910390f35b620001ed6004803603810190620001e791906200244f565b620005f7565b005b6200020d60048036038101906200020791906200231b565b62000720565b005b6200021962000789565b6040516200022891906200293b565b60405180910390f35b6200024f60048036038101906200024991906200231b565b620007af565b005b6200026f60048036038101906200026991906200231b565b62000c06565b005b6200028f600480360381019062000289919062002632565b62000c28565b6040516200029e91906200293b565b60405180910390f35b620002c56004803603810190620002bf9190620022a2565b62000cb4565b604051620002d491906200293b565b60405180910390f35b620002fb6004803603810190620002f59190620022a2565b62000dc6565b6040516200030a919062002bf6565b60405180910390f35b6200031d62000e81565b005b6200032962000e99565b6040516200033891906200293b565b60405180910390f35b6200034b62000ec3565b6040516200035a9190620029f6565b60405180910390f35b6200038160048036038101906200037b919062002408565b62000f5d565b005b620003a160048036038101906200039b919062002377565b62000f77565b005b620003c16004803603810190620003bb919062002632565b62000fe2565b604051620003d09190620029f6565b60405180910390f35b620003f76004803603810190620003f19190620022d4565b62001093565b604051620004069190620029d9565b60405180910390f35b6200042d6004803603810190620004279190620022a2565b62001127565b005b60007f80ac58cd000000000000000000000000000000000000000000000000000000007bffffffffffffffffffffffffffffffffffffffffffffffffffffffff1916827bffffffffffffffffffffffffffffffffffffffffffffffffffffffff19161480620004fb57507f5b5e139f000000000000000000000000000000000000000000000000000000007bffffffffffffffffffffffffffffffffffffffffffffffffffffffff1916827bffffffffffffffffffffffffffffffffffffffffffffffffffffffff1916145b806200050e57506200050d82620011b2565b5b9050919050565b606060008054620005269062002e62565b80601f0160208091040260200160405190810160405280929190818152602001828054620005549062002e62565b8015620005a55780601f106200057957610100808354040283529160200191620005a5565b820191906000526020600020905b8154815290600101906020018083116200058757829003601f168201915b5050505050905090565b6000620005bc826200121c565b6004600083815260200190815260200160002060009054906101000a900473ffffffffffffffffffffffffffffffffffffffff169050919050565b6000620006048262000c28565b90508073ffffffffffffffffffffffffffffffffffffffff168373ffffffffffffffffffffffffffffffffffffffff16141562000678576040517f08c379a00000000000000000000000000000000000000000000000000000000081526004016200066f9062002bb2565b60405180910390fd5b8073ffffffffffffffffffffffffffffffffffffffff16620006996200126c565b73ffffffffffffffffffffffffffffffffffffffff161480620006cd5750620006cc81620006c66200126c565b62001093565b5b6200070f576040517f08c379a0000000000000000000000000000000000000000000000000000000008152600401620007069062002bd4565b60405180910390fd5b6200071b838362001274565b505050565b620007356200072e6200126c565b826200132f565b62000777576040517f08c379a00000000000000000000000000000000000000000000000000000000081526004016200076e9062002a1a565b60405180910390fd5b62000784838383620013cc565b505050565b600760009054906101000a900473ffffffffffffffffffffffffffffffffffffffff1681565b6000600760009054906101000a900473ffffffffffffffffffffffffffffffffffffffff16905060008173ffffffffffffffffffffffffffffffffffffffff16631f3ce1d36040518163ffffffff1660e01b815260040160006040518083038186803b1580156200081f57600080fd5b505afa15801562000834573d6000803e3d6000fd5b505050506040513d6000823e3d601f19601f820116820180604052508101906200085f919062002496565b905060008390508073ffffffffffffffffffffffffffffffffffffffff16636053ef386040518163ffffffff1660e01b815260040160206040518083038186803b158015620008ad57600080fd5b505afa158015620008c2573d6000803e3d6000fd5b505050506040513d601f19601f82011682018060405250810190620008e89190620024e7565b15158373ffffffffffffffffffffffffffffffffffffffff166368a4c8b7876040518263ffffffff1660e01b81526004016200092591906200293b565b60206040518083038186803b1580156200093e57600080fd5b505afa15801562000953573d6000803e3d6000fd5b505050506040513d601f19601f82011682018060405250810190620009799190620024e7565b151514620009be576040517f08c379a0000000000000000000000000000000000000000000000000000000008152600401620009b59062002b6e565b60405180910390fd5b60005b825181101562000be05760006002811115620009e257620009e162002f4b565b5b8273ffffffffffffffffffffffffffffffffffffffff1663c93fb85785848151811062000a145762000a1362002fa9565b5b60200260200101516040518263ffffffff1660e01b815260040162000a3a9190620029f6565b60206040518083038186803b15801562000a5357600080fd5b505afa15801562000a68573d6000803e3d6000fd5b505050506040513d601f19601f8201168201806040525081019062000a8e9190620025af565b600281111562000aa35762000aa262002f4b565b5b1415801562000b8757506000600281111562000ac45762000ac362002f4b565b5b8473ffffffffffffffffffffffffffffffffffffffff166386db377a85848151811062000af65762000af562002fa9565b5b60200260200101516040518263ffffffff1660e01b815260040162000b1c9190620029f6565b60206040518083038186803b15801562000b3557600080fd5b505afa15801562000b4a573d6000803e3d6000fd5b505050506040513d601f19601f8201168201806040525081019062000b7091906200257d565b600281111562000b855762000b8462002f4b565b5b145b1562000bca576040517f08c379a000000000000000000000000000000000000000000000000000000000815260040162000bc19062002b6e565b60405180910390fd5b808062000bd79062002ece565b915050620009c1565b5062000bfe8686866040518060200160405280600081525062000f77565b505050505050565b62000c238383836040518060200160405280600081525062000f77565b505050565b60008062000c3683620016d7565b9050600073ffffffffffffffffffffffffffffffffffffffff168173ffffffffffffffffffffffffffffffffffffffff16141562000cab576040517f08c379a000000000000000000000000000000000000000000000000000000000815260040162000ca29062002b90565b60405180910390fd5b80915050919050565b600080600760009054906101000a900473ffffffffffffffffffffffffffffffffffffffff163060405162000ce99062002011565b62000cf692919062002958565b604051809103906000f08015801562000d13573d6000803e3d6000fd5b5090508073ffffffffffffffffffffffffffffffffffffffff1663f2fde38b846040518263ffffffff1660e01b815260040162000d5191906200293b565b600060405180830381600087803b15801562000d6c57600080fd5b505af115801562000d81573d6000803e3d6000fd5b5050505060008173ffffffffffffffffffffffffffffffffffffffff16905062000dbc84826040518060200160405280600081525062001714565b8192505050919050565b60008073ffffffffffffffffffffffffffffffffffffffff168273ffffffffffffffffffffffffffffffffffffffff16141562000e3a576040517f08c379a000000000000000000000000000000000000000000000000000000000815260040162000e319062002b08565b60405180910390fd5b600360008373ffffffffffffffffffffffffffffffffffffffff1673ffffffffffffffffffffffffffffffffffffffff168152602001908152602001600020549050919050565b62000e8b62001776565b62000e976000620017fb565b565b6000600660009054906101000a900473ffffffffffffffffffffffffffffffffffffffff16905090565b60606001805462000ed49062002e62565b80601f016020809104026020016040519081016040528092919081815260200182805462000f029062002e62565b801562000f535780601f1062000f275761010080835404028352916020019162000f53565b820191906000526020600020905b81548152906001019060200180831162000f3557829003601f168201915b5050505050905090565b62000f7362000f6b6200126c565b8383620018c1565b5050565b62000f8c62000f856200126c565b836200132f565b62000fce576040517f08c379a000000000000000000000000000000000000000000000000000000000815260040162000fc59062002a1a565b60405180910390fd5b62000fdc8484848462001a33565b50505050565b606062000fef826200121c565b600062000ffc8362001a96565b905060008190508073ffffffffffffffffffffffffffffffffffffffff166329012cab6040518163ffffffff1660e01b815260040160006040518083038186803b1580156200104a57600080fd5b505afa1580156200105f573d6000803e3d6000fd5b505050506040513d6000823e3d601f19601f820116820180604052508101906200108a9190620025e1565b92505050919050565b6000600560008473ffffffffffffffffffffffffffffffffffffffff1673ffffffffffffffffffffffffffffffffffffffff16815260200190815260200160002060008373ffffffffffffffffffffffffffffffffffffffff1673ffffffffffffffffffffffffffffffffffffffff16815260200190815260200160002060009054906101000a900460ff16905092915050565b6200113162001776565b600073ffffffffffffffffffffffffffffffffffffffff168173ffffffffffffffffffffffffffffffffffffffff161415620011a4576040517f08c379a00000000000000000000000000000000000000000000000000000000081526004016200119b9062002a5e565b60405180910390fd5b620011af81620017fb565b50565b60007f01ffc9a7000000000000000000000000000000000000000000000000000000007bffffffffffffffffffffffffffffffffffffffffffffffffffffffff1916827bffffffffffffffffffffffffffffffffffffffffffffffffffffffff1916149050919050565b620012278162001aa0565b62001269576040517f08c379a0000000000000000000000000000000000000000000000000000000008152600401620012609062002b90565b60405180910390fd5b50565b600033905090565b816004600083815260200190815260200160002060006101000a81548173ffffffffffffffffffffffffffffffffffffffff021916908373ffffffffffffffffffffffffffffffffffffffff160217905550808273ffffffffffffffffffffffffffffffffffffffff16620012e98362000c28565b73ffffffffffffffffffffffffffffffffffffffff167f8c5be1e5ebec7d5bd14f71427d1e84f3dd0314c0f7b2291e5b200ac8c7c3b92560405160405180910390a45050565b6000806200133d8362000c28565b90508073ffffffffffffffffffffffffffffffffffffffff168473ffffffffffffffffffffffffffffffffffffffff16148062001382575062001381818562001093565b5b80620013c357508373ffffffffffffffffffffffffffffffffffffffff16620013ab84620005af565b73ffffffffffffffffffffffffffffffffffffffff16145b91505092915050565b8273ffffffffffffffffffffffffffffffffffffffff16620013ee8262000c28565b73ffffffffffffffffffffffffffffffffffffffff161462001447576040517f08c379a00000000000000000000000000000000000000000000000000000000081526004016200143e9062002a80565b60405180910390fd5b600073ffffffffffffffffffffffffffffffffffffffff168273ffffffffffffffffffffffffffffffffffffffff161415620014ba576040517f08c379a0000000000000000000000000000000000000000000000000000000008152600401620014b19062002ac4565b60405180910390fd5b620014c9838383600162001ae3565b8273ffffffffffffffffffffffffffffffffffffffff16620014eb8262000c28565b73ffffffffffffffffffffffffffffffffffffffff161462001544576040517f08c379a00000000000000000000000000000000000000000000000000000000081526004016200153b9062002a80565b60405180910390fd5b6004600082815260200190815260200160002060006101000a81549073ffffffffffffffffffffffffffffffffffffffff02191690556001600360008573ffffffffffffffffffffffffffffffffffffffff1673ffffffffffffffffffffffffffffffffffffffff168152602001908152602001600020600082825403925050819055506001600360008473ffffffffffffffffffffffffffffffffffffffff1673ffffffffffffffffffffffffffffffffffffffff16815260200190815260200160002060008282540192505081905550816002600083815260200190815260200160002060006101000a81548173ffffffffffffffffffffffffffffffffffffffff021916908373ffffffffffffffffffffffffffffffffffffffff160217905550808273ffffffffffffffffffffffffffffffffffffffff168473ffffffffffffffffffffffffffffffffffffffff167fddf252ad1be2c89b69c2b068fc378daa952ba7f163c4a11628f55a4df523b3ef60405160405180910390a4620016d2838383600162001c10565b505050565b60006002600083815260200190815260200160002060009054906101000a900473ffffffffffffffffffffffffffffffffffffffff169050919050565b62001720838362001c16565b6200172f600084848462001e45565b62001771576040517f08c379a0000000000000000000000000000000000000000000000000000000008152600401620017689062002a3c565b60405180910390fd5b505050565b620017806200126c565b73ffffffffffffffffffffffffffffffffffffffff16620017a062000e99565b73ffffffffffffffffffffffffffffffffffffffff1614620017f9576040517f08c379a0000000000000000000000000000000000000000000000000000000008152600401620017f09062002b4c565b60405180910390fd5b565b6000600660009054906101000a900473ffffffffffffffffffffffffffffffffffffffff16905081600660006101000a81548173ffffffffffffffffffffffffffffffffffffffff021916908373ffffffffffffffffffffffffffffffffffffffff1602179055508173ffffffffffffffffffffffffffffffffffffffff168173ffffffffffffffffffffffffffffffffffffffff167f8be0079c531659141344cd1fd0a4f28419497f9722a3daafe3b4186f6b6457e060405160405180910390a35050565b8173ffffffffffffffffffffffffffffffffffffffff168373ffffffffffffffffffffffffffffffffffffffff16141562001933576040517f08c379a00000000000000000000000000000000000000000000000000000000081526004016200192a9062002ae6565b60405180910390fd5b80600560008573ffffffffffffffffffffffffffffffffffffffff1673ffffffffffffffffffffffffffffffffffffffff16815260200190815260200160002060008473ffffffffffffffffffffffffffffffffffffffff1673ffffffffffffffffffffffffffffffffffffffff16815260200190815260200160002060006101000a81548160ff0219169083151502179055508173ffffffffffffffffffffffffffffffffffffffff168373ffffffffffffffffffffffffffffffffffffffff167f17307eab39ab6107e8899845ad3d59bd9653f200f220920489ca2b5937696c318360405162001a269190620029d9565b60405180910390a3505050565b62001a40848484620013cc565b62001a4e8484848462001e45565b62001a90576040517f08c379a000000000000000000000000000000000000000000000000000000000815260040162001a879062002a3c565b60405180910390fd5b50505050565b6000819050919050565b60008073ffffffffffffffffffffffffffffffffffffffff1662001ac483620016d7565b73ffffffffffffffffffffffffffffffffffffffff1614159050919050565b600181111562001c0a57600073ffffffffffffffffffffffffffffffffffffffff168473ffffffffffffffffffffffffffffffffffffffff161462001b7b5780600360008673ffffffffffffffffffffffffffffffffffffffff1673ffffffffffffffffffffffffffffffffffffffff168152602001908152602001600020600082825462001b73919062002d6c565b925050819055505b600073ffffffffffffffffffffffffffffffffffffffff168373ffffffffffffffffffffffffffffffffffffffff161462001c095780600360008573ffffffffffffffffffffffffffffffffffffffff1673ffffffffffffffffffffffffffffffffffffffff168152602001908152602001600020600082825462001c01919062002d0f565b925050819055505b5b50505050565b50505050565b600073ffffffffffffffffffffffffffffffffffffffff168273ffffffffffffffffffffffffffffffffffffffff16141562001c89576040517f08c379a000000000000000000000000000000000000000000000000000000000815260040162001c809062002b2a565b60405180910390fd5b62001c948162001aa0565b1562001cd7576040517f08c379a000000000000000000000000000000000000000000000000000000000815260040162001cce9062002aa2565b60405180910390fd5b62001ce760008383600162001ae3565b62001cf28162001aa0565b1562001d35576040517f08c379a000000000000000000000000000000000000000000000000000000000815260040162001d2c9062002aa2565b60405180910390fd5b6001600360008473ffffffffffffffffffffffffffffffffffffffff1673ffffffffffffffffffffffffffffffffffffffff16815260200190815260200160002060008282540192505081905550816002600083815260200190815260200160002060006101000a81548173ffffffffffffffffffffffffffffffffffffffff021916908373ffffffffffffffffffffffffffffffffffffffff160217905550808273ffffffffffffffffffffffffffffffffffffffff16600073ffffffffffffffffffffffffffffffffffffffff167fddf252ad1be2c89b69c2b068fc378daa952ba7f163c4a11628f55a4df523b3ef60405160405180910390a462001e4160008383600162001c10565b5050565b600062001e688473ffffffffffffffffffffffffffffffffffffffff1662001fee565b1562001fe1578373ffffffffffffffffffffffffffffffffffffffff1663150b7a0262001e946200126c565b8786866040518563ffffffff1660e01b815260040162001eb8949392919062002985565b602060405180830381600087803b15801562001ed357600080fd5b505af192505050801562001f0757506040513d601f19601f8201168201806040525081019062001f0491906200254b565b60015b62001f90573d806000811462001f3a576040519150601f19603f3d011682016040523d82523d6000602084013e62001f3f565b606091505b5060008151141562001f88576040517f08c379a000000000000000000000000000000000000000000000000000000000815260040162001f7f9062002a3c565b60405180910390fd5b805181602001fd5b63150b7a0260e01b7bffffffffffffffffffffffffffffffffffffffffffffffffffffffff1916817bffffffffffffffffffffffffffffffffffffffffffffffffffffffff19161491505062001fe6565b600190505b949350505050565b6000808273ffffffffffffffffffffffffffffffffffffffff163b119050919050565b612f79806200345083390190565b600062002036620020308462002c3c565b62002c13565b905080838252602082019050828560208602820111156200205c576200205b6200300c565b5b60005b85811015620020b157815167ffffffffffffffff81111562002086576200208562003007565b5b80860162002095898262002258565b855260208501945060208401935050506001810190506200205f565b5050509392505050565b6000620020d2620020cc8462002c6b565b62002c13565b905082815260208101848484011115620020f157620020f062003011565b5b620020fe84828562002e1d565b509392505050565b60006200211d620021178462002ca1565b62002c13565b9050828152602081018484840111156200213c576200213b62003011565b5b6200214984828562002e2c565b509392505050565b6000813590506200216281620033c5565b92915050565b600082601f83011262002180576200217f62003007565b5b8151620021928482602086016200201f565b91505092915050565b600081359050620021ac81620033df565b92915050565b600081519050620021c381620033df565b92915050565b600081359050620021da81620033f9565b92915050565b600081519050620021f181620033f9565b92915050565b600082601f8301126200220f576200220e62003007565b5b813562002221848260208601620020bb565b91505092915050565b6000815190506200223b8162003413565b92915050565b600081519050620022528162003424565b92915050565b600082601f83011262002270576200226f62003007565b5b81516200228284826020860162002106565b91505092915050565b6000813590506200229c8162003435565b92915050565b600060208284031215620022bb57620022ba6200301b565b5b6000620022cb8482850162002151565b91505092915050565b60008060408385031215620022ee57620022ed6200301b565b5b6000620022fe8582860162002151565b9250506020620023118582860162002151565b9150509250929050565b6000806000606084860312156200233757620023366200301b565b5b6000620023478682870162002151565b93505060206200235a8682870162002151565b92505060406200236d868287016200228b565b9150509250925092565b600080600080608085870312156200239457620023936200301b565b5b6000620023a48782880162002151565b9450506020620023b78782880162002151565b9350506040620023ca878288016200228b565b925050606085013567ffffffffffffffff811115620023ee57620023ed62003016565b5b620023fc87828801620021f7565b91505092959194509250565b600080604083850312156200242257620024216200301b565b5b6000620024328582860162002151565b925050602062002445858286016200219b565b9150509250929050565b600080604083850312156200246957620024686200301b565b5b6000620024798582860162002151565b92505060206200248c858286016200228b565b9150509250929050565b600060208284031215620024af57620024ae6200301b565b5b600082015167ffffffffffffffff811115620024d057620024cf62003016565b5b620024de8482850162002168565b91505092915050565b6000602082840312156200250057620024ff6200301b565b5b60006200251084828501620021b2565b91505092915050565b6000602082840312156200253257620025316200301b565b5b60006200254284828501620021c9565b91505092915050565b6000602082840312156200256457620025636200301b565b5b60006200257484828501620021e0565b91505092915050565b6000602082840312156200259657620025956200301b565b5b6000620025a6848285016200222a565b91505092915050565b600060208284031215620025c857620025c76200301b565b5b6000620025d88482850162002241565b91505092915050565b600060208284031215620025fa57620025f96200301b565b5b600082015167ffffffffffffffff8111156200261b576200261a62003016565b5b620026298482850162002258565b91505092915050565b6000602082840312156200264b576200264a6200301b565b5b60006200265b848285016200228b565b91505092915050565b6200266f8162002da7565b82525050565b620026808162002dbb565b82525050565b6000620026938262002cd7565b6200269f818562002ced565b9350620026b181856020860162002e2c565b620026bc8162003020565b840191505092915050565b6000620026d48262002ce2565b620026e0818562002cfe565b9350620026f281856020860162002e2c565b620026fd8162003020565b840191505092915050565b600062002717602d8362002cfe565b9150620027248262003031565b604082019050919050565b60006200273e60328362002cfe565b91506200274b8262003080565b604082019050919050565b60006200276560268362002cfe565b91506200277282620030cf565b604082019050919050565b60006200278c60258362002cfe565b915062002799826200311e565b604082019050919050565b6000620027b3601c8362002cfe565b9150620027c0826200316d565b602082019050919050565b6000620027da60248362002cfe565b9150620027e78262003196565b604082019050919050565b60006200280160198362002cfe565b91506200280e82620031e5565b602082019050919050565b60006200282860298362002cfe565b915062002835826200320e565b604082019050919050565b60006200284f60208362002cfe565b91506200285c826200325d565b602082019050919050565b60006200287660208362002cfe565b9150620028838262003286565b602082019050919050565b60006200289d60398362002cfe565b9150620028aa82620032af565b604082019050919050565b6000620028c460188362002cfe565b9150620028d182620032fe565b602082019050919050565b6000620028eb60218362002cfe565b9150620028f88262003327565b604082019050919050565b600062002912603d8362002cfe565b91506200291f8262003376565b604082019050919050565b620029358162002e13565b82525050565b600060208201905062002952600083018462002664565b92915050565b60006040820190506200296f600083018562002664565b6200297e602083018462002664565b9392505050565b60006080820190506200299c600083018762002664565b620029ab602083018662002664565b620029ba60408301856200292a565b8181036060830152620029ce818462002686565b905095945050505050565b6000602082019050620029f0600083018462002675565b92915050565b6000602082019050818103600083015262002a128184620026c7565b905092915050565b6000602082019050818103600083015262002a358162002708565b9050919050565b6000602082019050818103600083015262002a57816200272f565b9050919050565b6000602082019050818103600083015262002a798162002756565b9050919050565b6000602082019050818103600083015262002a9b816200277d565b9050919050565b6000602082019050818103600083015262002abd81620027a4565b9050919050565b6000602082019050818103600083015262002adf81620027cb565b9050919050565b6000602082019050818103600083015262002b0181620027f2565b9050919050565b6000602082019050818103600083015262002b238162002819565b9050919050565b6000602082019050818103600083015262002b458162002840565b9050919050565b6000602082019050818103600083015262002b678162002867565b9050919050565b6000602082019050818103600083015262002b89816200288e565b9050919050565b6000602082019050818103600083015262002bab81620028b5565b9050919050565b6000602082019050818103600083015262002bcd81620028dc565b9050919050565b6000602082019050818103600083015262002bef8162002903565b9050919050565b600060208201905062002c0d60008301846200292a565b92915050565b600062002c1f62002c32565b905062002c2d828262002e98565b919050565b6000604051905090565b600067ffffffffffffffff82111562002c5a5762002c5962002fd8565b5b602082029050602081019050919050565b600067ffffffffffffffff82111562002c895762002c8862002fd8565b5b62002c948262003020565b9050602081019050919050565b600067ffffffffffffffff82111562002cbf5762002cbe62002fd8565b5b62002cca8262003020565b9050602081019050919050565b600081519050919050565b600081519050919050565b600082825260208201905092915050565b600082825260208201905092915050565b600062002d1c8262002e13565b915062002d298362002e13565b9250827fffffffffffffffffffffffffffffffffffffffffffffffffffffffffffffffff0382111562002d615762002d6062002f1c565b5b828201905092915050565b600062002d798262002e13565b915062002d868362002e13565b92508282101562002d9c5762002d9b62002f1c565b5b828203905092915050565b600062002db48262002df3565b9050919050565b60008115159050919050565b60007fffffffff0000000000000000000000000000000000000000000000000000000082169050919050565b600073ffffffffffffffffffffffffffffffffffffffff82169050919050565b6000819050919050565b82818337600083830152505050565b60005b8381101562002e4c57808201518184015260208101905062002e2f565b8381111562002e5c576000848401525b50505050565b6000600282049050600182168062002e7b57607f821691505b6020821081141562002e925762002e9162002f7a565b5b50919050565b62002ea38262003020565b810181811067ffffffffffffffff8211171562002ec55762002ec462002fd8565b5b80604052505050565b600062002edb8262002e13565b91507fffffffffffffffffffffffffffffffffffffffffffffffffffffffffffffffff82141562002f115762002f1062002f1c565b5b600182019050919050565b7f4e487b7100000000000000000000000000000000000000000000000000000000600052601160045260246000fd5b7f4e487b7100000000000000000000000000000000000000000000000000000000600052602160045260246000fd5b7f4e487b7100000000000000000000000000000000000000000000000000000000600052602260045260246000fd5b7f4e487b7100000000000000000000000000000000000000000000000000000000600052603260045260246000fd5b7f4e487b7100000000000000000000000000000000000000000000000000000000600052604160045260246000fd5b600080fd5b600080fd5b600080fd5b600080fd5b600080fd5b6000601f19601f8301169050919050565b7f4552433732313a2063616c6c6572206973206e6f7420746f6b656e206f776e6560008201527f72206f7220617070726f76656400000000000000000000000000000000000000602082015250565b7f4552433732313a207472616e7366657220746f206e6f6e20455243373231526560008201527f63656976657220696d706c656d656e7465720000000000000000000000000000602082015250565b7f4f776e61626c653a206e6577206f776e657220697320746865207a65726f206160008201527f6464726573730000000000000000000000000000000000000000000000000000602082015250565b7f4552433732313a207472616e736665722066726f6d20696e636f72726563742060008201527f6f776e6572000000000000000000000000000000000000000000000000000000602082015250565b7f4552433732313a20746f6b656e20616c7265616479206d696e74656400000000600082015250565b7f4552433732313a207472616e7366657220746f20746865207a65726f2061646460008201527f7265737300000000000000000000000000000000000000000000000000000000602082015250565b7f4552433732313a20617070726f766520746f2063616c6c657200000000000000600082015250565b7f4552433732313a2061646472657373207a65726f206973206e6f74206120766160008201527f6c6964206f776e65720000000000000000000000000000000000000000000000602082015250565b7f4552433732313a206d696e7420746f20746865207a65726f2061646472657373600082015250565b7f4f776e61626c653a2063616c6c6572206973206e6f7420746865206f776e6572600082015250565b7f486174206e6f7420636f6d70617469626c65207769746820746865206578616d60008201527f7320736974756174696f6e206f66207468652062757965722100000000000000602082015250565b7f4552433732313a20696e76616c696420746f6b656e2049440000000000000000600082015250565b7f4552433732313a20617070726f76616c20746f2063757272656e74206f776e6560008201527f7200000000000000000000000000000000000000000000000000000000000000602082015250565b7f4552433732313a20617070726f76652063616c6c6572206973206e6f7420746f60008201527f6b656e206f776e6572206f7220617070726f76656420666f7220616c6c000000602082015250565b620033d08162002da7565b8114620033dc57600080fd5b50565b620033ea8162002dbb565b8114620033f657600080fd5b50565b620034048162002dc7565b81146200341057600080fd5b50565b600381106200342157600080fd5b50565b600381106200343257600080fd5b50565b620034408162002e13565b81146200344c57600080fd5b5056fe608060405260006005556000600660006101000a81548160ff0219169083151502179055506000600660016101000a81548160ff0219169083151502179055503480156200004c57600080fd5b5060405162002f7938038062002f79833981810160405281019062000072919062000477565b6200009262000086620002e460201b60201c565b620002ec60201b60201c565b8173ffffffffffffffffffffffffffffffffffffffff168273ffffffffffffffffffffffffffffffffffffffff161462000103576040517f08c379a0000000000000000000000000000000000000000000000000000000008152600401620000fa906200052e565b60405180910390fd5b8073ffffffffffffffffffffffffffffffffffffffff168173ffffffffffffffffffffffffffffffffffffffff161462000174576040517f08c379a00000000000000000000000000000000000000000000000000000000081526004016200016b906200050c565b60405180910390fd5b81600260006101000a81548173ffffffffffffffffffffffffffffffffffffffff021916908373ffffffffffffffffffffffffffffffffffffffff16021790555080600360006101000a81548173ffffffffffffffffffffffffffffffffffffffff021916908373ffffffffffffffffffffffffffffffffffffffff16021790555060016040518060400160405280600581526020017f323734414100000000000000000000000000000000000000000000000000000081525090806001815401808255809150506001900390600052602060002001600090919091909150908051906020019062000268929190620003b0565b5060016040518060400160405280600581526020017f3234354141000000000000000000000000000000000000000000000000000000815250908060018154018082558091505060019003906000526020600020016000909190919091509080519060200190620002db929190620003b0565b505050620006b7565b600033905090565b60008060009054906101000a900473ffffffffffffffffffffffffffffffffffffffff169050816000806101000a81548173ffffffffffffffffffffffffffffffffffffffff021916908373ffffffffffffffffffffffffffffffffffffffff1602179055508173ffffffffffffffffffffffffffffffffffffffff168173ffffffffffffffffffffffffffffffffffffffff167f8be0079c531659141344cd1fd0a4f28419497f9722a3daafe3b4186f6b6457e060405160405180910390a35050565b828054620003be9062000595565b90600052602060002090601f016020900481019282620003e257600085556200042e565b82601f10620003fd57805160ff19168380011785556200042e565b828001600101855582156200042e579182015b828111156200042d57825182559160200191906001019062000410565b5b5090506200043d919062000441565b5090565b5b808211156200045c57600081600090555060010162000442565b5090565b60008151905062000471816200069d565b92915050565b60008060408385031215620004915762000490620005fa565b5b6000620004a18582860162000460565b9250506020620004b48582860162000460565b9150509250929050565b6000620004cd60238362000550565b9150620004da82620005ff565b604082019050919050565b6000620004f460268362000550565b915062000501826200064e565b604082019050919050565b600060208201905081810360008301526200052781620004be565b9050919050565b600060208201905081810360008301526200054981620004e5565b9050919050565b600082825260208201905092915050565b60006200056e8262000575565b9050919050565b600073ffffffffffffffffffffffffffffffffffffffff82169050919050565b60006002820490506001821680620005ae57607f821691505b60208210811415620005c557620005c4620005cb565b5b50919050565b7f4e487b7100000000000000000000000000000000000000000000000000000000600052602260045260246000fd5b600080fd5b7f496e76616c696420636f6c6c656374696f6e20636f6e7472616374206164647260008201527f6573730000000000000000000000000000000000000000000000000000000000602082015250565b7f496e76616c6964206578616d73206d616e6167657220636f6e7472616374206160008201527f6464726573730000000000000000000000000000000000000000000000000000602082015250565b620006a88162000561565b8114620006b457600080fd5b50565b6128b280620006c76000396000f3fe608060405234801561001057600080fd5b50600436106100ea5760003560e01c80636053ef381161008c5780638da5cb5b116100665780638da5cb5b146101f0578063c93fb8571461020e578063deef61f01461023e578063f2fde38b1461025c576100ea565b80636053ef38146101aa578063709263c1146101c8578063715018a6146101e6576100ea565b8063213606cf116100c8578063213606cf1461014757806322bec9671461016657806329012cab146101825780635968b0b7146101a0576100ea565b806302732a58146100ef578063155c2d1f1461010b578063158ef93e14610129575b600080fd5b61010960048036038101906101049190611b02565b610278565b005b6101136105e2565b6040516101209190611f2b565b60405180910390f35b610131610608565b60405161013e9190611f76565b60405180910390f35b61014f61061b565b60405161015d929190612169565b60405180910390f35b610180600480360381019061017b9190611b02565b6109c4565b005b61018a610d2f565b6040516101979190611fac565b60405180910390f35b6101a8610f46565b005b6101b2611100565b6040516101bf9190611f76565b60405180910390f35b6101d0611166565b6040516101dd9190611f2b565b60405180910390f35b6101ee61118c565b005b6101f86111a0565b6040516102059190611f2b565b60405180910390f35b61022860048036038101906102239190611b02565b6111c9565b6040516102359190611f91565b60405180910390f35b6102466111fe565b604051610253919061214e565b60405180910390f35b610276600480360381019061027191906119d6565b611257565b005b6102806112db565b600660019054906101000a900460ff166102cf576040517f08c379a00000000000000000000000000000000000000000000000000000000081526004016102c69061200e565b60405180910390fd5b600660009054906101000a900460ff161561031f576040517f08c379a000000000000000000000000000000000000000000000000000000000815260040161031690611fee565b60405180910390fd5b6000600281111561033357610332612435565b5b6004826040516103439190611e7d565b908152602001604051809103902060009054906101000a900460ff16600281111561037157610370612435565b5b146103b1576040517f08c379a00000000000000000000000000000000000000000000000000000000081526004016103a89061204e565b60405180910390fd5b6000600260009054906101000a900473ffffffffffffffffffffffffffffffffffffffff16905060008173ffffffffffffffffffffffffffffffffffffffff16633434d8bb33856040518363ffffffff1660e01b8152600401610415929190611f46565b60206040518083038186803b15801561042d57600080fd5b505afa158015610441573d6000803e3d6000fd5b505050506040513d601f19601f820116820180604052508101906104659190611ad5565b90506000600281111561047b5761047a612435565b5b81600281111561048e5761048d612435565b5b14156104cf576040517f08c379a00000000000000000000000000000000000000000000000000000000081526004016104c69061202e565b60405180910390fd5b6002808111156104e2576104e1612435565b5b8160028111156104f5576104f4612435565b5b1415610536576040517f08c379a000000000000000000000000000000000000000000000000000000000815260040161052d906120ce565b60405180910390fd5b61053f83611359565b61057e576040517f08c379a00000000000000000000000000000000000000000000000000000000081526004016105759061210e565b60405180910390fd5b60016004846040516105909190611e7d565b908152602001604051809103902060006101000a81548160ff021916908360028111156105c0576105bf612435565b5b0217905550600560008154809291906105d89061238e565b9190505550505050565b600260009054906101000a900473ffffffffffffffffffffffffffffffffffffffff1681565b600660019054906101000a900460ff1681565b6000806106266112db565b600660019054906101000a900460ff1615610676576040517f08c379a000000000000000000000000000000000000000000000000000000000815260040161066d906120ee565b60405180910390fd5b6000600260009054906101000a900473ffffffffffffffffffffffffffffffffffffffff1690506000808273ffffffffffffffffffffffffffffffffffffffff1663a7f70611336040518263ffffffff1660e01b81526004016106d99190611f2b565b60006040518083038186803b1580156106f157600080fd5b505afa158015610705573d6000803e3d6000fd5b505050506040513d6000823e3d601f19601f8201168201806040525081019061072e9190611a03565b9150915060008373ffffffffffffffffffffffffffffffffffffffff16631f3ce1d36040518163ffffffff1660e01b815260040160006040518083038186803b15801561077a57600080fd5b505afa15801561078e573d6000803e3d6000fd5b505050506040513d6000823e3d601f19601f820116820180604052508101906107b79190611a5f565b905060005b835181101561096f57600060028111156107d9576107d8612435565b5b8482815181106107ec576107eb612493565b5b6020026020010151600281111561080657610805612435565b5b1461095c5761082e82828151811061082157610820612493565b5b6020026020010151611359565b1561095b57600560008154809291906108469061238e565b91905055506001600281111561085f5761085e612435565b5b84828151811061087257610871612493565b5b6020026020010151600281111561088c5761088b612435565b5b14156108f857600160048383815181106108a9576108a8612493565b5b60200260200101516040516108be9190611e7d565b908152602001604051809103902060006101000a81548160ff021916908360028111156108ee576108ed612435565b5b021790555061095a565b6002600483838151811061090f5761090e612493565b5b60200260200101516040516109249190611e7d565b908152602001604051809103902060006101000a81548160ff0219169083600281111561095457610953612435565b5b02179055505b5b5b80806109679061238e565b9150506107bc565b5081600660006101000a81548160ff0219169083151502179055506001600660016101000a81548160ff021916908315150217905550600554600660009054906101000a900460ff1695509550505050509091565b6109cc6112db565b600660019054906101000a900460ff16610a1b576040517f08c379a0000000000000000000000000000000000000000000000000000000008152600401610a129061200e565b60405180910390fd5b600660009054906101000a900460ff1615610a6b576040517f08c379a0000000000000000000000000000000000000000000000000000000008152600401610a6290611fee565b60405180910390fd5b60006002811115610a7f57610a7e612435565b5b600482604051610a8f9190611e7d565b908152602001604051809103902060009054906101000a900460ff166002811115610abd57610abc612435565b5b14610afd576040517f08c379a0000000000000000000000000000000000000000000000000000000008152600401610af49061204e565b60405180910390fd5b6000600260009054906101000a900473ffffffffffffffffffffffffffffffffffffffff16905060008173ffffffffffffffffffffffffffffffffffffffff16633434d8bb33856040518363ffffffff1660e01b8152600401610b61929190611f46565b60206040518083038186803b158015610b7957600080fd5b505afa158015610b8d573d6000803e3d6000fd5b505050506040513d601f19601f82011682018060405250810190610bb19190611ad5565b905060006002811115610bc757610bc6612435565b5b816002811115610bda57610bd9612435565b5b1415610c1b576040517f08c379a0000000000000000000000000000000000000000000000000000000008152600401610c129061202e565b60405180910390fd5b60016002811115610c2f57610c2e612435565b5b816002811115610c4257610c41612435565b5b1415610c83576040517f08c379a0000000000000000000000000000000000000000000000000000000008152600401610c7a9061208e565b60405180910390fd5b610c8c83611359565b610ccb576040517f08c379a0000000000000000000000000000000000000000000000000000000008152600401610cc29061210e565b60405180910390fd5b6002600484604051610cdd9190611e7d565b908152602001604051809103902060006101000a81548160ff02191690836002811115610d0d57610d0c612435565b5b021790555060056000815480929190610d259061238e565b9190505550505050565b6060600660019054906101000a900460ff16610d80576040517f08c379a0000000000000000000000000000000000000000000000000000000008152600401610d779061200e565b60405180910390fd5b600060405180602001604052806000815250905060006005541415610ddc576040518060400160405280600181526020017f30000000000000000000000000000000000000000000000000000000000000008152509050610e87565b60005b600180549050811015610e855781610e50600460018481548110610e0657610e05612493565b5b90600052602060002001604051610e1d9190611eda565b908152602001604051809103902060009054906101000a900460ff166002811115610e4b57610e4a612435565b5b61144b565b604051602001610e61929190611e94565b60405160208183030381529060405291508080610e7d9061238e565b915050610ddf565b505b80604051602001610e989190611eb8565b60405160208183030381529060405290506060600660009054906101000a900460ff1615610f01576040518060600160405280602e815260200161284f602e913982604051602001610eeb929190611ef1565b6040516020818303038152906040529050610f3e565b6040518060600160405280602e8152602001612821602e913982604051602001610f2c929190611ef1565b60405160208183030381529060405290505b809250505090565b610f4e6112db565b600660019054906101000a900460ff16610f9d576040517f08c379a0000000000000000000000000000000000000000000000000000000008152600401610f949061200e565b60405180910390fd5b600660009054906101000a900460ff1615610fed576040517f08c379a0000000000000000000000000000000000000000000000000000000008152600401610fe49061206e565b60405180910390fd5b6000600260009054906101000a900473ffffffffffffffffffffffffffffffffffffffff16905060008173ffffffffffffffffffffffffffffffffffffffff166368a4c8b7336040518263ffffffff1660e01b815260040161104f9190611f2b565b60206040518083038186803b15801561106757600080fd5b505afa15801561107b573d6000803e3d6000fd5b505050506040513d601f19601f8201168201806040525081019061109f9190611aa8565b9050806110e1576040517f08c379a00000000000000000000000000000000000000000000000000000000081526004016110d89061212e565b60405180910390fd5b6001600660006101000a81548160ff0219169083151502179055505050565b6000600660019054906101000a900460ff16611151576040517f08c379a00000000000000000000000000000000000000000000000000000000081526004016111489061200e565b60405180910390fd5b600660009054906101000a900460ff16905090565b600360009054906101000a900473ffffffffffffffffffffffffffffffffffffffff1681565b6111946112db565b61119e6000611523565b565b60008060009054906101000a900473ffffffffffffffffffffffffffffffffffffffff16905090565b60006004826040516111db9190611e7d565b908152602001604051809103902060009054906101000a900460ff169050919050565b6000600660019054906101000a900460ff1661124f576040517f08c379a00000000000000000000000000000000000000000000000000000000081526004016112469061200e565b60405180910390fd5b600554905090565b61125f6112db565b600073ffffffffffffffffffffffffffffffffffffffff168173ffffffffffffffffffffffffffffffffffffffff1614156112cf576040517f08c379a00000000000000000000000000000000000000000000000000000000081526004016112c690611fce565b60405180910390fd5b6112d881611523565b50565b6112e36115e7565b73ffffffffffffffffffffffffffffffffffffffff166113016111a0565b73ffffffffffffffffffffffffffffffffffffffff1614611357576040517f08c379a000000000000000000000000000000000000000000000000000000000815260040161134e906120ae565b60405180910390fd5b565b600080600090505b6001805490508110156114405761141e6001828154811061138557611384612493565b5b90600052602060002001805461139a9061232b565b80601f01602080910402602001604051908101604052809291908181526020018280546113c69061232b565b80156114135780601f106113e857610100808354040283529160200191611413565b820191906000526020600020905b8154815290600101906020018083116113f657829003601f168201915b5050505050846115ef565b1561142d576001915050611446565b80806114389061238e565b915050611361565b50600090505b919050565b60606000600161145a8461160a565b01905060008167ffffffffffffffff811115611479576114786124c2565b5b6040519080825280601f01601f1916602001820160405280156114ab5781602001600182028036833780820191505090505b509050600082602001820190505b600115611518578080600190039150507f3031323334353637383961626364656600000000000000000000000000000000600a86061a8153600a858161150257611501612406565b5b049450600085141561151357611518565b6114b9565b819350505050919050565b60008060009054906101000a900473ffffffffffffffffffffffffffffffffffffffff169050816000806101000a81548173ffffffffffffffffffffffffffffffffffffffff021916908373ffffffffffffffffffffffffffffffffffffffff1602179055508173ffffffffffffffffffffffffffffffffffffffff168173ffffffffffffffffffffffffffffffffffffffff167f8be0079c531659141344cd1fd0a4f28419497f9722a3daafe3b4186f6b6457e060405160405180910390a35050565b600033905090565b60008180519060200120838051906020012014905092915050565b600080600090507a184f03e93ff9f4daa797ed6e38ed64bf6a1f0100000000000000008310611668577a184f03e93ff9f4daa797ed6e38ed64bf6a1f010000000000000000838161165e5761165d612406565b5b0492506040810190505b6d04ee2d6d415b85acef810000000083106116a5576d04ee2d6d415b85acef8100000000838161169b5761169a612406565b5b0492506020810190505b662386f26fc1000083106116d457662386f26fc1000083816116ca576116c9612406565b5b0492506010810190505b6305f5e10083106116fd576305f5e10083816116f3576116f2612406565b5b0492506008810190505b612710831061172257612710838161171857611717612406565b5b0492506004810190505b60648310611745576064838161173b5761173a612406565b5b0492506002810190505b600a8310611754576001810190505b80915050919050565b600061177061176b846121b7565b612192565b90508083825260208201905082856020860282011115611793576117926124f6565b5b60005b858110156117c357816117a98882611965565b845260208401935060208301925050600181019050611796565b5050509392505050565b60006117e06117db846121e3565b612192565b90508083825260208201905082856020860282011115611803576118026124f6565b5b60005b8581101561185157815167ffffffffffffffff811115611829576118286124f1565b5b80860161183689826119a8565b85526020850194506020840193505050600181019050611806565b5050509392505050565b600061186e6118698461220f565b612192565b90508281526020810184848401111561188a576118896124fb565b5b6118958482856122e9565b509392505050565b60006118b06118ab8461220f565b612192565b9050828152602081018484840111156118cc576118cb6124fb565b5b6118d78482856122f8565b509392505050565b6000813590506118ee816127e2565b92915050565b600082601f830112611909576119086124f1565b5b815161191984826020860161175d565b91505092915050565b600082601f830112611937576119366124f1565b5b81516119478482602086016117cd565b91505092915050565b60008151905061195f816127f9565b92915050565b60008151905061197481612810565b92915050565b600082601f83011261198f5761198e6124f1565b5b813561199f84826020860161185b565b91505092915050565b600082601f8301126119bd576119bc6124f1565b5b81516119cd84826020860161189d565b91505092915050565b6000602082840312156119ec576119eb612505565b5b60006119fa848285016118df565b91505092915050565b60008060408385031215611a1a57611a19612505565b5b600083015167ffffffffffffffff811115611a3857611a37612500565b5b611a44858286016118f4565b9250506020611a5585828601611950565b9150509250929050565b600060208284031215611a7557611a74612505565b5b600082015167ffffffffffffffff811115611a9357611a92612500565b5b611a9f84828501611922565b91505092915050565b600060208284031215611abe57611abd612505565b5b6000611acc84828501611950565b91505092915050565b600060208284031215611aeb57611aea612505565b5b6000611af984828501611965565b91505092915050565b600060208284031215611b1857611b17612505565b5b600082013567ffffffffffffffff811115611b3657611b35612500565b5b611b428482850161197a565b91505092915050565b611b548161227c565b82525050565b611b638161228e565b82525050565b611b72816122d7565b82525050565b6000611b8382612255565b611b8d8185612260565b9350611b9d8185602086016122f8565b611ba68161250a565b840191505092915050565b6000611bbc82612255565b611bc68185612271565b9350611bd68185602086016122f8565b80840191505092915050565b60008154611bef8161232b565b611bf98186612271565b94506001821660008114611c145760018114611c2557611c58565b60ff19831686528186019350611c58565b611c2e85612240565b60005b83811015611c5057815481890152600182019150602081019050611c31565b838801955050505b50505092915050565b6000611c6e600a83612271565b9150611c798261251b565b600a82019050919050565b6000611c91602683612260565b9150611c9c82612544565b604082019050919050565b6000611cb4602d83612260565b9150611cbf82612593565b604082019050919050565b6000611cd7601383612260565b9150611ce2826125e2565b602082019050919050565b6000611cfa600f83612260565b9150611d058261260b565b602082019050919050565b6000611d1d600d83612271565b9150611d2882612634565b600d82019050919050565b6000611d40601e83612260565b9150611d4b8261265d565b602082019050919050565b6000611d63601e83612260565b9150611d6e82612686565b602082019050919050565b6000611d86601983612260565b9150611d91826126af565b602082019050919050565b6000611da9602083612260565b9150611db4826126d8565b602082019050919050565b6000611dcc601683612260565b9150611dd782612701565b602082019050919050565b6000611def601783612260565b9150611dfa8261272a565b602082019050919050565b6000611e12602083612260565b9150611e1d82612753565b602082019050919050565b6000611e35600483612271565b9150611e408261277c565b600482019050919050565b6000611e58601583612260565b9150611e63826127a5565b602082019050919050565b611e77816122cd565b82525050565b6000611e898284611bb1565b915081905092915050565b6000611ea08285611bb1565b9150611eac8284611bb1565b91508190509392505050565b6000611ec48284611bb1565b9150611ecf82611e28565b915081905092915050565b6000611ee68284611be2565b915081905092915050565b6000611efc82611d10565b9150611f088285611bb1565b9150611f1382611c61565b9150611f1f8284611bb1565b91508190509392505050565b6000602082019050611f406000830184611b4b565b92915050565b6000604082019050611f5b6000830185611b4b565b8181036020830152611f6d8184611b78565b90509392505050565b6000602082019050611f8b6000830184611b5a565b92915050565b6000602082019050611fa66000830184611b69565b92915050565b60006020820190508181036000830152611fc68184611b78565b905092915050565b60006020820190508181036000830152611fe781611c84565b9050919050565b6000602082019050818103600083015261200781611ca7565b9050919050565b6000602082019050818103600083015261202781611cca565b9050919050565b6000602082019050818103600083015261204781611ced565b9050919050565b6000602082019050818103600083015261206781611d33565b9050919050565b6000602082019050818103600083015261208781611d56565b9050919050565b600060208201905081810360008301526120a781611d79565b9050919050565b600060208201905081810360008301526120c781611d9c565b9050919050565b600060208201905081810360008301526120e781611dbf565b9050919050565b6000602082019050818103600083015261210781611de2565b9050919050565b6000602082019050818103600083015261212781611e05565b9050919050565b6000602082019050818103600083015261214781611e4b565b9050919050565b60006020820190506121636000830184611e6e565b92915050565b600060408201905061217e6000830185611e6e565b61218b6020830184611b5a565b9392505050565b600061219c6121ad565b90506121a8828261235d565b919050565b6000604051905090565b600067ffffffffffffffff8211156121d2576121d16124c2565b5b602082029050602081019050919050565b600067ffffffffffffffff8211156121fe576121fd6124c2565b5b602082029050602081019050919050565b600067ffffffffffffffff82111561222a576122296124c2565b5b6122338261250a565b9050602081019050919050565b60008190508160005260206000209050919050565b600081519050919050565b600082825260208201905092915050565b600081905092915050565b6000612287826122ad565b9050919050565b60008115159050919050565b60008190506122a8826127ce565b919050565b600073ffffffffffffffffffffffffffffffffffffffff82169050919050565b6000819050919050565b60006122e28261229a565b9050919050565b82818337600083830152505050565b60005b838110156123165780820151818401526020810190506122fb565b83811115612325576000848401525b50505050565b6000600282049050600182168061234357607f821691505b6020821081141561235757612356612464565b5b50919050565b6123668261250a565b810181811067ffffffffffffffff82111715612385576123846124c2565b5b80604052505050565b6000612399826122cd565b91507fffffffffffffffffffffffffffffffffffffffffffffffffffffffffffffffff8214156123cc576123cb6123d7565b5b600182019050919050565b7f4e487b7100000000000000000000000000000000000000000000000000000000600052601160045260246000fd5b7f4e487b7100000000000000000000000000000000000000000000000000000000600052601260045260246000fd5b7f4e487b7100000000000000000000000000000000000000000000000000000000600052602160045260246000fd5b7f4e487b7100000000000000000000000000000000000000000000000000000000600052602260045260246000fd5b7f4e487b7100000000000000000000000000000000000000000000000000000000600052603260045260246000fd5b7f4e487b7100000000000000000000000000000000000000000000000000000000600052604160045260246000fd5b600080fd5b600080fd5b600080fd5b600080fd5b600080fd5b6000601f19601f8301169050919050565b7f3f66696c656e616d653d00000000000000000000000000000000000000000000600082015250565b7f4f776e61626c653a206e6577206f776e657220697320746865207a65726f206160008201527f6464726573730000000000000000000000000000000000000000000000000000602082015250565b7f4772616475617465642076657273696f6e206f6620746865206861742063616e60008201527f6e6f742062652065646974656400000000000000000000000000000000000000602082015250565b7f486174206e6f7420696e697469616c697a656400000000000000000000000000600082015250565b7f4578616d206e6f74207061737365640000000000000000000000000000000000600082015250565b7f697066732e696f2f696670732f00000000000000000000000000000000000000600082015250565b7f50696e20616c72656164792070757420666f722074686973206578616d210000600082015250565b7f4772616475617465642068617420616c7265616479206f627461696e65640000600082015250565b7f4578616d2070617373656420776974686f7574206d6572697400000000000000600082015250565b7f4f776e61626c653a2063616c6c6572206973206e6f7420746865206f776e6572600082015250565b7f4578616d207061737365642077697468206d6572697400000000000000000000600082015250565b7f48617420616c726561647920696e697469616c697a6564000000000000000000600082015250565b7f50696e206e6f7420617661696c61626c6520666f722074686973206578616d21600082015250565b7f2e676c6200000000000000000000000000000000000000000000000000000000600082015250565b7f596f7520617265206e6f74206772616475617465640000000000000000000000600082015250565b600381106127df576127de612435565b5b50565b6127eb8161227c565b81146127f657600080fd5b50565b6128028161228e565b811461280d57600080fd5b50565b6003811061281d57600080fd5b5056fe516d66485946757a504c4e7672474a37367855593779316653395a35777141784e43417a354a356a734135323241516d56334531565567397455796d52756f5237436f75663856774874726173464677453234423244533735543246a2646970667358221220c6ea1da6bada78e0c7af7f520dfbbb9aedccd306468c322ee17308045569594164736f6c63430008070033a2646970667358221220e585e9149aaa2da99ea8f868605226e6c0b02167bac67886e7b0af7ae904ddbb64736f6c63430008070033",
			"opcodes": "PUSH1 0x80 PUSH1 0x40 MSTORE CALLVALUE DUP1 ISZERO PUSH3 0x11 JUMPI PUSH1 0x0 DUP1 REVERT JUMPDEST POP PUSH1 0x40 MLOAD PUSH3 0x68C0 CODESIZE SUB DUP1 PUSH3 0x68C0 DUP4 CODECOPY DUP2 DUP2 ADD PUSH1 0x40 MSTORE DUP2 ADD SWAP1 PUSH3 0x37 SWAP2 SWAP1 PUSH3 0x345 JUMP JUMPDEST PUSH1 0x40 MLOAD DUP1 PUSH1 0x40 ADD PUSH1 0x40 MSTORE DUP1 PUSH1 0x13 DUP2 MSTORE PUSH1 0x20 ADD PUSH32 0x556E695069204D65746176657273652048617400000000000000000000000000 DUP2 MSTORE POP PUSH1 0x40 MLOAD DUP1 PUSH1 0x40 ADD PUSH1 0x40 MSTORE DUP1 PUSH1 0xA DUP2 MSTORE PUSH1 0x20 ADD PUSH32 0x554E4950494D5648415400000000000000000000000000000000000000000000 DUP2 MSTORE POP DUP2 PUSH1 0x0 SWAP1 DUP1 MLOAD SWAP1 PUSH1 0x20 ADD SWAP1 PUSH3 0xBB SWAP3 SWAP2 SWAP1 PUSH3 0x27E JUMP JUMPDEST POP DUP1 PUSH1 0x1 SWAP1 DUP1 MLOAD SWAP1 PUSH1 0x20 ADD SWAP1 PUSH3 0xD4 SWAP3 SWAP2 SWAP1 PUSH3 0x27E JUMP JUMPDEST POP POP POP PUSH3 0xF7 PUSH3 0xEB PUSH3 0x1B0 PUSH1 0x20 SHL PUSH1 0x20 SHR JUMP JUMPDEST PUSH3 0x1B8 PUSH1 0x20 SHL PUSH1 0x20 SHR JUMP JUMPDEST DUP1 PUSH20 0xFFFFFFFFFFFFFFFFFFFFFFFFFFFFFFFFFFFFFFFF AND DUP2 PUSH20 0xFFFFFFFFFFFFFFFFFFFFFFFFFFFFFFFFFFFFFFFF AND EQ PUSH3 0x168 JUMPI PUSH1 0x40 MLOAD PUSH32 0x8C379A000000000000000000000000000000000000000000000000000000000 DUP2 MSTORE PUSH1 0x4 ADD PUSH3 0x15F SWAP1 PUSH3 0x39E JUMP JUMPDEST PUSH1 0x40 MLOAD DUP1 SWAP2 SUB SWAP1 REVERT JUMPDEST DUP1 PUSH1 0x7 PUSH1 0x0 PUSH2 0x100 EXP DUP2 SLOAD DUP2 PUSH20 0xFFFFFFFFFFFFFFFFFFFFFFFFFFFFFFFFFFFFFFFF MUL NOT AND SWAP1 DUP4 PUSH20 0xFFFFFFFFFFFFFFFFFFFFFFFFFFFFFFFFFFFFFFFF AND MUL OR SWAP1 SSTORE POP POP PUSH3 0x4B2 JUMP JUMPDEST PUSH1 0x0 CALLER SWAP1 POP SWAP1 JUMP JUMPDEST PUSH1 0x0 PUSH1 0x6 PUSH1 0x0 SWAP1 SLOAD SWAP1 PUSH2 0x100 EXP SWAP1 DIV PUSH20 0xFFFFFFFFFFFFFFFFFFFFFFFFFFFFFFFFFFFFFFFF AND SWAP1 POP DUP2 PUSH1 0x6 PUSH1 0x0 PUSH2 0x100 EXP DUP2 SLOAD DUP2 PUSH20 0xFFFFFFFFFFFFFFFFFFFFFFFFFFFFFFFFFFFFFFFF MUL NOT AND SWAP1 DUP4 PUSH20 0xFFFFFFFFFFFFFFFFFFFFFFFFFFFFFFFFFFFFFFFF AND MUL OR SWAP1 SSTORE POP DUP2 PUSH20 0xFFFFFFFFFFFFFFFFFFFFFFFFFFFFFFFFFFFFFFFF AND DUP2 PUSH20 0xFFFFFFFFFFFFFFFFFFFFFFFFFFFFFFFFFFFFFFFF AND PUSH32 0x8BE0079C531659141344CD1FD0A4F28419497F9722A3DAAFE3B4186F6B6457E0 PUSH1 0x40 MLOAD PUSH1 0x40 MLOAD DUP1 SWAP2 SUB SWAP1 LOG3 POP POP JUMP JUMPDEST DUP3 DUP1 SLOAD PUSH3 0x28C SWAP1 PUSH3 0x405 JUMP JUMPDEST SWAP1 PUSH1 0x0 MSTORE PUSH1 0x20 PUSH1 0x0 KECCAK256 SWAP1 PUSH1 0x1F ADD PUSH1 0x20 SWAP1 DIV DUP2 ADD SWAP3 DUP3 PUSH3 0x2B0 JUMPI PUSH1 0x0 DUP6 SSTORE PUSH3 0x2FC JUMP JUMPDEST DUP3 PUSH1 0x1F LT PUSH3 0x2CB JUMPI DUP1 MLOAD PUSH1 0xFF NOT AND DUP4 DUP1 ADD OR DUP6 SSTORE PUSH3 0x2FC JUMP JUMPDEST DUP3 DUP1 ADD PUSH1 0x1 ADD DUP6 SSTORE DUP3 ISZERO PUSH3 0x2FC JUMPI SWAP2 DUP3 ADD JUMPDEST DUP3 DUP2 GT ISZERO PUSH3 0x2FB JUMPI DUP3 MLOAD DUP3 SSTORE SWAP2 PUSH1 0x20 ADD SWAP2 SWAP1 PUSH1 0x1 ADD SWAP1 PUSH3 0x2DE JUMP JUMPDEST JUMPDEST POP SWAP1 POP PUSH3 0x30B SWAP2 SWAP1 PUSH3 0x30F JUMP JUMPDEST POP SWAP1 JUMP JUMPDEST JUMPDEST DUP1 DUP3 GT ISZERO PUSH3 0x32A JUMPI PUSH1 0x0 DUP2 PUSH1 0x0 SWAP1 SSTORE POP PUSH1 0x1 ADD PUSH3 0x310 JUMP JUMPDEST POP SWAP1 JUMP JUMPDEST PUSH1 0x0 DUP2 MLOAD SWAP1 POP PUSH3 0x33F DUP2 PUSH3 0x498 JUMP JUMPDEST SWAP3 SWAP2 POP POP JUMP JUMPDEST PUSH1 0x0 PUSH1 0x20 DUP3 DUP5 SUB SLT ISZERO PUSH3 0x35E JUMPI PUSH3 0x35D PUSH3 0x46A JUMP JUMPDEST JUMPDEST PUSH1 0x0 PUSH3 0x36E DUP5 DUP3 DUP6 ADD PUSH3 0x32E JUMP JUMPDEST SWAP2 POP POP SWAP3 SWAP2 POP POP JUMP JUMPDEST PUSH1 0x0 PUSH3 0x386 PUSH1 0xF DUP4 PUSH3 0x3C0 JUMP JUMPDEST SWAP2 POP PUSH3 0x393 DUP3 PUSH3 0x46F JUMP JUMPDEST PUSH1 0x20 DUP3 ADD SWAP1 POP SWAP2 SWAP1 POP JUMP JUMPDEST PUSH1 0x0 PUSH1 0x20 DUP3 ADD SWAP1 POP DUP2 DUP2 SUB PUSH1 0x0 DUP4 ADD MSTORE PUSH3 0x3B9 DUP2 PUSH3 0x377 JUMP JUMPDEST SWAP1 POP SWAP2 SWAP1 POP JUMP JUMPDEST PUSH1 0x0 DUP3 DUP3 MSTORE PUSH1 0x20 DUP3 ADD SWAP1 POP SWAP3 SWAP2 POP POP JUMP JUMPDEST PUSH1 0x0 PUSH3 0x3DE DUP3 PUSH3 0x3E5 JUMP JUMPDEST SWAP1 POP SWAP2 SWAP1 POP JUMP JUMPDEST PUSH1 0x0 PUSH20 0xFFFFFFFFFFFFFFFFFFFFFFFFFFFFFFFFFFFFFFFF DUP3 AND SWAP1 POP SWAP2 SWAP1 POP JUMP JUMPDEST PUSH1 0x0 PUSH1 0x2 DUP3 DIV SWAP1 POP PUSH1 0x1 DUP3 AND DUP1 PUSH3 0x41E JUMPI PUSH1 0x7F DUP3 AND SWAP2 POP JUMPDEST PUSH1 0x20 DUP3 LT DUP2 EQ ISZERO PUSH3 0x435 JUMPI PUSH3 0x434 PUSH3 0x43B JUMP JUMPDEST JUMPDEST POP SWAP2 SWAP1 POP JUMP JUMPDEST PUSH32 0x4E487B7100000000000000000000000000000000000000000000000000000000 PUSH1 0x0 MSTORE PUSH1 0x22 PUSH1 0x4 MSTORE PUSH1 0x24 PUSH1 0x0 REVERT JUMPDEST PUSH1 0x0 DUP1 REVERT JUMPDEST PUSH32 0x496E76616C696420616464726573730000000000000000000000000000000000 PUSH1 0x0 DUP3 ADD MSTORE POP JUMP JUMPDEST PUSH3 0x4A3 DUP2 PUSH3 0x3D1 JUMP JUMPDEST DUP2 EQ PUSH3 0x4AF JUMPI PUSH1 0x0 DUP1 REVERT JUMPDEST POP JUMP JUMPDEST PUSH2 0x63FE DUP1 PUSH3 0x4C2 PUSH1 0x0 CODECOPY PUSH1 0x0 RETURN INVALID PUSH1 0x80 PUSH1 0x40 MSTORE CALLVALUE DUP1 ISZERO PUSH3 0x11 JUMPI PUSH1 0x0 DUP1 REVERT JUMPDEST POP PUSH1 0x4 CALLDATASIZE LT PUSH3 0x13C JUMPI PUSH1 0x0 CALLDATALOAD PUSH1 0xE0 SHR DUP1 PUSH4 0x6A627842 GT PUSH3 0xBD JUMPI DUP1 PUSH4 0xA22CB465 GT PUSH3 0x7B JUMPI DUP1 PUSH4 0xA22CB465 EQ PUSH3 0x363 JUMPI DUP1 PUSH4 0xB88D4FDE EQ PUSH3 0x383 JUMPI DUP1 PUSH4 0xC87B56DD EQ PUSH3 0x3A3 JUMPI DUP1 PUSH4 0xE985E9C5 EQ PUSH3 0x3D9 JUMPI DUP1 PUSH4 0xF2FDE38B EQ PUSH3 0x40F JUMPI PUSH3 0x13C JUMP JUMPDEST DUP1 PUSH4 0x6A627842 EQ PUSH3 0x2A7 JUMPI DUP1 PUSH4 0x70A08231 EQ PUSH3 0x2DD JUMPI DUP1 PUSH4 0x715018A6 EQ PUSH3 0x313 JUMPI DUP1 PUSH4 0x8DA5CB5B EQ PUSH3 0x31F JUMPI DUP1 PUSH4 0x95D89B41 EQ PUSH3 0x341 JUMPI PUSH3 0x13C JUMP JUMPDEST DUP1 PUSH4 0x23B872DD GT PUSH3 0x10B JUMPI DUP1 PUSH4 0x23B872DD EQ PUSH3 0x1EF JUMPI DUP1 PUSH4 0x2710AC80 EQ PUSH3 0x20F JUMPI DUP1 PUSH4 0x2CAFF17E EQ PUSH3 0x231 JUMPI DUP1 PUSH4 0x42842E0E EQ PUSH3 0x251 JUMPI DUP1 PUSH4 0x6352211E EQ PUSH3 0x271 JUMPI PUSH3 0x13C JUMP JUMPDEST DUP1 PUSH4 0x1FFC9A7 EQ PUSH3 0x141 JUMPI DUP1 PUSH4 0x6FDDE03 EQ PUSH3 0x177 JUMPI DUP1 PUSH4 0x81812FC EQ PUSH3 0x199 JUMPI DUP1 PUSH4 0x95EA7B3 EQ PUSH3 0x1CF JUMPI JUMPDEST PUSH1 0x0 DUP1 REVERT JUMPDEST PUSH3 0x15F PUSH1 0x4 DUP1 CALLDATASIZE SUB DUP2 ADD SWAP1 PUSH3 0x159 SWAP2 SWAP1 PUSH3 0x2519 JUMP JUMPDEST PUSH3 0x42F JUMP JUMPDEST PUSH1 0x40 MLOAD PUSH3 0x16E SWAP2 SWAP1 PUSH3 0x29D9 JUMP JUMPDEST PUSH1 0x40 MLOAD DUP1 SWAP2 SUB SWAP1 RETURN JUMPDEST PUSH3 0x181 PUSH3 0x515 JUMP JUMPDEST PUSH1 0x40 MLOAD PUSH3 0x190 SWAP2 SWAP1 PUSH3 0x29F6 JUMP JUMPDEST PUSH1 0x40 MLOAD DUP1 SWAP2 SUB SWAP1 RETURN JUMPDEST PUSH3 0x1B7 PUSH1 0x4 DUP1 CALLDATASIZE SUB DUP2 ADD SWAP1 PUSH3 0x1B1 SWAP2 SWAP1 PUSH3 0x2632 JUMP JUMPDEST PUSH3 0x5AF JUMP JUMPDEST PUSH1 0x40 MLOAD PUSH3 0x1C6 SWAP2 SWAP1 PUSH3 0x293B JUMP JUMPDEST PUSH1 0x40 MLOAD DUP1 SWAP2 SUB SWAP1 RETURN JUMPDEST PUSH3 0x1ED PUSH1 0x4 DUP1 CALLDATASIZE SUB DUP2 ADD SWAP1 PUSH3 0x1E7 SWAP2 SWAP1 PUSH3 0x244F JUMP JUMPDEST PUSH3 0x5F7 JUMP JUMPDEST STOP JUMPDEST PUSH3 0x20D PUSH1 0x4 DUP1 CALLDATASIZE SUB DUP2 ADD SWAP1 PUSH3 0x207 SWAP2 SWAP1 PUSH3 0x231B JUMP JUMPDEST PUSH3 0x720 JUMP JUMPDEST STOP JUMPDEST PUSH3 0x219 PUSH3 0x789 JUMP JUMPDEST PUSH1 0x40 MLOAD PUSH3 0x228 SWAP2 SWAP1 PUSH3 0x293B JUMP JUMPDEST PUSH1 0x40 MLOAD DUP1 SWAP2 SUB SWAP1 RETURN JUMPDEST PUSH3 0x24F PUSH1 0x4 DUP1 CALLDATASIZE SUB DUP2 ADD SWAP1 PUSH3 0x249 SWAP2 SWAP1 PUSH3 0x231B JUMP JUMPDEST PUSH3 0x7AF JUMP JUMPDEST STOP JUMPDEST PUSH3 0x26F PUSH1 0x4 DUP1 CALLDATASIZE SUB DUP2 ADD SWAP1 PUSH3 0x269 SWAP2 SWAP1 PUSH3 0x231B JUMP JUMPDEST PUSH3 0xC06 JUMP JUMPDEST STOP JUMPDEST PUSH3 0x28F PUSH1 0x4 DUP1 CALLDATASIZE SUB DUP2 ADD SWAP1 PUSH3 0x289 SWAP2 SWAP1 PUSH3 0x2632 JUMP JUMPDEST PUSH3 0xC28 JUMP JUMPDEST PUSH1 0x40 MLOAD PUSH3 0x29E SWAP2 SWAP1 PUSH3 0x293B JUMP JUMPDEST PUSH1 0x40 MLOAD DUP1 SWAP2 SUB SWAP1 RETURN JUMPDEST PUSH3 0x2C5 PUSH1 0x4 DUP1 CALLDATASIZE SUB DUP2 ADD SWAP1 PUSH3 0x2BF SWAP2 SWAP1 PUSH3 0x22A2 JUMP JUMPDEST PUSH3 0xCB4 JUMP JUMPDEST PUSH1 0x40 MLOAD PUSH3 0x2D4 SWAP2 SWAP1 PUSH3 0x293B JUMP JUMPDEST PUSH1 0x40 MLOAD DUP1 SWAP2 SUB SWAP1 RETURN JUMPDEST PUSH3 0x2FB PUSH1 0x4 DUP1 CALLDATASIZE SUB DUP2 ADD SWAP1 PUSH3 0x2F5 SWAP2 SWAP1 PUSH3 0x22A2 JUMP JUMPDEST PUSH3 0xDC6 JUMP JUMPDEST PUSH1 0x40 MLOAD PUSH3 0x30A SWAP2 SWAP1 PUSH3 0x2BF6 JUMP JUMPDEST PUSH1 0x40 MLOAD DUP1 SWAP2 SUB SWAP1 RETURN JUMPDEST PUSH3 0x31D PUSH3 0xE81 JUMP JUMPDEST STOP JUMPDEST PUSH3 0x329 PUSH3 0xE99 JUMP JUMPDEST PUSH1 0x40 MLOAD PUSH3 0x338 SWAP2 SWAP1 PUSH3 0x293B JUMP JUMPDEST PUSH1 0x40 MLOAD DUP1 SWAP2 SUB SWAP1 RETURN JUMPDEST PUSH3 0x34B PUSH3 0xEC3 JUMP JUMPDEST PUSH1 0x40 MLOAD PUSH3 0x35A SWAP2 SWAP1 PUSH3 0x29F6 JUMP JUMPDEST PUSH1 0x40 MLOAD DUP1 SWAP2 SUB SWAP1 RETURN JUMPDEST PUSH3 0x381 PUSH1 0x4 DUP1 CALLDATASIZE SUB DUP2 ADD SWAP1 PUSH3 0x37B SWAP2 SWAP1 PUSH3 0x2408 JUMP JUMPDEST PUSH3 0xF5D JUMP JUMPDEST STOP JUMPDEST PUSH3 0x3A1 PUSH1 0x4 DUP1 CALLDATASIZE SUB DUP2 ADD SWAP1 PUSH3 0x39B SWAP2 SWAP1 PUSH3 0x2377 JUMP JUMPDEST PUSH3 0xF77 JUMP JUMPDEST STOP JUMPDEST PUSH3 0x3C1 PUSH1 0x4 DUP1 CALLDATASIZE SUB DUP2 ADD SWAP1 PUSH3 0x3BB SWAP2 SWAP1 PUSH3 0x2632 JUMP JUMPDEST PUSH3 0xFE2 JUMP JUMPDEST PUSH1 0x40 MLOAD PUSH3 0x3D0 SWAP2 SWAP1 PUSH3 0x29F6 JUMP JUMPDEST PUSH1 0x40 MLOAD DUP1 SWAP2 SUB SWAP1 RETURN JUMPDEST PUSH3 0x3F7 PUSH1 0x4 DUP1 CALLDATASIZE SUB DUP2 ADD SWAP1 PUSH3 0x3F1 SWAP2 SWAP1 PUSH3 0x22D4 JUMP JUMPDEST PUSH3 0x1093 JUMP JUMPDEST PUSH1 0x40 MLOAD PUSH3 0x406 SWAP2 SWAP1 PUSH3 0x29D9 JUMP JUMPDEST PUSH1 0x40 MLOAD DUP1 SWAP2 SUB SWAP1 RETURN JUMPDEST PUSH3 0x42D PUSH1 0x4 DUP1 CALLDATASIZE SUB DUP2 ADD SWAP1 PUSH3 0x427 SWAP2 SWAP1 PUSH3 0x22A2 JUMP JUMPDEST PUSH3 0x1127 JUMP JUMPDEST STOP JUMPDEST PUSH1 0x0 PUSH32 0x80AC58CD00000000000000000000000000000000000000000000000000000000 PUSH28 0xFFFFFFFFFFFFFFFFFFFFFFFFFFFFFFFFFFFFFFFFFFFFFFFFFFFFFFFF NOT AND DUP3 PUSH28 0xFFFFFFFFFFFFFFFFFFFFFFFFFFFFFFFFFFFFFFFFFFFFFFFFFFFFFFFF NOT AND EQ DUP1 PUSH3 0x4FB JUMPI POP PUSH32 0x5B5E139F00000000000000000000000000000000000000000000000000000000 PUSH28 0xFFFFFFFFFFFFFFFFFFFFFFFFFFFFFFFFFFFFFFFFFFFFFFFFFFFFFFFF NOT AND DUP3 PUSH28 0xFFFFFFFFFFFFFFFFFFFFFFFFFFFFFFFFFFFFFFFFFFFFFFFFFFFFFFFF NOT AND EQ JUMPDEST DUP1 PUSH3 0x50E JUMPI POP PUSH3 0x50D DUP3 PUSH3 0x11B2 JUMP JUMPDEST JUMPDEST SWAP1 POP SWAP2 SWAP1 POP JUMP JUMPDEST PUSH1 0x60 PUSH1 0x0 DUP1 SLOAD PUSH3 0x526 SWAP1 PUSH3 0x2E62 JUMP JUMPDEST DUP1 PUSH1 0x1F ADD PUSH1 0x20 DUP1 SWAP2 DIV MUL PUSH1 0x20 ADD PUSH1 0x40 MLOAD SWAP1 DUP2 ADD PUSH1 0x40 MSTORE DUP1 SWAP3 SWAP2 SWAP1 DUP2 DUP2 MSTORE PUSH1 0x20 ADD DUP3 DUP1 SLOAD PUSH3 0x554 SWAP1 PUSH3 0x2E62 JUMP JUMPDEST DUP1 ISZERO PUSH3 0x5A5 JUMPI DUP1 PUSH1 0x1F LT PUSH3 0x579 JUMPI PUSH2 0x100 DUP1 DUP4 SLOAD DIV MUL DUP4 MSTORE SWAP2 PUSH1 0x20 ADD SWAP2 PUSH3 0x5A5 JUMP JUMPDEST DUP3 ADD SWAP2 SWAP1 PUSH1 0x0 MSTORE PUSH1 0x20 PUSH1 0x0 KECCAK256 SWAP1 JUMPDEST DUP2 SLOAD DUP2 MSTORE SWAP1 PUSH1 0x1 ADD SWAP1 PUSH1 0x20 ADD DUP1 DUP4 GT PUSH3 0x587 JUMPI DUP3 SWAP1 SUB PUSH1 0x1F AND DUP3 ADD SWAP2 JUMPDEST POP POP POP POP POP SWAP1 POP SWAP1 JUMP JUMPDEST PUSH1 0x0 PUSH3 0x5BC DUP3 PUSH3 0x121C JUMP JUMPDEST PUSH1 0x4 PUSH1 0x0 DUP4 DUP2 MSTORE PUSH1 0x20 ADD SWAP1 DUP2 MSTORE PUSH1 0x20 ADD PUSH1 0x0 KECCAK256 PUSH1 0x0 SWAP1 SLOAD SWAP1 PUSH2 0x100 EXP SWAP1 DIV PUSH20 0xFFFFFFFFFFFFFFFFFFFFFFFFFFFFFFFFFFFFFFFF AND SWAP1 POP SWAP2 SWAP1 POP JUMP JUMPDEST PUSH1 0x0 PUSH3 0x604 DUP3 PUSH3 0xC28 JUMP JUMPDEST SWAP1 POP DUP1 PUSH20 0xFFFFFFFFFFFFFFFFFFFFFFFFFFFFFFFFFFFFFFFF AND DUP4 PUSH20 0xFFFFFFFFFFFFFFFFFFFFFFFFFFFFFFFFFFFFFFFF AND EQ ISZERO PUSH3 0x678 JUMPI PUSH1 0x40 MLOAD PUSH32 0x8C379A000000000000000000000000000000000000000000000000000000000 DUP2 MSTORE PUSH1 0x4 ADD PUSH3 0x66F SWAP1 PUSH3 0x2BB2 JUMP JUMPDEST PUSH1 0x40 MLOAD DUP1 SWAP2 SUB SWAP1 REVERT JUMPDEST DUP1 PUSH20 0xFFFFFFFFFFFFFFFFFFFFFFFFFFFFFFFFFFFFFFFF AND PUSH3 0x699 PUSH3 0x126C JUMP JUMPDEST PUSH20 0xFFFFFFFFFFFFFFFFFFFFFFFFFFFFFFFFFFFFFFFF AND EQ DUP1 PUSH3 0x6CD JUMPI POP PUSH3 0x6CC DUP2 PUSH3 0x6C6 PUSH3 0x126C JUMP JUMPDEST PUSH3 0x1093 JUMP JUMPDEST JUMPDEST PUSH3 0x70F JUMPI PUSH1 0x40 MLOAD PUSH32 0x8C379A000000000000000000000000000000000000000000000000000000000 DUP2 MSTORE PUSH1 0x4 ADD PUSH3 0x706 SWAP1 PUSH3 0x2BD4 JUMP JUMPDEST PUSH1 0x40 MLOAD DUP1 SWAP2 SUB SWAP1 REVERT JUMPDEST PUSH3 0x71B DUP4 DUP4 PUSH3 0x1274 JUMP JUMPDEST POP POP POP JUMP JUMPDEST PUSH3 0x735 PUSH3 0x72E PUSH3 0x126C JUMP JUMPDEST DUP3 PUSH3 0x132F JUMP JUMPDEST PUSH3 0x777 JUMPI PUSH1 0x40 MLOAD PUSH32 0x8C379A000000000000000000000000000000000000000000000000000000000 DUP2 MSTORE PUSH1 0x4 ADD PUSH3 0x76E SWAP1 PUSH3 0x2A1A JUMP JUMPDEST PUSH1 0x40 MLOAD DUP1 SWAP2 SUB SWAP1 REVERT JUMPDEST PUSH3 0x784 DUP4 DUP4 DUP4 PUSH3 0x13CC JUMP JUMPDEST POP POP POP JUMP JUMPDEST PUSH1 0x7 PUSH1 0x0 SWAP1 SLOAD SWAP1 PUSH2 0x100 EXP SWAP1 DIV PUSH20 0xFFFFFFFFFFFFFFFFFFFFFFFFFFFFFFFFFFFFFFFF AND DUP2 JUMP JUMPDEST PUSH1 0x0 PUSH1 0x7 PUSH1 0x0 SWAP1 SLOAD SWAP1 PUSH2 0x100 EXP SWAP1 DIV PUSH20 0xFFFFFFFFFFFFFFFFFFFFFFFFFFFFFFFFFFFFFFFF AND SWAP1 POP PUSH1 0x0 DUP2 PUSH20 0xFFFFFFFFFFFFFFFFFFFFFFFFFFFFFFFFFFFFFFFF AND PUSH4 0x1F3CE1D3 PUSH1 0x40 MLOAD DUP2 PUSH4 0xFFFFFFFF AND PUSH1 0xE0 SHL DUP2 MSTORE PUSH1 0x4 ADD PUSH1 0x0 PUSH1 0x40 MLOAD DUP1 DUP4 SUB DUP2 DUP7 DUP1 EXTCODESIZE ISZERO DUP1 ISZERO PUSH3 0x81F JUMPI PUSH1 0x0 DUP1 REVERT JUMPDEST POP GAS STATICCALL ISZERO DUP1 ISZERO PUSH3 0x834 JUMPI RETURNDATASIZE PUSH1 0x0 DUP1 RETURNDATACOPY RETURNDATASIZE PUSH1 0x0 REVERT JUMPDEST POP POP POP POP PUSH1 0x40 MLOAD RETURNDATASIZE PUSH1 0x0 DUP3 RETURNDATACOPY RETURNDATASIZE PUSH1 0x1F NOT PUSH1 0x1F DUP3 ADD AND DUP3 ADD DUP1 PUSH1 0x40 MSTORE POP DUP2 ADD SWAP1 PUSH3 0x85F SWAP2 SWAP1 PUSH3 0x2496 JUMP JUMPDEST SWAP1 POP PUSH1 0x0 DUP4 SWAP1 POP DUP1 PUSH20 0xFFFFFFFFFFFFFFFFFFFFFFFFFFFFFFFFFFFFFFFF AND PUSH4 0x6053EF38 PUSH1 0x40 MLOAD DUP2 PUSH4 0xFFFFFFFF AND PUSH1 0xE0 SHL DUP2 MSTORE PUSH1 0x4 ADD PUSH1 0x20 PUSH1 0x40 MLOAD DUP1 DUP4 SUB DUP2 DUP7 DUP1 EXTCODESIZE ISZERO DUP1 ISZERO PUSH3 0x8AD JUMPI PUSH1 0x0 DUP1 REVERT JUMPDEST POP GAS STATICCALL ISZERO DUP1 ISZERO PUSH3 0x8C2 JUMPI RETURNDATASIZE PUSH1 0x0 DUP1 RETURNDATACOPY RETURNDATASIZE PUSH1 0x0 REVERT JUMPDEST POP POP POP POP PUSH1 0x40 MLOAD RETURNDATASIZE PUSH1 0x1F NOT PUSH1 0x1F DUP3 ADD AND DUP3 ADD DUP1 PUSH1 0x40 MSTORE POP DUP2 ADD SWAP1 PUSH3 0x8E8 SWAP2 SWAP1 PUSH3 0x24E7 JUMP JUMPDEST ISZERO ISZERO DUP4 PUSH20 0xFFFFFFFFFFFFFFFFFFFFFFFFFFFFFFFFFFFFFFFF AND PUSH4 0x68A4C8B7 DUP8 PUSH1 0x40 MLOAD DUP3 PUSH4 0xFFFFFFFF AND PUSH1 0xE0 SHL DUP2 MSTORE PUSH1 0x4 ADD PUSH3 0x925 SWAP2 SWAP1 PUSH3 0x293B JUMP JUMPDEST PUSH1 0x20 PUSH1 0x40 MLOAD DUP1 DUP4 SUB DUP2 DUP7 DUP1 EXTCODESIZE ISZERO DUP1 ISZERO PUSH3 0x93E JUMPI PUSH1 0x0 DUP1 REVERT JUMPDEST POP GAS STATICCALL ISZERO DUP1 ISZERO PUSH3 0x953 JUMPI RETURNDATASIZE PUSH1 0x0 DUP1 RETURNDATACOPY RETURNDATASIZE PUSH1 0x0 REVERT JUMPDEST POP POP POP POP PUSH1 0x40 MLOAD RETURNDATASIZE PUSH1 0x1F NOT PUSH1 0x1F DUP3 ADD AND DUP3 ADD DUP1 PUSH1 0x40 MSTORE POP DUP2 ADD SWAP1 PUSH3 0x979 SWAP2 SWAP1 PUSH3 0x24E7 JUMP JUMPDEST ISZERO ISZERO EQ PUSH3 0x9BE JUMPI PUSH1 0x40 MLOAD PUSH32 0x8C379A000000000000000000000000000000000000000000000000000000000 DUP2 MSTORE PUSH1 0x4 ADD PUSH3 0x9B5 SWAP1 PUSH3 0x2B6E JUMP JUMPDEST PUSH1 0x40 MLOAD DUP1 SWAP2 SUB SWAP1 REVERT JUMPDEST PUSH1 0x0 JUMPDEST DUP3 MLOAD DUP2 LT ISZERO PUSH3 0xBE0 JUMPI PUSH1 0x0 PUSH1 0x2 DUP2 GT ISZERO PUSH3 0x9E2 JUMPI PUSH3 0x9E1 PUSH3 0x2F4B JUMP JUMPDEST JUMPDEST DUP3 PUSH20 0xFFFFFFFFFFFFFFFFFFFFFFFFFFFFFFFFFFFFFFFF AND PUSH4 0xC93FB857 DUP6 DUP5 DUP2 MLOAD DUP2 LT PUSH3 0xA14 JUMPI PUSH3 0xA13 PUSH3 0x2FA9 JUMP JUMPDEST JUMPDEST PUSH1 0x20 MUL PUSH1 0x20 ADD ADD MLOAD PUSH1 0x40 MLOAD DUP3 PUSH4 0xFFFFFFFF AND PUSH1 0xE0 SHL DUP2 MSTORE PUSH1 0x4 ADD PUSH3 0xA3A SWAP2 SWAP1 PUSH3 0x29F6 JUMP JUMPDEST PUSH1 0x20 PUSH1 0x40 MLOAD DUP1 DUP4 SUB DUP2 DUP7 DUP1 EXTCODESIZE ISZERO DUP1 ISZERO PUSH3 0xA53 JUMPI PUSH1 0x0 DUP1 REVERT JUMPDEST POP GAS STATICCALL ISZERO DUP1 ISZERO PUSH3 0xA68 JUMPI RETURNDATASIZE PUSH1 0x0 DUP1 RETURNDATACOPY RETURNDATASIZE PUSH1 0x0 REVERT JUMPDEST POP POP POP POP PUSH1 0x40 MLOAD RETURNDATASIZE PUSH1 0x1F NOT PUSH1 0x1F DUP3 ADD AND DUP3 ADD DUP1 PUSH1 0x40 MSTORE POP DUP2 ADD SWAP1 PUSH3 0xA8E SWAP2 SWAP1 PUSH3 0x25AF JUMP JUMPDEST PUSH1 0x2 DUP2 GT ISZERO PUSH3 0xAA3 JUMPI PUSH3 0xAA2 PUSH3 0x2F4B JUMP JUMPDEST JUMPDEST EQ ISZERO DUP1 ISZERO PUSH3 0xB87 JUMPI POP PUSH1 0x0 PUSH1 0x2 DUP2 GT ISZERO PUSH3 0xAC4 JUMPI PUSH3 0xAC3 PUSH3 0x2F4B JUMP JUMPDEST JUMPDEST DUP5 PUSH20 0xFFFFFFFFFFFFFFFFFFFFFFFFFFFFFFFFFFFFFFFF AND PUSH4 0x86DB377A DUP6 DUP5 DUP2 MLOAD DUP2 LT PUSH3 0xAF6 JUMPI PUSH3 0xAF5 PUSH3 0x2FA9 JUMP JUMPDEST JUMPDEST PUSH1 0x20 MUL PUSH1 0x20 ADD ADD MLOAD PUSH1 0x40 MLOAD DUP3 PUSH4 0xFFFFFFFF AND PUSH1 0xE0 SHL DUP2 MSTORE PUSH1 0x4 ADD PUSH3 0xB1C SWAP2 SWAP1 PUSH3 0x29F6 JUMP JUMPDEST PUSH1 0x20 PUSH1 0x40 MLOAD DUP1 DUP4 SUB DUP2 DUP7 DUP1 EXTCODESIZE ISZERO DUP1 ISZERO PUSH3 0xB35 JUMPI PUSH1 0x0 DUP1 REVERT JUMPDEST POP GAS STATICCALL ISZERO DUP1 ISZERO PUSH3 0xB4A JUMPI RETURNDATASIZE PUSH1 0x0 DUP1 RETURNDATACOPY RETURNDATASIZE PUSH1 0x0 REVERT JUMPDEST POP POP POP POP PUSH1 0x40 MLOAD RETURNDATASIZE PUSH1 0x1F NOT PUSH1 0x1F DUP3 ADD AND DUP3 ADD DUP1 PUSH1 0x40 MSTORE POP DUP2 ADD SWAP1 PUSH3 0xB70 SWAP2 SWAP1 PUSH3 0x257D JUMP JUMPDEST PUSH1 0x2 DUP2 GT ISZERO PUSH3 0xB85 JUMPI PUSH3 0xB84 PUSH3 0x2F4B JUMP JUMPDEST JUMPDEST EQ JUMPDEST ISZERO PUSH3 0xBCA JUMPI PUSH1 0x40 MLOAD PUSH32 0x8C379A000000000000000000000000000000000000000000000000000000000 DUP2 MSTORE PUSH1 0x4 ADD PUSH3 0xBC1 SWAP1 PUSH3 0x2B6E JUMP JUMPDEST PUSH1 0x40 MLOAD DUP1 SWAP2 SUB SWAP1 REVERT JUMPDEST DUP1 DUP1 PUSH3 0xBD7 SWAP1 PUSH3 0x2ECE JUMP JUMPDEST SWAP2 POP POP PUSH3 0x9C1 JUMP JUMPDEST POP PUSH3 0xBFE DUP7 DUP7 DUP7 PUSH1 0x40 MLOAD DUP1 PUSH1 0x20 ADD PUSH1 0x40 MSTORE DUP1 PUSH1 0x0 DUP2 MSTORE POP PUSH3 0xF77 JUMP JUMPDEST POP POP POP POP POP POP JUMP JUMPDEST PUSH3 0xC23 DUP4 DUP4 DUP4 PUSH1 0x40 MLOAD DUP1 PUSH1 0x20 ADD PUSH1 0x40 MSTORE DUP1 PUSH1 0x0 DUP2 MSTORE POP PUSH3 0xF77 JUMP JUMPDEST POP POP POP JUMP JUMPDEST PUSH1 0x0 DUP1 PUSH3 0xC36 DUP4 PUSH3 0x16D7 JUMP JUMPDEST SWAP1 POP PUSH1 0x0 PUSH20 0xFFFFFFFFFFFFFFFFFFFFFFFFFFFFFFFFFFFFFFFF AND DUP2 PUSH20 0xFFFFFFFFFFFFFFFFFFFFFFFFFFFFFFFFFFFFFFFF AND EQ ISZERO PUSH3 0xCAB JUMPI PUSH1 0x40 MLOAD PUSH32 0x8C379A000000000000000000000000000000000000000000000000000000000 DUP2 MSTORE PUSH1 0x4 ADD PUSH3 0xCA2 SWAP1 PUSH3 0x2B90 JUMP JUMPDEST PUSH1 0x40 MLOAD DUP1 SWAP2 SUB SWAP1 REVERT JUMPDEST DUP1 SWAP2 POP POP SWAP2 SWAP1 POP JUMP JUMPDEST PUSH1 0x0 DUP1 PUSH1 0x7 PUSH1 0x0 SWAP1 SLOAD SWAP1 PUSH2 0x100 EXP SWAP1 DIV PUSH20 0xFFFFFFFFFFFFFFFFFFFFFFFFFFFFFFFFFFFFFFFF AND ADDRESS PUSH1 0x40 MLOAD PUSH3 0xCE9 SWAP1 PUSH3 0x2011 JUMP JUMPDEST PUSH3 0xCF6 SWAP3 SWAP2 SWAP1 PUSH3 0x2958 JUMP JUMPDEST PUSH1 0x40 MLOAD DUP1 SWAP2 SUB SWAP1 PUSH1 0x0 CREATE DUP1 ISZERO DUP1 ISZERO PUSH3 0xD13 JUMPI RETURNDATASIZE PUSH1 0x0 DUP1 RETURNDATACOPY RETURNDATASIZE PUSH1 0x0 REVERT JUMPDEST POP SWAP1 POP DUP1 PUSH20 0xFFFFFFFFFFFFFFFFFFFFFFFFFFFFFFFFFFFFFFFF AND PUSH4 0xF2FDE38B DUP5 PUSH1 0x40 MLOAD DUP3 PUSH4 0xFFFFFFFF AND PUSH1 0xE0 SHL DUP2 MSTORE PUSH1 0x4 ADD PUSH3 0xD51 SWAP2 SWAP1 PUSH3 0x293B JUMP JUMPDEST PUSH1 0x0 PUSH1 0x40 MLOAD DUP1 DUP4 SUB DUP2 PUSH1 0x0 DUP8 DUP1 EXTCODESIZE ISZERO DUP1 ISZERO PUSH3 0xD6C JUMPI PUSH1 0x0 DUP1 REVERT JUMPDEST POP GAS CALL ISZERO DUP1 ISZERO PUSH3 0xD81 JUMPI RETURNDATASIZE PUSH1 0x0 DUP1 RETURNDATACOPY RETURNDATASIZE PUSH1 0x0 REVERT JUMPDEST POP POP POP POP PUSH1 0x0 DUP2 PUSH20 0xFFFFFFFFFFFFFFFFFFFFFFFFFFFFFFFFFFFFFFFF AND SWAP1 POP PUSH3 0xDBC DUP5 DUP3 PUSH1 0x40 MLOAD DUP1 PUSH1 0x20 ADD PUSH1 0x40 MSTORE DUP1 PUSH1 0x0 DUP2 MSTORE POP PUSH3 0x1714 JUMP JUMPDEST DUP2 SWAP3 POP POP POP SWAP2 SWAP1 POP JUMP JUMPDEST PUSH1 0x0 DUP1 PUSH20 0xFFFFFFFFFFFFFFFFFFFFFFFFFFFFFFFFFFFFFFFF AND DUP3 PUSH20 0xFFFFFFFFFFFFFFFFFFFFFFFFFFFFFFFFFFFFFFFF AND EQ ISZERO PUSH3 0xE3A JUMPI PUSH1 0x40 MLOAD PUSH32 0x8C379A000000000000000000000000000000000000000000000000000000000 DUP2 MSTORE PUSH1 0x4 ADD PUSH3 0xE31 SWAP1 PUSH3 0x2B08 JUMP JUMPDEST PUSH1 0x40 MLOAD DUP1 SWAP2 SUB SWAP1 REVERT JUMPDEST PUSH1 0x3 PUSH1 0x0 DUP4 PUSH20 0xFFFFFFFFFFFFFFFFFFFFFFFFFFFFFFFFFFFFFFFF AND PUSH20 0xFFFFFFFFFFFFFFFFFFFFFFFFFFFFFFFFFFFFFFFF AND DUP2 MSTORE PUSH1 0x20 ADD SWAP1 DUP2 MSTORE PUSH1 0x20 ADD PUSH1 0x0 KECCAK256 SLOAD SWAP1 POP SWAP2 SWAP1 POP JUMP JUMPDEST PUSH3 0xE8B PUSH3 0x1776 JUMP JUMPDEST PUSH3 0xE97 PUSH1 0x0 PUSH3 0x17FB JUMP JUMPDEST JUMP JUMPDEST PUSH1 0x0 PUSH1 0x6 PUSH1 0x0 SWAP1 SLOAD SWAP1 PUSH2 0x100 EXP SWAP1 DIV PUSH20 0xFFFFFFFFFFFFFFFFFFFFFFFFFFFFFFFFFFFFFFFF AND SWAP1 POP SWAP1 JUMP JUMPDEST PUSH1 0x60 PUSH1 0x1 DUP1 SLOAD PUSH3 0xED4 SWAP1 PUSH3 0x2E62 JUMP JUMPDEST DUP1 PUSH1 0x1F ADD PUSH1 0x20 DUP1 SWAP2 DIV MUL PUSH1 0x20 ADD PUSH1 0x40 MLOAD SWAP1 DUP2 ADD PUSH1 0x40 MSTORE DUP1 SWAP3 SWAP2 SWAP1 DUP2 DUP2 MSTORE PUSH1 0x20 ADD DUP3 DUP1 SLOAD PUSH3 0xF02 SWAP1 PUSH3 0x2E62 JUMP JUMPDEST DUP1 ISZERO PUSH3 0xF53 JUMPI DUP1 PUSH1 0x1F LT PUSH3 0xF27 JUMPI PUSH2 0x100 DUP1 DUP4 SLOAD DIV MUL DUP4 MSTORE SWAP2 PUSH1 0x20 ADD SWAP2 PUSH3 0xF53 JUMP JUMPDEST DUP3 ADD SWAP2 SWAP1 PUSH1 0x0 MSTORE PUSH1 0x20 PUSH1 0x0 KECCAK256 SWAP1 JUMPDEST DUP2 SLOAD DUP2 MSTORE SWAP1 PUSH1 0x1 ADD SWAP1 PUSH1 0x20 ADD DUP1 DUP4 GT PUSH3 0xF35 JUMPI DUP3 SWAP1 SUB PUSH1 0x1F AND DUP3 ADD SWAP2 JUMPDEST POP POP POP POP POP SWAP1 POP SWAP1 JUMP JUMPDEST PUSH3 0xF73 PUSH3 0xF6B PUSH3 0x126C JUMP JUMPDEST DUP4 DUP4 PUSH3 0x18C1 JUMP JUMPDEST POP POP JUMP JUMPDEST PUSH3 0xF8C PUSH3 0xF85 PUSH3 0x126C JUMP JUMPDEST DUP4 PUSH3 0x132F JUMP JUMPDEST PUSH3 0xFCE JUMPI PUSH1 0x40 MLOAD PUSH32 0x8C379A000000000000000000000000000000000000000000000000000000000 DUP2 MSTORE PUSH1 0x4 ADD PUSH3 0xFC5 SWAP1 PUSH3 0x2A1A JUMP JUMPDEST PUSH1 0x40 MLOAD DUP1 SWAP2 SUB SWAP1 REVERT JUMPDEST PUSH3 0xFDC DUP5 DUP5 DUP5 DUP5 PUSH3 0x1A33 JUMP JUMPDEST POP POP POP POP JUMP JUMPDEST PUSH1 0x60 PUSH3 0xFEF DUP3 PUSH3 0x121C JUMP JUMPDEST PUSH1 0x0 PUSH3 0xFFC DUP4 PUSH3 0x1A96 JUMP JUMPDEST SWAP1 POP PUSH1 0x0 DUP2 SWAP1 POP DUP1 PUSH20 0xFFFFFFFFFFFFFFFFFFFFFFFFFFFFFFFFFFFFFFFF AND PUSH4 0x29012CAB PUSH1 0x40 MLOAD DUP2 PUSH4 0xFFFFFFFF AND PUSH1 0xE0 SHL DUP2 MSTORE PUSH1 0x4 ADD PUSH1 0x0 PUSH1 0x40 MLOAD DUP1 DUP4 SUB DUP2 DUP7 DUP1 EXTCODESIZE ISZERO DUP1 ISZERO PUSH3 0x104A JUMPI PUSH1 0x0 DUP1 REVERT JUMPDEST POP GAS STATICCALL ISZERO DUP1 ISZERO PUSH3 0x105F JUMPI RETURNDATASIZE PUSH1 0x0 DUP1 RETURNDATACOPY RETURNDATASIZE PUSH1 0x0 REVERT JUMPDEST POP POP POP POP PUSH1 0x40 MLOAD RETURNDATASIZE PUSH1 0x0 DUP3 RETURNDATACOPY RETURNDATASIZE PUSH1 0x1F NOT PUSH1 0x1F DUP3 ADD AND DUP3 ADD DUP1 PUSH1 0x40 MSTORE POP DUP2 ADD SWAP1 PUSH3 0x108A SWAP2 SWAP1 PUSH3 0x25E1 JUMP JUMPDEST SWAP3 POP POP POP SWAP2 SWAP1 POP JUMP JUMPDEST PUSH1 0x0 PUSH1 0x5 PUSH1 0x0 DUP5 PUSH20 0xFFFFFFFFFFFFFFFFFFFFFFFFFFFFFFFFFFFFFFFF AND PUSH20 0xFFFFFFFFFFFFFFFFFFFFFFFFFFFFFFFFFFFFFFFF AND DUP2 MSTORE PUSH1 0x20 ADD SWAP1 DUP2 MSTORE PUSH1 0x20 ADD PUSH1 0x0 KECCAK256 PUSH1 0x0 DUP4 PUSH20 0xFFFFFFFFFFFFFFFFFFFFFFFFFFFFFFFFFFFFFFFF AND PUSH20 0xFFFFFFFFFFFFFFFFFFFFFFFFFFFFFFFFFFFFFFFF AND DUP2 MSTORE PUSH1 0x20 ADD SWAP1 DUP2 MSTORE PUSH1 0x20 ADD PUSH1 0x0 KECCAK256 PUSH1 0x0 SWAP1 SLOAD SWAP1 PUSH2 0x100 EXP SWAP1 DIV PUSH1 0xFF AND SWAP1 POP SWAP3 SWAP2 POP POP JUMP JUMPDEST PUSH3 0x1131 PUSH3 0x1776 JUMP JUMPDEST PUSH1 0x0 PUSH20 0xFFFFFFFFFFFFFFFFFFFFFFFFFFFFFFFFFFFFFFFF AND DUP2 PUSH20 0xFFFFFFFFFFFFFFFFFFFFFFFFFFFFFFFFFFFFFFFF AND EQ ISZERO PUSH3 0x11A4 JUMPI PUSH1 0x40 MLOAD PUSH32 0x8C379A000000000000000000000000000000000000000000000000000000000 DUP2 MSTORE PUSH1 0x4 ADD PUSH3 0x119B SWAP1 PUSH3 0x2A5E JUMP JUMPDEST PUSH1 0x40 MLOAD DUP1 SWAP2 SUB SWAP1 REVERT JUMPDEST PUSH3 0x11AF DUP2 PUSH3 0x17FB JUMP JUMPDEST POP JUMP JUMPDEST PUSH1 0x0 PUSH32 0x1FFC9A700000000000000000000000000000000000000000000000000000000 PUSH28 0xFFFFFFFFFFFFFFFFFFFFFFFFFFFFFFFFFFFFFFFFFFFFFFFFFFFFFFFF NOT AND DUP3 PUSH28 0xFFFFFFFFFFFFFFFFFFFFFFFFFFFFFFFFFFFFFFFFFFFFFFFFFFFFFFFF NOT AND EQ SWAP1 POP SWAP2 SWAP1 POP JUMP JUMPDEST PUSH3 0x1227 DUP2 PUSH3 0x1AA0 JUMP JUMPDEST PUSH3 0x1269 JUMPI PUSH1 0x40 MLOAD PUSH32 0x8C379A000000000000000000000000000000000000000000000000000000000 DUP2 MSTORE PUSH1 0x4 ADD PUSH3 0x1260 SWAP1 PUSH3 0x2B90 JUMP JUMPDEST PUSH1 0x40 MLOAD DUP1 SWAP2 SUB SWAP1 REVERT JUMPDEST POP JUMP JUMPDEST PUSH1 0x0 CALLER SWAP1 POP SWAP1 JUMP JUMPDEST DUP2 PUSH1 0x4 PUSH1 0x0 DUP4 DUP2 MSTORE PUSH1 0x20 ADD SWAP1 DUP2 MSTORE PUSH1 0x20 ADD PUSH1 0x0 KECCAK256 PUSH1 0x0 PUSH2 0x100 EXP DUP2 SLOAD DUP2 PUSH20 0xFFFFFFFFFFFFFFFFFFFFFFFFFFFFFFFFFFFFFFFF MUL NOT AND SWAP1 DUP4 PUSH20 0xFFFFFFFFFFFFFFFFFFFFFFFFFFFFFFFFFFFFFFFF AND MUL OR SWAP1 SSTORE POP DUP1 DUP3 PUSH20 0xFFFFFFFFFFFFFFFFFFFFFFFFFFFFFFFFFFFFFFFF AND PUSH3 0x12E9 DUP4 PUSH3 0xC28 JUMP JUMPDEST PUSH20 0xFFFFFFFFFFFFFFFFFFFFFFFFFFFFFFFFFFFFFFFF AND PUSH32 0x8C5BE1E5EBEC7D5BD14F71427D1E84F3DD0314C0F7B2291E5B200AC8C7C3B925 PUSH1 0x40 MLOAD PUSH1 0x40 MLOAD DUP1 SWAP2 SUB SWAP1 LOG4 POP POP JUMP JUMPDEST PUSH1 0x0 DUP1 PUSH3 0x133D DUP4 PUSH3 0xC28 JUMP JUMPDEST SWAP1 POP DUP1 PUSH20 0xFFFFFFFFFFFFFFFFFFFFFFFFFFFFFFFFFFFFFFFF AND DUP5 PUSH20 0xFFFFFFFFFFFFFFFFFFFFFFFFFFFFFFFFFFFFFFFF AND EQ DUP1 PUSH3 0x1382 JUMPI POP PUSH3 0x1381 DUP2 DUP6 PUSH3 0x1093 JUMP JUMPDEST JUMPDEST DUP1 PUSH3 0x13C3 JUMPI POP DUP4 PUSH20 0xFFFFFFFFFFFFFFFFFFFFFFFFFFFFFFFFFFFFFFFF AND PUSH3 0x13AB DUP5 PUSH3 0x5AF JUMP JUMPDEST PUSH20 0xFFFFFFFFFFFFFFFFFFFFFFFFFFFFFFFFFFFFFFFF AND EQ JUMPDEST SWAP2 POP POP SWAP3 SWAP2 POP POP JUMP JUMPDEST DUP3 PUSH20 0xFFFFFFFFFFFFFFFFFFFFFFFFFFFFFFFFFFFFFFFF AND PUSH3 0x13EE DUP3 PUSH3 0xC28 JUMP JUMPDEST PUSH20 0xFFFFFFFFFFFFFFFFFFFFFFFFFFFFFFFFFFFFFFFF AND EQ PUSH3 0x1447 JUMPI PUSH1 0x40 MLOAD PUSH32 0x8C379A000000000000000000000000000000000000000000000000000000000 DUP2 MSTORE PUSH1 0x4 ADD PUSH3 0x143E SWAP1 PUSH3 0x2A80 JUMP JUMPDEST PUSH1 0x40 MLOAD DUP1 SWAP2 SUB SWAP1 REVERT JUMPDEST PUSH1 0x0 PUSH20 0xFFFFFFFFFFFFFFFFFFFFFFFFFFFFFFFFFFFFFFFF AND DUP3 PUSH20 0xFFFFFFFFFFFFFFFFFFFFFFFFFFFFFFFFFFFFFFFF AND EQ ISZERO PUSH3 0x14BA JUMPI PUSH1 0x40 MLOAD PUSH32 0x8C379A000000000000000000000000000000000000000000000000000000000 DUP2 MSTORE PUSH1 0x4 ADD PUSH3 0x14B1 SWAP1 PUSH3 0x2AC4 JUMP JUMPDEST PUSH1 0x40 MLOAD DUP1 SWAP2 SUB SWAP1 REVERT JUMPDEST PUSH3 0x14C9 DUP4 DUP4 DUP4 PUSH1 0x1 PUSH3 0x1AE3 JUMP JUMPDEST DUP3 PUSH20 0xFFFFFFFFFFFFFFFFFFFFFFFFFFFFFFFFFFFFFFFF AND PUSH3 0x14EB DUP3 PUSH3 0xC28 JUMP JUMPDEST PUSH20 0xFFFFFFFFFFFFFFFFFFFFFFFFFFFFFFFFFFFFFFFF AND EQ PUSH3 0x1544 JUMPI PUSH1 0x40 MLOAD PUSH32 0x8C379A000000000000000000000000000000000000000000000000000000000 DUP2 MSTORE PUSH1 0x4 ADD PUSH3 0x153B SWAP1 PUSH3 0x2A80 JUMP JUMPDEST PUSH1 0x40 MLOAD DUP1 SWAP2 SUB SWAP1 REVERT JUMPDEST PUSH1 0x4 PUSH1 0x0 DUP3 DUP2 MSTORE PUSH1 0x20 ADD SWAP1 DUP2 MSTORE PUSH1 0x20 ADD PUSH1 0x0 KECCAK256 PUSH1 0x0 PUSH2 0x100 EXP DUP2 SLOAD SWAP1 PUSH20 0xFFFFFFFFFFFFFFFFFFFFFFFFFFFFFFFFFFFFFFFF MUL NOT AND SWAP1 SSTORE PUSH1 0x1 PUSH1 0x3 PUSH1 0x0 DUP6 PUSH20 0xFFFFFFFFFFFFFFFFFFFFFFFFFFFFFFFFFFFFFFFF AND PUSH20 0xFFFFFFFFFFFFFFFFFFFFFFFFFFFFFFFFFFFFFFFF AND DUP2 MSTORE PUSH1 0x20 ADD SWAP1 DUP2 MSTORE PUSH1 0x20 ADD PUSH1 0x0 KECCAK256 PUSH1 0x0 DUP3 DUP3 SLOAD SUB SWAP3 POP POP DUP2 SWAP1 SSTORE POP PUSH1 0x1 PUSH1 0x3 PUSH1 0x0 DUP5 PUSH20 0xFFFFFFFFFFFFFFFFFFFFFFFFFFFFFFFFFFFFFFFF AND PUSH20 0xFFFFFFFFFFFFFFFFFFFFFFFFFFFFFFFFFFFFFFFF AND DUP2 MSTORE PUSH1 0x20 ADD SWAP1 DUP2 MSTORE PUSH1 0x20 ADD PUSH1 0x0 KECCAK256 PUSH1 0x0 DUP3 DUP3 SLOAD ADD SWAP3 POP POP DUP2 SWAP1 SSTORE POP DUP2 PUSH1 0x2 PUSH1 0x0 DUP4 DUP2 MSTORE PUSH1 0x20 ADD SWAP1 DUP2 MSTORE PUSH1 0x20 ADD PUSH1 0x0 KECCAK256 PUSH1 0x0 PUSH2 0x100 EXP DUP2 SLOAD DUP2 PUSH20 0xFFFFFFFFFFFFFFFFFFFFFFFFFFFFFFFFFFFFFFFF MUL NOT AND SWAP1 DUP4 PUSH20 0xFFFFFFFFFFFFFFFFFFFFFFFFFFFFFFFFFFFFFFFF AND MUL OR SWAP1 SSTORE POP DUP1 DUP3 PUSH20 0xFFFFFFFFFFFFFFFFFFFFFFFFFFFFFFFFFFFFFFFF AND DUP5 PUSH20 0xFFFFFFFFFFFFFFFFFFFFFFFFFFFFFFFFFFFFFFFF AND PUSH32 0xDDF252AD1BE2C89B69C2B068FC378DAA952BA7F163C4A11628F55A4DF523B3EF PUSH1 0x40 MLOAD PUSH1 0x40 MLOAD DUP1 SWAP2 SUB SWAP1 LOG4 PUSH3 0x16D2 DUP4 DUP4 DUP4 PUSH1 0x1 PUSH3 0x1C10 JUMP JUMPDEST POP POP POP JUMP JUMPDEST PUSH1 0x0 PUSH1 0x2 PUSH1 0x0 DUP4 DUP2 MSTORE PUSH1 0x20 ADD SWAP1 DUP2 MSTORE PUSH1 0x20 ADD PUSH1 0x0 KECCAK256 PUSH1 0x0 SWAP1 SLOAD SWAP1 PUSH2 0x100 EXP SWAP1 DIV PUSH20 0xFFFFFFFFFFFFFFFFFFFFFFFFFFFFFFFFFFFFFFFF AND SWAP1 POP SWAP2 SWAP1 POP JUMP JUMPDEST PUSH3 0x1720 DUP4 DUP4 PUSH3 0x1C16 JUMP JUMPDEST PUSH3 0x172F PUSH1 0x0 DUP5 DUP5 DUP5 PUSH3 0x1E45 JUMP JUMPDEST PUSH3 0x1771 JUMPI PUSH1 0x40 MLOAD PUSH32 0x8C379A000000000000000000000000000000000000000000000000000000000 DUP2 MSTORE PUSH1 0x4 ADD PUSH3 0x1768 SWAP1 PUSH3 0x2A3C JUMP JUMPDEST PUSH1 0x40 MLOAD DUP1 SWAP2 SUB SWAP1 REVERT JUMPDEST POP POP POP JUMP JUMPDEST PUSH3 0x1780 PUSH3 0x126C JUMP JUMPDEST PUSH20 0xFFFFFFFFFFFFFFFFFFFFFFFFFFFFFFFFFFFFFFFF AND PUSH3 0x17A0 PUSH3 0xE99 JUMP JUMPDEST PUSH20 0xFFFFFFFFFFFFFFFFFFFFFFFFFFFFFFFFFFFFFFFF AND EQ PUSH3 0x17F9 JUMPI PUSH1 0x40 MLOAD PUSH32 0x8C379A000000000000000000000000000000000000000000000000000000000 DUP2 MSTORE PUSH1 0x4 ADD PUSH3 0x17F0 SWAP1 PUSH3 0x2B4C JUMP JUMPDEST PUSH1 0x40 MLOAD DUP1 SWAP2 SUB SWAP1 REVERT JUMPDEST JUMP JUMPDEST PUSH1 0x0 PUSH1 0x6 PUSH1 0x0 SWAP1 SLOAD SWAP1 PUSH2 0x100 EXP SWAP1 DIV PUSH20 0xFFFFFFFFFFFFFFFFFFFFFFFFFFFFFFFFFFFFFFFF AND SWAP1 POP DUP2 PUSH1 0x6 PUSH1 0x0 PUSH2 0x100 EXP DUP2 SLOAD DUP2 PUSH20 0xFFFFFFFFFFFFFFFFFFFFFFFFFFFFFFFFFFFFFFFF MUL NOT AND SWAP1 DUP4 PUSH20 0xFFFFFFFFFFFFFFFFFFFFFFFFFFFFFFFFFFFFFFFF AND MUL OR SWAP1 SSTORE POP DUP2 PUSH20 0xFFFFFFFFFFFFFFFFFFFFFFFFFFFFFFFFFFFFFFFF AND DUP2 PUSH20 0xFFFFFFFFFFFFFFFFFFFFFFFFFFFFFFFFFFFFFFFF AND PUSH32 0x8BE0079C531659141344CD1FD0A4F28419497F9722A3DAAFE3B4186F6B6457E0 PUSH1 0x40 MLOAD PUSH1 0x40 MLOAD DUP1 SWAP2 SUB SWAP1 LOG3 POP POP JUMP JUMPDEST DUP2 PUSH20 0xFFFFFFFFFFFFFFFFFFFFFFFFFFFFFFFFFFFFFFFF AND DUP4 PUSH20 0xFFFFFFFFFFFFFFFFFFFFFFFFFFFFFFFFFFFFFFFF AND EQ ISZERO PUSH3 0x1933 JUMPI PUSH1 0x40 MLOAD PUSH32 0x8C379A000000000000000000000000000000000000000000000000000000000 DUP2 MSTORE PUSH1 0x4 ADD PUSH3 0x192A SWAP1 PUSH3 0x2AE6 JUMP JUMPDEST PUSH1 0x40 MLOAD DUP1 SWAP2 SUB SWAP1 REVERT JUMPDEST DUP1 PUSH1 0x5 PUSH1 0x0 DUP6 PUSH20 0xFFFFFFFFFFFFFFFFFFFFFFFFFFFFFFFFFFFFFFFF AND PUSH20 0xFFFFFFFFFFFFFFFFFFFFFFFFFFFFFFFFFFFFFFFF AND DUP2 MSTORE PUSH1 0x20 ADD SWAP1 DUP2 MSTORE PUSH1 0x20 ADD PUSH1 0x0 KECCAK256 PUSH1 0x0 DUP5 PUSH20 0xFFFFFFFFFFFFFFFFFFFFFFFFFFFFFFFFFFFFFFFF AND PUSH20 0xFFFFFFFFFFFFFFFFFFFFFFFFFFFFFFFFFFFFFFFF AND DUP2 MSTORE PUSH1 0x20 ADD SWAP1 DUP2 MSTORE PUSH1 0x20 ADD PUSH1 0x0 KECCAK256 PUSH1 0x0 PUSH2 0x100 EXP DUP2 SLOAD DUP2 PUSH1 0xFF MUL NOT AND SWAP1 DUP4 ISZERO ISZERO MUL OR SWAP1 SSTORE POP DUP2 PUSH20 0xFFFFFFFFFFFFFFFFFFFFFFFFFFFFFFFFFFFFFFFF AND DUP4 PUSH20 0xFFFFFFFFFFFFFFFFFFFFFFFFFFFFFFFFFFFFFFFF AND PUSH32 0x17307EAB39AB6107E8899845AD3D59BD9653F200F220920489CA2B5937696C31 DUP4 PUSH1 0x40 MLOAD PUSH3 0x1A26 SWAP2 SWAP1 PUSH3 0x29D9 JUMP JUMPDEST PUSH1 0x40 MLOAD DUP1 SWAP2 SUB SWAP1 LOG3 POP POP POP JUMP JUMPDEST PUSH3 0x1A40 DUP5 DUP5 DUP5 PUSH3 0x13CC JUMP JUMPDEST PUSH3 0x1A4E DUP5 DUP5 DUP5 DUP5 PUSH3 0x1E45 JUMP JUMPDEST PUSH3 0x1A90 JUMPI PUSH1 0x40 MLOAD PUSH32 0x8C379A000000000000000000000000000000000000000000000000000000000 DUP2 MSTORE PUSH1 0x4 ADD PUSH3 0x1A87 SWAP1 PUSH3 0x2A3C JUMP JUMPDEST PUSH1 0x40 MLOAD DUP1 SWAP2 SUB SWAP1 REVERT JUMPDEST POP POP POP POP JUMP JUMPDEST PUSH1 0x0 DUP2 SWAP1 POP SWAP2 SWAP1 POP JUMP JUMPDEST PUSH1 0x0 DUP1 PUSH20 0xFFFFFFFFFFFFFFFFFFFFFFFFFFFFFFFFFFFFFFFF AND PUSH3 0x1AC4 DUP4 PUSH3 0x16D7 JUMP JUMPDEST PUSH20 0xFFFFFFFFFFFFFFFFFFFFFFFFFFFFFFFFFFFFFFFF AND EQ ISZERO SWAP1 POP SWAP2 SWAP1 POP JUMP JUMPDEST PUSH1 0x1 DUP2 GT ISZERO PUSH3 0x1C0A JUMPI PUSH1 0x0 PUSH20 0xFFFFFFFFFFFFFFFFFFFFFFFFFFFFFFFFFFFFFFFF AND DUP5 PUSH20 0xFFFFFFFFFFFFFFFFFFFFFFFFFFFFFFFFFFFFFFFF AND EQ PUSH3 0x1B7B JUMPI DUP1 PUSH1 0x3 PUSH1 0x0 DUP7 PUSH20 0xFFFFFFFFFFFFFFFFFFFFFFFFFFFFFFFFFFFFFFFF AND PUSH20 0xFFFFFFFFFFFFFFFFFFFFFFFFFFFFFFFFFFFFFFFF AND DUP2 MSTORE PUSH1 0x20 ADD SWAP1 DUP2 MSTORE PUSH1 0x20 ADD PUSH1 0x0 KECCAK256 PUSH1 0x0 DUP3 DUP3 SLOAD PUSH3 0x1B73 SWAP2 SWAP1 PUSH3 0x2D6C JUMP JUMPDEST SWAP3 POP POP DUP2 SWAP1 SSTORE POP JUMPDEST PUSH1 0x0 PUSH20 0xFFFFFFFFFFFFFFFFFFFFFFFFFFFFFFFFFFFFFFFF AND DUP4 PUSH20 0xFFFFFFFFFFFFFFFFFFFFFFFFFFFFFFFFFFFFFFFF AND EQ PUSH3 0x1C09 JUMPI DUP1 PUSH1 0x3 PUSH1 0x0 DUP6 PUSH20 0xFFFFFFFFFFFFFFFFFFFFFFFFFFFFFFFFFFFFFFFF AND PUSH20 0xFFFFFFFFFFFFFFFFFFFFFFFFFFFFFFFFFFFFFFFF AND DUP2 MSTORE PUSH1 0x20 ADD SWAP1 DUP2 MSTORE PUSH1 0x20 ADD PUSH1 0x0 KECCAK256 PUSH1 0x0 DUP3 DUP3 SLOAD PUSH3 0x1C01 SWAP2 SWAP1 PUSH3 0x2D0F JUMP JUMPDEST SWAP3 POP POP DUP2 SWAP1 SSTORE POP JUMPDEST JUMPDEST POP POP POP POP JUMP JUMPDEST POP POP POP POP JUMP JUMPDEST PUSH1 0x0 PUSH20 0xFFFFFFFFFFFFFFFFFFFFFFFFFFFFFFFFFFFFFFFF AND DUP3 PUSH20 0xFFFFFFFFFFFFFFFFFFFFFFFFFFFFFFFFFFFFFFFF AND EQ ISZERO PUSH3 0x1C89 JUMPI PUSH1 0x40 MLOAD PUSH32 0x8C379A000000000000000000000000000000000000000000000000000000000 DUP2 MSTORE PUSH1 0x4 ADD PUSH3 0x1C80 SWAP1 PUSH3 0x2B2A JUMP JUMPDEST PUSH1 0x40 MLOAD DUP1 SWAP2 SUB SWAP1 REVERT JUMPDEST PUSH3 0x1C94 DUP2 PUSH3 0x1AA0 JUMP JUMPDEST ISZERO PUSH3 0x1CD7 JUMPI PUSH1 0x40 MLOAD PUSH32 0x8C379A000000000000000000000000000000000000000000000000000000000 DUP2 MSTORE PUSH1 0x4 ADD PUSH3 0x1CCE SWAP1 PUSH3 0x2AA2 JUMP JUMPDEST PUSH1 0x40 MLOAD DUP1 SWAP2 SUB SWAP1 REVERT JUMPDEST PUSH3 0x1CE7 PUSH1 0x0 DUP4 DUP4 PUSH1 0x1 PUSH3 0x1AE3 JUMP JUMPDEST PUSH3 0x1CF2 DUP2 PUSH3 0x1AA0 JUMP JUMPDEST ISZERO PUSH3 0x1D35 JUMPI PUSH1 0x40 MLOAD PUSH32 0x8C379A000000000000000000000000000000000000000000000000000000000 DUP2 MSTORE PUSH1 0x4 ADD PUSH3 0x1D2C SWAP1 PUSH3 0x2AA2 JUMP JUMPDEST PUSH1 0x40 MLOAD DUP1 SWAP2 SUB SWAP1 REVERT JUMPDEST PUSH1 0x1 PUSH1 0x3 PUSH1 0x0 DUP5 PUSH20 0xFFFFFFFFFFFFFFFFFFFFFFFFFFFFFFFFFFFFFFFF AND PUSH20 0xFFFFFFFFFFFFFFFFFFFFFFFFFFFFFFFFFFFFFFFF AND DUP2 MSTORE PUSH1 0x20 ADD SWAP1 DUP2 MSTORE PUSH1 0x20 ADD PUSH1 0x0 KECCAK256 PUSH1 0x0 DUP3 DUP3 SLOAD ADD SWAP3 POP POP DUP2 SWAP1 SSTORE POP DUP2 PUSH1 0x2 PUSH1 0x0 DUP4 DUP2 MSTORE PUSH1 0x20 ADD SWAP1 DUP2 MSTORE PUSH1 0x20 ADD PUSH1 0x0 KECCAK256 PUSH1 0x0 PUSH2 0x100 EXP DUP2 SLOAD DUP2 PUSH20 0xFFFFFFFFFFFFFFFFFFFFFFFFFFFFFFFFFFFFFFFF MUL NOT AND SWAP1 DUP4 PUSH20 0xFFFFFFFFFFFFFFFFFFFFFFFFFFFFFFFFFFFFFFFF AND MUL OR SWAP1 SSTORE POP DUP1 DUP3 PUSH20 0xFFFFFFFFFFFFFFFFFFFFFFFFFFFFFFFFFFFFFFFF AND PUSH1 0x0 PUSH20 0xFFFFFFFFFFFFFFFFFFFFFFFFFFFFFFFFFFFFFFFF AND PUSH32 0xDDF252AD1BE2C89B69C2B068FC378DAA952BA7F163C4A11628F55A4DF523B3EF PUSH1 0x40 MLOAD PUSH1 0x40 MLOAD DUP1 SWAP2 SUB SWAP1 LOG4 PUSH3 0x1E41 PUSH1 0x0 DUP4 DUP4 PUSH1 0x1 PUSH3 0x1C10 JUMP JUMPDEST POP POP JUMP JUMPDEST PUSH1 0x0 PUSH3 0x1E68 DUP5 PUSH20 0xFFFFFFFFFFFFFFFFFFFFFFFFFFFFFFFFFFFFFFFF AND PUSH3 0x1FEE JUMP JUMPDEST ISZERO PUSH3 0x1FE1 JUMPI DUP4 PUSH20 0xFFFFFFFFFFFFFFFFFFFFFFFFFFFFFFFFFFFFFFFF AND PUSH4 0x150B7A02 PUSH3 0x1E94 PUSH3 0x126C JUMP JUMPDEST DUP8 DUP7 DUP7 PUSH1 0x40 MLOAD DUP6 PUSH4 0xFFFFFFFF AND PUSH1 0xE0 SHL DUP2 MSTORE PUSH1 0x4 ADD PUSH3 0x1EB8 SWAP5 SWAP4 SWAP3 SWAP2 SWAP1 PUSH3 0x2985 JUMP JUMPDEST PUSH1 0x20 PUSH1 0x40 MLOAD DUP1 DUP4 SUB DUP2 PUSH1 0x0 DUP8 DUP1 EXTCODESIZE ISZERO DUP1 ISZERO PUSH3 0x1ED3 JUMPI PUSH1 0x0 DUP1 REVERT JUMPDEST POP GAS CALL SWAP3 POP POP POP DUP1 ISZERO PUSH3 0x1F07 JUMPI POP PUSH1 0x40 MLOAD RETURNDATASIZE PUSH1 0x1F NOT PUSH1 0x1F DUP3 ADD AND DUP3 ADD DUP1 PUSH1 0x40 MSTORE POP DUP2 ADD SWAP1 PUSH3 0x1F04 SWAP2 SWAP1 PUSH3 0x254B JUMP JUMPDEST PUSH1 0x1 JUMPDEST PUSH3 0x1F90 JUMPI RETURNDATASIZE DUP1 PUSH1 0x0 DUP2 EQ PUSH3 0x1F3A JUMPI PUSH1 0x40 MLOAD SWAP2 POP PUSH1 0x1F NOT PUSH1 0x3F RETURNDATASIZE ADD AND DUP3 ADD PUSH1 0x40 MSTORE RETURNDATASIZE DUP3 MSTORE RETURNDATASIZE PUSH1 0x0 PUSH1 0x20 DUP5 ADD RETURNDATACOPY PUSH3 0x1F3F JUMP JUMPDEST PUSH1 0x60 SWAP2 POP JUMPDEST POP PUSH1 0x0 DUP2 MLOAD EQ ISZERO PUSH3 0x1F88 JUMPI PUSH1 0x40 MLOAD PUSH32 0x8C379A000000000000000000000000000000000000000000000000000000000 DUP2 MSTORE PUSH1 0x4 ADD PUSH3 0x1F7F SWAP1 PUSH3 0x2A3C JUMP JUMPDEST PUSH1 0x40 MLOAD DUP1 SWAP2 SUB SWAP1 REVERT JUMPDEST DUP1 MLOAD DUP2 PUSH1 0x20 ADD REVERT JUMPDEST PUSH4 0x150B7A02 PUSH1 0xE0 SHL PUSH28 0xFFFFFFFFFFFFFFFFFFFFFFFFFFFFFFFFFFFFFFFFFFFFFFFFFFFFFFFF NOT AND DUP2 PUSH28 0xFFFFFFFFFFFFFFFFFFFFFFFFFFFFFFFFFFFFFFFFFFFFFFFFFFFFFFFF NOT AND EQ SWAP2 POP POP PUSH3 0x1FE6 JUMP JUMPDEST PUSH1 0x1 SWAP1 POP JUMPDEST SWAP5 SWAP4 POP POP POP POP JUMP JUMPDEST PUSH1 0x0 DUP1 DUP3 PUSH20 0xFFFFFFFFFFFFFFFFFFFFFFFFFFFFFFFFFFFFFFFF AND EXTCODESIZE GT SWAP1 POP SWAP2 SWAP1 POP JUMP JUMPDEST PUSH2 0x2F79 DUP1 PUSH3 0x3450 DUP4 CODECOPY ADD SWAP1 JUMP JUMPDEST PUSH1 0x0 PUSH3 0x2036 PUSH3 0x2030 DUP5 PUSH3 0x2C3C JUMP JUMPDEST PUSH3 0x2C13 JUMP JUMPDEST SWAP1 POP DUP1 DUP4 DUP3 MSTORE PUSH1 0x20 DUP3 ADD SWAP1 POP DUP3 DUP6 PUSH1 0x20 DUP7 MUL DUP3 ADD GT ISZERO PUSH3 0x205C JUMPI PUSH3 0x205B PUSH3 0x300C JUMP JUMPDEST JUMPDEST PUSH1 0x0 JUMPDEST DUP6 DUP2 LT ISZERO PUSH3 0x20B1 JUMPI DUP2 MLOAD PUSH8 0xFFFFFFFFFFFFFFFF DUP2 GT ISZERO PUSH3 0x2086 JUMPI PUSH3 0x2085 PUSH3 0x3007 JUMP JUMPDEST JUMPDEST DUP1 DUP7 ADD PUSH3 0x2095 DUP10 DUP3 PUSH3 0x2258 JUMP JUMPDEST DUP6 MSTORE PUSH1 0x20 DUP6 ADD SWAP5 POP PUSH1 0x20 DUP5 ADD SWAP4 POP POP POP PUSH1 0x1 DUP2 ADD SWAP1 POP PUSH3 0x205F JUMP JUMPDEST POP POP POP SWAP4 SWAP3 POP POP POP JUMP JUMPDEST PUSH1 0x0 PUSH3 0x20D2 PUSH3 0x20CC DUP5 PUSH3 0x2C6B JUMP JUMPDEST PUSH3 0x2C13 JUMP JUMPDEST SWAP1 POP DUP3 DUP2 MSTORE PUSH1 0x20 DUP2 ADD DUP5 DUP5 DUP5 ADD GT ISZERO PUSH3 0x20F1 JUMPI PUSH3 0x20F0 PUSH3 0x3011 JUMP JUMPDEST JUMPDEST PUSH3 0x20FE DUP5 DUP3 DUP6 PUSH3 0x2E1D JUMP JUMPDEST POP SWAP4 SWAP3 POP POP POP JUMP JUMPDEST PUSH1 0x0 PUSH3 0x211D PUSH3 0x2117 DUP5 PUSH3 0x2CA1 JUMP JUMPDEST PUSH3 0x2C13 JUMP JUMPDEST SWAP1 POP DUP3 DUP2 MSTORE PUSH1 0x20 DUP2 ADD DUP5 DUP5 DUP5 ADD GT ISZERO PUSH3 0x213C JUMPI PUSH3 0x213B PUSH3 0x3011 JUMP JUMPDEST JUMPDEST PUSH3 0x2149 DUP5 DUP3 DUP6 PUSH3 0x2E2C JUMP JUMPDEST POP SWAP4 SWAP3 POP POP POP JUMP JUMPDEST PUSH1 0x0 DUP2 CALLDATALOAD SWAP1 POP PUSH3 0x2162 DUP2 PUSH3 0x33C5 JUMP JUMPDEST SWAP3 SWAP2 POP POP JUMP JUMPDEST PUSH1 0x0 DUP3 PUSH1 0x1F DUP4 ADD SLT PUSH3 0x2180 JUMPI PUSH3 0x217F PUSH3 0x3007 JUMP JUMPDEST JUMPDEST DUP2 MLOAD PUSH3 0x2192 DUP5 DUP3 PUSH1 0x20 DUP7 ADD PUSH3 0x201F JUMP JUMPDEST SWAP2 POP POP SWAP3 SWAP2 POP POP JUMP JUMPDEST PUSH1 0x0 DUP2 CALLDATALOAD SWAP1 POP PUSH3 0x21AC DUP2 PUSH3 0x33DF JUMP JUMPDEST SWAP3 SWAP2 POP POP JUMP JUMPDEST PUSH1 0x0 DUP2 MLOAD SWAP1 POP PUSH3 0x21C3 DUP2 PUSH3 0x33DF JUMP JUMPDEST SWAP3 SWAP2 POP POP JUMP JUMPDEST PUSH1 0x0 DUP2 CALLDATALOAD SWAP1 POP PUSH3 0x21DA DUP2 PUSH3 0x33F9 JUMP JUMPDEST SWAP3 SWAP2 POP POP JUMP JUMPDEST PUSH1 0x0 DUP2 MLOAD SWAP1 POP PUSH3 0x21F1 DUP2 PUSH3 0x33F9 JUMP JUMPDEST SWAP3 SWAP2 POP POP JUMP JUMPDEST PUSH1 0x0 DUP3 PUSH1 0x1F DUP4 ADD SLT PUSH3 0x220F JUMPI PUSH3 0x220E PUSH3 0x3007 JUMP JUMPDEST JUMPDEST DUP2 CALLDATALOAD PUSH3 0x2221 DUP5 DUP3 PUSH1 0x20 DUP7 ADD PUSH3 0x20BB JUMP JUMPDEST SWAP2 POP POP SWAP3 SWAP2 POP POP JUMP JUMPDEST PUSH1 0x0 DUP2 MLOAD SWAP1 POP PUSH3 0x223B DUP2 PUSH3 0x3413 JUMP JUMPDEST SWAP3 SWAP2 POP POP JUMP JUMPDEST PUSH1 0x0 DUP2 MLOAD SWAP1 POP PUSH3 0x2252 DUP2 PUSH3 0x3424 JUMP JUMPDEST SWAP3 SWAP2 POP POP JUMP JUMPDEST PUSH1 0x0 DUP3 PUSH1 0x1F DUP4 ADD SLT PUSH3 0x2270 JUMPI PUSH3 0x226F PUSH3 0x3007 JUMP JUMPDEST JUMPDEST DUP2 MLOAD PUSH3 0x2282 DUP5 DUP3 PUSH1 0x20 DUP7 ADD PUSH3 0x2106 JUMP JUMPDEST SWAP2 POP POP SWAP3 SWAP2 POP POP JUMP JUMPDEST PUSH1 0x0 DUP2 CALLDATALOAD SWAP1 POP PUSH3 0x229C DUP2 PUSH3 0x3435 JUMP JUMPDEST SWAP3 SWAP2 POP POP JUMP JUMPDEST PUSH1 0x0 PUSH1 0x20 DUP3 DUP5 SUB SLT ISZERO PUSH3 0x22BB JUMPI PUSH3 0x22BA PUSH3 0x301B JUMP JUMPDEST JUMPDEST PUSH1 0x0 PUSH3 0x22CB DUP5 DUP3 DUP6 ADD PUSH3 0x2151 JUMP JUMPDEST SWAP2 POP POP SWAP3 SWAP2 POP POP JUMP JUMPDEST PUSH1 0x0 DUP1 PUSH1 0x40 DUP4 DUP6 SUB SLT ISZERO PUSH3 0x22EE JUMPI PUSH3 0x22ED PUSH3 0x301B JUMP JUMPDEST JUMPDEST PUSH1 0x0 PUSH3 0x22FE DUP6 DUP3 DUP7 ADD PUSH3 0x2151 JUMP JUMPDEST SWAP3 POP POP PUSH1 0x20 PUSH3 0x2311 DUP6 DUP3 DUP7 ADD PUSH3 0x2151 JUMP JUMPDEST SWAP2 POP POP SWAP3 POP SWAP3 SWAP1 POP JUMP JUMPDEST PUSH1 0x0 DUP1 PUSH1 0x0 PUSH1 0x60 DUP5 DUP7 SUB SLT ISZERO PUSH3 0x2337 JUMPI PUSH3 0x2336 PUSH3 0x301B JUMP JUMPDEST JUMPDEST PUSH1 0x0 PUSH3 0x2347 DUP7 DUP3 DUP8 ADD PUSH3 0x2151 JUMP JUMPDEST SWAP4 POP POP PUSH1 0x20 PUSH3 0x235A DUP7 DUP3 DUP8 ADD PUSH3 0x2151 JUMP JUMPDEST SWAP3 POP POP PUSH1 0x40 PUSH3 0x236D DUP7 DUP3 DUP8 ADD PUSH3 0x228B JUMP JUMPDEST SWAP2 POP POP SWAP3 POP SWAP3 POP SWAP3 JUMP JUMPDEST PUSH1 0x0 DUP1 PUSH1 0x0 DUP1 PUSH1 0x80 DUP6 DUP8 SUB SLT ISZERO PUSH3 0x2394 JUMPI PUSH3 0x2393 PUSH3 0x301B JUMP JUMPDEST JUMPDEST PUSH1 0x0 PUSH3 0x23A4 DUP8 DUP3 DUP9 ADD PUSH3 0x2151 JUMP JUMPDEST SWAP5 POP POP PUSH1 0x20 PUSH3 0x23B7 DUP8 DUP3 DUP9 ADD PUSH3 0x2151 JUMP JUMPDEST SWAP4 POP POP PUSH1 0x40 PUSH3 0x23CA DUP8 DUP3 DUP9 ADD PUSH3 0x228B JUMP JUMPDEST SWAP3 POP POP PUSH1 0x60 DUP6 ADD CALLDATALOAD PUSH8 0xFFFFFFFFFFFFFFFF DUP2 GT ISZERO PUSH3 0x23EE JUMPI PUSH3 0x23ED PUSH3 0x3016 JUMP JUMPDEST JUMPDEST PUSH3 0x23FC DUP8 DUP3 DUP9 ADD PUSH3 0x21F7 JUMP JUMPDEST SWAP2 POP POP SWAP3 SWAP6 SWAP2 SWAP5 POP SWAP3 POP JUMP JUMPDEST PUSH1 0x0 DUP1 PUSH1 0x40 DUP4 DUP6 SUB SLT ISZERO PUSH3 0x2422 JUMPI PUSH3 0x2421 PUSH3 0x301B JUMP JUMPDEST JUMPDEST PUSH1 0x0 PUSH3 0x2432 DUP6 DUP3 DUP7 ADD PUSH3 0x2151 JUMP JUMPDEST SWAP3 POP POP PUSH1 0x20 PUSH3 0x2445 DUP6 DUP3 DUP7 ADD PUSH3 0x219B JUMP JUMPDEST SWAP2 POP POP SWAP3 POP SWAP3 SWAP1 POP JUMP JUMPDEST PUSH1 0x0 DUP1 PUSH1 0x40 DUP4 DUP6 SUB SLT ISZERO PUSH3 0x2469 JUMPI PUSH3 0x2468 PUSH3 0x301B JUMP JUMPDEST JUMPDEST PUSH1 0x0 PUSH3 0x2479 DUP6 DUP3 DUP7 ADD PUSH3 0x2151 JUMP JUMPDEST SWAP3 POP POP PUSH1 0x20 PUSH3 0x248C DUP6 DUP3 DUP7 ADD PUSH3 0x228B JUMP JUMPDEST SWAP2 POP POP SWAP3 POP SWAP3 SWAP1 POP JUMP JUMPDEST PUSH1 0x0 PUSH1 0x20 DUP3 DUP5 SUB SLT ISZERO PUSH3 0x24AF JUMPI PUSH3 0x24AE PUSH3 0x301B JUMP JUMPDEST JUMPDEST PUSH1 0x0 DUP3 ADD MLOAD PUSH8 0xFFFFFFFFFFFFFFFF DUP2 GT ISZERO PUSH3 0x24D0 JUMPI PUSH3 0x24CF PUSH3 0x3016 JUMP JUMPDEST JUMPDEST PUSH3 0x24DE DUP5 DUP3 DUP6 ADD PUSH3 0x2168 JUMP JUMPDEST SWAP2 POP POP SWAP3 SWAP2 POP POP JUMP JUMPDEST PUSH1 0x0 PUSH1 0x20 DUP3 DUP5 SUB SLT ISZERO PUSH3 0x2500 JUMPI PUSH3 0x24FF PUSH3 0x301B JUMP JUMPDEST JUMPDEST PUSH1 0x0 PUSH3 0x2510 DUP5 DUP3 DUP6 ADD PUSH3 0x21B2 JUMP JUMPDEST SWAP2 POP POP SWAP3 SWAP2 POP POP JUMP JUMPDEST PUSH1 0x0 PUSH1 0x20 DUP3 DUP5 SUB SLT ISZERO PUSH3 0x2532 JUMPI PUSH3 0x2531 PUSH3 0x301B JUMP JUMPDEST JUMPDEST PUSH1 0x0 PUSH3 0x2542 DUP5 DUP3 DUP6 ADD PUSH3 0x21C9 JUMP JUMPDEST SWAP2 POP POP SWAP3 SWAP2 POP POP JUMP JUMPDEST PUSH1 0x0 PUSH1 0x20 DUP3 DUP5 SUB SLT ISZERO PUSH3 0x2564 JUMPI PUSH3 0x2563 PUSH3 0x301B JUMP JUMPDEST JUMPDEST PUSH1 0x0 PUSH3 0x2574 DUP5 DUP3 DUP6 ADD PUSH3 0x21E0 JUMP JUMPDEST SWAP2 POP POP SWAP3 SWAP2 POP POP JUMP JUMPDEST PUSH1 0x0 PUSH1 0x20 DUP3 DUP5 SUB SLT ISZERO PUSH3 0x2596 JUMPI PUSH3 0x2595 PUSH3 0x301B JUMP JUMPDEST JUMPDEST PUSH1 0x0 PUSH3 0x25A6 DUP5 DUP3 DUP6 ADD PUSH3 0x222A JUMP JUMPDEST SWAP2 POP POP SWAP3 SWAP2 POP POP JUMP JUMPDEST PUSH1 0x0 PUSH1 0x20 DUP3 DUP5 SUB SLT ISZERO PUSH3 0x25C8 JUMPI PUSH3 0x25C7 PUSH3 0x301B JUMP JUMPDEST JUMPDEST PUSH1 0x0 PUSH3 0x25D8 DUP5 DUP3 DUP6 ADD PUSH3 0x2241 JUMP JUMPDEST SWAP2 POP POP SWAP3 SWAP2 POP POP JUMP JUMPDEST PUSH1 0x0 PUSH1 0x20 DUP3 DUP5 SUB SLT ISZERO PUSH3 0x25FA JUMPI PUSH3 0x25F9 PUSH3 0x301B JUMP JUMPDEST JUMPDEST PUSH1 0x0 DUP3 ADD MLOAD PUSH8 0xFFFFFFFFFFFFFFFF DUP2 GT ISZERO PUSH3 0x261B JUMPI PUSH3 0x261A PUSH3 0x3016 JUMP JUMPDEST JUMPDEST PUSH3 0x2629 DUP5 DUP3 DUP6 ADD PUSH3 0x2258 JUMP JUMPDEST SWAP2 POP POP SWAP3 SWAP2 POP POP JUMP JUMPDEST PUSH1 0x0 PUSH1 0x20 DUP3 DUP5 SUB SLT ISZERO PUSH3 0x264B JUMPI PUSH3 0x264A PUSH3 0x301B JUMP JUMPDEST JUMPDEST PUSH1 0x0 PUSH3 0x265B DUP5 DUP3 DUP6 ADD PUSH3 0x228B JUMP JUMPDEST SWAP2 POP POP SWAP3 SWAP2 POP POP JUMP JUMPDEST PUSH3 0x266F DUP2 PUSH3 0x2DA7 JUMP JUMPDEST DUP3 MSTORE POP POP JUMP JUMPDEST PUSH3 0x2680 DUP2 PUSH3 0x2DBB JUMP JUMPDEST DUP3 MSTORE POP POP JUMP JUMPDEST PUSH1 0x0 PUSH3 0x2693 DUP3 PUSH3 0x2CD7 JUMP JUMPDEST PUSH3 0x269F DUP2 DUP6 PUSH3 0x2CED JUMP JUMPDEST SWAP4 POP PUSH3 0x26B1 DUP2 DUP6 PUSH1 0x20 DUP7 ADD PUSH3 0x2E2C JUMP JUMPDEST PUSH3 0x26BC DUP2 PUSH3 0x3020 JUMP JUMPDEST DUP5 ADD SWAP2 POP POP SWAP3 SWAP2 POP POP JUMP JUMPDEST PUSH1 0x0 PUSH3 0x26D4 DUP3 PUSH3 0x2CE2 JUMP JUMPDEST PUSH3 0x26E0 DUP2 DUP6 PUSH3 0x2CFE JUMP JUMPDEST SWAP4 POP PUSH3 0x26F2 DUP2 DUP6 PUSH1 0x20 DUP7 ADD PUSH3 0x2E2C JUMP JUMPDEST PUSH3 0x26FD DUP2 PUSH3 0x3020 JUMP JUMPDEST DUP5 ADD SWAP2 POP POP SWAP3 SWAP2 POP POP JUMP JUMPDEST PUSH1 0x0 PUSH3 0x2717 PUSH1 0x2D DUP4 PUSH3 0x2CFE JUMP JUMPDEST SWAP2 POP PUSH3 0x2724 DUP3 PUSH3 0x3031 JUMP JUMPDEST PUSH1 0x40 DUP3 ADD SWAP1 POP SWAP2 SWAP1 POP JUMP JUMPDEST PUSH1 0x0 PUSH3 0x273E PUSH1 0x32 DUP4 PUSH3 0x2CFE JUMP JUMPDEST SWAP2 POP PUSH3 0x274B DUP3 PUSH3 0x3080 JUMP JUMPDEST PUSH1 0x40 DUP3 ADD SWAP1 POP SWAP2 SWAP1 POP JUMP JUMPDEST PUSH1 0x0 PUSH3 0x2765 PUSH1 0x26 DUP4 PUSH3 0x2CFE JUMP JUMPDEST SWAP2 POP PUSH3 0x2772 DUP3 PUSH3 0x30CF JUMP JUMPDEST PUSH1 0x40 DUP3 ADD SWAP1 POP SWAP2 SWAP1 POP JUMP JUMPDEST PUSH1 0x0 PUSH3 0x278C PUSH1 0x25 DUP4 PUSH3 0x2CFE JUMP JUMPDEST SWAP2 POP PUSH3 0x2799 DUP3 PUSH3 0x311E JUMP JUMPDEST PUSH1 0x40 DUP3 ADD SWAP1 POP SWAP2 SWAP1 POP JUMP JUMPDEST PUSH1 0x0 PUSH3 0x27B3 PUSH1 0x1C DUP4 PUSH3 0x2CFE JUMP JUMPDEST SWAP2 POP PUSH3 0x27C0 DUP3 PUSH3 0x316D JUMP JUMPDEST PUSH1 0x20 DUP3 ADD SWAP1 POP SWAP2 SWAP1 POP JUMP JUMPDEST PUSH1 0x0 PUSH3 0x27DA PUSH1 0x24 DUP4 PUSH3 0x2CFE JUMP JUMPDEST SWAP2 POP PUSH3 0x27E7 DUP3 PUSH3 0x3196 JUMP JUMPDEST PUSH1 0x40 DUP3 ADD SWAP1 POP SWAP2 SWAP1 POP JUMP JUMPDEST PUSH1 0x0 PUSH3 0x2801 PUSH1 0x19 DUP4 PUSH3 0x2CFE JUMP JUMPDEST SWAP2 POP PUSH3 0x280E DUP3 PUSH3 0x31E5 JUMP JUMPDEST PUSH1 0x20 DUP3 ADD SWAP1 POP SWAP2 SWAP1 POP JUMP JUMPDEST PUSH1 0x0 PUSH3 0x2828 PUSH1 0x29 DUP4 PUSH3 0x2CFE JUMP JUMPDEST SWAP2 POP PUSH3 0x2835 DUP3 PUSH3 0x320E JUMP JUMPDEST PUSH1 0x40 DUP3 ADD SWAP1 POP SWAP2 SWAP1 POP JUMP JUMPDEST PUSH1 0x0 PUSH3 0x284F PUSH1 0x20 DUP4 PUSH3 0x2CFE JUMP JUMPDEST SWAP2 POP PUSH3 0x285C DUP3 PUSH3 0x325D JUMP JUMPDEST PUSH1 0x20 DUP3 ADD SWAP1 POP SWAP2 SWAP1 POP JUMP JUMPDEST PUSH1 0x0 PUSH3 0x2876 PUSH1 0x20 DUP4 PUSH3 0x2CFE JUMP JUMPDEST SWAP2 POP PUSH3 0x2883 DUP3 PUSH3 0x3286 JUMP JUMPDEST PUSH1 0x20 DUP3 ADD SWAP1 POP SWAP2 SWAP1 POP JUMP JUMPDEST PUSH1 0x0 PUSH3 0x289D PUSH1 0x39 DUP4 PUSH3 0x2CFE JUMP JUMPDEST SWAP2 POP PUSH3 0x28AA DUP3 PUSH3 0x32AF JUMP JUMPDEST PUSH1 0x40 DUP3 ADD SWAP1 POP SWAP2 SWAP1 POP JUMP JUMPDEST PUSH1 0x0 PUSH3 0x28C4 PUSH1 0x18 DUP4 PUSH3 0x2CFE JUMP JUMPDEST SWAP2 POP PUSH3 0x28D1 DUP3 PUSH3 0x32FE JUMP JUMPDEST PUSH1 0x20 DUP3 ADD SWAP1 POP SWAP2 SWAP1 POP JUMP JUMPDEST PUSH1 0x0 PUSH3 0x28EB PUSH1 0x21 DUP4 PUSH3 0x2CFE JUMP JUMPDEST SWAP2 POP PUSH3 0x28F8 DUP3 PUSH3 0x3327 JUMP JUMPDEST PUSH1 0x40 DUP3 ADD SWAP1 POP SWAP2 SWAP1 POP JUMP JUMPDEST PUSH1 0x0 PUSH3 0x2912 PUSH1 0x3D DUP4 PUSH3 0x2CFE JUMP JUMPDEST SWAP2 POP PUSH3 0x291F DUP3 PUSH3 0x3376 JUMP JUMPDEST PUSH1 0x40 DUP3 ADD SWAP1 POP SWAP2 SWAP1 POP JUMP JUMPDEST PUSH3 0x2935 DUP2 PUSH3 0x2E13 JUMP JUMPDEST DUP3 MSTORE POP POP JUMP JUMPDEST PUSH1 0x0 PUSH1 0x20 DUP3 ADD SWAP1 POP PUSH3 0x2952 PUSH1 0x0 DUP4 ADD DUP5 PUSH3 0x2664 JUMP JUMPDEST SWAP3 SWAP2 POP POP JUMP JUMPDEST PUSH1 0x0 PUSH1 0x40 DUP3 ADD SWAP1 POP PUSH3 0x296F PUSH1 0x0 DUP4 ADD DUP6 PUSH3 0x2664 JUMP JUMPDEST PUSH3 0x297E PUSH1 0x20 DUP4 ADD DUP5 PUSH3 0x2664 JUMP JUMPDEST SWAP4 SWAP3 POP POP POP JUMP JUMPDEST PUSH1 0x0 PUSH1 0x80 DUP3 ADD SWAP1 POP PUSH3 0x299C PUSH1 0x0 DUP4 ADD DUP8 PUSH3 0x2664 JUMP JUMPDEST PUSH3 0x29AB PUSH1 0x20 DUP4 ADD DUP7 PUSH3 0x2664 JUMP JUMPDEST PUSH3 0x29BA PUSH1 0x40 DUP4 ADD DUP6 PUSH3 0x292A JUMP JUMPDEST DUP2 DUP2 SUB PUSH1 0x60 DUP4 ADD MSTORE PUSH3 0x29CE DUP2 DUP5 PUSH3 0x2686 JUMP JUMPDEST SWAP1 POP SWAP6 SWAP5 POP POP POP POP POP JUMP JUMPDEST PUSH1 0x0 PUSH1 0x20 DUP3 ADD SWAP1 POP PUSH3 0x29F0 PUSH1 0x0 DUP4 ADD DUP5 PUSH3 0x2675 JUMP JUMPDEST SWAP3 SWAP2 POP POP JUMP JUMPDEST PUSH1 0x0 PUSH1 0x20 DUP3 ADD SWAP1 POP DUP2 DUP2 SUB PUSH1 0x0 DUP4 ADD MSTORE PUSH3 0x2A12 DUP2 DUP5 PUSH3 0x26C7 JUMP JUMPDEST SWAP1 POP SWAP3 SWAP2 POP POP JUMP JUMPDEST PUSH1 0x0 PUSH1 0x20 DUP3 ADD SWAP1 POP DUP2 DUP2 SUB PUSH1 0x0 DUP4 ADD MSTORE PUSH3 0x2A35 DUP2 PUSH3 0x2708 JUMP JUMPDEST SWAP1 POP SWAP2 SWAP1 POP JUMP JUMPDEST PUSH1 0x0 PUSH1 0x20 DUP3 ADD SWAP1 POP DUP2 DUP2 SUB PUSH1 0x0 DUP4 ADD MSTORE PUSH3 0x2A57 DUP2 PUSH3 0x272F JUMP JUMPDEST SWAP1 POP SWAP2 SWAP1 POP JUMP JUMPDEST PUSH1 0x0 PUSH1 0x20 DUP3 ADD SWAP1 POP DUP2 DUP2 SUB PUSH1 0x0 DUP4 ADD MSTORE PUSH3 0x2A79 DUP2 PUSH3 0x2756 JUMP JUMPDEST SWAP1 POP SWAP2 SWAP1 POP JUMP JUMPDEST PUSH1 0x0 PUSH1 0x20 DUP3 ADD SWAP1 POP DUP2 DUP2 SUB PUSH1 0x0 DUP4 ADD MSTORE PUSH3 0x2A9B DUP2 PUSH3 0x277D JUMP JUMPDEST SWAP1 POP SWAP2 SWAP1 POP JUMP JUMPDEST PUSH1 0x0 PUSH1 0x20 DUP3 ADD SWAP1 POP DUP2 DUP2 SUB PUSH1 0x0 DUP4 ADD MSTORE PUSH3 0x2ABD DUP2 PUSH3 0x27A4 JUMP JUMPDEST SWAP1 POP SWAP2 SWAP1 POP JUMP JUMPDEST PUSH1 0x0 PUSH1 0x20 DUP3 ADD SWAP1 POP DUP2 DUP2 SUB PUSH1 0x0 DUP4 ADD MSTORE PUSH3 0x2ADF DUP2 PUSH3 0x27CB JUMP JUMPDEST SWAP1 POP SWAP2 SWAP1 POP JUMP JUMPDEST PUSH1 0x0 PUSH1 0x20 DUP3 ADD SWAP1 POP DUP2 DUP2 SUB PUSH1 0x0 DUP4 ADD MSTORE PUSH3 0x2B01 DUP2 PUSH3 0x27F2 JUMP JUMPDEST SWAP1 POP SWAP2 SWAP1 POP JUMP JUMPDEST PUSH1 0x0 PUSH1 0x20 DUP3 ADD SWAP1 POP DUP2 DUP2 SUB PUSH1 0x0 DUP4 ADD MSTORE PUSH3 0x2B23 DUP2 PUSH3 0x2819 JUMP JUMPDEST SWAP1 POP SWAP2 SWAP1 POP JUMP JUMPDEST PUSH1 0x0 PUSH1 0x20 DUP3 ADD SWAP1 POP DUP2 DUP2 SUB PUSH1 0x0 DUP4 ADD MSTORE PUSH3 0x2B45 DUP2 PUSH3 0x2840 JUMP JUMPDEST SWAP1 POP SWAP2 SWAP1 POP JUMP JUMPDEST PUSH1 0x0 PUSH1 0x20 DUP3 ADD SWAP1 POP DUP2 DUP2 SUB PUSH1 0x0 DUP4 ADD MSTORE PUSH3 0x2B67 DUP2 PUSH3 0x2867 JUMP JUMPDEST SWAP1 POP SWAP2 SWAP1 POP JUMP JUMPDEST PUSH1 0x0 PUSH1 0x20 DUP3 ADD SWAP1 POP DUP2 DUP2 SUB PUSH1 0x0 DUP4 ADD MSTORE PUSH3 0x2B89 DUP2 PUSH3 0x288E JUMP JUMPDEST SWAP1 POP SWAP2 SWAP1 POP JUMP JUMPDEST PUSH1 0x0 PUSH1 0x20 DUP3 ADD SWAP1 POP DUP2 DUP2 SUB PUSH1 0x0 DUP4 ADD MSTORE PUSH3 0x2BAB DUP2 PUSH3 0x28B5 JUMP JUMPDEST SWAP1 POP SWAP2 SWAP1 POP JUMP JUMPDEST PUSH1 0x0 PUSH1 0x20 DUP3 ADD SWAP1 POP DUP2 DUP2 SUB PUSH1 0x0 DUP4 ADD MSTORE PUSH3 0x2BCD DUP2 PUSH3 0x28DC JUMP JUMPDEST SWAP1 POP SWAP2 SWAP1 POP JUMP JUMPDEST PUSH1 0x0 PUSH1 0x20 DUP3 ADD SWAP1 POP DUP2 DUP2 SUB PUSH1 0x0 DUP4 ADD MSTORE PUSH3 0x2BEF DUP2 PUSH3 0x2903 JUMP JUMPDEST SWAP1 POP SWAP2 SWAP1 POP JUMP JUMPDEST PUSH1 0x0 PUSH1 0x20 DUP3 ADD SWAP1 POP PUSH3 0x2C0D PUSH1 0x0 DUP4 ADD DUP5 PUSH3 0x292A JUMP JUMPDEST SWAP3 SWAP2 POP POP JUMP JUMPDEST PUSH1 0x0 PUSH3 0x2C1F PUSH3 0x2C32 JUMP JUMPDEST SWAP1 POP PUSH3 0x2C2D DUP3 DUP3 PUSH3 0x2E98 JUMP JUMPDEST SWAP2 SWAP1 POP JUMP JUMPDEST PUSH1 0x0 PUSH1 0x40 MLOAD SWAP1 POP SWAP1 JUMP JUMPDEST PUSH1 0x0 PUSH8 0xFFFFFFFFFFFFFFFF DUP3 GT ISZERO PUSH3 0x2C5A JUMPI PUSH3 0x2C59 PUSH3 0x2FD8 JUMP JUMPDEST JUMPDEST PUSH1 0x20 DUP3 MUL SWAP1 POP PUSH1 0x20 DUP2 ADD SWAP1 POP SWAP2 SWAP1 POP JUMP JUMPDEST PUSH1 0x0 PUSH8 0xFFFFFFFFFFFFFFFF DUP3 GT ISZERO PUSH3 0x2C89 JUMPI PUSH3 0x2C88 PUSH3 0x2FD8 JUMP JUMPDEST JUMPDEST PUSH3 0x2C94 DUP3 PUSH3 0x3020 JUMP JUMPDEST SWAP1 POP PUSH1 0x20 DUP2 ADD SWAP1 POP SWAP2 SWAP1 POP JUMP JUMPDEST PUSH1 0x0 PUSH8 0xFFFFFFFFFFFFFFFF DUP3 GT ISZERO PUSH3 0x2CBF JUMPI PUSH3 0x2CBE PUSH3 0x2FD8 JUMP JUMPDEST JUMPDEST PUSH3 0x2CCA DUP3 PUSH3 0x3020 JUMP JUMPDEST SWAP1 POP PUSH1 0x20 DUP2 ADD SWAP1 POP SWAP2 SWAP1 POP JUMP JUMPDEST PUSH1 0x0 DUP2 MLOAD SWAP1 POP SWAP2 SWAP1 POP JUMP JUMPDEST PUSH1 0x0 DUP2 MLOAD SWAP1 POP SWAP2 SWAP1 POP JUMP JUMPDEST PUSH1 0x0 DUP3 DUP3 MSTORE PUSH1 0x20 DUP3 ADD SWAP1 POP SWAP3 SWAP2 POP POP JUMP JUMPDEST PUSH1 0x0 DUP3 DUP3 MSTORE PUSH1 0x20 DUP3 ADD SWAP1 POP SWAP3 SWAP2 POP POP JUMP JUMPDEST PUSH1 0x0 PUSH3 0x2D1C DUP3 PUSH3 0x2E13 JUMP JUMPDEST SWAP2 POP PUSH3 0x2D29 DUP4 PUSH3 0x2E13 JUMP JUMPDEST SWAP3 POP DUP3 PUSH32 0xFFFFFFFFFFFFFFFFFFFFFFFFFFFFFFFFFFFFFFFFFFFFFFFFFFFFFFFFFFFFFFFF SUB DUP3 GT ISZERO PUSH3 0x2D61 JUMPI PUSH3 0x2D60 PUSH3 0x2F1C JUMP JUMPDEST JUMPDEST DUP3 DUP3 ADD SWAP1 POP SWAP3 SWAP2 POP POP JUMP JUMPDEST PUSH1 0x0 PUSH3 0x2D79 DUP3 PUSH3 0x2E13 JUMP JUMPDEST SWAP2 POP PUSH3 0x2D86 DUP4 PUSH3 0x2E13 JUMP JUMPDEST SWAP3 POP DUP3 DUP3 LT ISZERO PUSH3 0x2D9C JUMPI PUSH3 0x2D9B PUSH3 0x2F1C JUMP JUMPDEST JUMPDEST DUP3 DUP3 SUB SWAP1 POP SWAP3 SWAP2 POP POP JUMP JUMPDEST PUSH1 0x0 PUSH3 0x2DB4 DUP3 PUSH3 0x2DF3 JUMP JUMPDEST SWAP1 POP SWAP2 SWAP1 POP JUMP JUMPDEST PUSH1 0x0 DUP2 ISZERO ISZERO SWAP1 POP SWAP2 SWAP1 POP JUMP JUMPDEST PUSH1 0x0 PUSH32 0xFFFFFFFF00000000000000000000000000000000000000000000000000000000 DUP3 AND SWAP1 POP SWAP2 SWAP1 POP JUMP JUMPDEST PUSH1 0x0 PUSH20 0xFFFFFFFFFFFFFFFFFFFFFFFFFFFFFFFFFFFFFFFF DUP3 AND SWAP1 POP SWAP2 SWAP1 POP JUMP JUMPDEST PUSH1 0x0 DUP2 SWAP1 POP SWAP2 SWAP1 POP JUMP JUMPDEST DUP3 DUP2 DUP4 CALLDATACOPY PUSH1 0x0 DUP4 DUP4 ADD MSTORE POP POP POP JUMP JUMPDEST PUSH1 0x0 JUMPDEST DUP4 DUP2 LT ISZERO PUSH3 0x2E4C JUMPI DUP1 DUP3 ADD MLOAD DUP2 DUP5 ADD MSTORE PUSH1 0x20 DUP2 ADD SWAP1 POP PUSH3 0x2E2F JUMP JUMPDEST DUP4 DUP2 GT ISZERO PUSH3 0x2E5C JUMPI PUSH1 0x0 DUP5 DUP5 ADD MSTORE JUMPDEST POP POP POP POP JUMP JUMPDEST PUSH1 0x0 PUSH1 0x2 DUP3 DIV SWAP1 POP PUSH1 0x1 DUP3 AND DUP1 PUSH3 0x2E7B JUMPI PUSH1 0x7F DUP3 AND SWAP2 POP JUMPDEST PUSH1 0x20 DUP3 LT DUP2 EQ ISZERO PUSH3 0x2E92 JUMPI PUSH3 0x2E91 PUSH3 0x2F7A JUMP JUMPDEST JUMPDEST POP SWAP2 SWAP1 POP JUMP JUMPDEST PUSH3 0x2EA3 DUP3 PUSH3 0x3020 JUMP JUMPDEST DUP2 ADD DUP2 DUP2 LT PUSH8 0xFFFFFFFFFFFFFFFF DUP3 GT OR ISZERO PUSH3 0x2EC5 JUMPI PUSH3 0x2EC4 PUSH3 0x2FD8 JUMP JUMPDEST JUMPDEST DUP1 PUSH1 0x40 MSTORE POP POP POP JUMP JUMPDEST PUSH1 0x0 PUSH3 0x2EDB DUP3 PUSH3 0x2E13 JUMP JUMPDEST SWAP2 POP PUSH32 0xFFFFFFFFFFFFFFFFFFFFFFFFFFFFFFFFFFFFFFFFFFFFFFFFFFFFFFFFFFFFFFFF DUP3 EQ ISZERO PUSH3 0x2F11 JUMPI PUSH3 0x2F10 PUSH3 0x2F1C JUMP JUMPDEST JUMPDEST PUSH1 0x1 DUP3 ADD SWAP1 POP SWAP2 SWAP1 POP JUMP JUMPDEST PUSH32 0x4E487B7100000000000000000000000000000000000000000000000000000000 PUSH1 0x0 MSTORE PUSH1 0x11 PUSH1 0x4 MSTORE PUSH1 0x24 PUSH1 0x0 REVERT JUMPDEST PUSH32 0x4E487B7100000000000000000000000000000000000000000000000000000000 PUSH1 0x0 MSTORE PUSH1 0x21 PUSH1 0x4 MSTORE PUSH1 0x24 PUSH1 0x0 REVERT JUMPDEST PUSH32 0x4E487B7100000000000000000000000000000000000000000000000000000000 PUSH1 0x0 MSTORE PUSH1 0x22 PUSH1 0x4 MSTORE PUSH1 0x24 PUSH1 0x0 REVERT JUMPDEST PUSH32 0x4E487B7100000000000000000000000000000000000000000000000000000000 PUSH1 0x0 MSTORE PUSH1 0x32 PUSH1 0x4 MSTORE PUSH1 0x24 PUSH1 0x0 REVERT JUMPDEST PUSH32 0x4E487B7100000000000000000000000000000000000000000000000000000000 PUSH1 0x0 MSTORE PUSH1 0x41 PUSH1 0x4 MSTORE PUSH1 0x24 PUSH1 0x0 REVERT JUMPDEST PUSH1 0x0 DUP1 REVERT JUMPDEST PUSH1 0x0 DUP1 REVERT JUMPDEST PUSH1 0x0 DUP1 REVERT JUMPDEST PUSH1 0x0 DUP1 REVERT JUMPDEST PUSH1 0x0 DUP1 REVERT JUMPDEST PUSH1 0x0 PUSH1 0x1F NOT PUSH1 0x1F DUP4 ADD AND SWAP1 POP SWAP2 SWAP1 POP JUMP JUMPDEST PUSH32 0x4552433732313A2063616C6C6572206973206E6F7420746F6B656E206F776E65 PUSH1 0x0 DUP3 ADD MSTORE PUSH32 0x72206F7220617070726F76656400000000000000000000000000000000000000 PUSH1 0x20 DUP3 ADD MSTORE POP JUMP JUMPDEST PUSH32 0x4552433732313A207472616E7366657220746F206E6F6E204552433732315265 PUSH1 0x0 DUP3 ADD MSTORE PUSH32 0x63656976657220696D706C656D656E7465720000000000000000000000000000 PUSH1 0x20 DUP3 ADD MSTORE POP JUMP JUMPDEST PUSH32 0x4F776E61626C653A206E6577206F776E657220697320746865207A65726F2061 PUSH1 0x0 DUP3 ADD MSTORE PUSH32 0x6464726573730000000000000000000000000000000000000000000000000000 PUSH1 0x20 DUP3 ADD MSTORE POP JUMP JUMPDEST PUSH32 0x4552433732313A207472616E736665722066726F6D20696E636F727265637420 PUSH1 0x0 DUP3 ADD MSTORE PUSH32 0x6F776E6572000000000000000000000000000000000000000000000000000000 PUSH1 0x20 DUP3 ADD MSTORE POP JUMP JUMPDEST PUSH32 0x4552433732313A20746F6B656E20616C7265616479206D696E74656400000000 PUSH1 0x0 DUP3 ADD MSTORE POP JUMP JUMPDEST PUSH32 0x4552433732313A207472616E7366657220746F20746865207A65726F20616464 PUSH1 0x0 DUP3 ADD MSTORE PUSH32 0x7265737300000000000000000000000000000000000000000000000000000000 PUSH1 0x20 DUP3 ADD MSTORE POP JUMP JUMPDEST PUSH32 0x4552433732313A20617070726F766520746F2063616C6C657200000000000000 PUSH1 0x0 DUP3 ADD MSTORE POP JUMP JUMPDEST PUSH32 0x4552433732313A2061646472657373207A65726F206973206E6F742061207661 PUSH1 0x0 DUP3 ADD MSTORE PUSH32 0x6C6964206F776E65720000000000000000000000000000000000000000000000 PUSH1 0x20 DUP3 ADD MSTORE POP JUMP JUMPDEST PUSH32 0x4552433732313A206D696E7420746F20746865207A65726F2061646472657373 PUSH1 0x0 DUP3 ADD MSTORE POP JUMP JUMPDEST PUSH32 0x4F776E61626C653A2063616C6C6572206973206E6F7420746865206F776E6572 PUSH1 0x0 DUP3 ADD MSTORE POP JUMP JUMPDEST PUSH32 0x486174206E6F7420636F6D70617469626C65207769746820746865206578616D PUSH1 0x0 DUP3 ADD MSTORE PUSH32 0x7320736974756174696F6E206F66207468652062757965722100000000000000 PUSH1 0x20 DUP3 ADD MSTORE POP JUMP JUMPDEST PUSH32 0x4552433732313A20696E76616C696420746F6B656E2049440000000000000000 PUSH1 0x0 DUP3 ADD MSTORE POP JUMP JUMPDEST PUSH32 0x4552433732313A20617070726F76616C20746F2063757272656E74206F776E65 PUSH1 0x0 DUP3 ADD MSTORE PUSH32 0x7200000000000000000000000000000000000000000000000000000000000000 PUSH1 0x20 DUP3 ADD MSTORE POP JUMP JUMPDEST PUSH32 0x4552433732313A20617070726F76652063616C6C6572206973206E6F7420746F PUSH1 0x0 DUP3 ADD MSTORE PUSH32 0x6B656E206F776E6572206F7220617070726F76656420666F7220616C6C000000 PUSH1 0x20 DUP3 ADD MSTORE POP JUMP JUMPDEST PUSH3 0x33D0 DUP2 PUSH3 0x2DA7 JUMP JUMPDEST DUP2 EQ PUSH3 0x33DC JUMPI PUSH1 0x0 DUP1 REVERT JUMPDEST POP JUMP JUMPDEST PUSH3 0x33EA DUP2 PUSH3 0x2DBB JUMP JUMPDEST DUP2 EQ PUSH3 0x33F6 JUMPI PUSH1 0x0 DUP1 REVERT JUMPDEST POP JUMP JUMPDEST PUSH3 0x3404 DUP2 PUSH3 0x2DC7 JUMP JUMPDEST DUP2 EQ PUSH3 0x3410 JUMPI PUSH1 0x0 DUP1 REVERT JUMPDEST POP JUMP JUMPDEST PUSH1 0x3 DUP2 LT PUSH3 0x3421 JUMPI PUSH1 0x0 DUP1 REVERT JUMPDEST POP JUMP JUMPDEST PUSH1 0x3 DUP2 LT PUSH3 0x3432 JUMPI PUSH1 0x0 DUP1 REVERT JUMPDEST POP JUMP JUMPDEST PUSH3 0x3440 DUP2 PUSH3 0x2E13 JUMP JUMPDEST DUP2 EQ PUSH3 0x344C JUMPI PUSH1 0x0 DUP1 REVERT JUMPDEST POP JUMP INVALID PUSH1 0x80 PUSH1 0x40 MSTORE PUSH1 0x0 PUSH1 0x5 SSTORE PUSH1 0x0 PUSH1 0x6 PUSH1 0x0 PUSH2 0x100 EXP DUP2 SLOAD DUP2 PUSH1 0xFF MUL NOT AND SWAP1 DUP4 ISZERO ISZERO MUL OR SWAP1 SSTORE POP PUSH1 0x0 PUSH1 0x6 PUSH1 0x1 PUSH2 0x100 EXP DUP2 SLOAD DUP2 PUSH1 0xFF MUL NOT AND SWAP1 DUP4 ISZERO ISZERO MUL OR SWAP1 SSTORE POP CALLVALUE DUP1 ISZERO PUSH3 0x4C JUMPI PUSH1 0x0 DUP1 REVERT JUMPDEST POP PUSH1 0x40 MLOAD PUSH3 0x2F79 CODESIZE SUB DUP1 PUSH3 0x2F79 DUP4 CODECOPY DUP2 DUP2 ADD PUSH1 0x40 MSTORE DUP2 ADD SWAP1 PUSH3 0x72 SWAP2 SWAP1 PUSH3 0x477 JUMP JUMPDEST PUSH3 0x92 PUSH3 0x86 PUSH3 0x2E4 PUSH1 0x20 SHL PUSH1 0x20 SHR JUMP JUMPDEST PUSH3 0x2EC PUSH1 0x20 SHL PUSH1 0x20 SHR JUMP JUMPDEST DUP2 PUSH20 0xFFFFFFFFFFFFFFFFFFFFFFFFFFFFFFFFFFFFFFFF AND DUP3 PUSH20 0xFFFFFFFFFFFFFFFFFFFFFFFFFFFFFFFFFFFFFFFF AND EQ PUSH3 0x103 JUMPI PUSH1 0x40 MLOAD PUSH32 0x8C379A000000000000000000000000000000000000000000000000000000000 DUP2 MSTORE PUSH1 0x4 ADD PUSH3 0xFA SWAP1 PUSH3 0x52E JUMP JUMPDEST PUSH1 0x40 MLOAD DUP1 SWAP2 SUB SWAP1 REVERT JUMPDEST DUP1 PUSH20 0xFFFFFFFFFFFFFFFFFFFFFFFFFFFFFFFFFFFFFFFF AND DUP2 PUSH20 0xFFFFFFFFFFFFFFFFFFFFFFFFFFFFFFFFFFFFFFFF AND EQ PUSH3 0x174 JUMPI PUSH1 0x40 MLOAD PUSH32 0x8C379A000000000000000000000000000000000000000000000000000000000 DUP2 MSTORE PUSH1 0x4 ADD PUSH3 0x16B SWAP1 PUSH3 0x50C JUMP JUMPDEST PUSH1 0x40 MLOAD DUP1 SWAP2 SUB SWAP1 REVERT JUMPDEST DUP2 PUSH1 0x2 PUSH1 0x0 PUSH2 0x100 EXP DUP2 SLOAD DUP2 PUSH20 0xFFFFFFFFFFFFFFFFFFFFFFFFFFFFFFFFFFFFFFFF MUL NOT AND SWAP1 DUP4 PUSH20 0xFFFFFFFFFFFFFFFFFFFFFFFFFFFFFFFFFFFFFFFF AND MUL OR SWAP1 SSTORE POP DUP1 PUSH1 0x3 PUSH1 0x0 PUSH2 0x100 EXP DUP2 SLOAD DUP2 PUSH20 0xFFFFFFFFFFFFFFFFFFFFFFFFFFFFFFFFFFFFFFFF MUL NOT AND SWAP1 DUP4 PUSH20 0xFFFFFFFFFFFFFFFFFFFFFFFFFFFFFFFFFFFFFFFF AND MUL OR SWAP1 SSTORE POP PUSH1 0x1 PUSH1 0x40 MLOAD DUP1 PUSH1 0x40 ADD PUSH1 0x40 MSTORE DUP1 PUSH1 0x5 DUP2 MSTORE PUSH1 0x20 ADD PUSH32 0x3237344141000000000000000000000000000000000000000000000000000000 DUP2 MSTORE POP SWAP1 DUP1 PUSH1 0x1 DUP2 SLOAD ADD DUP1 DUP3 SSTORE DUP1 SWAP2 POP POP PUSH1 0x1 SWAP1 SUB SWAP1 PUSH1 0x0 MSTORE PUSH1 0x20 PUSH1 0x0 KECCAK256 ADD PUSH1 0x0 SWAP1 SWAP2 SWAP1 SWAP2 SWAP1 SWAP2 POP SWAP1 DUP1 MLOAD SWAP1 PUSH1 0x20 ADD SWAP1 PUSH3 0x268 SWAP3 SWAP2 SWAP1 PUSH3 0x3B0 JUMP JUMPDEST POP PUSH1 0x1 PUSH1 0x40 MLOAD DUP1 PUSH1 0x40 ADD PUSH1 0x40 MSTORE DUP1 PUSH1 0x5 DUP2 MSTORE PUSH1 0x20 ADD PUSH32 0x3234354141000000000000000000000000000000000000000000000000000000 DUP2 MSTORE POP SWAP1 DUP1 PUSH1 0x1 DUP2 SLOAD ADD DUP1 DUP3 SSTORE DUP1 SWAP2 POP POP PUSH1 0x1 SWAP1 SUB SWAP1 PUSH1 0x0 MSTORE PUSH1 0x20 PUSH1 0x0 KECCAK256 ADD PUSH1 0x0 SWAP1 SWAP2 SWAP1 SWAP2 SWAP1 SWAP2 POP SWAP1 DUP1 MLOAD SWAP1 PUSH1 0x20 ADD SWAP1 PUSH3 0x2DB SWAP3 SWAP2 SWAP1 PUSH3 0x3B0 JUMP JUMPDEST POP POP POP PUSH3 0x6B7 JUMP JUMPDEST PUSH1 0x0 CALLER SWAP1 POP SWAP1 JUMP JUMPDEST PUSH1 0x0 DUP1 PUSH1 0x0 SWAP1 SLOAD SWAP1 PUSH2 0x100 EXP SWAP1 DIV PUSH20 0xFFFFFFFFFFFFFFFFFFFFFFFFFFFFFFFFFFFFFFFF AND SWAP1 POP DUP2 PUSH1 0x0 DUP1 PUSH2 0x100 EXP DUP2 SLOAD DUP2 PUSH20 0xFFFFFFFFFFFFFFFFFFFFFFFFFFFFFFFFFFFFFFFF MUL NOT AND SWAP1 DUP4 PUSH20 0xFFFFFFFFFFFFFFFFFFFFFFFFFFFFFFFFFFFFFFFF AND MUL OR SWAP1 SSTORE POP DUP2 PUSH20 0xFFFFFFFFFFFFFFFFFFFFFFFFFFFFFFFFFFFFFFFF AND DUP2 PUSH20 0xFFFFFFFFFFFFFFFFFFFFFFFFFFFFFFFFFFFFFFFF AND PUSH32 0x8BE0079C531659141344CD1FD0A4F28419497F9722A3DAAFE3B4186F6B6457E0 PUSH1 0x40 MLOAD PUSH1 0x40 MLOAD DUP1 SWAP2 SUB SWAP1 LOG3 POP POP JUMP JUMPDEST DUP3 DUP1 SLOAD PUSH3 0x3BE SWAP1 PUSH3 0x595 JUMP JUMPDEST SWAP1 PUSH1 0x0 MSTORE PUSH1 0x20 PUSH1 0x0 KECCAK256 SWAP1 PUSH1 0x1F ADD PUSH1 0x20 SWAP1 DIV DUP2 ADD SWAP3 DUP3 PUSH3 0x3E2 JUMPI PUSH1 0x0 DUP6 SSTORE PUSH3 0x42E JUMP JUMPDEST DUP3 PUSH1 0x1F LT PUSH3 0x3FD JUMPI DUP1 MLOAD PUSH1 0xFF NOT AND DUP4 DUP1 ADD OR DUP6 SSTORE PUSH3 0x42E JUMP JUMPDEST DUP3 DUP1 ADD PUSH1 0x1 ADD DUP6 SSTORE DUP3 ISZERO PUSH3 0x42E JUMPI SWAP2 DUP3 ADD JUMPDEST DUP3 DUP2 GT ISZERO PUSH3 0x42D JUMPI DUP3 MLOAD DUP3 SSTORE SWAP2 PUSH1 0x20 ADD SWAP2 SWAP1 PUSH1 0x1 ADD SWAP1 PUSH3 0x410 JUMP JUMPDEST JUMPDEST POP SWAP1 POP PUSH3 0x43D SWAP2 SWAP1 PUSH3 0x441 JUMP JUMPDEST POP SWAP1 JUMP JUMPDEST JUMPDEST DUP1 DUP3 GT ISZERO PUSH3 0x45C JUMPI PUSH1 0x0 DUP2 PUSH1 0x0 SWAP1 SSTORE POP PUSH1 0x1 ADD PUSH3 0x442 JUMP JUMPDEST POP SWAP1 JUMP JUMPDEST PUSH1 0x0 DUP2 MLOAD SWAP1 POP PUSH3 0x471 DUP2 PUSH3 0x69D JUMP JUMPDEST SWAP3 SWAP2 POP POP JUMP JUMPDEST PUSH1 0x0 DUP1 PUSH1 0x40 DUP4 DUP6 SUB SLT ISZERO PUSH3 0x491 JUMPI PUSH3 0x490 PUSH3 0x5FA JUMP JUMPDEST JUMPDEST PUSH1 0x0 PUSH3 0x4A1 DUP6 DUP3 DUP7 ADD PUSH3 0x460 JUMP JUMPDEST SWAP3 POP POP PUSH1 0x20 PUSH3 0x4B4 DUP6 DUP3 DUP7 ADD PUSH3 0x460 JUMP JUMPDEST SWAP2 POP POP SWAP3 POP SWAP3 SWAP1 POP JUMP JUMPDEST PUSH1 0x0 PUSH3 0x4CD PUSH1 0x23 DUP4 PUSH3 0x550 JUMP JUMPDEST SWAP2 POP PUSH3 0x4DA DUP3 PUSH3 0x5FF JUMP JUMPDEST PUSH1 0x40 DUP3 ADD SWAP1 POP SWAP2 SWAP1 POP JUMP JUMPDEST PUSH1 0x0 PUSH3 0x4F4 PUSH1 0x26 DUP4 PUSH3 0x550 JUMP JUMPDEST SWAP2 POP PUSH3 0x501 DUP3 PUSH3 0x64E JUMP JUMPDEST PUSH1 0x40 DUP3 ADD SWAP1 POP SWAP2 SWAP1 POP JUMP JUMPDEST PUSH1 0x0 PUSH1 0x20 DUP3 ADD SWAP1 POP DUP2 DUP2 SUB PUSH1 0x0 DUP4 ADD MSTORE PUSH3 0x527 DUP2 PUSH3 0x4BE JUMP JUMPDEST SWAP1 POP SWAP2 SWAP1 POP JUMP JUMPDEST PUSH1 0x0 PUSH1 0x20 DUP3 ADD SWAP1 POP DUP2 DUP2 SUB PUSH1 0x0 DUP4 ADD MSTORE PUSH3 0x549 DUP2 PUSH3 0x4E5 JUMP JUMPDEST SWAP1 POP SWAP2 SWAP1 POP JUMP JUMPDEST PUSH1 0x0 DUP3 DUP3 MSTORE PUSH1 0x20 DUP3 ADD SWAP1 POP SWAP3 SWAP2 POP POP JUMP JUMPDEST PUSH1 0x0 PUSH3 0x56E DUP3 PUSH3 0x575 JUMP JUMPDEST SWAP1 POP SWAP2 SWAP1 POP JUMP JUMPDEST PUSH1 0x0 PUSH20 0xFFFFFFFFFFFFFFFFFFFFFFFFFFFFFFFFFFFFFFFF DUP3 AND SWAP1 POP SWAP2 SWAP1 POP JUMP JUMPDEST PUSH1 0x0 PUSH1 0x2 DUP3 DIV SWAP1 POP PUSH1 0x1 DUP3 AND DUP1 PUSH3 0x5AE JUMPI PUSH1 0x7F DUP3 AND SWAP2 POP JUMPDEST PUSH1 0x20 DUP3 LT DUP2 EQ ISZERO PUSH3 0x5C5 JUMPI PUSH3 0x5C4 PUSH3 0x5CB JUMP JUMPDEST JUMPDEST POP SWAP2 SWAP1 POP JUMP JUMPDEST PUSH32 0x4E487B7100000000000000000000000000000000000000000000000000000000 PUSH1 0x0 MSTORE PUSH1 0x22 PUSH1 0x4 MSTORE PUSH1 0x24 PUSH1 0x0 REVERT JUMPDEST PUSH1 0x0 DUP1 REVERT JUMPDEST PUSH32 0x496E76616C696420636F6C6C656374696F6E20636F6E74726163742061646472 PUSH1 0x0 DUP3 ADD MSTORE PUSH32 0x6573730000000000000000000000000000000000000000000000000000000000 PUSH1 0x20 DUP3 ADD MSTORE POP JUMP JUMPDEST PUSH32 0x496E76616C6964206578616D73206D616E6167657220636F6E74726163742061 PUSH1 0x0 DUP3 ADD MSTORE PUSH32 0x6464726573730000000000000000000000000000000000000000000000000000 PUSH1 0x20 DUP3 ADD MSTORE POP JUMP JUMPDEST PUSH3 0x6A8 DUP2 PUSH3 0x561 JUMP JUMPDEST DUP2 EQ PUSH3 0x6B4 JUMPI PUSH1 0x0 DUP1 REVERT JUMPDEST POP JUMP JUMPDEST PUSH2 0x28B2 DUP1 PUSH3 0x6C7 PUSH1 0x0 CODECOPY PUSH1 0x0 RETURN INVALID PUSH1 0x80 PUSH1 0x40 MSTORE CALLVALUE DUP1 ISZERO PUSH2 0x10 JUMPI PUSH1 0x0 DUP1 REVERT JUMPDEST POP PUSH1 0x4 CALLDATASIZE LT PUSH2 0xEA JUMPI PUSH1 0x0 CALLDATALOAD PUSH1 0xE0 SHR DUP1 PUSH4 0x6053EF38 GT PUSH2 0x8C JUMPI DUP1 PUSH4 0x8DA5CB5B GT PUSH2 0x66 JUMPI DUP1 PUSH4 0x8DA5CB5B EQ PUSH2 0x1F0 JUMPI DUP1 PUSH4 0xC93FB857 EQ PUSH2 0x20E JUMPI DUP1 PUSH4 0xDEEF61F0 EQ PUSH2 0x23E JUMPI DUP1 PUSH4 0xF2FDE38B EQ PUSH2 0x25C JUMPI PUSH2 0xEA JUMP JUMPDEST DUP1 PUSH4 0x6053EF38 EQ PUSH2 0x1AA JUMPI DUP1 PUSH4 0x709263C1 EQ PUSH2 0x1C8 JUMPI DUP1 PUSH4 0x715018A6 EQ PUSH2 0x1E6 JUMPI PUSH2 0xEA JUMP JUMPDEST DUP1 PUSH4 0x213606CF GT PUSH2 0xC8 JUMPI DUP1 PUSH4 0x213606CF EQ PUSH2 0x147 JUMPI DUP1 PUSH4 0x22BEC967 EQ PUSH2 0x166 JUMPI DUP1 PUSH4 0x29012CAB EQ PUSH2 0x182 JUMPI DUP1 PUSH4 0x5968B0B7 EQ PUSH2 0x1A0 JUMPI PUSH2 0xEA JUMP JUMPDEST DUP1 PUSH4 0x2732A58 EQ PUSH2 0xEF JUMPI DUP1 PUSH4 0x155C2D1F EQ PUSH2 0x10B JUMPI DUP1 PUSH4 0x158EF93E EQ PUSH2 0x129 JUMPI JUMPDEST PUSH1 0x0 DUP1 REVERT JUMPDEST PUSH2 0x109 PUSH1 0x4 DUP1 CALLDATASIZE SUB DUP2 ADD SWAP1 PUSH2 0x104 SWAP2 SWAP1 PUSH2 0x1B02 JUMP JUMPDEST PUSH2 0x278 JUMP JUMPDEST STOP JUMPDEST PUSH2 0x113 PUSH2 0x5E2 JUMP JUMPDEST PUSH1 0x40 MLOAD PUSH2 0x120 SWAP2 SWAP1 PUSH2 0x1F2B JUMP JUMPDEST PUSH1 0x40 MLOAD DUP1 SWAP2 SUB SWAP1 RETURN JUMPDEST PUSH2 0x131 PUSH2 0x608 JUMP JUMPDEST PUSH1 0x40 MLOAD PUSH2 0x13E SWAP2 SWAP1 PUSH2 0x1F76 JUMP JUMPDEST PUSH1 0x40 MLOAD DUP1 SWAP2 SUB SWAP1 RETURN JUMPDEST PUSH2 0x14F PUSH2 0x61B JUMP JUMPDEST PUSH1 0x40 MLOAD PUSH2 0x15D SWAP3 SWAP2 SWAP1 PUSH2 0x2169 JUMP JUMPDEST PUSH1 0x40 MLOAD DUP1 SWAP2 SUB SWAP1 RETURN JUMPDEST PUSH2 0x180 PUSH1 0x4 DUP1 CALLDATASIZE SUB DUP2 ADD SWAP1 PUSH2 0x17B SWAP2 SWAP1 PUSH2 0x1B02 JUMP JUMPDEST PUSH2 0x9C4 JUMP JUMPDEST STOP JUMPDEST PUSH2 0x18A PUSH2 0xD2F JUMP JUMPDEST PUSH1 0x40 MLOAD PUSH2 0x197 SWAP2 SWAP1 PUSH2 0x1FAC JUMP JUMPDEST PUSH1 0x40 MLOAD DUP1 SWAP2 SUB SWAP1 RETURN JUMPDEST PUSH2 0x1A8 PUSH2 0xF46 JUMP JUMPDEST STOP JUMPDEST PUSH2 0x1B2 PUSH2 0x1100 JUMP JUMPDEST PUSH1 0x40 MLOAD PUSH2 0x1BF SWAP2 SWAP1 PUSH2 0x1F76 JUMP JUMPDEST PUSH1 0x40 MLOAD DUP1 SWAP2 SUB SWAP1 RETURN JUMPDEST PUSH2 0x1D0 PUSH2 0x1166 JUMP JUMPDEST PUSH1 0x40 MLOAD PUSH2 0x1DD SWAP2 SWAP1 PUSH2 0x1F2B JUMP JUMPDEST PUSH1 0x40 MLOAD DUP1 SWAP2 SUB SWAP1 RETURN JUMPDEST PUSH2 0x1EE PUSH2 0x118C JUMP JUMPDEST STOP JUMPDEST PUSH2 0x1F8 PUSH2 0x11A0 JUMP JUMPDEST PUSH1 0x40 MLOAD PUSH2 0x205 SWAP2 SWAP1 PUSH2 0x1F2B JUMP JUMPDEST PUSH1 0x40 MLOAD DUP1 SWAP2 SUB SWAP1 RETURN JUMPDEST PUSH2 0x228 PUSH1 0x4 DUP1 CALLDATASIZE SUB DUP2 ADD SWAP1 PUSH2 0x223 SWAP2 SWAP1 PUSH2 0x1B02 JUMP JUMPDEST PUSH2 0x11C9 JUMP JUMPDEST PUSH1 0x40 MLOAD PUSH2 0x235 SWAP2 SWAP1 PUSH2 0x1F91 JUMP JUMPDEST PUSH1 0x40 MLOAD DUP1 SWAP2 SUB SWAP1 RETURN JUMPDEST PUSH2 0x246 PUSH2 0x11FE JUMP JUMPDEST PUSH1 0x40 MLOAD PUSH2 0x253 SWAP2 SWAP1 PUSH2 0x214E JUMP JUMPDEST PUSH1 0x40 MLOAD DUP1 SWAP2 SUB SWAP1 RETURN JUMPDEST PUSH2 0x276 PUSH1 0x4 DUP1 CALLDATASIZE SUB DUP2 ADD SWAP1 PUSH2 0x271 SWAP2 SWAP1 PUSH2 0x19D6 JUMP JUMPDEST PUSH2 0x1257 JUMP JUMPDEST STOP JUMPDEST PUSH2 0x280 PUSH2 0x12DB JUMP JUMPDEST PUSH1 0x6 PUSH1 0x1 SWAP1 SLOAD SWAP1 PUSH2 0x100 EXP SWAP1 DIV PUSH1 0xFF AND PUSH2 0x2CF JUMPI PUSH1 0x40 MLOAD PUSH32 0x8C379A000000000000000000000000000000000000000000000000000000000 DUP2 MSTORE PUSH1 0x4 ADD PUSH2 0x2C6 SWAP1 PUSH2 0x200E JUMP JUMPDEST PUSH1 0x40 MLOAD DUP1 SWAP2 SUB SWAP1 REVERT JUMPDEST PUSH1 0x6 PUSH1 0x0 SWAP1 SLOAD SWAP1 PUSH2 0x100 EXP SWAP1 DIV PUSH1 0xFF AND ISZERO PUSH2 0x31F JUMPI PUSH1 0x40 MLOAD PUSH32 0x8C379A000000000000000000000000000000000000000000000000000000000 DUP2 MSTORE PUSH1 0x4 ADD PUSH2 0x316 SWAP1 PUSH2 0x1FEE JUMP JUMPDEST PUSH1 0x40 MLOAD DUP1 SWAP2 SUB SWAP1 REVERT JUMPDEST PUSH1 0x0 PUSH1 0x2 DUP2 GT ISZERO PUSH2 0x333 JUMPI PUSH2 0x332 PUSH2 0x2435 JUMP JUMPDEST JUMPDEST PUSH1 0x4 DUP3 PUSH1 0x40 MLOAD PUSH2 0x343 SWAP2 SWAP1 PUSH2 0x1E7D JUMP JUMPDEST SWAP1 DUP2 MSTORE PUSH1 0x20 ADD PUSH1 0x40 MLOAD DUP1 SWAP2 SUB SWAP1 KECCAK256 PUSH1 0x0 SWAP1 SLOAD SWAP1 PUSH2 0x100 EXP SWAP1 DIV PUSH1 0xFF AND PUSH1 0x2 DUP2 GT ISZERO PUSH2 0x371 JUMPI PUSH2 0x370 PUSH2 0x2435 JUMP JUMPDEST JUMPDEST EQ PUSH2 0x3B1 JUMPI PUSH1 0x40 MLOAD PUSH32 0x8C379A000000000000000000000000000000000000000000000000000000000 DUP2 MSTORE PUSH1 0x4 ADD PUSH2 0x3A8 SWAP1 PUSH2 0x204E JUMP JUMPDEST PUSH1 0x40 MLOAD DUP1 SWAP2 SUB SWAP1 REVERT JUMPDEST PUSH1 0x0 PUSH1 0x2 PUSH1 0x0 SWAP1 SLOAD SWAP1 PUSH2 0x100 EXP SWAP1 DIV PUSH20 0xFFFFFFFFFFFFFFFFFFFFFFFFFFFFFFFFFFFFFFFF AND SWAP1 POP PUSH1 0x0 DUP2 PUSH20 0xFFFFFFFFFFFFFFFFFFFFFFFFFFFFFFFFFFFFFFFF AND PUSH4 0x3434D8BB CALLER DUP6 PUSH1 0x40 MLOAD DUP4 PUSH4 0xFFFFFFFF AND PUSH1 0xE0 SHL DUP2 MSTORE PUSH1 0x4 ADD PUSH2 0x415 SWAP3 SWAP2 SWAP1 PUSH2 0x1F46 JUMP JUMPDEST PUSH1 0x20 PUSH1 0x40 MLOAD DUP1 DUP4 SUB DUP2 DUP7 DUP1 EXTCODESIZE ISZERO DUP1 ISZERO PUSH2 0x42D JUMPI PUSH1 0x0 DUP1 REVERT JUMPDEST POP GAS STATICCALL ISZERO DUP1 ISZERO PUSH2 0x441 JUMPI RETURNDATASIZE PUSH1 0x0 DUP1 RETURNDATACOPY RETURNDATASIZE PUSH1 0x0 REVERT JUMPDEST POP POP POP POP PUSH1 0x40 MLOAD RETURNDATASIZE PUSH1 0x1F NOT PUSH1 0x1F DUP3 ADD AND DUP3 ADD DUP1 PUSH1 0x40 MSTORE POP DUP2 ADD SWAP1 PUSH2 0x465 SWAP2 SWAP1 PUSH2 0x1AD5 JUMP JUMPDEST SWAP1 POP PUSH1 0x0 PUSH1 0x2 DUP2 GT ISZERO PUSH2 0x47B JUMPI PUSH2 0x47A PUSH2 0x2435 JUMP JUMPDEST JUMPDEST DUP2 PUSH1 0x2 DUP2 GT ISZERO PUSH2 0x48E JUMPI PUSH2 0x48D PUSH2 0x2435 JUMP JUMPDEST JUMPDEST EQ ISZERO PUSH2 0x4CF JUMPI PUSH1 0x40 MLOAD PUSH32 0x8C379A000000000000000000000000000000000000000000000000000000000 DUP2 MSTORE PUSH1 0x4 ADD PUSH2 0x4C6 SWAP1 PUSH2 0x202E JUMP JUMPDEST PUSH1 0x40 MLOAD DUP1 SWAP2 SUB SWAP1 REVERT JUMPDEST PUSH1 0x2 DUP1 DUP2 GT ISZERO PUSH2 0x4E2 JUMPI PUSH2 0x4E1 PUSH2 0x2435 JUMP JUMPDEST JUMPDEST DUP2 PUSH1 0x2 DUP2 GT ISZERO PUSH2 0x4F5 JUMPI PUSH2 0x4F4 PUSH2 0x2435 JUMP JUMPDEST JUMPDEST EQ ISZERO PUSH2 0x536 JUMPI PUSH1 0x40 MLOAD PUSH32 0x8C379A000000000000000000000000000000000000000000000000000000000 DUP2 MSTORE PUSH1 0x4 ADD PUSH2 0x52D SWAP1 PUSH2 0x20CE JUMP JUMPDEST PUSH1 0x40 MLOAD DUP1 SWAP2 SUB SWAP1 REVERT JUMPDEST PUSH2 0x53F DUP4 PUSH2 0x1359 JUMP JUMPDEST PUSH2 0x57E JUMPI PUSH1 0x40 MLOAD PUSH32 0x8C379A000000000000000000000000000000000000000000000000000000000 DUP2 MSTORE PUSH1 0x4 ADD PUSH2 0x575 SWAP1 PUSH2 0x210E JUMP JUMPDEST PUSH1 0x40 MLOAD DUP1 SWAP2 SUB SWAP1 REVERT JUMPDEST PUSH1 0x1 PUSH1 0x4 DUP5 PUSH1 0x40 MLOAD PUSH2 0x590 SWAP2 SWAP1 PUSH2 0x1E7D JUMP JUMPDEST SWAP1 DUP2 MSTORE PUSH1 0x20 ADD PUSH1 0x40 MLOAD DUP1 SWAP2 SUB SWAP1 KECCAK256 PUSH1 0x0 PUSH2 0x100 EXP DUP2 SLOAD DUP2 PUSH1 0xFF MUL NOT AND SWAP1 DUP4 PUSH1 0x2 DUP2 GT ISZERO PUSH2 0x5C0 JUMPI PUSH2 0x5BF PUSH2 0x2435 JUMP JUMPDEST JUMPDEST MUL OR SWAP1 SSTORE POP PUSH1 0x5 PUSH1 0x0 DUP2 SLOAD DUP1 SWAP3 SWAP2 SWAP1 PUSH2 0x5D8 SWAP1 PUSH2 0x238E JUMP JUMPDEST SWAP2 SWAP1 POP SSTORE POP POP POP POP JUMP JUMPDEST PUSH1 0x2 PUSH1 0x0 SWAP1 SLOAD SWAP1 PUSH2 0x100 EXP SWAP1 DIV PUSH20 0xFFFFFFFFFFFFFFFFFFFFFFFFFFFFFFFFFFFFFFFF AND DUP2 JUMP JUMPDEST PUSH1 0x6 PUSH1 0x1 SWAP1 SLOAD SWAP1 PUSH2 0x100 EXP SWAP1 DIV PUSH1 0xFF AND DUP2 JUMP JUMPDEST PUSH1 0x0 DUP1 PUSH2 0x626 PUSH2 0x12DB JUMP JUMPDEST PUSH1 0x6 PUSH1 0x1 SWAP1 SLOAD SWAP1 PUSH2 0x100 EXP SWAP1 DIV PUSH1 0xFF AND ISZERO PUSH2 0x676 JUMPI PUSH1 0x40 MLOAD PUSH32 0x8C379A000000000000000000000000000000000000000000000000000000000 DUP2 MSTORE PUSH1 0x4 ADD PUSH2 0x66D SWAP1 PUSH2 0x20EE JUMP JUMPDEST PUSH1 0x40 MLOAD DUP1 SWAP2 SUB SWAP1 REVERT JUMPDEST PUSH1 0x0 PUSH1 0x2 PUSH1 0x0 SWAP1 SLOAD SWAP1 PUSH2 0x100 EXP SWAP1 DIV PUSH20 0xFFFFFFFFFFFFFFFFFFFFFFFFFFFFFFFFFFFFFFFF AND SWAP1 POP PUSH1 0x0 DUP1 DUP3 PUSH20 0xFFFFFFFFFFFFFFFFFFFFFFFFFFFFFFFFFFFFFFFF AND PUSH4 0xA7F70611 CALLER PUSH1 0x40 MLOAD DUP3 PUSH4 0xFFFFFFFF AND PUSH1 0xE0 SHL DUP2 MSTORE PUSH1 0x4 ADD PUSH2 0x6D9 SWAP2 SWAP1 PUSH2 0x1F2B JUMP JUMPDEST PUSH1 0x0 PUSH1 0x40 MLOAD DUP1 DUP4 SUB DUP2 DUP7 DUP1 EXTCODESIZE ISZERO DUP1 ISZERO PUSH2 0x6F1 JUMPI PUSH1 0x0 DUP1 REVERT JUMPDEST POP GAS STATICCALL ISZERO DUP1 ISZERO PUSH2 0x705 JUMPI RETURNDATASIZE PUSH1 0x0 DUP1 RETURNDATACOPY RETURNDATASIZE PUSH1 0x0 REVERT JUMPDEST POP POP POP POP PUSH1 0x40 MLOAD RETURNDATASIZE PUSH1 0x0 DUP3 RETURNDATACOPY RETURNDATASIZE PUSH1 0x1F NOT PUSH1 0x1F DUP3 ADD AND DUP3 ADD DUP1 PUSH1 0x40 MSTORE POP DUP2 ADD SWAP1 PUSH2 0x72E SWAP2 SWAP1 PUSH2 0x1A03 JUMP JUMPDEST SWAP2 POP SWAP2 POP PUSH1 0x0 DUP4 PUSH20 0xFFFFFFFFFFFFFFFFFFFFFFFFFFFFFFFFFFFFFFFF AND PUSH4 0x1F3CE1D3 PUSH1 0x40 MLOAD DUP2 PUSH4 0xFFFFFFFF AND PUSH1 0xE0 SHL DUP2 MSTORE PUSH1 0x4 ADD PUSH1 0x0 PUSH1 0x40 MLOAD DUP1 DUP4 SUB DUP2 DUP7 DUP1 EXTCODESIZE ISZERO DUP1 ISZERO PUSH2 0x77A JUMPI PUSH1 0x0 DUP1 REVERT JUMPDEST POP GAS STATICCALL ISZERO DUP1 ISZERO PUSH2 0x78E JUMPI RETURNDATASIZE PUSH1 0x0 DUP1 RETURNDATACOPY RETURNDATASIZE PUSH1 0x0 REVERT JUMPDEST POP POP POP POP PUSH1 0x40 MLOAD RETURNDATASIZE PUSH1 0x0 DUP3 RETURNDATACOPY RETURNDATASIZE PUSH1 0x1F NOT PUSH1 0x1F DUP3 ADD AND DUP3 ADD DUP1 PUSH1 0x40 MSTORE POP DUP2 ADD SWAP1 PUSH2 0x7B7 SWAP2 SWAP1 PUSH2 0x1A5F JUMP JUMPDEST SWAP1 POP PUSH1 0x0 JUMPDEST DUP4 MLOAD DUP2 LT ISZERO PUSH2 0x96F JUMPI PUSH1 0x0 PUSH1 0x2 DUP2 GT ISZERO PUSH2 0x7D9 JUMPI PUSH2 0x7D8 PUSH2 0x2435 JUMP JUMPDEST JUMPDEST DUP5 DUP3 DUP2 MLOAD DUP2 LT PUSH2 0x7EC JUMPI PUSH2 0x7EB PUSH2 0x2493 JUMP JUMPDEST JUMPDEST PUSH1 0x20 MUL PUSH1 0x20 ADD ADD MLOAD PUSH1 0x2 DUP2 GT ISZERO PUSH2 0x806 JUMPI PUSH2 0x805 PUSH2 0x2435 JUMP JUMPDEST JUMPDEST EQ PUSH2 0x95C JUMPI PUSH2 0x82E DUP3 DUP3 DUP2 MLOAD DUP2 LT PUSH2 0x821 JUMPI PUSH2 0x820 PUSH2 0x2493 JUMP JUMPDEST JUMPDEST PUSH1 0x20 MUL PUSH1 0x20 ADD ADD MLOAD PUSH2 0x1359 JUMP JUMPDEST ISZERO PUSH2 0x95B JUMPI PUSH1 0x5 PUSH1 0x0 DUP2 SLOAD DUP1 SWAP3 SWAP2 SWAP1 PUSH2 0x846 SWAP1 PUSH2 0x238E JUMP JUMPDEST SWAP2 SWAP1 POP SSTORE POP PUSH1 0x1 PUSH1 0x2 DUP2 GT ISZERO PUSH2 0x85F JUMPI PUSH2 0x85E PUSH2 0x2435 JUMP JUMPDEST JUMPDEST DUP5 DUP3 DUP2 MLOAD DUP2 LT PUSH2 0x872 JUMPI PUSH2 0x871 PUSH2 0x2493 JUMP JUMPDEST JUMPDEST PUSH1 0x20 MUL PUSH1 0x20 ADD ADD MLOAD PUSH1 0x2 DUP2 GT ISZERO PUSH2 0x88C JUMPI PUSH2 0x88B PUSH2 0x2435 JUMP JUMPDEST JUMPDEST EQ ISZERO PUSH2 0x8F8 JUMPI PUSH1 0x1 PUSH1 0x4 DUP4 DUP4 DUP2 MLOAD DUP2 LT PUSH2 0x8A9 JUMPI PUSH2 0x8A8 PUSH2 0x2493 JUMP JUMPDEST JUMPDEST PUSH1 0x20 MUL PUSH1 0x20 ADD ADD MLOAD PUSH1 0x40 MLOAD PUSH2 0x8BE SWAP2 SWAP1 PUSH2 0x1E7D JUMP JUMPDEST SWAP1 DUP2 MSTORE PUSH1 0x20 ADD PUSH1 0x40 MLOAD DUP1 SWAP2 SUB SWAP1 KECCAK256 PUSH1 0x0 PUSH2 0x100 EXP DUP2 SLOAD DUP2 PUSH1 0xFF MUL NOT AND SWAP1 DUP4 PUSH1 0x2 DUP2 GT ISZERO PUSH2 0x8EE JUMPI PUSH2 0x8ED PUSH2 0x2435 JUMP JUMPDEST JUMPDEST MUL OR SWAP1 SSTORE POP PUSH2 0x95A JUMP JUMPDEST PUSH1 0x2 PUSH1 0x4 DUP4 DUP4 DUP2 MLOAD DUP2 LT PUSH2 0x90F JUMPI PUSH2 0x90E PUSH2 0x2493 JUMP JUMPDEST JUMPDEST PUSH1 0x20 MUL PUSH1 0x20 ADD ADD MLOAD PUSH1 0x40 MLOAD PUSH2 0x924 SWAP2 SWAP1 PUSH2 0x1E7D JUMP JUMPDEST SWAP1 DUP2 MSTORE PUSH1 0x20 ADD PUSH1 0x40 MLOAD DUP1 SWAP2 SUB SWAP1 KECCAK256 PUSH1 0x0 PUSH2 0x100 EXP DUP2 SLOAD DUP2 PUSH1 0xFF MUL NOT AND SWAP1 DUP4 PUSH1 0x2 DUP2 GT ISZERO PUSH2 0x954 JUMPI PUSH2 0x953 PUSH2 0x2435 JUMP JUMPDEST JUMPDEST MUL OR SWAP1 SSTORE POP JUMPDEST JUMPDEST JUMPDEST DUP1 DUP1 PUSH2 0x967 SWAP1 PUSH2 0x238E JUMP JUMPDEST SWAP2 POP POP PUSH2 0x7BC JUMP JUMPDEST POP DUP2 PUSH1 0x6 PUSH1 0x0 PUSH2 0x100 EXP DUP2 SLOAD DUP2 PUSH1 0xFF MUL NOT AND SWAP1 DUP4 ISZERO ISZERO MUL OR SWAP1 SSTORE POP PUSH1 0x1 PUSH1 0x6 PUSH1 0x1 PUSH2 0x100 EXP DUP2 SLOAD DUP2 PUSH1 0xFF MUL NOT AND SWAP1 DUP4 ISZERO ISZERO MUL OR SWAP1 SSTORE POP PUSH1 0x5 SLOAD PUSH1 0x6 PUSH1 0x0 SWAP1 SLOAD SWAP1 PUSH2 0x100 EXP SWAP1 DIV PUSH1 0xFF AND SWAP6 POP SWAP6 POP POP POP POP POP SWAP1 SWAP2 JUMP JUMPDEST PUSH2 0x9CC PUSH2 0x12DB JUMP JUMPDEST PUSH1 0x6 PUSH1 0x1 SWAP1 SLOAD SWAP1 PUSH2 0x100 EXP SWAP1 DIV PUSH1 0xFF AND PUSH2 0xA1B JUMPI PUSH1 0x40 MLOAD PUSH32 0x8C379A000000000000000000000000000000000000000000000000000000000 DUP2 MSTORE PUSH1 0x4 ADD PUSH2 0xA12 SWAP1 PUSH2 0x200E JUMP JUMPDEST PUSH1 0x40 MLOAD DUP1 SWAP2 SUB SWAP1 REVERT JUMPDEST PUSH1 0x6 PUSH1 0x0 SWAP1 SLOAD SWAP1 PUSH2 0x100 EXP SWAP1 DIV PUSH1 0xFF AND ISZERO PUSH2 0xA6B JUMPI PUSH1 0x40 MLOAD PUSH32 0x8C379A000000000000000000000000000000000000000000000000000000000 DUP2 MSTORE PUSH1 0x4 ADD PUSH2 0xA62 SWAP1 PUSH2 0x1FEE JUMP JUMPDEST PUSH1 0x40 MLOAD DUP1 SWAP2 SUB SWAP1 REVERT JUMPDEST PUSH1 0x0 PUSH1 0x2 DUP2 GT ISZERO PUSH2 0xA7F JUMPI PUSH2 0xA7E PUSH2 0x2435 JUMP JUMPDEST JUMPDEST PUSH1 0x4 DUP3 PUSH1 0x40 MLOAD PUSH2 0xA8F SWAP2 SWAP1 PUSH2 0x1E7D JUMP JUMPDEST SWAP1 DUP2 MSTORE PUSH1 0x20 ADD PUSH1 0x40 MLOAD DUP1 SWAP2 SUB SWAP1 KECCAK256 PUSH1 0x0 SWAP1 SLOAD SWAP1 PUSH2 0x100 EXP SWAP1 DIV PUSH1 0xFF AND PUSH1 0x2 DUP2 GT ISZERO PUSH2 0xABD JUMPI PUSH2 0xABC PUSH2 0x2435 JUMP JUMPDEST JUMPDEST EQ PUSH2 0xAFD JUMPI PUSH1 0x40 MLOAD PUSH32 0x8C379A000000000000000000000000000000000000000000000000000000000 DUP2 MSTORE PUSH1 0x4 ADD PUSH2 0xAF4 SWAP1 PUSH2 0x204E JUMP JUMPDEST PUSH1 0x40 MLOAD DUP1 SWAP2 SUB SWAP1 REVERT JUMPDEST PUSH1 0x0 PUSH1 0x2 PUSH1 0x0 SWAP1 SLOAD SWAP1 PUSH2 0x100 EXP SWAP1 DIV PUSH20 0xFFFFFFFFFFFFFFFFFFFFFFFFFFFFFFFFFFFFFFFF AND SWAP1 POP PUSH1 0x0 DUP2 PUSH20 0xFFFFFFFFFFFFFFFFFFFFFFFFFFFFFFFFFFFFFFFF AND PUSH4 0x3434D8BB CALLER DUP6 PUSH1 0x40 MLOAD DUP4 PUSH4 0xFFFFFFFF AND PUSH1 0xE0 SHL DUP2 MSTORE PUSH1 0x4 ADD PUSH2 0xB61 SWAP3 SWAP2 SWAP1 PUSH2 0x1F46 JUMP JUMPDEST PUSH1 0x20 PUSH1 0x40 MLOAD DUP1 DUP4 SUB DUP2 DUP7 DUP1 EXTCODESIZE ISZERO DUP1 ISZERO PUSH2 0xB79 JUMPI PUSH1 0x0 DUP1 REVERT JUMPDEST POP GAS STATICCALL ISZERO DUP1 ISZERO PUSH2 0xB8D JUMPI RETURNDATASIZE PUSH1 0x0 DUP1 RETURNDATACOPY RETURNDATASIZE PUSH1 0x0 REVERT JUMPDEST POP POP POP POP PUSH1 0x40 MLOAD RETURNDATASIZE PUSH1 0x1F NOT PUSH1 0x1F DUP3 ADD AND DUP3 ADD DUP1 PUSH1 0x40 MSTORE POP DUP2 ADD SWAP1 PUSH2 0xBB1 SWAP2 SWAP1 PUSH2 0x1AD5 JUMP JUMPDEST SWAP1 POP PUSH1 0x0 PUSH1 0x2 DUP2 GT ISZERO PUSH2 0xBC7 JUMPI PUSH2 0xBC6 PUSH2 0x2435 JUMP JUMPDEST JUMPDEST DUP2 PUSH1 0x2 DUP2 GT ISZERO PUSH2 0xBDA JUMPI PUSH2 0xBD9 PUSH2 0x2435 JUMP JUMPDEST JUMPDEST EQ ISZERO PUSH2 0xC1B JUMPI PUSH1 0x40 MLOAD PUSH32 0x8C379A000000000000000000000000000000000000000000000000000000000 DUP2 MSTORE PUSH1 0x4 ADD PUSH2 0xC12 SWAP1 PUSH2 0x202E JUMP JUMPDEST PUSH1 0x40 MLOAD DUP1 SWAP2 SUB SWAP1 REVERT JUMPDEST PUSH1 0x1 PUSH1 0x2 DUP2 GT ISZERO PUSH2 0xC2F JUMPI PUSH2 0xC2E PUSH2 0x2435 JUMP JUMPDEST JUMPDEST DUP2 PUSH1 0x2 DUP2 GT ISZERO PUSH2 0xC42 JUMPI PUSH2 0xC41 PUSH2 0x2435 JUMP JUMPDEST JUMPDEST EQ ISZERO PUSH2 0xC83 JUMPI PUSH1 0x40 MLOAD PUSH32 0x8C379A000000000000000000000000000000000000000000000000000000000 DUP2 MSTORE PUSH1 0x4 ADD PUSH2 0xC7A SWAP1 PUSH2 0x208E JUMP JUMPDEST PUSH1 0x40 MLOAD DUP1 SWAP2 SUB SWAP1 REVERT JUMPDEST PUSH2 0xC8C DUP4 PUSH2 0x1359 JUMP JUMPDEST PUSH2 0xCCB JUMPI PUSH1 0x40 MLOAD PUSH32 0x8C379A000000000000000000000000000000000000000000000000000000000 DUP2 MSTORE PUSH1 0x4 ADD PUSH2 0xCC2 SWAP1 PUSH2 0x210E JUMP JUMPDEST PUSH1 0x40 MLOAD DUP1 SWAP2 SUB SWAP1 REVERT JUMPDEST PUSH1 0x2 PUSH1 0x4 DUP5 PUSH1 0x40 MLOAD PUSH2 0xCDD SWAP2 SWAP1 PUSH2 0x1E7D JUMP JUMPDEST SWAP1 DUP2 MSTORE PUSH1 0x20 ADD PUSH1 0x40 MLOAD DUP1 SWAP2 SUB SWAP1 KECCAK256 PUSH1 0x0 PUSH2 0x100 EXP DUP2 SLOAD DUP2 PUSH1 0xFF MUL NOT AND SWAP1 DUP4 PUSH1 0x2 DUP2 GT ISZERO PUSH2 0xD0D JUMPI PUSH2 0xD0C PUSH2 0x2435 JUMP JUMPDEST JUMPDEST MUL OR SWAP1 SSTORE POP PUSH1 0x5 PUSH1 0x0 DUP2 SLOAD DUP1 SWAP3 SWAP2 SWAP1 PUSH2 0xD25 SWAP1 PUSH2 0x238E JUMP JUMPDEST SWAP2 SWAP1 POP SSTORE POP POP POP POP JUMP JUMPDEST PUSH1 0x60 PUSH1 0x6 PUSH1 0x1 SWAP1 SLOAD SWAP1 PUSH2 0x100 EXP SWAP1 DIV PUSH1 0xFF AND PUSH2 0xD80 JUMPI PUSH1 0x40 MLOAD PUSH32 0x8C379A000000000000000000000000000000000000000000000000000000000 DUP2 MSTORE PUSH1 0x4 ADD PUSH2 0xD77 SWAP1 PUSH2 0x200E JUMP JUMPDEST PUSH1 0x40 MLOAD DUP1 SWAP2 SUB SWAP1 REVERT JUMPDEST PUSH1 0x0 PUSH1 0x40 MLOAD DUP1 PUSH1 0x20 ADD PUSH1 0x40 MSTORE DUP1 PUSH1 0x0 DUP2 MSTORE POP SWAP1 POP PUSH1 0x0 PUSH1 0x5 SLOAD EQ ISZERO PUSH2 0xDDC JUMPI PUSH1 0x40 MLOAD DUP1 PUSH1 0x40 ADD PUSH1 0x40 MSTORE DUP1 PUSH1 0x1 DUP2 MSTORE PUSH1 0x20 ADD PUSH32 0x3000000000000000000000000000000000000000000000000000000000000000 DUP2 MSTORE POP SWAP1 POP PUSH2 0xE87 JUMP JUMPDEST PUSH1 0x0 JUMPDEST PUSH1 0x1 DUP1 SLOAD SWAP1 POP DUP2 LT ISZERO PUSH2 0xE85 JUMPI DUP2 PUSH2 0xE50 PUSH1 0x4 PUSH1 0x1 DUP5 DUP2 SLOAD DUP2 LT PUSH2 0xE06 JUMPI PUSH2 0xE05 PUSH2 0x2493 JUMP JUMPDEST JUMPDEST SWAP1 PUSH1 0x0 MSTORE PUSH1 0x20 PUSH1 0x0 KECCAK256 ADD PUSH1 0x40 MLOAD PUSH2 0xE1D SWAP2 SWAP1 PUSH2 0x1EDA JUMP JUMPDEST SWAP1 DUP2 MSTORE PUSH1 0x20 ADD PUSH1 0x40 MLOAD DUP1 SWAP2 SUB SWAP1 KECCAK256 PUSH1 0x0 SWAP1 SLOAD SWAP1 PUSH2 0x100 EXP SWAP1 DIV PUSH1 0xFF AND PUSH1 0x2 DUP2 GT ISZERO PUSH2 0xE4B JUMPI PUSH2 0xE4A PUSH2 0x2435 JUMP JUMPDEST JUMPDEST PUSH2 0x144B JUMP JUMPDEST PUSH1 0x40 MLOAD PUSH1 0x20 ADD PUSH2 0xE61 SWAP3 SWAP2 SWAP1 PUSH2 0x1E94 JUMP JUMPDEST PUSH1 0x40 MLOAD PUSH1 0x20 DUP2 DUP4 SUB SUB DUP2 MSTORE SWAP1 PUSH1 0x40 MSTORE SWAP2 POP DUP1 DUP1 PUSH2 0xE7D SWAP1 PUSH2 0x238E JUMP JUMPDEST SWAP2 POP POP PUSH2 0xDDF JUMP JUMPDEST POP JUMPDEST DUP1 PUSH1 0x40 MLOAD PUSH1 0x20 ADD PUSH2 0xE98 SWAP2 SWAP1 PUSH2 0x1EB8 JUMP JUMPDEST PUSH1 0x40 MLOAD PUSH1 0x20 DUP2 DUP4 SUB SUB DUP2 MSTORE SWAP1 PUSH1 0x40 MSTORE SWAP1 POP PUSH1 0x60 PUSH1 0x6 PUSH1 0x0 SWAP1 SLOAD SWAP1 PUSH2 0x100 EXP SWAP1 DIV PUSH1 0xFF AND ISZERO PUSH2 0xF01 JUMPI PUSH1 0x40 MLOAD DUP1 PUSH1 0x60 ADD PUSH1 0x40 MSTORE DUP1 PUSH1 0x2E DUP2 MSTORE PUSH1 0x20 ADD PUSH2 0x284F PUSH1 0x2E SWAP2 CODECOPY DUP3 PUSH1 0x40 MLOAD PUSH1 0x20 ADD PUSH2 0xEEB SWAP3 SWAP2 SWAP1 PUSH2 0x1EF1 JUMP JUMPDEST PUSH1 0x40 MLOAD PUSH1 0x20 DUP2 DUP4 SUB SUB DUP2 MSTORE SWAP1 PUSH1 0x40 MSTORE SWAP1 POP PUSH2 0xF3E JUMP JUMPDEST PUSH1 0x40 MLOAD DUP1 PUSH1 0x60 ADD PUSH1 0x40 MSTORE DUP1 PUSH1 0x2E DUP2 MSTORE PUSH1 0x20 ADD PUSH2 0x2821 PUSH1 0x2E SWAP2 CODECOPY DUP3 PUSH1 0x40 MLOAD PUSH1 0x20 ADD PUSH2 0xF2C SWAP3 SWAP2 SWAP1 PUSH2 0x1EF1 JUMP JUMPDEST PUSH1 0x40 MLOAD PUSH1 0x20 DUP2 DUP4 SUB SUB DUP2 MSTORE SWAP1 PUSH1 0x40 MSTORE SWAP1 POP JUMPDEST DUP1 SWAP3 POP POP POP SWAP1 JUMP JUMPDEST PUSH2 0xF4E PUSH2 0x12DB JUMP JUMPDEST PUSH1 0x6 PUSH1 0x1 SWAP1 SLOAD SWAP1 PUSH2 0x100 EXP SWAP1 DIV PUSH1 0xFF AND PUSH2 0xF9D JUMPI PUSH1 0x40 MLOAD PUSH32 0x8C379A000000000000000000000000000000000000000000000000000000000 DUP2 MSTORE PUSH1 0x4 ADD PUSH2 0xF94 SWAP1 PUSH2 0x200E JUMP JUMPDEST PUSH1 0x40 MLOAD DUP1 SWAP2 SUB SWAP1 REVERT JUMPDEST PUSH1 0x6 PUSH1 0x0 SWAP1 SLOAD SWAP1 PUSH2 0x100 EXP SWAP1 DIV PUSH1 0xFF AND ISZERO PUSH2 0xFED JUMPI PUSH1 0x40 MLOAD PUSH32 0x8C379A000000000000000000000000000000000000000000000000000000000 DUP2 MSTORE PUSH1 0x4 ADD PUSH2 0xFE4 SWAP1 PUSH2 0x206E JUMP JUMPDEST PUSH1 0x40 MLOAD DUP1 SWAP2 SUB SWAP1 REVERT JUMPDEST PUSH1 0x0 PUSH1 0x2 PUSH1 0x0 SWAP1 SLOAD SWAP1 PUSH2 0x100 EXP SWAP1 DIV PUSH20 0xFFFFFFFFFFFFFFFFFFFFFFFFFFFFFFFFFFFFFFFF AND SWAP1 POP PUSH1 0x0 DUP2 PUSH20 0xFFFFFFFFFFFFFFFFFFFFFFFFFFFFFFFFFFFFFFFF AND PUSH4 0x68A4C8B7 CALLER PUSH1 0x40 MLOAD DUP3 PUSH4 0xFFFFFFFF AND PUSH1 0xE0 SHL DUP2 MSTORE PUSH1 0x4 ADD PUSH2 0x104F SWAP2 SWAP1 PUSH2 0x1F2B JUMP JUMPDEST PUSH1 0x20 PUSH1 0x40 MLOAD DUP1 DUP4 SUB DUP2 DUP7 DUP1 EXTCODESIZE ISZERO DUP1 ISZERO PUSH2 0x1067 JUMPI PUSH1 0x0 DUP1 REVERT JUMPDEST POP GAS STATICCALL ISZERO DUP1 ISZERO PUSH2 0x107B JUMPI RETURNDATASIZE PUSH1 0x0 DUP1 RETURNDATACOPY RETURNDATASIZE PUSH1 0x0 REVERT JUMPDEST POP POP POP POP PUSH1 0x40 MLOAD RETURNDATASIZE PUSH1 0x1F NOT PUSH1 0x1F DUP3 ADD AND DUP3 ADD DUP1 PUSH1 0x40 MSTORE POP DUP2 ADD SWAP1 PUSH2 0x109F SWAP2 SWAP1 PUSH2 0x1AA8 JUMP JUMPDEST SWAP1 POP DUP1 PUSH2 0x10E1 JUMPI PUSH1 0x40 MLOAD PUSH32 0x8C379A000000000000000000000000000000000000000000000000000000000 DUP2 MSTORE PUSH1 0x4 ADD PUSH2 0x10D8 SWAP1 PUSH2 0x212E JUMP JUMPDEST PUSH1 0x40 MLOAD DUP1 SWAP2 SUB SWAP1 REVERT JUMPDEST PUSH1 0x1 PUSH1 0x6 PUSH1 0x0 PUSH2 0x100 EXP DUP2 SLOAD DUP2 PUSH1 0xFF MUL NOT AND SWAP1 DUP4 ISZERO ISZERO MUL OR SWAP1 SSTORE POP POP POP JUMP JUMPDEST PUSH1 0x0 PUSH1 0x6 PUSH1 0x1 SWAP1 SLOAD SWAP1 PUSH2 0x100 EXP SWAP1 DIV PUSH1 0xFF AND PUSH2 0x1151 JUMPI PUSH1 0x40 MLOAD PUSH32 0x8C379A000000000000000000000000000000000000000000000000000000000 DUP2 MSTORE PUSH1 0x4 ADD PUSH2 0x1148 SWAP1 PUSH2 0x200E JUMP JUMPDEST PUSH1 0x40 MLOAD DUP1 SWAP2 SUB SWAP1 REVERT JUMPDEST PUSH1 0x6 PUSH1 0x0 SWAP1 SLOAD SWAP1 PUSH2 0x100 EXP SWAP1 DIV PUSH1 0xFF AND SWAP1 POP SWAP1 JUMP JUMPDEST PUSH1 0x3 PUSH1 0x0 SWAP1 SLOAD SWAP1 PUSH2 0x100 EXP SWAP1 DIV PUSH20 0xFFFFFFFFFFFFFFFFFFFFFFFFFFFFFFFFFFFFFFFF AND DUP2 JUMP JUMPDEST PUSH2 0x1194 PUSH2 0x12DB JUMP JUMPDEST PUSH2 0x119E PUSH1 0x0 PUSH2 0x1523 JUMP JUMPDEST JUMP JUMPDEST PUSH1 0x0 DUP1 PUSH1 0x0 SWAP1 SLOAD SWAP1 PUSH2 0x100 EXP SWAP1 DIV PUSH20 0xFFFFFFFFFFFFFFFFFFFFFFFFFFFFFFFFFFFFFFFF AND SWAP1 POP SWAP1 JUMP JUMPDEST PUSH1 0x0 PUSH1 0x4 DUP3 PUSH1 0x40 MLOAD PUSH2 0x11DB SWAP2 SWAP1 PUSH2 0x1E7D JUMP JUMPDEST SWAP1 DUP2 MSTORE PUSH1 0x20 ADD PUSH1 0x40 MLOAD DUP1 SWAP2 SUB SWAP1 KECCAK256 PUSH1 0x0 SWAP1 SLOAD SWAP1 PUSH2 0x100 EXP SWAP1 DIV PUSH1 0xFF AND SWAP1 POP SWAP2 SWAP1 POP JUMP JUMPDEST PUSH1 0x0 PUSH1 0x6 PUSH1 0x1 SWAP1 SLOAD SWAP1 PUSH2 0x100 EXP SWAP1 DIV PUSH1 0xFF AND PUSH2 0x124F JUMPI PUSH1 0x40 MLOAD PUSH32 0x8C379A000000000000000000000000000000000000000000000000000000000 DUP2 MSTORE PUSH1 0x4 ADD PUSH2 0x1246 SWAP1 PUSH2 0x200E JUMP JUMPDEST PUSH1 0x40 MLOAD DUP1 SWAP2 SUB SWAP1 REVERT JUMPDEST PUSH1 0x5 SLOAD SWAP1 POP SWAP1 JUMP JUMPDEST PUSH2 0x125F PUSH2 0x12DB JUMP JUMPDEST PUSH1 0x0 PUSH20 0xFFFFFFFFFFFFFFFFFFFFFFFFFFFFFFFFFFFFFFFF AND DUP2 PUSH20 0xFFFFFFFFFFFFFFFFFFFFFFFFFFFFFFFFFFFFFFFF AND EQ ISZERO PUSH2 0x12CF JUMPI PUSH1 0x40 MLOAD PUSH32 0x8C379A000000000000000000000000000000000000000000000000000000000 DUP2 MSTORE PUSH1 0x4 ADD PUSH2 0x12C6 SWAP1 PUSH2 0x1FCE JUMP JUMPDEST PUSH1 0x40 MLOAD DUP1 SWAP2 SUB SWAP1 REVERT JUMPDEST PUSH2 0x12D8 DUP2 PUSH2 0x1523 JUMP JUMPDEST POP JUMP JUMPDEST PUSH2 0x12E3 PUSH2 0x15E7 JUMP JUMPDEST PUSH20 0xFFFFFFFFFFFFFFFFFFFFFFFFFFFFFFFFFFFFFFFF AND PUSH2 0x1301 PUSH2 0x11A0 JUMP JUMPDEST PUSH20 0xFFFFFFFFFFFFFFFFFFFFFFFFFFFFFFFFFFFFFFFF AND EQ PUSH2 0x1357 JUMPI PUSH1 0x40 MLOAD PUSH32 0x8C379A000000000000000000000000000000000000000000000000000000000 DUP2 MSTORE PUSH1 0x4 ADD PUSH2 0x134E SWAP1 PUSH2 0x20AE JUMP JUMPDEST PUSH1 0x40 MLOAD DUP1 SWAP2 SUB SWAP1 REVERT JUMPDEST JUMP JUMPDEST PUSH1 0x0 DUP1 PUSH1 0x0 SWAP1 POP JUMPDEST PUSH1 0x1 DUP1 SLOAD SWAP1 POP DUP2 LT ISZERO PUSH2 0x1440 JUMPI PUSH2 0x141E PUSH1 0x1 DUP3 DUP2 SLOAD DUP2 LT PUSH2 0x1385 JUMPI PUSH2 0x1384 PUSH2 0x2493 JUMP JUMPDEST JUMPDEST SWAP1 PUSH1 0x0 MSTORE PUSH1 0x20 PUSH1 0x0 KECCAK256 ADD DUP1 SLOAD PUSH2 0x139A SWAP1 PUSH2 0x232B JUMP JUMPDEST DUP1 PUSH1 0x1F ADD PUSH1 0x20 DUP1 SWAP2 DIV MUL PUSH1 0x20 ADD PUSH1 0x40 MLOAD SWAP1 DUP2 ADD PUSH1 0x40 MSTORE DUP1 SWAP3 SWAP2 SWAP1 DUP2 DUP2 MSTORE PUSH1 0x20 ADD DUP3 DUP1 SLOAD PUSH2 0x13C6 SWAP1 PUSH2 0x232B JUMP JUMPDEST DUP1 ISZERO PUSH2 0x1413 JUMPI DUP1 PUSH1 0x1F LT PUSH2 0x13E8 JUMPI PUSH2 0x100 DUP1 DUP4 SLOAD DIV MUL DUP4 MSTORE SWAP2 PUSH1 0x20 ADD SWAP2 PUSH2 0x1413 JUMP JUMPDEST DUP3 ADD SWAP2 SWAP1 PUSH1 0x0 MSTORE PUSH1 0x20 PUSH1 0x0 KECCAK256 SWAP1 JUMPDEST DUP2 SLOAD DUP2 MSTORE SWAP1 PUSH1 0x1 ADD SWAP1 PUSH1 0x20 ADD DUP1 DUP4 GT PUSH2 0x13F6 JUMPI DUP3 SWAP1 SUB PUSH1 0x1F AND DUP3 ADD SWAP2 JUMPDEST POP POP POP POP POP DUP5 PUSH2 0x15EF JUMP JUMPDEST ISZERO PUSH2 0x142D JUMPI PUSH1 0x1 SWAP2 POP POP PUSH2 0x1446 JUMP JUMPDEST DUP1 DUP1 PUSH2 0x1438 SWAP1 PUSH2 0x238E JUMP JUMPDEST SWAP2 POP POP PUSH2 0x1361 JUMP JUMPDEST POP PUSH1 0x0 SWAP1 POP JUMPDEST SWAP2 SWAP1 POP JUMP JUMPDEST PUSH1 0x60 PUSH1 0x0 PUSH1 0x1 PUSH2 0x145A DUP5 PUSH2 0x160A JUMP JUMPDEST ADD SWAP1 POP PUSH1 0x0 DUP2 PUSH8 0xFFFFFFFFFFFFFFFF DUP2 GT ISZERO PUSH2 0x1479 JUMPI PUSH2 0x1478 PUSH2 0x24C2 JUMP JUMPDEST JUMPDEST PUSH1 0x40 MLOAD SWAP1 DUP1 DUP3 MSTORE DUP1 PUSH1 0x1F ADD PUSH1 0x1F NOT AND PUSH1 0x20 ADD DUP3 ADD PUSH1 0x40 MSTORE DUP1 ISZERO PUSH2 0x14AB JUMPI DUP2 PUSH1 0x20 ADD PUSH1 0x1 DUP3 MUL DUP1 CALLDATASIZE DUP4 CALLDATACOPY DUP1 DUP3 ADD SWAP2 POP POP SWAP1 POP JUMPDEST POP SWAP1 POP PUSH1 0x0 DUP3 PUSH1 0x20 ADD DUP3 ADD SWAP1 POP JUMPDEST PUSH1 0x1 ISZERO PUSH2 0x1518 JUMPI DUP1 DUP1 PUSH1 0x1 SWAP1 SUB SWAP2 POP POP PUSH32 0x3031323334353637383961626364656600000000000000000000000000000000 PUSH1 0xA DUP7 MOD BYTE DUP2 MSTORE8 PUSH1 0xA DUP6 DUP2 PUSH2 0x1502 JUMPI PUSH2 0x1501 PUSH2 0x2406 JUMP JUMPDEST JUMPDEST DIV SWAP5 POP PUSH1 0x0 DUP6 EQ ISZERO PUSH2 0x1513 JUMPI PUSH2 0x1518 JUMP JUMPDEST PUSH2 0x14B9 JUMP JUMPDEST DUP2 SWAP4 POP POP POP POP SWAP2 SWAP1 POP JUMP JUMPDEST PUSH1 0x0 DUP1 PUSH1 0x0 SWAP1 SLOAD SWAP1 PUSH2 0x100 EXP SWAP1 DIV PUSH20 0xFFFFFFFFFFFFFFFFFFFFFFFFFFFFFFFFFFFFFFFF AND SWAP1 POP DUP2 PUSH1 0x0 DUP1 PUSH2 0x100 EXP DUP2 SLOAD DUP2 PUSH20 0xFFFFFFFFFFFFFFFFFFFFFFFFFFFFFFFFFFFFFFFF MUL NOT AND SWAP1 DUP4 PUSH20 0xFFFFFFFFFFFFFFFFFFFFFFFFFFFFFFFFFFFFFFFF AND MUL OR SWAP1 SSTORE POP DUP2 PUSH20 0xFFFFFFFFFFFFFFFFFFFFFFFFFFFFFFFFFFFFFFFF AND DUP2 PUSH20 0xFFFFFFFFFFFFFFFFFFFFFFFFFFFFFFFFFFFFFFFF AND PUSH32 0x8BE0079C531659141344CD1FD0A4F28419497F9722A3DAAFE3B4186F6B6457E0 PUSH1 0x40 MLOAD PUSH1 0x40 MLOAD DUP1 SWAP2 SUB SWAP1 LOG3 POP POP JUMP JUMPDEST PUSH1 0x0 CALLER SWAP1 POP SWAP1 JUMP JUMPDEST PUSH1 0x0 DUP2 DUP1 MLOAD SWAP1 PUSH1 0x20 ADD KECCAK256 DUP4 DUP1 MLOAD SWAP1 PUSH1 0x20 ADD KECCAK256 EQ SWAP1 POP SWAP3 SWAP2 POP POP JUMP JUMPDEST PUSH1 0x0 DUP1 PUSH1 0x0 SWAP1 POP PUSH27 0x184F03E93FF9F4DAA797ED6E38ED64BF6A1F010000000000000000 DUP4 LT PUSH2 0x1668 JUMPI PUSH27 0x184F03E93FF9F4DAA797ED6E38ED64BF6A1F010000000000000000 DUP4 DUP2 PUSH2 0x165E JUMPI PUSH2 0x165D PUSH2 0x2406 JUMP JUMPDEST JUMPDEST DIV SWAP3 POP PUSH1 0x40 DUP2 ADD SWAP1 POP JUMPDEST PUSH14 0x4EE2D6D415B85ACEF8100000000 DUP4 LT PUSH2 0x16A5 JUMPI PUSH14 0x4EE2D6D415B85ACEF8100000000 DUP4 DUP2 PUSH2 0x169B JUMPI PUSH2 0x169A PUSH2 0x2406 JUMP JUMPDEST JUMPDEST DIV SWAP3 POP PUSH1 0x20 DUP2 ADD SWAP1 POP JUMPDEST PUSH7 0x2386F26FC10000 DUP4 LT PUSH2 0x16D4 JUMPI PUSH7 0x2386F26FC10000 DUP4 DUP2 PUSH2 0x16CA JUMPI PUSH2 0x16C9 PUSH2 0x2406 JUMP JUMPDEST JUMPDEST DIV SWAP3 POP PUSH1 0x10 DUP2 ADD SWAP1 POP JUMPDEST PUSH4 0x5F5E100 DUP4 LT PUSH2 0x16FD JUMPI PUSH4 0x5F5E100 DUP4 DUP2 PUSH2 0x16F3 JUMPI PUSH2 0x16F2 PUSH2 0x2406 JUMP JUMPDEST JUMPDEST DIV SWAP3 POP PUSH1 0x8 DUP2 ADD SWAP1 POP JUMPDEST PUSH2 0x2710 DUP4 LT PUSH2 0x1722 JUMPI PUSH2 0x2710 DUP4 DUP2 PUSH2 0x1718 JUMPI PUSH2 0x1717 PUSH2 0x2406 JUMP JUMPDEST JUMPDEST DIV SWAP3 POP PUSH1 0x4 DUP2 ADD SWAP1 POP JUMPDEST PUSH1 0x64 DUP4 LT PUSH2 0x1745 JUMPI PUSH1 0x64 DUP4 DUP2 PUSH2 0x173B JUMPI PUSH2 0x173A PUSH2 0x2406 JUMP JUMPDEST JUMPDEST DIV SWAP3 POP PUSH1 0x2 DUP2 ADD SWAP1 POP JUMPDEST PUSH1 0xA DUP4 LT PUSH2 0x1754 JUMPI PUSH1 0x1 DUP2 ADD SWAP1 POP JUMPDEST DUP1 SWAP2 POP POP SWAP2 SWAP1 POP JUMP JUMPDEST PUSH1 0x0 PUSH2 0x1770 PUSH2 0x176B DUP5 PUSH2 0x21B7 JUMP JUMPDEST PUSH2 0x2192 JUMP JUMPDEST SWAP1 POP DUP1 DUP4 DUP3 MSTORE PUSH1 0x20 DUP3 ADD SWAP1 POP DUP3 DUP6 PUSH1 0x20 DUP7 MUL DUP3 ADD GT ISZERO PUSH2 0x1793 JUMPI PUSH2 0x1792 PUSH2 0x24F6 JUMP JUMPDEST JUMPDEST PUSH1 0x0 JUMPDEST DUP6 DUP2 LT ISZERO PUSH2 0x17C3 JUMPI DUP2 PUSH2 0x17A9 DUP9 DUP3 PUSH2 0x1965 JUMP JUMPDEST DUP5 MSTORE PUSH1 0x20 DUP5 ADD SWAP4 POP PUSH1 0x20 DUP4 ADD SWAP3 POP POP PUSH1 0x1 DUP2 ADD SWAP1 POP PUSH2 0x1796 JUMP JUMPDEST POP POP POP SWAP4 SWAP3 POP POP POP JUMP JUMPDEST PUSH1 0x0 PUSH2 0x17E0 PUSH2 0x17DB DUP5 PUSH2 0x21E3 JUMP JUMPDEST PUSH2 0x2192 JUMP JUMPDEST SWAP1 POP DUP1 DUP4 DUP3 MSTORE PUSH1 0x20 DUP3 ADD SWAP1 POP DUP3 DUP6 PUSH1 0x20 DUP7 MUL DUP3 ADD GT ISZERO PUSH2 0x1803 JUMPI PUSH2 0x1802 PUSH2 0x24F6 JUMP JUMPDEST JUMPDEST PUSH1 0x0 JUMPDEST DUP6 DUP2 LT ISZERO PUSH2 0x1851 JUMPI DUP2 MLOAD PUSH8 0xFFFFFFFFFFFFFFFF DUP2 GT ISZERO PUSH2 0x1829 JUMPI PUSH2 0x1828 PUSH2 0x24F1 JUMP JUMPDEST JUMPDEST DUP1 DUP7 ADD PUSH2 0x1836 DUP10 DUP3 PUSH2 0x19A8 JUMP JUMPDEST DUP6 MSTORE PUSH1 0x20 DUP6 ADD SWAP5 POP PUSH1 0x20 DUP5 ADD SWAP4 POP POP POP PUSH1 0x1 DUP2 ADD SWAP1 POP PUSH2 0x1806 JUMP JUMPDEST POP POP POP SWAP4 SWAP3 POP POP POP JUMP JUMPDEST PUSH1 0x0 PUSH2 0x186E PUSH2 0x1869 DUP5 PUSH2 0x220F JUMP JUMPDEST PUSH2 0x2192 JUMP JUMPDEST SWAP1 POP DUP3 DUP2 MSTORE PUSH1 0x20 DUP2 ADD DUP5 DUP5 DUP5 ADD GT ISZERO PUSH2 0x188A JUMPI PUSH2 0x1889 PUSH2 0x24FB JUMP JUMPDEST JUMPDEST PUSH2 0x1895 DUP5 DUP3 DUP6 PUSH2 0x22E9 JUMP JUMPDEST POP SWAP4 SWAP3 POP POP POP JUMP JUMPDEST PUSH1 0x0 PUSH2 0x18B0 PUSH2 0x18AB DUP5 PUSH2 0x220F JUMP JUMPDEST PUSH2 0x2192 JUMP JUMPDEST SWAP1 POP DUP3 DUP2 MSTORE PUSH1 0x20 DUP2 ADD DUP5 DUP5 DUP5 ADD GT ISZERO PUSH2 0x18CC JUMPI PUSH2 0x18CB PUSH2 0x24FB JUMP JUMPDEST JUMPDEST PUSH2 0x18D7 DUP5 DUP3 DUP6 PUSH2 0x22F8 JUMP JUMPDEST POP SWAP4 SWAP3 POP POP POP JUMP JUMPDEST PUSH1 0x0 DUP2 CALLDATALOAD SWAP1 POP PUSH2 0x18EE DUP2 PUSH2 0x27E2 JUMP JUMPDEST SWAP3 SWAP2 POP POP JUMP JUMPDEST PUSH1 0x0 DUP3 PUSH1 0x1F DUP4 ADD SLT PUSH2 0x1909 JUMPI PUSH2 0x1908 PUSH2 0x24F1 JUMP JUMPDEST JUMPDEST DUP2 MLOAD PUSH2 0x1919 DUP5 DUP3 PUSH1 0x20 DUP7 ADD PUSH2 0x175D JUMP JUMPDEST SWAP2 POP POP SWAP3 SWAP2 POP POP JUMP JUMPDEST PUSH1 0x0 DUP3 PUSH1 0x1F DUP4 ADD SLT PUSH2 0x1937 JUMPI PUSH2 0x1936 PUSH2 0x24F1 JUMP JUMPDEST JUMPDEST DUP2 MLOAD PUSH2 0x1947 DUP5 DUP3 PUSH1 0x20 DUP7 ADD PUSH2 0x17CD JUMP JUMPDEST SWAP2 POP POP SWAP3 SWAP2 POP POP JUMP JUMPDEST PUSH1 0x0 DUP2 MLOAD SWAP1 POP PUSH2 0x195F DUP2 PUSH2 0x27F9 JUMP JUMPDEST SWAP3 SWAP2 POP POP JUMP JUMPDEST PUSH1 0x0 DUP2 MLOAD SWAP1 POP PUSH2 0x1974 DUP2 PUSH2 0x2810 JUMP JUMPDEST SWAP3 SWAP2 POP POP JUMP JUMPDEST PUSH1 0x0 DUP3 PUSH1 0x1F DUP4 ADD SLT PUSH2 0x198F JUMPI PUSH2 0x198E PUSH2 0x24F1 JUMP JUMPDEST JUMPDEST DUP2 CALLDATALOAD PUSH2 0x199F DUP5 DUP3 PUSH1 0x20 DUP7 ADD PUSH2 0x185B JUMP JUMPDEST SWAP2 POP POP SWAP3 SWAP2 POP POP JUMP JUMPDEST PUSH1 0x0 DUP3 PUSH1 0x1F DUP4 ADD SLT PUSH2 0x19BD JUMPI PUSH2 0x19BC PUSH2 0x24F1 JUMP JUMPDEST JUMPDEST DUP2 MLOAD PUSH2 0x19CD DUP5 DUP3 PUSH1 0x20 DUP7 ADD PUSH2 0x189D JUMP JUMPDEST SWAP2 POP POP SWAP3 SWAP2 POP POP JUMP JUMPDEST PUSH1 0x0 PUSH1 0x20 DUP3 DUP5 SUB SLT ISZERO PUSH2 0x19EC JUMPI PUSH2 0x19EB PUSH2 0x2505 JUMP JUMPDEST JUMPDEST PUSH1 0x0 PUSH2 0x19FA DUP5 DUP3 DUP6 ADD PUSH2 0x18DF JUMP JUMPDEST SWAP2 POP POP SWAP3 SWAP2 POP POP JUMP JUMPDEST PUSH1 0x0 DUP1 PUSH1 0x40 DUP4 DUP6 SUB SLT ISZERO PUSH2 0x1A1A JUMPI PUSH2 0x1A19 PUSH2 0x2505 JUMP JUMPDEST JUMPDEST PUSH1 0x0 DUP4 ADD MLOAD PUSH8 0xFFFFFFFFFFFFFFFF DUP2 GT ISZERO PUSH2 0x1A38 JUMPI PUSH2 0x1A37 PUSH2 0x2500 JUMP JUMPDEST JUMPDEST PUSH2 0x1A44 DUP6 DUP3 DUP7 ADD PUSH2 0x18F4 JUMP JUMPDEST SWAP3 POP POP PUSH1 0x20 PUSH2 0x1A55 DUP6 DUP3 DUP7 ADD PUSH2 0x1950 JUMP JUMPDEST SWAP2 POP POP SWAP3 POP SWAP3 SWAP1 POP JUMP JUMPDEST PUSH1 0x0 PUSH1 0x20 DUP3 DUP5 SUB SLT ISZERO PUSH2 0x1A75 JUMPI PUSH2 0x1A74 PUSH2 0x2505 JUMP JUMPDEST JUMPDEST PUSH1 0x0 DUP3 ADD MLOAD PUSH8 0xFFFFFFFFFFFFFFFF DUP2 GT ISZERO PUSH2 0x1A93 JUMPI PUSH2 0x1A92 PUSH2 0x2500 JUMP JUMPDEST JUMPDEST PUSH2 0x1A9F DUP5 DUP3 DUP6 ADD PUSH2 0x1922 JUMP JUMPDEST SWAP2 POP POP SWAP3 SWAP2 POP POP JUMP JUMPDEST PUSH1 0x0 PUSH1 0x20 DUP3 DUP5 SUB SLT ISZERO PUSH2 0x1ABE JUMPI PUSH2 0x1ABD PUSH2 0x2505 JUMP JUMPDEST JUMPDEST PUSH1 0x0 PUSH2 0x1ACC DUP5 DUP3 DUP6 ADD PUSH2 0x1950 JUMP JUMPDEST SWAP2 POP POP SWAP3 SWAP2 POP POP JUMP JUMPDEST PUSH1 0x0 PUSH1 0x20 DUP3 DUP5 SUB SLT ISZERO PUSH2 0x1AEB JUMPI PUSH2 0x1AEA PUSH2 0x2505 JUMP JUMPDEST JUMPDEST PUSH1 0x0 PUSH2 0x1AF9 DUP5 DUP3 DUP6 ADD PUSH2 0x1965 JUMP JUMPDEST SWAP2 POP POP SWAP3 SWAP2 POP POP JUMP JUMPDEST PUSH1 0x0 PUSH1 0x20 DUP3 DUP5 SUB SLT ISZERO PUSH2 0x1B18 JUMPI PUSH2 0x1B17 PUSH2 0x2505 JUMP JUMPDEST JUMPDEST PUSH1 0x0 DUP3 ADD CALLDATALOAD PUSH8 0xFFFFFFFFFFFFFFFF DUP2 GT ISZERO PUSH2 0x1B36 JUMPI PUSH2 0x1B35 PUSH2 0x2500 JUMP JUMPDEST JUMPDEST PUSH2 0x1B42 DUP5 DUP3 DUP6 ADD PUSH2 0x197A JUMP JUMPDEST SWAP2 POP POP SWAP3 SWAP2 POP POP JUMP JUMPDEST PUSH2 0x1B54 DUP2 PUSH2 0x227C JUMP JUMPDEST DUP3 MSTORE POP POP JUMP JUMPDEST PUSH2 0x1B63 DUP2 PUSH2 0x228E JUMP JUMPDEST DUP3 MSTORE POP POP JUMP JUMPDEST PUSH2 0x1B72 DUP2 PUSH2 0x22D7 JUMP JUMPDEST DUP3 MSTORE POP POP JUMP JUMPDEST PUSH1 0x0 PUSH2 0x1B83 DUP3 PUSH2 0x2255 JUMP JUMPDEST PUSH2 0x1B8D DUP2 DUP6 PUSH2 0x2260 JUMP JUMPDEST SWAP4 POP PUSH2 0x1B9D DUP2 DUP6 PUSH1 0x20 DUP7 ADD PUSH2 0x22F8 JUMP JUMPDEST PUSH2 0x1BA6 DUP2 PUSH2 0x250A JUMP JUMPDEST DUP5 ADD SWAP2 POP POP SWAP3 SWAP2 POP POP JUMP JUMPDEST PUSH1 0x0 PUSH2 0x1BBC DUP3 PUSH2 0x2255 JUMP JUMPDEST PUSH2 0x1BC6 DUP2 DUP6 PUSH2 0x2271 JUMP JUMPDEST SWAP4 POP PUSH2 0x1BD6 DUP2 DUP6 PUSH1 0x20 DUP7 ADD PUSH2 0x22F8 JUMP JUMPDEST DUP1 DUP5 ADD SWAP2 POP POP SWAP3 SWAP2 POP POP JUMP JUMPDEST PUSH1 0x0 DUP2 SLOAD PUSH2 0x1BEF DUP2 PUSH2 0x232B JUMP JUMPDEST PUSH2 0x1BF9 DUP2 DUP7 PUSH2 0x2271 JUMP JUMPDEST SWAP5 POP PUSH1 0x1 DUP3 AND PUSH1 0x0 DUP2 EQ PUSH2 0x1C14 JUMPI PUSH1 0x1 DUP2 EQ PUSH2 0x1C25 JUMPI PUSH2 0x1C58 JUMP JUMPDEST PUSH1 0xFF NOT DUP4 AND DUP7 MSTORE DUP2 DUP7 ADD SWAP4 POP PUSH2 0x1C58 JUMP JUMPDEST PUSH2 0x1C2E DUP6 PUSH2 0x2240 JUMP JUMPDEST PUSH1 0x0 JUMPDEST DUP4 DUP2 LT ISZERO PUSH2 0x1C50 JUMPI DUP2 SLOAD DUP2 DUP10 ADD MSTORE PUSH1 0x1 DUP3 ADD SWAP2 POP PUSH1 0x20 DUP2 ADD SWAP1 POP PUSH2 0x1C31 JUMP JUMPDEST DUP4 DUP9 ADD SWAP6 POP POP POP JUMPDEST POP POP POP SWAP3 SWAP2 POP POP JUMP JUMPDEST PUSH1 0x0 PUSH2 0x1C6E PUSH1 0xA DUP4 PUSH2 0x2271 JUMP JUMPDEST SWAP2 POP PUSH2 0x1C79 DUP3 PUSH2 0x251B JUMP JUMPDEST PUSH1 0xA DUP3 ADD SWAP1 POP SWAP2 SWAP1 POP JUMP JUMPDEST PUSH1 0x0 PUSH2 0x1C91 PUSH1 0x26 DUP4 PUSH2 0x2260 JUMP JUMPDEST SWAP2 POP PUSH2 0x1C9C DUP3 PUSH2 0x2544 JUMP JUMPDEST PUSH1 0x40 DUP3 ADD SWAP1 POP SWAP2 SWAP1 POP JUMP JUMPDEST PUSH1 0x0 PUSH2 0x1CB4 PUSH1 0x2D DUP4 PUSH2 0x2260 JUMP JUMPDEST SWAP2 POP PUSH2 0x1CBF DUP3 PUSH2 0x2593 JUMP JUMPDEST PUSH1 0x40 DUP3 ADD SWAP1 POP SWAP2 SWAP1 POP JUMP JUMPDEST PUSH1 0x0 PUSH2 0x1CD7 PUSH1 0x13 DUP4 PUSH2 0x2260 JUMP JUMPDEST SWAP2 POP PUSH2 0x1CE2 DUP3 PUSH2 0x25E2 JUMP JUMPDEST PUSH1 0x20 DUP3 ADD SWAP1 POP SWAP2 SWAP1 POP JUMP JUMPDEST PUSH1 0x0 PUSH2 0x1CFA PUSH1 0xF DUP4 PUSH2 0x2260 JUMP JUMPDEST SWAP2 POP PUSH2 0x1D05 DUP3 PUSH2 0x260B JUMP JUMPDEST PUSH1 0x20 DUP3 ADD SWAP1 POP SWAP2 SWAP1 POP JUMP JUMPDEST PUSH1 0x0 PUSH2 0x1D1D PUSH1 0xD DUP4 PUSH2 0x2271 JUMP JUMPDEST SWAP2 POP PUSH2 0x1D28 DUP3 PUSH2 0x2634 JUMP JUMPDEST PUSH1 0xD DUP3 ADD SWAP1 POP SWAP2 SWAP1 POP JUMP JUMPDEST PUSH1 0x0 PUSH2 0x1D40 PUSH1 0x1E DUP4 PUSH2 0x2260 JUMP JUMPDEST SWAP2 POP PUSH2 0x1D4B DUP3 PUSH2 0x265D JUMP JUMPDEST PUSH1 0x20 DUP3 ADD SWAP1 POP SWAP2 SWAP1 POP JUMP JUMPDEST PUSH1 0x0 PUSH2 0x1D63 PUSH1 0x1E DUP4 PUSH2 0x2260 JUMP JUMPDEST SWAP2 POP PUSH2 0x1D6E DUP3 PUSH2 0x2686 JUMP JUMPDEST PUSH1 0x20 DUP3 ADD SWAP1 POP SWAP2 SWAP1 POP JUMP JUMPDEST PUSH1 0x0 PUSH2 0x1D86 PUSH1 0x19 DUP4 PUSH2 0x2260 JUMP JUMPDEST SWAP2 POP PUSH2 0x1D91 DUP3 PUSH2 0x26AF JUMP JUMPDEST PUSH1 0x20 DUP3 ADD SWAP1 POP SWAP2 SWAP1 POP JUMP JUMPDEST PUSH1 0x0 PUSH2 0x1DA9 PUSH1 0x20 DUP4 PUSH2 0x2260 JUMP JUMPDEST SWAP2 POP PUSH2 0x1DB4 DUP3 PUSH2 0x26D8 JUMP JUMPDEST PUSH1 0x20 DUP3 ADD SWAP1 POP SWAP2 SWAP1 POP JUMP JUMPDEST PUSH1 0x0 PUSH2 0x1DCC PUSH1 0x16 DUP4 PUSH2 0x2260 JUMP JUMPDEST SWAP2 POP PUSH2 0x1DD7 DUP3 PUSH2 0x2701 JUMP JUMPDEST PUSH1 0x20 DUP3 ADD SWAP1 POP SWAP2 SWAP1 POP JUMP JUMPDEST PUSH1 0x0 PUSH2 0x1DEF PUSH1 0x17 DUP4 PUSH2 0x2260 JUMP JUMPDEST SWAP2 POP PUSH2 0x1DFA DUP3 PUSH2 0x272A JUMP JUMPDEST PUSH1 0x20 DUP3 ADD SWAP1 POP SWAP2 SWAP1 POP JUMP JUMPDEST PUSH1 0x0 PUSH2 0x1E12 PUSH1 0x20 DUP4 PUSH2 0x2260 JUMP JUMPDEST SWAP2 POP PUSH2 0x1E1D DUP3 PUSH2 0x2753 JUMP JUMPDEST PUSH1 0x20 DUP3 ADD SWAP1 POP SWAP2 SWAP1 POP JUMP JUMPDEST PUSH1 0x0 PUSH2 0x1E35 PUSH1 0x4 DUP4 PUSH2 0x2271 JUMP JUMPDEST SWAP2 POP PUSH2 0x1E40 DUP3 PUSH2 0x277C JUMP JUMPDEST PUSH1 0x4 DUP3 ADD SWAP1 POP SWAP2 SWAP1 POP JUMP JUMPDEST PUSH1 0x0 PUSH2 0x1E58 PUSH1 0x15 DUP4 PUSH2 0x2260 JUMP JUMPDEST SWAP2 POP PUSH2 0x1E63 DUP3 PUSH2 0x27A5 JUMP JUMPDEST PUSH1 0x20 DUP3 ADD SWAP1 POP SWAP2 SWAP1 POP JUMP JUMPDEST PUSH2 0x1E77 DUP2 PUSH2 0x22CD JUMP JUMPDEST DUP3 MSTORE POP POP JUMP JUMPDEST PUSH1 0x0 PUSH2 0x1E89 DUP3 DUP5 PUSH2 0x1BB1 JUMP JUMPDEST SWAP2 POP DUP2 SWAP1 POP SWAP3 SWAP2 POP POP JUMP JUMPDEST PUSH1 0x0 PUSH2 0x1EA0 DUP3 DUP6 PUSH2 0x1BB1 JUMP JUMPDEST SWAP2 POP PUSH2 0x1EAC DUP3 DUP5 PUSH2 0x1BB1 JUMP JUMPDEST SWAP2 POP DUP2 SWAP1 POP SWAP4 SWAP3 POP POP POP JUMP JUMPDEST PUSH1 0x0 PUSH2 0x1EC4 DUP3 DUP5 PUSH2 0x1BB1 JUMP JUMPDEST SWAP2 POP PUSH2 0x1ECF DUP3 PUSH2 0x1E28 JUMP JUMPDEST SWAP2 POP DUP2 SWAP1 POP SWAP3 SWAP2 POP POP JUMP JUMPDEST PUSH1 0x0 PUSH2 0x1EE6 DUP3 DUP5 PUSH2 0x1BE2 JUMP JUMPDEST SWAP2 POP DUP2 SWAP1 POP SWAP3 SWAP2 POP POP JUMP JUMPDEST PUSH1 0x0 PUSH2 0x1EFC DUP3 PUSH2 0x1D10 JUMP JUMPDEST SWAP2 POP PUSH2 0x1F08 DUP3 DUP6 PUSH2 0x1BB1 JUMP JUMPDEST SWAP2 POP PUSH2 0x1F13 DUP3 PUSH2 0x1C61 JUMP JUMPDEST SWAP2 POP PUSH2 0x1F1F DUP3 DUP5 PUSH2 0x1BB1 JUMP JUMPDEST SWAP2 POP DUP2 SWAP1 POP SWAP4 SWAP3 POP POP POP JUMP JUMPDEST PUSH1 0x0 PUSH1 0x20 DUP3 ADD SWAP1 POP PUSH2 0x1F40 PUSH1 0x0 DUP4 ADD DUP5 PUSH2 0x1B4B JUMP JUMPDEST SWAP3 SWAP2 POP POP JUMP JUMPDEST PUSH1 0x0 PUSH1 0x40 DUP3 ADD SWAP1 POP PUSH2 0x1F5B PUSH1 0x0 DUP4 ADD DUP6 PUSH2 0x1B4B JUMP JUMPDEST DUP2 DUP2 SUB PUSH1 0x20 DUP4 ADD MSTORE PUSH2 0x1F6D DUP2 DUP5 PUSH2 0x1B78 JUMP JUMPDEST SWAP1 POP SWAP4 SWAP3 POP POP POP JUMP JUMPDEST PUSH1 0x0 PUSH1 0x20 DUP3 ADD SWAP1 POP PUSH2 0x1F8B PUSH1 0x0 DUP4 ADD DUP5 PUSH2 0x1B5A JUMP JUMPDEST SWAP3 SWAP2 POP POP JUMP JUMPDEST PUSH1 0x0 PUSH1 0x20 DUP3 ADD SWAP1 POP PUSH2 0x1FA6 PUSH1 0x0 DUP4 ADD DUP5 PUSH2 0x1B69 JUMP JUMPDEST SWAP3 SWAP2 POP POP JUMP JUMPDEST PUSH1 0x0 PUSH1 0x20 DUP3 ADD SWAP1 POP DUP2 DUP2 SUB PUSH1 0x0 DUP4 ADD MSTORE PUSH2 0x1FC6 DUP2 DUP5 PUSH2 0x1B78 JUMP JUMPDEST SWAP1 POP SWAP3 SWAP2 POP POP JUMP JUMPDEST PUSH1 0x0 PUSH1 0x20 DUP3 ADD SWAP1 POP DUP2 DUP2 SUB PUSH1 0x0 DUP4 ADD MSTORE PUSH2 0x1FE7 DUP2 PUSH2 0x1C84 JUMP JUMPDEST SWAP1 POP SWAP2 SWAP1 POP JUMP JUMPDEST PUSH1 0x0 PUSH1 0x20 DUP3 ADD SWAP1 POP DUP2 DUP2 SUB PUSH1 0x0 DUP4 ADD MSTORE PUSH2 0x2007 DUP2 PUSH2 0x1CA7 JUMP JUMPDEST SWAP1 POP SWAP2 SWAP1 POP JUMP JUMPDEST PUSH1 0x0 PUSH1 0x20 DUP3 ADD SWAP1 POP DUP2 DUP2 SUB PUSH1 0x0 DUP4 ADD MSTORE PUSH2 0x2027 DUP2 PUSH2 0x1CCA JUMP JUMPDEST SWAP1 POP SWAP2 SWAP1 POP JUMP JUMPDEST PUSH1 0x0 PUSH1 0x20 DUP3 ADD SWAP1 POP DUP2 DUP2 SUB PUSH1 0x0 DUP4 ADD MSTORE PUSH2 0x2047 DUP2 PUSH2 0x1CED JUMP JUMPDEST SWAP1 POP SWAP2 SWAP1 POP JUMP JUMPDEST PUSH1 0x0 PUSH1 0x20 DUP3 ADD SWAP1 POP DUP2 DUP2 SUB PUSH1 0x0 DUP4 ADD MSTORE PUSH2 0x2067 DUP2 PUSH2 0x1D33 JUMP JUMPDEST SWAP1 POP SWAP2 SWAP1 POP JUMP JUMPDEST PUSH1 0x0 PUSH1 0x20 DUP3 ADD SWAP1 POP DUP2 DUP2 SUB PUSH1 0x0 DUP4 ADD MSTORE PUSH2 0x2087 DUP2 PUSH2 0x1D56 JUMP JUMPDEST SWAP1 POP SWAP2 SWAP1 POP JUMP JUMPDEST PUSH1 0x0 PUSH1 0x20 DUP3 ADD SWAP1 POP DUP2 DUP2 SUB PUSH1 0x0 DUP4 ADD MSTORE PUSH2 0x20A7 DUP2 PUSH2 0x1D79 JUMP JUMPDEST SWAP1 POP SWAP2 SWAP1 POP JUMP JUMPDEST PUSH1 0x0 PUSH1 0x20 DUP3 ADD SWAP1 POP DUP2 DUP2 SUB PUSH1 0x0 DUP4 ADD MSTORE PUSH2 0x20C7 DUP2 PUSH2 0x1D9C JUMP JUMPDEST SWAP1 POP SWAP2 SWAP1 POP JUMP JUMPDEST PUSH1 0x0 PUSH1 0x20 DUP3 ADD SWAP1 POP DUP2 DUP2 SUB PUSH1 0x0 DUP4 ADD MSTORE PUSH2 0x20E7 DUP2 PUSH2 0x1DBF JUMP JUMPDEST SWAP1 POP SWAP2 SWAP1 POP JUMP JUMPDEST PUSH1 0x0 PUSH1 0x20 DUP3 ADD SWAP1 POP DUP2 DUP2 SUB PUSH1 0x0 DUP4 ADD MSTORE PUSH2 0x2107 DUP2 PUSH2 0x1DE2 JUMP JUMPDEST SWAP1 POP SWAP2 SWAP1 POP JUMP JUMPDEST PUSH1 0x0 PUSH1 0x20 DUP3 ADD SWAP1 POP DUP2 DUP2 SUB PUSH1 0x0 DUP4 ADD MSTORE PUSH2 0x2127 DUP2 PUSH2 0x1E05 JUMP JUMPDEST SWAP1 POP SWAP2 SWAP1 POP JUMP JUMPDEST PUSH1 0x0 PUSH1 0x20 DUP3 ADD SWAP1 POP DUP2 DUP2 SUB PUSH1 0x0 DUP4 ADD MSTORE PUSH2 0x2147 DUP2 PUSH2 0x1E4B JUMP JUMPDEST SWAP1 POP SWAP2 SWAP1 POP JUMP JUMPDEST PUSH1 0x0 PUSH1 0x20 DUP3 ADD SWAP1 POP PUSH2 0x2163 PUSH1 0x0 DUP4 ADD DUP5 PUSH2 0x1E6E JUMP JUMPDEST SWAP3 SWAP2 POP POP JUMP JUMPDEST PUSH1 0x0 PUSH1 0x40 DUP3 ADD SWAP1 POP PUSH2 0x217E PUSH1 0x0 DUP4 ADD DUP6 PUSH2 0x1E6E JUMP JUMPDEST PUSH2 0x218B PUSH1 0x20 DUP4 ADD DUP5 PUSH2 0x1B5A JUMP JUMPDEST SWAP4 SWAP3 POP POP POP JUMP JUMPDEST PUSH1 0x0 PUSH2 0x219C PUSH2 0x21AD JUMP JUMPDEST SWAP1 POP PUSH2 0x21A8 DUP3 DUP3 PUSH2 0x235D JUMP JUMPDEST SWAP2 SWAP1 POP JUMP JUMPDEST PUSH1 0x0 PUSH1 0x40 MLOAD SWAP1 POP SWAP1 JUMP JUMPDEST PUSH1 0x0 PUSH8 0xFFFFFFFFFFFFFFFF DUP3 GT ISZERO PUSH2 0x21D2 JUMPI PUSH2 0x21D1 PUSH2 0x24C2 JUMP JUMPDEST JUMPDEST PUSH1 0x20 DUP3 MUL SWAP1 POP PUSH1 0x20 DUP2 ADD SWAP1 POP SWAP2 SWAP1 POP JUMP JUMPDEST PUSH1 0x0 PUSH8 0xFFFFFFFFFFFFFFFF DUP3 GT ISZERO PUSH2 0x21FE JUMPI PUSH2 0x21FD PUSH2 0x24C2 JUMP JUMPDEST JUMPDEST PUSH1 0x20 DUP3 MUL SWAP1 POP PUSH1 0x20 DUP2 ADD SWAP1 POP SWAP2 SWAP1 POP JUMP JUMPDEST PUSH1 0x0 PUSH8 0xFFFFFFFFFFFFFFFF DUP3 GT ISZERO PUSH2 0x222A JUMPI PUSH2 0x2229 PUSH2 0x24C2 JUMP JUMPDEST JUMPDEST PUSH2 0x2233 DUP3 PUSH2 0x250A JUMP JUMPDEST SWAP1 POP PUSH1 0x20 DUP2 ADD SWAP1 POP SWAP2 SWAP1 POP JUMP JUMPDEST PUSH1 0x0 DUP2 SWAP1 POP DUP2 PUSH1 0x0 MSTORE PUSH1 0x20 PUSH1 0x0 KECCAK256 SWAP1 POP SWAP2 SWAP1 POP JUMP JUMPDEST PUSH1 0x0 DUP2 MLOAD SWAP1 POP SWAP2 SWAP1 POP JUMP JUMPDEST PUSH1 0x0 DUP3 DUP3 MSTORE PUSH1 0x20 DUP3 ADD SWAP1 POP SWAP3 SWAP2 POP POP JUMP JUMPDEST PUSH1 0x0 DUP2 SWAP1 POP SWAP3 SWAP2 POP POP JUMP JUMPDEST PUSH1 0x0 PUSH2 0x2287 DUP3 PUSH2 0x22AD JUMP JUMPDEST SWAP1 POP SWAP2 SWAP1 POP JUMP JUMPDEST PUSH1 0x0 DUP2 ISZERO ISZERO SWAP1 POP SWAP2 SWAP1 POP JUMP JUMPDEST PUSH1 0x0 DUP2 SWAP1 POP PUSH2 0x22A8 DUP3 PUSH2 0x27CE JUMP JUMPDEST SWAP2 SWAP1 POP JUMP JUMPDEST PUSH1 0x0 PUSH20 0xFFFFFFFFFFFFFFFFFFFFFFFFFFFFFFFFFFFFFFFF DUP3 AND SWAP1 POP SWAP2 SWAP1 POP JUMP JUMPDEST PUSH1 0x0 DUP2 SWAP1 POP SWAP2 SWAP1 POP JUMP JUMPDEST PUSH1 0x0 PUSH2 0x22E2 DUP3 PUSH2 0x229A JUMP JUMPDEST SWAP1 POP SWAP2 SWAP1 POP JUMP JUMPDEST DUP3 DUP2 DUP4 CALLDATACOPY PUSH1 0x0 DUP4 DUP4 ADD MSTORE POP POP POP JUMP JUMPDEST PUSH1 0x0 JUMPDEST DUP4 DUP2 LT ISZERO PUSH2 0x2316 JUMPI DUP1 DUP3 ADD MLOAD DUP2 DUP5 ADD MSTORE PUSH1 0x20 DUP2 ADD SWAP1 POP PUSH2 0x22FB JUMP JUMPDEST DUP4 DUP2 GT ISZERO PUSH2 0x2325 JUMPI PUSH1 0x0 DUP5 DUP5 ADD MSTORE JUMPDEST POP POP POP POP JUMP JUMPDEST PUSH1 0x0 PUSH1 0x2 DUP3 DIV SWAP1 POP PUSH1 0x1 DUP3 AND DUP1 PUSH2 0x2343 JUMPI PUSH1 0x7F DUP3 AND SWAP2 POP JUMPDEST PUSH1 0x20 DUP3 LT DUP2 EQ ISZERO PUSH2 0x2357 JUMPI PUSH2 0x2356 PUSH2 0x2464 JUMP JUMPDEST JUMPDEST POP SWAP2 SWAP1 POP JUMP JUMPDEST PUSH2 0x2366 DUP3 PUSH2 0x250A JUMP JUMPDEST DUP2 ADD DUP2 DUP2 LT PUSH8 0xFFFFFFFFFFFFFFFF DUP3 GT OR ISZERO PUSH2 0x2385 JUMPI PUSH2 0x2384 PUSH2 0x24C2 JUMP JUMPDEST JUMPDEST DUP1 PUSH1 0x40 MSTORE POP POP POP JUMP JUMPDEST PUSH1 0x0 PUSH2 0x2399 DUP3 PUSH2 0x22CD JUMP JUMPDEST SWAP2 POP PUSH32 0xFFFFFFFFFFFFFFFFFFFFFFFFFFFFFFFFFFFFFFFFFFFFFFFFFFFFFFFFFFFFFFFF DUP3 EQ ISZERO PUSH2 0x23CC JUMPI PUSH2 0x23CB PUSH2 0x23D7 JUMP JUMPDEST JUMPDEST PUSH1 0x1 DUP3 ADD SWAP1 POP SWAP2 SWAP1 POP JUMP JUMPDEST PUSH32 0x4E487B7100000000000000000000000000000000000000000000000000000000 PUSH1 0x0 MSTORE PUSH1 0x11 PUSH1 0x4 MSTORE PUSH1 0x24 PUSH1 0x0 REVERT JUMPDEST PUSH32 0x4E487B7100000000000000000000000000000000000000000000000000000000 PUSH1 0x0 MSTORE PUSH1 0x12 PUSH1 0x4 MSTORE PUSH1 0x24 PUSH1 0x0 REVERT JUMPDEST PUSH32 0x4E487B7100000000000000000000000000000000000000000000000000000000 PUSH1 0x0 MSTORE PUSH1 0x21 PUSH1 0x4 MSTORE PUSH1 0x24 PUSH1 0x0 REVERT JUMPDEST PUSH32 0x4E487B7100000000000000000000000000000000000000000000000000000000 PUSH1 0x0 MSTORE PUSH1 0x22 PUSH1 0x4 MSTORE PUSH1 0x24 PUSH1 0x0 REVERT JUMPDEST PUSH32 0x4E487B7100000000000000000000000000000000000000000000000000000000 PUSH1 0x0 MSTORE PUSH1 0x32 PUSH1 0x4 MSTORE PUSH1 0x24 PUSH1 0x0 REVERT JUMPDEST PUSH32 0x4E487B7100000000000000000000000000000000000000000000000000000000 PUSH1 0x0 MSTORE PUSH1 0x41 PUSH1 0x4 MSTORE PUSH1 0x24 PUSH1 0x0 REVERT JUMPDEST PUSH1 0x0 DUP1 REVERT JUMPDEST PUSH1 0x0 DUP1 REVERT JUMPDEST PUSH1 0x0 DUP1 REVERT JUMPDEST PUSH1 0x0 DUP1 REVERT JUMPDEST PUSH1 0x0 DUP1 REVERT JUMPDEST PUSH1 0x0 PUSH1 0x1F NOT PUSH1 0x1F DUP4 ADD AND SWAP1 POP SWAP2 SWAP1 POP JUMP JUMPDEST PUSH32 0x3F66696C656E616D653D00000000000000000000000000000000000000000000 PUSH1 0x0 DUP3 ADD MSTORE POP JUMP JUMPDEST PUSH32 0x4F776E61626C653A206E6577206F776E657220697320746865207A65726F2061 PUSH1 0x0 DUP3 ADD MSTORE PUSH32 0x6464726573730000000000000000000000000000000000000000000000000000 PUSH1 0x20 DUP3 ADD MSTORE POP JUMP JUMPDEST PUSH32 0x4772616475617465642076657273696F6E206F6620746865206861742063616E PUSH1 0x0 DUP3 ADD MSTORE PUSH32 0x6E6F742062652065646974656400000000000000000000000000000000000000 PUSH1 0x20 DUP3 ADD MSTORE POP JUMP JUMPDEST PUSH32 0x486174206E6F7420696E697469616C697A656400000000000000000000000000 PUSH1 0x0 DUP3 ADD MSTORE POP JUMP JUMPDEST PUSH32 0x4578616D206E6F74207061737365640000000000000000000000000000000000 PUSH1 0x0 DUP3 ADD MSTORE POP JUMP JUMPDEST PUSH32 0x697066732E696F2F696670732F00000000000000000000000000000000000000 PUSH1 0x0 DUP3 ADD MSTORE POP JUMP JUMPDEST PUSH32 0x50696E20616C72656164792070757420666F722074686973206578616D210000 PUSH1 0x0 DUP3 ADD MSTORE POP JUMP JUMPDEST PUSH32 0x4772616475617465642068617420616C7265616479206F627461696E65640000 PUSH1 0x0 DUP3 ADD MSTORE POP JUMP JUMPDEST PUSH32 0x4578616D2070617373656420776974686F7574206D6572697400000000000000 PUSH1 0x0 DUP3 ADD MSTORE POP JUMP JUMPDEST PUSH32 0x4F776E61626C653A2063616C6C6572206973206E6F7420746865206F776E6572 PUSH1 0x0 DUP3 ADD MSTORE POP JUMP JUMPDEST PUSH32 0x4578616D207061737365642077697468206D6572697400000000000000000000 PUSH1 0x0 DUP3 ADD MSTORE POP JUMP JUMPDEST PUSH32 0x48617420616C726561647920696E697469616C697A6564000000000000000000 PUSH1 0x0 DUP3 ADD MSTORE POP JUMP JUMPDEST PUSH32 0x50696E206E6F7420617661696C61626C6520666F722074686973206578616D21 PUSH1 0x0 DUP3 ADD MSTORE POP JUMP JUMPDEST PUSH32 0x2E676C6200000000000000000000000000000000000000000000000000000000 PUSH1 0x0 DUP3 ADD MSTORE POP JUMP JUMPDEST PUSH32 0x596F7520617265206E6F74206772616475617465640000000000000000000000 PUSH1 0x0 DUP3 ADD MSTORE POP JUMP JUMPDEST PUSH1 0x3 DUP2 LT PUSH2 0x27DF JUMPI PUSH2 0x27DE PUSH2 0x2435 JUMP JUMPDEST JUMPDEST POP JUMP JUMPDEST PUSH2 0x27EB DUP2 PUSH2 0x227C JUMP JUMPDEST DUP2 EQ PUSH2 0x27F6 JUMPI PUSH1 0x0 DUP1 REVERT JUMPDEST POP JUMP JUMPDEST PUSH2 0x2802 DUP2 PUSH2 0x228E JUMP JUMPDEST DUP2 EQ PUSH2 0x280D JUMPI PUSH1 0x0 DUP1 REVERT JUMPDEST POP JUMP JUMPDEST PUSH1 0x3 DUP2 LT PUSH2 0x281D JUMPI PUSH1 0x0 DUP1 REVERT JUMPDEST POP JUMP INVALID MLOAD PUSH14 0x66485946757A504C4E7672474A37 CALLDATASIZE PUSH25 0x55593779316653395A35777141784E43417A354A356A734135 ORIGIN ORIGIN COINBASE MLOAD PUSH14 0x56334531565567397455796D5275 PUSH16 0x5237436F756638567748747261734646 PUSH24 0x453234423244533735543246A2646970667358221220C6EA SAR 0xA6 0xBA 0xDA PUSH25 0xE0C7AF7F520DFBBB9AEDCCD306468C322EE173080455695941 PUSH5 0x736F6C6343 STOP ADDMOD SMOD STOP CALLER LOG2 PUSH5 0x6970667358 0x22 SLT KECCAK256 0xE5 DUP6 0xE9 EQ SWAP11 0xAA 0x2D 0xA9 SWAP15 0xA8 0xF8 PUSH9 0x605226E6C0B02167BA 0xC6 PUSH25 0x86E7B0AF7AE904DDBB64736F6C634300080700330000000000 "
		},
		"gasEstimates": {
			"creation": {
				"codeDepositCost": "5119600",
				"executionCost": "infinite",
				"totalCost": "infinite"
			},
			"external": {
				"approve(address,uint256)": "infinite",
				"balanceOf(address)": "2924",
				"getApproved(uint256)": "5300",
				"isApprovedForAll(address,address)": "infinite",
				"managerContract()": "2559",
				"mint(address)": "infinite",
				"name()": "infinite",
				"owner()": "2611",
				"ownerOf(uint256)": "3113",
				"renounceOwnership()": "30465",
				"safeTransferFrom(address,address,uint256)": "infinite",
				"safeTransferFrom(address,address,uint256,bytes)": "infinite",
				"safeTransferToStudent(address,address,uint256)": "infinite",
				"setApprovalForAll(address,bool)": "infinite",
				"supportsInterface(bytes4)": "797",
				"symbol()": "infinite",
				"tokenURI(uint256)": "infinite",
				"transferFrom(address,address,uint256)": "infinite",
				"transferOwnership(address)": "30857"
			},
			"internal": {
				"addressToInt(address)": "infinite",
				"intToAddress(uint256)": "28"
			}
		},
		"methodIdentifiers": {
			"approve(address,uint256)": "095ea7b3",
			"balanceOf(address)": "70a08231",
			"getApproved(uint256)": "081812fc",
			"isApprovedForAll(address,address)": "e985e9c5",
			"managerContract()": "2710ac80",
			"mint(address)": "6a627842",
			"name()": "06fdde03",
			"owner()": "8da5cb5b",
			"ownerOf(uint256)": "6352211e",
			"renounceOwnership()": "715018a6",
			"safeTransferFrom(address,address,uint256)": "42842e0e",
			"safeTransferFrom(address,address,uint256,bytes)": "b88d4fde",
			"safeTransferToStudent(address,address,uint256)": "2caff17e",
			"setApprovalForAll(address,bool)": "a22cb465",
			"supportsInterface(bytes4)": "01ffc9a7",
			"symbol()": "95d89b41",
			"tokenURI(uint256)": "c87b56dd",
			"transferFrom(address,address,uint256)": "23b872dd",
			"transferOwnership(address)": "f2fde38b"
		}
	},
	"abi": [
		{
			"inputs": [
				{
					"internalType": "address",
					"name": "managerAddress",
					"type": "address"
				}
			],
			"stateMutability": "nonpayable",
			"type": "constructor"
		},
		{
			"anonymous": false,
			"inputs": [
				{
					"indexed": true,
					"internalType": "address",
					"name": "owner",
					"type": "address"
				},
				{
					"indexed": true,
					"internalType": "address",
					"name": "approved",
					"type": "address"
				},
				{
					"indexed": true,
					"internalType": "uint256",
					"name": "tokenId",
					"type": "uint256"
				}
			],
			"name": "Approval",
			"type": "event"
		},
		{
			"anonymous": false,
			"inputs": [
				{
					"indexed": true,
					"internalType": "address",
					"name": "owner",
					"type": "address"
				},
				{
					"indexed": true,
					"internalType": "address",
					"name": "operator",
					"type": "address"
				},
				{
					"indexed": false,
					"internalType": "bool",
					"name": "approved",
					"type": "bool"
				}
			],
			"name": "ApprovalForAll",
			"type": "event"
		},
		{
			"anonymous": false,
			"inputs": [
				{
					"indexed": true,
					"internalType": "address",
					"name": "previousOwner",
					"type": "address"
				},
				{
					"indexed": true,
					"internalType": "address",
					"name": "newOwner",
					"type": "address"
				}
			],
			"name": "OwnershipTransferred",
			"type": "event"
		},
		{
			"anonymous": false,
			"inputs": [
				{
					"indexed": true,
					"internalType": "address",
					"name": "from",
					"type": "address"
				},
				{
					"indexed": true,
					"internalType": "address",
					"name": "to",
					"type": "address"
				},
				{
					"indexed": true,
					"internalType": "uint256",
					"name": "tokenId",
					"type": "uint256"
				}
			],
			"name": "Transfer",
			"type": "event"
		},
		{
			"inputs": [
				{
					"internalType": "address",
					"name": "to",
					"type": "address"
				},
				{
					"internalType": "uint256",
					"name": "tokenId",
					"type": "uint256"
				}
			],
			"name": "approve",
			"outputs": [],
			"stateMutability": "nonpayable",
			"type": "function"
		},
		{
			"inputs": [
				{
					"internalType": "address",
					"name": "owner",
					"type": "address"
				}
			],
			"name": "balanceOf",
			"outputs": [
				{
					"internalType": "uint256",
					"name": "",
					"type": "uint256"
				}
			],
			"stateMutability": "view",
			"type": "function"
		},
		{
			"inputs": [
				{
					"internalType": "uint256",
					"name": "tokenId",
					"type": "uint256"
				}
			],
			"name": "getApproved",
			"outputs": [
				{
					"internalType": "address",
					"name": "",
					"type": "address"
				}
			],
			"stateMutability": "view",
			"type": "function"
		},
		{
			"inputs": [
				{
					"internalType": "address",
					"name": "owner",
					"type": "address"
				},
				{
					"internalType": "address",
					"name": "operator",
					"type": "address"
				}
			],
			"name": "isApprovedForAll",
			"outputs": [
				{
					"internalType": "bool",
					"name": "",
					"type": "bool"
				}
			],
			"stateMutability": "view",
			"type": "function"
		},
		{
			"inputs": [],
			"name": "managerContract",
			"outputs": [
				{
					"internalType": "address",
					"name": "",
					"type": "address"
				}
			],
			"stateMutability": "view",
			"type": "function"
		},
		{
			"inputs": [
				{
					"internalType": "address",
					"name": "to",
					"type": "address"
				}
			],
			"name": "mint",
			"outputs": [
				{
					"internalType": "address",
					"name": "",
					"type": "address"
				}
			],
			"stateMutability": "nonpayable",
			"type": "function"
		},
		{
			"inputs": [],
			"name": "name",
			"outputs": [
				{
					"internalType": "string",
					"name": "",
					"type": "string"
				}
			],
			"stateMutability": "view",
			"type": "function"
		},
		{
			"inputs": [],
			"name": "owner",
			"outputs": [
				{
					"internalType": "address",
					"name": "",
					"type": "address"
				}
			],
			"stateMutability": "view",
			"type": "function"
		},
		{
			"inputs": [
				{
					"internalType": "uint256",
					"name": "tokenId",
					"type": "uint256"
				}
			],
			"name": "ownerOf",
			"outputs": [
				{
					"internalType": "address",
					"name": "",
					"type": "address"
				}
			],
			"stateMutability": "view",
			"type": "function"
		},
		{
			"inputs": [],
			"name": "renounceOwnership",
			"outputs": [],
			"stateMutability": "nonpayable",
			"type": "function"
		},
		{
			"inputs": [
				{
					"internalType": "address",
					"name": "from",
					"type": "address"
				},
				{
					"internalType": "address",
					"name": "to",
					"type": "address"
				},
				{
					"internalType": "uint256",
					"name": "tokenId",
					"type": "uint256"
				}
			],
			"name": "safeTransferFrom",
			"outputs": [],
			"stateMutability": "nonpayable",
			"type": "function"
		},
		{
			"inputs": [
				{
					"internalType": "address",
					"name": "from",
					"type": "address"
				},
				{
					"internalType": "address",
					"name": "to",
					"type": "address"
				},
				{
					"internalType": "uint256",
					"name": "tokenId",
					"type": "uint256"
				},
				{
					"internalType": "bytes",
					"name": "data",
					"type": "bytes"
				}
			],
			"name": "safeTransferFrom",
			"outputs": [],
			"stateMutability": "nonpayable",
			"type": "function"
		},
		{
			"inputs": [
				{
					"internalType": "address",
					"name": "from",
					"type": "address"
				},
				{
					"internalType": "address",
					"name": "to",
					"type": "address"
				},
				{
					"internalType": "uint256",
					"name": "tokenId",
					"type": "uint256"
				}
			],
			"name": "safeTransferToStudent",
			"outputs": [],
			"stateMutability": "nonpayable",
			"type": "function"
		},
		{
			"inputs": [
				{
					"internalType": "address",
					"name": "operator",
					"type": "address"
				},
				{
					"internalType": "bool",
					"name": "approved",
					"type": "bool"
				}
			],
			"name": "setApprovalForAll",
			"outputs": [],
			"stateMutability": "nonpayable",
			"type": "function"
		},
		{
			"inputs": [
				{
					"internalType": "bytes4",
					"name": "interfaceId",
					"type": "bytes4"
				}
			],
			"name": "supportsInterface",
			"outputs": [
				{
					"internalType": "bool",
					"name": "",
					"type": "bool"
				}
			],
			"stateMutability": "view",
			"type": "function"
		},
		{
			"inputs": [],
			"name": "symbol",
			"outputs": [
				{
					"internalType": "string",
					"name": "",
					"type": "string"
				}
			],
			"stateMutability": "view",
			"type": "function"
		},
		{
			"inputs": [
				{
					"internalType": "uint256",
					"name": "tokenId",
					"type": "uint256"
				}
			],
			"name": "tokenURI",
			"outputs": [
				{
					"internalType": "string",
					"name": "",
					"type": "string"
				}
			],
			"stateMutability": "view",
			"type": "function"
		},
		{
			"inputs": [
				{
					"internalType": "address",
					"name": "from",
					"type": "address"
				},
				{
					"internalType": "address",
					"name": "to",
					"type": "address"
				},
				{
					"internalType": "uint256",
					"name": "tokenId",
					"type": "uint256"
				}
			],
			"name": "transferFrom",
			"outputs": [],
			"stateMutability": "nonpayable",
			"type": "function"
		},
		{
			"inputs": [
				{
					"internalType": "address",
					"name": "newOwner",
					"type": "address"
				}
			],
			"name": "transferOwnership",
			"outputs": [],
			"stateMutability": "nonpayable",
			"type": "function"
		}
	]
}